:10000000F0C100000FC200000DC200000BC20000D2
:1000100009C2000007C2000005C2000003C20000C0
:1000200001C20000FFC10000FDC10000FBC10000D3
:10003000F9C10000F7C1000018C60000F3C10000BC
:10004000F1C10000EFC10000EDC10000EBC10000F4
:10005000E9C10000E7C10000E5C10000E3C1000004
:10006000E1C10000DFC10000DDC10000DBC1000014
:10007000D9C10000D7C10000D5C10000D3C1000024
:10008000D1C10000CFC10000CDC10000CBC1000034
:10009000C9C10000C7C10000C5C10000C3C1000044
:1000A000C1C10000BFC10000BDC10000BBC1000054
:1000B000B9C10000B7C10000B5C100008EC6000084
:1000C000B1C10000AFC10000ADC10000ABC1000074
:1000D000A9C10000A7C10000A5C10000A3C1000084
:1000E000A1C100009FC100009DC100009BC1000094
:1000F00099C1000097C1000095C1000093C10000A4
:1001000091C100008FC100008DC100008BC10000B3
:1001100089C1000087C1000085C1000083C10000C3
:1001200081C100007FC100007DC100007BC10000D3
:1001300079C10000DEC5000075C1000073C1000078
:1001400071C100006FC100006DC100006BC10000F3
:1001500069C1000067C1000065C1000063C1000003
:10016000A1C400005FC100005DC100005BC10000D0
:1001700059C1000057C1000055C1000053C1000023
:1001800051C100004FC100004DC100004BC1000033
:1001900049C1000047C1000045C1000043C1000043
:1001A00041C100003FC100003DC100003BC1000053
:1001B00025C6000037C1000035C1000033C1000072
:1001C00031C100002FC100002DC100002BC1000073
:1001D00029C1000027C1000025C10000BCC20000E9
:1001E00021C100001FC100001DC100001BC1000093
:1001F00019C1000017C1000015C100000C049C04C7
:10020000920436042C04F8040C040C040705DB0CDF
:10021000950C660C400C1E0C170CF40BEC0BC00B71
:10022000410D07634236B79BD8A71A39685618AEF6
:10023000BAAB558C1D3CB7CC5763BD6DEDFD753E1B
:10024000F6177231BF000000803F08000000BE9228
:100250002449123EABAAAA2ABECDCCCC4C3E00000B
:100260000080BEABAAAAAA3E00000000BF000000AA
:10027000803F0000000000084178D3BB4387D113C2
:100280003D190E3CC3BD4282AD2B3E68EC8276BE6A
:10029000D98FE1A93E4C80EFFFBE01C4FF7F3F0034
:1002A000000000006E616E00696E660000407A100A
:1002B000F35A00A0724E18090010A5D4E80000E817
:1002C0007648170000E40B54020000CA9A3B000075
:1002D00000E1F505000080969800000040420F0004
:1002E0000000A08601000000102700000000E803C5
:1002F000000000006400000000000A000000000090
:100300000100000000002C76D888DC674F0823DF4E
:10031000C1DFAE59E1B1B796E5E3E453C63AE65121
:10032000997696E8E6C28426EB898C9B62ED407C48
:100330006FFCEFBC9C9F40F2BAA56FA5F490055AE4
:100340002AF75C936B6CF9676DC11BFCE0E40D4709
:10035000FEF520E6B500D0ED902E0300943577052C
:100360000080841E080000204E0A000000C80C33E4
:100370003333330F986E12831141EF8D2114893B73
:10038000E65516CFFEE6DB18D1844B381BF77C1DF3
:10039000901DA4BBE424203284725E228100C9F146
:1003A00024ECA1E53D274E414E494E495459494E52
:1003B00046CDCCCC3D0AD7233C17B7D13877CC2BD0
:1003C000329595E6241FB14F0A000020410000C875
:1003D0004200401C4620BCBE4CCA1B0E5AAEC59DF6
:1003E000740011241FBECFEFCDBFDFE5DEBF00E0FC
:1003F0000CBF11E2A0E0B0E2EAE0F8E400E00BBFDD
:1004000002C007900D92AE31B107D9F72AE2AEE1F2
:10041000B1E201C01D92A13EB207E1F70E94E10ADC
:100420000C94032489C14F925F926F927F928F92B6
:100430009F92AF92BF92CF92DF92EF92FF920F9373
:100440001F93CF93DF9300D000D0CDB7DEB78D835D
:100450009E83809120028160809320028FE68093AA
:100460002102809120028068809320028091060200
:1004700080FFFCCF81E08093230260911002709195
:10048000110280E090E00E94321A20E030E040E863
:100490005DE30E940D1B2B013C0187E78093210245
:1004A000809120028068809320028091060280FF64
:1004B000FCCF81E0809323026091100270911102C1
:1004C00080E090E00E94321A20E030E040E85DE3F6
:1004D0000E940D1B4B015C018FE7809321028091EC
:1004E00020028068809320028091060280FFFCCF6A
:1004F00081E080932302609110027091110280E0EC
:1005000090E00E94321A20E030E040E85DE30E9473
:100510000D1B6B017C0188E38093210280912002F6
:100520008068809320028091060280FFFCCF81E0EA
:1005300080932302609110027091110280E090E09C
:100540000E94321A20E030E040E859E30E940D1B7F
:100550002DEC3CEC4CE45DE30E9430192DEC3CECBE
:1005600044E251E40E940D1B69837A838B839C8350
:100570008FE0809321028091200280688093200286
:100580008091060280FFFCCF81E08093230280915E
:1005900010029091110287E4809321028091200241
:1005A0008068809320028091060280FFFCCF81E06A
:1005B00080932302809110029091110210922002E8
:1005C00080E1809321028091200280688093200244
:1005D0008091060280FFFCCF81E08093230200918E
:1005E00010021091110220E030E048EC52E4C30107
:1005F000B2010E940D1B20E030E04FE753E40E945F
:100600009919ED81FE81608B718B828B938B20E039
:1006100030E048EC52E4C501B4010E940D1B20E01B
:1006200030E04FE753E40E949919ED81FE81648B1D
:10063000758B868B978B20E030E048EC52E4C70145
:10064000B6010E940D1B20E030E04FE753E40E940A
:100650009919ED81FE81608F718F828F938F23E3D3
:1006600033E343E75FE364817581868197810E946C
:100670000D1B6B017C012DEC3CEC4CE45DE36981CE
:100680007A818B819C810E940D1B9B01AC01C7016B
:10069000B6010E943119ED81FE81648375838683E2
:1006A0009783B80180E090E00E94321A20E030E0A9
:1006B00040E859E30E940D1B2DEC3CEC4CE45DE35B
:1006C0000E9430192AE939E945E251E40E940D1BE4
:1006D0002DEC3CEC4CE45DE30E940D1B6B017C01B6
:1006E00023E333E343E75FE3ED81FE81648D758DA2
:1006F000868D978D0E940D1B9B01AC01C701B60131
:100700000E943119ED81FE81648F758F868F978FDE
:100710002696CDBFDEBFDF91CF911F910F91FF9045
:10072000EF90DF90CF90BF90AF909F908F907F9091
:100730006F905F904F9008951F920F920FB60F9297
:1007400011248F9388E0809307068F910F900FBE3E
:100750000F901F9018951F920F920FB60F921124B1
:100760000BB60F922F933F934F935F936F937F93AB
:100770008F939F93AF93BF93EF93FF93CF93DF93A9
:100780001F92CDB7DEB700008091A00B89838981CD
:10079000843209F455C089818A3209F43FC08091BE
:1007A0002424882391F08981E09121248C32D9F18D
:1007B00081E08E0F809321248981F0E0EC52FC4D82
:1007C00081AF80912524811116C00F90DF91CF91C8
:1007D000FF91EF91BF91AF919F918F917F916F9119
:1007E0005F914F913F912F910F900BBE0F900FBED5
:1007F0000F901F901895E0912224109225248E2F9F
:1008000090E0FC013297E930F105F8F68827E250D4
:10081000FF4F8F4F0C9455200000D7CF1092242407
:1008200010922124D2CFF0E0EC52FC4D81AF109217
:10083000212480912224E1E0E80FE0932224DDCFFF
:1008400081E08093242484ED93E20E9408181092A2
:10085000212410922224B9CF80910D24853419F0DF
:10086000873509F088E58093E623AFCF80910D248A
:100870008C3209F4AACF8093E72380910E248C3226
:1008800009F4A3CF8093E82380910F248C3209F4DC
:100890009CCF8093E923809110248C3209F495CF6A
:1008A0008093EA23809111248C3209F48ECF8093B7
:1008B000EB23809112248C3209F487CF8093EC23B0
:1008C000809113248C3209F480CF8093ED238091A2
:1008D00014248C3209F479CF8093EE23809115246F
:1008E0008C3209F472CF8093EF23809116248C32DE
:1008F00009F46BCF8093F023809117248C3209F494
:1009000064CF8093F123809118248C3209F45DCF59
:100910008093F223809119248C3209F456CF80936E
:10092000F32353CF80910D248E3419F0833509F0D1
:1009300088E58093D82349CF80910D248C3209F427
:1009400044CF8093D92380910E248C3209F43DCF7B
:100950008093DA2380910F248C3209F436CF809370
:10096000DB23809110248C3209F42FCF8093DC2379
:10097000809111248C3209F428CF8093DD2380915B
:1009800012248C3209F421CF8093DE23809113242A
:100990008C3209F41ACF8093DF23809114248C3297
:1009A00009F413CF8093E023809115248C3209F44D
:1009B0000CCF8093E123809116248C3209F405CF6B
:1009C0008093E223809117248C3209F4FECE809329
:1009D000E323809118248C3209F4F7CE8093E4232A
:1009E000809119248C3209F4F0CE8093E523EDCE6A
:1009F00080910D24803309F44EC0813309F44EC038
:100A0000823309F0E2CE82E080930C24DECE809126
:100A10000D248C3291F18093F42380910E248C323A
:100A200061F18093F52380910F248C3231F1809312
:100A3000F623809110248C3201F18093F72380916A
:100A400011248C32D1F08093F823809112248C32BF
:100A5000A1F08093F923809113248C3271F080935C
:100A6000FA23809114248C3241F08093FB238091EF
:100A700015248C3211F08093FC2384ED93E20E94C4
:100A80006C1884E5E4EDF3E2A0E8B3E201900D9286
:100A90008A95E1F79ACE10920C2497CE81E080934C
:100AA0000C2493CE1F920F920FB60F9211240BB607
:100AB0000F922F933F934F935F936F937F938F93F7
:100AC0009F93AF93BF93EF93FF93CF93DF931F92C7
:100AD000CDB7DEB780E1809305068091A0098983B8
:100AE0008981843209F47BC089818235C1F1898191
:100AF000833409F443C08981803509F474C0898145
:100B0000883509F44CC089818B3409F453C089813C
:100B1000833509F459C08981863409F483C08981F9
:100B2000813409F489C08981843409F48FC010921A
:100B300036290F90DF91CF91FF91EF91BF91AF9147
:100B40009F918F917F916F915F914F913F912F91E5
:100B50000F900BBE0F900FBE0F901F9018958091B5
:100B60003629882321F28FB7F8941092362998ED10
:100B700094BF91E0909379008FBFDBCF80913629AD
:100B8000882309F4B8CF10924D2310924E2381E0B0
:100B900080934F238093372910923629CACF8091B2
:100BA0003629882309F4AFCF81E080933929109248
:100BB0003629BFCF80913629882309F4A8CF109217
:100BC000392910923629B5CF80913629882309F426
:100BD000A2CF81E08093382910923629AACF81E0F4
:100BE00080933629A6CF80913629882309F487CFB0
:100BF000D1D71092222110922321109224211092F9
:100C000025211092362981E080932A23809329237D
:100C10002FEF87EA91E6215080409040E1F700C035
:100C2000000087CF8091362981111AC089818134D3
:100C300009F079CF89817BCF809136298823D1F340
:100C400081E080933A291092362973CF809136291A
:100C5000882309F46CCF10923A291092362969CF73
:100C6000109238291092362964CF1F920F920FB636
:100C70000F9211240BB60F922F933F934F935F93D4
:100C80006F937F938F939F93AF93BF93CF93DF9394
:100C9000EF93FF93E5E2FAE2A285B38581E08C93BE
:100CA000C689D789688179818A819B810E94321A9D
:100CB00020E030E040E251E40E9431190E94061A1F
:100CC000688379838A839B83FF91EF91DF91CF9132
:100CD000BF91AF919F918F917F916F915F914F9154
:100CE0003F912F910F900BBE0F900FBE0F901F9052
:100CF00018951F920F920FB60F9211242F933F93C6
:100D00008F939F9380912923882331F180912A2307
:100D10008230B1F108F449C0843061F108F44FC069
:100D20008530F9F490912C23943038F520912B23C1
:100D30008BEA289F812D11248695382F330F830F3E
:100D4000281306C080E48093A7069F5F90932C230E
:100D50002F5F20932B2305C010922A2380E48093D9
:100D6000A6069F918F913F912F910F900FBE0F90EC
:100D70001F90189580E48093A50610922A23F1CF46
:100D800090912B238DEC989F812D1124869586952B
:100D9000282F220F220F820F981303C080E4809324
:100DA000A7069F5F90932B23DCCF882361F08130CF
:100DB000C1F690912C23963008F4B8CFDECF80E4B2
:100DC0008093A506CECF1092292310922C23109247
:100DD0002B2380E48093A606C4CF1F920F920FB6F8
:100DE0000F9211248F9380E180930606109236298A
:100DF0008F910F900FBE0F901F9018951F920F921A
:100E00000FB60F9211240BB60F922F933F934F936F
:100E10005F936F937F938F939F93AF93BF93EF9362
:100E2000FF9380E28093070680913829882319F187
:100E300080910B2A90910C2AA0910D2AB0910E2A34
:100E40008F3926E8920721E0A207B10538F1109208
:100E50000B2A10920C2A10920D2A10920E2A0E9430
:100E60006818882341F060910829709109298EEA59
:100E700096E20E943018FF91EF91BF91AF919F9140
:100E80008F917F916F915F914F913F912F910F9033
:100E90000BBE0F900FBE0F901F9018950196A11DCD
:100EA000B11D80930B2A90930C2AA0930D2AB09326
:100EB0000E2AD5CFCF93DF93C0914D23D0914E23EF
:100EC000209709F00DC110922D2310922E2310921D
:100ED0002F2310923023109231231092322310923C
:100EE000332310923423109235231092362310921C
:100EF0003723109238231092392310923A231092FC
:100F00003B2310923C2310923D2310923E231092DB
:100F10003F231092402310924123109242231092BB
:100F2000432310924423109245231092462310929B
:100F30004723109248231092492310924A2310927B
:100F40004B2310924C2380E4809305062091662366
:100F50003091672340916823509169236091312338
:100F60007091322380913323909134230E94311960
:100F700060933123709332238093332390933423EF
:100F80008091A9299091AA29092E000CAA0BBB0BCC
:100F90004091352350913623609137237091382347
:100FA000840F951FA61FB71F809335239093362378
:100FB000A0933723B09338238091AB299091AC292B
:100FC000092E000CAA0BBB0B4091392350913A23F8
:100FD00060913B2370913C23840F951FA61FB71F80
:100FE0008093392390933A23A0933B23B0933C23DF
:100FF0008091AD299091AE29092E000CAA0BBB0B54
:1010000040913D2350913E2360913F2370914023B6
:10101000840F951FA61FB71F80933D2390933E23F7
:10102000A0933F23B093402380914329909144297A
:10103000092E000CAA0BBB0B409141235091422377
:101040006091432370914423840F951FA61FB71FFF
:101050008093412390934223A0934323B09344234E
:101060008091452990914629092E000CAA0BBB0BB3
:101070004091452350914623609147237091482326
:10108000840F951FA61FB71F809345239093462377
:10109000A0934723B09348238091472990914829F2
:1010A000092E000CAA0BBB0B4091492350914A23F7
:1010B00060914B2370914C23840F951FA61FB71F7F
:1010C0008093492390934A23A0934B23B0934C23BE
:1010D0002196C0934D23D0934E23DF91CF91089555
:1010E000C83CD10508F432CF20E030E048E453E4B6
:1010F0006091312370913223809133239091342376
:101100000E949919609370237093712380937223C6
:101110009093732360913523709136238091372308
:10112000909138230E94341A20E030E048E453E4E0
:101130000E9499196093F1297093F2298093F32901
:101140009093F4296091392370913A2380913B2345
:1011500090913C230E94341A20E030E048E453E4AC
:101160000E9499196093F5297093F6298093F729C5
:101170009093F82960913D2370913E2380913F2305
:10118000909140230E94341A20E030E048E453E478
:101190000E9499196093F9297093FA298093FB2989
:1011A0009093FC29609141237091422380914323C5
:1011B000909144230E94341A20E030E048E453E444
:1011C0000E94991960938D2970938E2980938F299D
:1011D00090939029609145237091462380914723F5
:1011E000909148230E94341A20E030E048E453E410
:1011F0000E94991960939129709392298093932961
:10120000909394296091492370914A2380914B23B4
:1012100090914C230E94341A20E030E048E453E4DB
:101220000E94991960939529709396298093972924
:101230009093982910924D2310924E2310924F2391
:101240001092372980E480930606DF91CF910895AC
:1012500080E2B7D6F1D6F1D673D7B1D799D7AED74A
:10126000C4D78AE090E0EAD682E390E006D782E332
:1012700090E022D788EE93E03ED710920629109294
:101280000729A4E3B9E21C9211961C921197E5E29A
:10129000FAE28FEB9AE28087918783EA99E2808372
:1012A00091838DE399E28283938382E693E2848340
:1012B000958380E893E286839783A287B38780E54E
:1012C00093E28487958785E69AE2868797878EEAF8
:1012D00096E2808B918B88E294E2828B938B83E100
:1012E0009AE2848B958B87E09AE2868B978B86E2D5
:1012F00091E2808F918F81E49AE2828F938FCDD794
:10130000ECD70E94E0150E945912EBD70E945213AD
:10131000D1D72DD660E870E080E090E055D560939D
:10132000222170932321809324219093252187E00B
:101330008093A2000895CF92DF92EF92FF921F93C5
:10134000CF93DF93CDB7DEB7CF57D109CDBFDEBF87
:101350008091880680FFFCCF1092392983E080932A
:101360002A2381E0809329232FEF87E893E12150FE
:1013700080409040E1F700C0000010922923809146
:10138000880681FFFCCF8BE6E6E1F0E2DE011196F4
:1013900001900D928A95E1F784E1E1E8F0E2DE0147
:1013A000A459BF4F01900D928A95E1F769E670E06C
:1013B000CE0101960E9445182FEF87EA91E6215051
:1013C00080409040E1F700C0000084E08093050673
:1013D00081E0D6D383E0B9D380E0B7D380E0B5D342
:1013E00080E0B3D310E0C12CD12C76010CC08FE388
:1013F0009CE90197F1F700C000008091880680FF0A
:1014000023C0143608F5B3D38F3FA9F1882389F19F
:101410008093A00910E02FEFC21AD20AE20AF20A62
:10142000D701C6018F779927AA27BB27892B8A2B3B
:101430008B2BE9F28FE193E00197F1F700C00000F8
:101440008091880680FDDDCF80E09AD362E170E074
:10145000CE0184599F4F0E944518C158DF4FCDBF20
:10146000DEBFDF91CF911F91FF90EF90DF90CF9083
:10147000089510E0D0CF1F5FCECF8BE0E5E9F0E21A
:10148000AEEAB6E201900D928A95E1F76AE070E06B
:101490008EEA96E20E9445182FEF33EC89E0215046
:1014A00030408040E1F700C00000E0E0F6E088E076
:1014B00085839FEF27E833E1915020403040E1F7EA
:1014C00000C0000086839FEF23EC39E0915020405C
:1014D0003040E1F700C0000085839FEF27E833E14B
:1014E000915020403040E1F700C0000086838FEF2C
:1014F00093EC29E0815090402040E1F700C00000CB
:101500000895CF93DF93CDB7DEB76697CDBFDEBF2B
:101510008091880680FD04C08091880681FF10C0FC
:101520008091880680FF06C06696CDBFDEBFDF9142
:10153000CF9108956696CDBFDEBFDF91CF91FBCEF0
:1015400086E1E0E0F0E2DE01119601900D928A95CD
:10155000E1F78091880680FFFCCF8091880681FFAB
:10156000F8CF83E080932A2381E08093292312D34C
:101570002FEF87EA91E6215080409040E1F700C0CC
:1015800000008981882369F0FE0132968093A009CA
:101590008FE79EE30197F1F700C000008191811170
:1015A000F5CF10922923109222211092232110921C
:1015B0002421109225216696CDBFDEBFDF91CF9109
:1015C000089546DE789459DF9CDF10924D231092E7
:1015D0004E2381E080934F2380933729109239293D
:1015E0008093382980933A2992E0E92E26E0222E32
:1015F00032E0332EDD24D39445E0C42E84E0F82E6F
:101600002AE02A95F1F700C0809134298823C1F39C
:10161000109234298091252A9091262A0E94F4154F
:101620008091252A9091262A0E9440168091312A85
:101630009091322A87D68091312A9091322AC4D64D
:101640008091292A90912A2A40D78091292A909125
:101650002A2A68D78091292A90912A2A8DD78091A9
:10166000272A9091282A0E94F91380912D2A90917F
:101670002E2A0E9413020091742310917523D09199
:101680007623C09177238090782390907923A0903F
:101690007A23B0907B239401A501B8018D2F9C2F54
:1016A0000E94091B181674F4C801AD2FBC2F80933B
:1016B000782390937923A0937A23B0937B234801D6
:1016C000AD2EBC2E80913A2981114CC010923B293D
:1016D00010922A2310923929E0926606F0920506AC
:1016E00085E29AE20E944417F09206068091392919
:1016F000811115C080910A2981110AC086E892E003
:10170000E8E2F4E2AEEAB6E201900D920197E1F769
:1017100080914F23882309F473CFCCDB6FCF48E24D
:1017200054E260E870E082E291E2C6D380910F2A31
:101730009091102AA091112AB091122A8F3322E49D
:1017400092072FE0A207B10508F0A2C10196A11DE2
:10175000B11D80930F2A9093102AA093112AB09361
:10176000122AC8CF80913B2990E08A30910508F079
:10177000B5CFFC018827E95FFE4F8F4F0C945520B1
:1017800020E030E048E453E4B8018D2F9C2F0E9404
:10179000951987FFA3CF80907C2390907D23A09004
:1017A0007E23B0907F2320E030E040E85FE3C50176
:1017B000B4010E94951987FF91CF20E030E040E806
:1017C0005FEBC501B4010E94091B18160CF086CF0F
:1017D00089E080933B2982CFC0922A23D09229238B
:1017E00028E020933B297ACFC091332AD091342A24
:1017F00020E030E048EC53E46C897D898E899F8934
:101800000E94951987FF03C027E020933B2920E021
:1018100030E040EF51EC688979898A899B890E9480
:10182000951987FF5BCF87E080933B2957CFD092F4
:101830002A23D092292320923B2950CF98014D2F63
:101840005C2FB401C5010E94301920E030E040E275
:1018500051E40E94091B18160CF040CF20E030E044
:10186000A90160917C2370917D2380917E239091CA
:101870007F230E94951987FF31CFC0923B292ECF3D
:101880006091072A7091082A8091092A90910A2A6A
:101890000E94321A4B015C0120E030E04AEF54E430
:1018A00060911E2170911F21809120219091212112
:1018B0000E9431199B01AC01C501B4010E94091BB2
:1018C00018160CF00BCFF0923B2908CF6091072A35
:1018D0007091082A8091092A90910A2A0E94321A4E
:1018E0004B015C0120E030E04AE754E460911E21A6
:1018F00070911F2180912021909121210E94311906
:101900009B01AC01C501B4010E94091B18160CF023
:10191000E5CE80921E2190921F21A0922021B092AC
:10192000212183E080933B29D9CE20E030E0A9013A
:101930006091652A7091662A8091672A9091682A41
:101940000E94951987FFCACE20E030E048E452E4B7
:101950006091792A70917A2A80917B2A90917C2AD1
:101960000E94091B18160CF0B9CE20E030E048E4C4
:1019700052E46091752A7091762A8091772A90912D
:10198000782A0E94091B18160CF0A8CE6091072A2D
:101990007091082A8091092A90910A2A0E94321A8D
:1019A00060931E2170931F21809320219093212109
:1019B00030923B2993CE8090652A9090662AA09021
:1019C000672AB090682A20E030E040E450E4C50186
:1019D000B4010E94091B181624F4D0923929F09200
:1019E0003B2920E030E040E050E4C501B4010E9412
:1019F000951987FF2CC026E636E646E65FE3609140
:101A000070237091712380917223909173230E94AF
:101A10000D1B2B013C012DEC3CEC4CEC5DE360918B
:101A200066237091672380916823909169230E94B7
:101A30000D1B9B01AC01C301B2010E9431196093DF
:101A4000702370937123809372239093732320E00B
:101A500030E040E050E4C501B4010E94091B1816B3
:101A600024F4F0922A23D0922923C801AD2FBC2F51
:101A70008093782390937923A0937A23B0937B2348
:101A80002DCE30922A23D09229231092392926CEA6
:101A900010920F2A1092102A1092112A1092122AD4
:101AA00029CE9091840497FFFCCF882319F087E01A
:101AB00080938304809187040895809386048091A5
:101AC000840486FFFCCF609387048091840486FFA2
:101AD000FCCF409387048091840486FFFCCF83E091
:101AE000809383040895F90180938604909184047F
:101AF00096FFFCCF609387049091840496FFFCCFFF
:101B000091E09093830481608093860450E041507B
:101B100051091416150674F490E08091840487FF2F
:101B2000FCCF8091870481939F5F292F30E0241799
:101B300035079CF38091840487FFFCCF87E0809376
:101B400083048091870480830895CF93DF931F924D
:101B5000CDB7DEB78093C3088091C20887FFFCCF62
:101B60008091C30889830F90DF91CF9108951092DF
:101B7000C3088091C20887FFFCCF8091C3080895F5
:101B8000811104C081E080936506089581E080930F
:101B900066060895CF93DF93CDB7DEB72797CDBF05
:101BA000DEBF81E08093660685E08093C308809164
:101BB000C20887FFFCCF8091C3088B831092C308B3
:101BC0008091C20887FFFCCF8091C3088C8310925C
:101BD000C3088091C20887FFFCCF8091C3088C8323
:101BE0008C8180FDF4CF81E080936506809366064A
:101BF00086E08093C3088091C20887FFFCCF809164
:101C0000C3088E8381E0809365068093660687EC27
:101C10008093C3088091C20887FFFCCF8091C308DE
:101C20008F8381E080936506EFE1F3E03197F1F770
:101C300000C000008093660685E08093C308809111
:101C4000C20887FFFCCF8091C30889831092C30824
:101C50008091C20887FFFCCF8091C3088A831092CD
:101C6000C3088091C20887FFFCCF8091C3088A8394
:101C70008A8180FDF4CF81E08093650680936606BB
:101C800084E08093C3088091C20887FFFCCF8091D5
:101C9000C3088D8381E0809365062796CDBFDEBFA4
:101CA000DF91CF910895CF92DF92EF92FF92CF9381
:101CB000DF93CDB7DEB72897CDBFDEBF6B017C01C8
:101CC00081E08093660685E08093C3088091C20816
:101CD00087FFFCCF8091C30889831092C30880914D
:101CE000C20887FFFCCF8091C3088A831092C30883
:101CF0008091C20887FFFCCF8091C3088A838A81C4
:101D000080FDF4CF81E0809365068093660686E0CF
:101D10008093C3088091C20887FFFCCF8091C308DD
:101D20008C8381E0809365068093660682E08093D1
:101D3000C3088091C20887FFFCCF8091C3088D83C0
:101D4000C701AA27BB278093C3088091C20887FFD9
:101D5000FCCF8091C3088E83BB27AF2D9E2D8D2D88
:101D60008093C3088091C20887FFFCCF8091C3088D
:101D70008F83C092C3088091C20887FFFCCF8091F7
:101D8000C30888872115310591F0FA0190E081910F
:101D90008093C3088091C20887FFFCCF8091C3085D
:101DA0008B839F5F492F50E04217530780F381E0F8
:101DB000809365062896CDBFDEBFDF91CF91FF905F
:101DC000EF90DF90CF9008958F929F92AF92BF9245
:101DD000CF92DF92EF92FF92CF93DF9300D01F92CA
:101DE000CDB7DEB74B015C0181E08093660683E0EE
:101DF0008093C3088091C20887FFFCCF8091C308FD
:101E000089831092C3088091C20887FFFCCF80911C
:101E1000C3088A831092C3088091C20887FFFCCF51
:101E20008091C3088B831092C3088091C20887FFFA
:101E3000FCCF8091C3088C83C12CD12C76011092E9
:101E4000C3088091C20887FFFCCF8091C3088F3FF1
:101E500069F08FEFC81AD80AE80AF80A80EAC816AB
:101E60008FE8D8068EE3E806F10449F781E0809315
:101E70006506C701B601A50194010E9433206115D2
:101E800071058105910541F0C80CD91CEA1CFB1CA9
:101E9000C61AD70AE80AF90AC701B6012496CDBFC7
:101EA000DEBFDF91CF91FF90EF90DF90CF90BF909A
:101EB000AF909F908F900895EF92FF920F931F9392
:101EC000CF93DF931F921F92CDB7DEB7FC018081C5
:101ED0009181A281B381803D9E4FAF43B10548F00F
:101EE0000F900F90DF91CF911F910F91FF90EF9086
:101EF000089581E08093660685E08093C308909101
:101F0000C20897FFFCCF8091C30889831092C30851
:101F10009091C20897FFFCCF8091C3088A831092EA
:101F2000C3089091C20897FFFCCF9091C3089A8391
:101F30009A8190FDF4CF7B018F0181E0809365064B
:101F400060817181828193819701ADDEF80180818A
:101F50009181A281B3818E0D9F1DA11DB11D808332
:101F60009183A283B38384E080930706B9CFCF9394
:101F7000DF931F921F92CDB7DEB781E08093660694
:101F800086E08093C3088091C20887FFFCCF8091D0
:101F9000C308898381E0809365068093660688E99B
:101FA0008093C3088091C20887FFFCCF8091C3084B
:101FB0008A8381E0809365060F900F90DF91CF9127
:101FC000089586959091500091609093500090E410
:101FD00090936A009DE090936B0090915000946004
:101FE000909350009091510092FFFCCF9091560039
:101FF000987F90935600909168009160909368004C
:102000009091510090FFFCCF98ED94BF109240004A
:10201000909150009F7E909350008093550080E1F6
:10202000809350008091510084FFFCCF88ED84BFE5
:1020300084E08093400008950895089527E0209358
:1020400000081092010810922008109221089C01AB
:10205000A0E0BDE70E945D20DC01CB012AE0B6953F
:10206000A795979587952A95D1F780932608909301
:10207000270882E080930608089527E0209300094E
:102080001092010910922009109221099C01A0E0F0
:10209000BDE70E945D20DC01CB012AE0B695A79543
:1020A000979587952A95D1F78093260990932709CC
:1020B00081E080930609089527E02093000A10929A
:1020C000010A1092200A1092210A9C01A0E0BDE7AB
:1020D0000E945D20DC01CB012AE0B695A79597957B
:1020E00087952A95D1F78093260A9093270A82E054
:1020F0008093060A089527E02093000B1092010BAD
:102100001092200B1092210B813D27E0920710F0D6
:1021100080ED97E09C01A0E0BDE70E945D20DC011E
:10212000CB012AE0B695A795979587952A95D1F783
:102130008093260B9093270B82E08093060B0895E3
:10214000CF93DF93A0E0B2E081E08C93CAECD1E0C2
:1021500092E09883E0E2F0E0E49118821C96EC9320
:102160001C979883E1E2F0E0E49118821D96EC93CD
:102170001D9711961C92119712961C92129793E03C
:1021800014969C93149790968C93DF91CF91089519
:10219000E0EAF6E084E0868388E085838183E0EAF4
:1021A000FBE083E0858387E1868384EA87838381FC
:1021B0008061838384818861848308950895E0E643
:1021C000F6E084E0868388E085838183E0EAF9E0B5
:1021D00083E0858387E1868384EA878383818061C6
:1021E00083838481886184830895CF93DF9388E11A
:1021F0008093900680939106A0E0B6E08C91816078
:102200008C93E6E0F6E021E020838C918C678C9340
:102210008CE78083A0EAB6E08C9180648C9366EAB8
:1022200076E050E4DB015C9334E030934106309378
:102230004606C1E6D6E082E08883A6E6B6E08C9347
:102240003C9348E0488390E298839C93DB013C9365
:102250004093A5064093A10633E0309340063093A7
:102260004406A2EEB7E02C938C93A2E8B6E030E1EE
:102270003C939C93A2EAB6E02C938C933C933093CE
:102280006206808380E88083E6E2F6E02083908324
:1022900050838083DF91CF910895E0E8F4E080E3FC
:1022A000818391E092838FE085838181886081833F
:1022B00094830895E0E4F6E080E1818380EA8183FD
:1022C00080E4828380EE8583E0E6F6E081E081832E
:1022D000858381E58093C008089580E8809300019C
:1022E000089582E3809386048091840486FFFCCF66
:1022F00080E2809387048091840486FFFCCF8FE284
:10230000809387048091840486FFFCCF83E08093D0
:10231000830482E3809386048091840486FFFCCF4B
:1023200083E2809387048091840486FFFCCF80E35E
:10233000809387048091840486FFFCCF83E08093A0
:1023400083040895CF92DF92EF92FF920F931F9331
:10235000CF93DF937C0182E3809386048091840491
:1023600086FFFCCF88EA809387048091840486FFEF
:10237000FCCF81E08093830483E38093860480E034
:1023800090DBC82ED12C80E08CDBD82A80E089DB62
:10239000082F10E080E085DB182B80E082DBC82F5F
:1023A000D0E081E07EDBF701C082D182028313831B
:1023B000D82BC483D583DF91CF911F910F91FF90CC
:1023C000EF90DF90CF9008950F931F93CF93DF93FB
:1023D000CDB7DEB72C97CDBFDEBF8C01FC0160818D
:1023E0007181072E000C880B990B0E94341A20E093
:1023F00030E040E45AE30E940D1B69877A878B879F
:102400009C87F80162817381072E000C880B990B61
:102410000E94341A20E030E040E45AE30E940D1B91
:102420006D837E838F839887F80164817581072E81
:10243000000C880B990B0E94341A20E030E040E435
:102440005AE30E940D1B69837A838B839C83698581
:102450007A858B859C852BE83DEF45E65EE301D7C9
:10246000F80166837783808791876D817E818F8174
:1024700098852BE83DEF45E65EE3F3D6F8016287E9
:1024800073878487958769817A818B819C812BE80A
:102490003DEF45E65EE3E4D6F80166877787808BFB
:1024A000918B2C96CDBFDEBFDF91CF911F910F9105
:1024B00008954FE060E188EB00DB41E063E288EBE8
:1024C000FCDA40EC60E288EBF8CA0F931F93CF93DD
:1024D000DF93CDB7DEB72A97CDBFDEBF8C019E015B
:1024E0002F5F3F4F45E068EA88EBFDDA2A818B8158
:1024F00090E0A0E0B0E0DC0199278827922B2981A9
:10250000822BF80180839183A283B3838C819D8188
:10251000808791872A96CDBFDEBFDF91CF911F9133
:102520000F910895CF93DF93EC01688179818A81BF
:102530009B8198D720E030E040E859E30E940D1BD2
:102540006C837D838E839F8368857985072E000C3D
:10255000880B990B89D720E030E040EF53E4E9D6AF
:1025600020E030E04AE252E47CD66A877B878C87A1
:102570009D87DF91CF9108954F925F926F927F92E6
:102580008F929F92AF92BF92CF92DF92EF92FF9283
:102590000F931F93CF93DF93EC01EE84FF840889A0
:1025A000198920E030E0A901B701C801BED6CC806E
:1025B000DD80FE81EF8181110AC0C601AF2FBE2FE1
:1025C0008E879F87A88BB98B76010F2F1E2F9701BF
:1025D000A801B6018F2F9E2FACD62EE534ED42E434
:1025E0005EE30E94701B9B01AC018A889B88AC88CB
:1025F000BD8860E070E080E89FE332D620E032E101
:102600004AE257E40E940D1B2DEC3CEC4CE45EE3E7
:102610000E940D1B6B017C012DEC3CEC4CE45FE354
:10262000C501B401FAD79B01AC01C701B60119D6A7
:102630006B017C016A8B7B8B8C8B9D8B26E636E64F
:1026400046E65FE36A8D7B8D8C8D9D8DE6D72B01F1
:102650003C01A5019401C701B60102D62DEC3CEC6A
:102660004CEC5DE3DAD720E030E048EC52E4D5D71B
:102670009B01AC01C301B201F4D56A8F7B8F8C8FB3
:102680009D8FDF91CF911F910F91FF90EF90DF9081
:10269000CF90BF90AF909F908F907F906F905F9002
:1026A0004F90089584ED809386048091840486FF82
:1026B000FCCF80E2809387048091840486FFFCCF66
:1026C0008FEB809387048091840486FFFCCF83E0A6
:1026D0008093830484ED809386048091840486FF34
:1026E000FCCF83E2809387048091840486FFFCCF33
:1026F00080E2809387048091840486FFFCCF83E08E
:10270000809383048AE3809386048091840486FF07
:10271000FCCF80E2809387048091840486FFFCCF05
:1027200087E8809387048091840486FFFCCF83E050
:10273000809383048AE3809386048091840486FFD7
:10274000FCCF81E2809387048091840486FFFCCFD4
:1027500080E6809387048091840486FFFCCF83E029
:10276000809383048AE3809386048091840486FFA7
:10277000FCCF84E2809387048091840486FFFCCFA1
:1027800080EF809387048091840486FFFCCF83E0F0
:10279000809383048AE3809386048091840486FF77
:1027A000FCCF85E2809387048091840486FFFCCF70
:1027B000109287048091840486FFFCCF83E080938D
:1027C00083048AE3809386048091840486FFFCCF8F
:1027D00086E2809387048091840486FFFCCF109268
:1027E00087048091840486FFFCCF83E08093830478
:1027F00008950F931F93CF93DF93EC0184ED8093A3
:1028000086048091840486FFFCCF88EA8093870445
:102810008091840486FFFCCF81E08093830485ED62
:102820008093860480E03DD990E08E839F8380E092
:1028300038D92E813F81382B2E833F8380E031D9D8
:1028400090E08887998780E02CD928853985382BB6
:102850002887398780E025D990E08A879B8781E0A7
:1028600020D92A853B85382B2A873B878AE38093AA
:1028700086048091840486FFFCCF88E880938704D7
:102880008091840486FFFCCF81E0809383048BE3F6
:102890008093860480E005D990E08E879F8780E052
:1028A00000D92E853F85382B2E873F8780E0F9D8C9
:1028B00090E0888B998B80E0F4D828893989382B6F
:1028C000288B398B80E0EDD890E08A8B9B8B81E060
:1028D000E8D82A893B89382B2A8B3B8B8AE3809363
:1028E00086048091840486FFFCCF88EA8093870465
:1028F0008091840486FFFCCF81E0809383048BE386
:102900008093860480E0CDD890E08883998380E02E
:10291000C8D828813981382B2883398380E0C1D8F1
:1029200090E08A839B8380E0BCD82A813B81382B4E
:102930002A833B8380E0B5D890E08C839D8381E03F
:10294000B0D82C813D81382B2C833D838AE3809342
:1029500086048091840486FFFCCF85E880938704F9
:102960008091840486FFFCCF81E0809383048BE315
:102970008093860480E095D890E08C879D8781E0E5
:1029800090D80C851D85182B0C871D87688179814F
:10299000072E000C880B990B67D5FE01EC5BFF4FEF
:1029A00020813181428153815BD42AE534E64BE3B7
:1029B0005FE333D620E030E04AE754E4BAD46C8BCE
:1029C0007D8B8E8B9F8B6A817B81072E000C880B01
:1029D000990B4AD5FE01E85BFF4F2081318142818E
:1029E00053813ED42AE534E64BE35FE316D620E07C
:1029F00030E04AE754E49DD4688F798F8A8F9B8FAB
:102A00006C817D81072E000C880B990B2DD5FE0162
:102A1000E45BFF4F208131814281538121D42AE53B
:102A200034E64BE35FE3F9D520E030E04AE754E4D5
:102A300080D46C8F7D8F8E8F9F8F6E817F81072ECC
:102A4000000C880B990B10D5FE01E05BFF4F208135
:102A500031814281538104D420E030E04AE755E4DB
:102A6000DCD520E030E040E857E3D7D56CA37DA368
:102A70008EA39FA368857985072E000C880B990B80
:102A8000F3D4FE01EC5AFF4F208131814281538102
:102A9000E7D320E030E04AE755E4BFD520E030E05E
:102AA00040E857E3BAD568A779A78AA79BA76A85A4
:102AB0007B85072E000C880B990BD6D4FE01E85AB3
:102AC000FF4F2081318142815381CAD320E030E021
:102AD0004AE755E4A2D520E030E040E857E39DD531
:102AE0006CA77DA78EA79FA7FE01E45AFF4F6E85B6
:102AF0007F8580819181681B790B072E000C880BE4
:102B0000990BB2D420E030E040E850E486D52AE0CA
:102B100037ED43E254E40DD46CAB7DAB8EAB9FAB91
:102B2000FE01E25AFF4F6889798980819181681B93
:102B3000790B072E000C880B990B96D420E030E01F
:102B400040E850E46AD52AE037ED43E254E4F1D39B
:102B500068AF79AF8AAF9BAFFE01E05AFF4F6A8939
:102B60007B8980819181681B790B072E000C880B73
:102B7000990B7AD420E030E040E850E44ED52AE0CA
:102B800037ED43E254E4D5D36CAF7DAF8EAF9FAF4A
:102B9000B801110F880B990B67D420E030E040E0BA
:102BA0005EE33BD520E030E048EA51E45AD368AB1D
:102BB00079AB8AAB9BABDF91CF911F910F910895B9
:102BC00042E06BE680ED0E945D0D42E06AE180ED3F
:102BD0000E945D0D48E16BE180ED0E945D0D48E1D2
:102BE0006CE180ED0C945D0D0F931F93CF93DF93F9
:102BF000CDB7DEB76497CDBFDEBF8C019E012F5FDE
:102C00003F4F4EE06BE380ED0E94730D89819A8106
:102C1000982789279827F801808391838B819C814D
:102C2000982789279827828393838D819E8198276F
:102C300089279827848395838F819885982789276A
:102C400098278487958789859A8598278927982743
:102C5000868397838B859C859827892798278087EB
:102C600091878D859E8598278927982782879387C6
:102C70006496CDBFDEBFDF91CF911F910F91089574
:102C8000CF93DF93EC012E853F85FC01E05AFF4F87
:102C900040814203B001439F700D1124672F770FCD
:102CA000770B620F731F072E000C880B990BDCD378
:102CB0002AE939E949E95EE3B0D46AAB7BAB8CAB76
:102CC0009DAB28893989FE01EF59FF4F40814203AE
:102CD000B001439F700D1124672F770F770B620FA0
:102CE000731F072E000C880B990BBED32AE939E914
:102CF00049E95EE392D46EAB7FAB88AF99AF2A8986
:102D00003B89FE01EE59FF4F40814203B001439FD2
:102D1000700D1124672F770F770B620F731F072E2B
:102D2000000C880B990BA0D32AE939E949E95EE345
:102D300074D46AAF7BAF8CAF9DAF68817981072E69
:102D4000000C880B990B90D3FE01EE5BFF4F2081A6
:102D500031814281538184D220E030E040E05AE367
:102D60005CD46C8B7D8B8E8B9F8B6A817B81072ED5
:102D7000000C880B990B78D3FE01EA5BFF4F208192
:102D80003181428153816CD220E030E040E05AE34F
:102D900044D4688F798F8A8F9B8F6C817D81072EB9
:102DA000000C880B990B60D3FE01E65BFF4F20817E
:102DB00031814281538154D220E030E040E05AE337
:102DC0002CD46C8F7D8F8E8F9F8F6E817F81072E8D
:102DD000000C880B990B48D3FE01E25BFF4F20816A
:102DE0003181428153813CD223E333E343E851E410
:102DF000A0D26CA37DA38EA39FA368857985072E9F
:102E0000000C880B990B30D3FE01EE5AFF4F208146
:102E100031814281538124D223E333E343E851E4F7
:102E200088D268A779A78AA79BA76A857B85072E82
:102E3000000C880B990B18D3FE01EA5AFF4F208132
:102E40003181428153810CD223E333E343E851E4DF
:102E500070D26CA77DA78EA79FA76C857D85072E56
:102E6000000C880B990B00D320E030EF49E356E4C7
:102E7000F8D120E030E048E052E45BD2C2D268AB47
:102E800079ABDF91CF910895EF92FF920F931F934B
:102E9000CF93DF938C01DC011696ED90FC90179791
:102EA0001E96CD91DC911F97F70180AD1F928F93F5
:102EB00062A973A984A995A9D7D220E030E040E2A5
:102EC00051E437D29F938F937F936F93D7019E9650
:102ED0006D917D918D919C91D197C6D220E836E974
:102EE00048E15BE426D29F938F937F936F93F70122
:102EF00062A573A584A595A5B7D220E836E948E177
:102F00005BE417D29F938F937F936F938BA58F93DF
:102F10008AA58F9389A58F9388A58F938FA18F936F
:102F20008EA18F938DA18F938CA18F938BA18F9363
:102F30008AA18F9389A18F9388A18F938B858F937B
:102F40008A858F9389858F9388858F938F818F93BF
:102F50008E818F938D818F938C818F938B818F93B3
:102F60008A818F9389818F9388818F938B898F93A7
:102F70008A898F9389898F9388898F938F898F937B
:102F80008E898F938D898F938C898F93D801189612
:102F9000ED91FC91199787818F9386818F9385811D
:102FA0008F9384818F931A96ED91FC911B97878163
:102FB0001F928F935696ED91FC91579783818F9333
:102FC00082818F9381818F9380818F9380EA90E2B9
:102FD0009F938F9353968C9153978F9352968C9186
:102FE0008F930E940322D8015296ED91FC91539742
:102FF000E65AFD4F80839183EDB7FEB7FC96EDBF97
:10300000FEBFDF91CF911F910F91FF90EF90089538
:10301000FC0180E380A381A382A383A384A385A36F
:1030200086A387A380A781A7828B838B848B858BC4
:10303000868B878B808F818F828F838F848F858F04
:10304000868F848385838683878380878187828731
:1030500083878487858786878787808B10AE0895CE
:10306000E0E0F1E0808F918F128E80EA848F89E01A
:10307000858F168E648B758B8CE6838B80E5828BB7
:1030800080E1818B84E8808B089580931801909370
:10309000190110921A0180EA80931C0189E0809343
:1030A0001D0110921E0160931401709315018CE6AE
:1030B0008093130180E58093120180E180931101D8
:1030C00084E8809310018091110184FFFCCF089562
:1030D00080911101807108957F928F929F92AF929B
:1030E000BF92CF92DF92EF92FF920F931F93CF93F5
:1030F000DF93CDB7DEB72C97CDBFDEBF8C01FC01CF
:103100008581880F8056F82EFF0CFF0C8F0D96815D
:103110009053F82EF90E8781898380858A83828572
:103120008B8383858C8384858D8385858E8386853B
:103130008F831886CE010196F9D794D12AE939E90F
:1031400049E15FE3F6D062D14B015C01AF2DB0E005
:1031500020E836E948E950E0BFD7860E971EA81E42
:10316000B91EF80184818E3431F0833509F46FC0C3
:10317000812C912C5401F8018389898384898A8365
:1031800085898B831C82CE010196B3D7782EF801F6
:103190008689898387898A83818D8B83828D8C83BD
:1031A000838D8D83848D8E83858D8F83CE01019653
:1031B000BDD758D12AE939E949E15FE3BAD026D130
:1031C0006B017C01A72DB0E020E836E948E950E02A
:1031D00083D7C60ED71EE81EF91EF80182898534F2
:1031E00029F0873559F1C12CD12C7601C801809680
:1031F0007DD7F80182A693A6A4A6B5A6C6A6D7A693
:10320000E0AAF1AA20E030E040E251E406D2F9D091
:10321000F80162AB73AB84AB95AB2C96CDBFDEBF30
:10322000DF91CF911F910F91FF90EF90DF90CF90A2
:10323000BF90AF909F908F907F900895F094E0940E
:10324000D094C094C11CD11CE11CF11CCFCFB09410
:10325000A09490948094811C911CA11CB11C8BCFD4
:103260005058BB27AA270ED09AC18BD130F090D1ED
:1032700020F031F49F3F11F41EF45BC10EF4E09591
:10328000E7FB51C1E92F9CD180F3BA17620773079E
:103290008407950718F071F49EF5B4C10EF4E0951B
:1032A0000B2EBA2FA02D0B01B90190010C01CA0100
:1032B000A0011124FF27591B99F0593F50F4503EAB
:1032C00068F11A16F040A22F232F342F4427585F9D
:1032D000F3CF469537952795A795F0405395C9F7B5
:1032E0007EF41F16BA0B620B730B840BBAF091506D
:1032F000A1F0FF0FBB1F661F771F881FC2F70EC00C
:10330000BA0F621F731F841F48F4879577956795DE
:10331000B795F7959E3F08F0B3CF9395880F08F0C7
:103320009927EE0F979587950895D9D008F481E0F5
:1033300008950CD034C12CD140F023D130F021F4C9
:103340005F3F19F0F0C051115EC1F3C039D198F35D
:103350009923C9F35523B1F3951B550BBB27AA2716
:1033600062177307840738F09F5F5F4F220F331F88
:10337000441FAA1FA9F333D00E2E3AF0E0E830D054
:1033800091505040E695001CCAF729D0FE2F27D057
:10339000660F771F881FBB1F261737074807AB0725
:1033A000B0E809F0BB0B802DBF01FF2793585F4F9A
:1033B0002AF09E3F510568F0B6C025C15F3FECF38F
:1033C000983EDCF3869577956795B795F7959F5F5F
:1033D000C9F7880F911D9695879597F90895E1E0B3
:1033E000660F771F881FBB1F621773078407BA0712
:1033F00020F0621B730B840BBA0BEE1F88F7E0956D
:10340000089504D06894B111FEC00895E1D088F009
:103410009F5790F0B92F9927B751A0F0D1F0660FC0
:10342000771F881F991F1AF0BA95C9F712C0B130DB
:1034300081F0E8D0B1E00895E5C0672F782F8827A4
:10344000B85F39F0B93FCCF3869577956795B3951A
:10345000D9F73EF490958095709561957F4F8F4F89
:103460009F4F0895E89409C097FB3EF4909580958E
:10347000709561957F4F8F4F9F4F9923A9F0F92F3A
:1034800096E9BB279395F695879577956795B795B8
:10349000F111F8CFFAF4BB0F11F460FF1BC06F5F9E
:1034A0007F4F8F4F9F4F16C0882311F096E911C0B0
:1034B000772321F09EE8872F762F05C0662371F0D1
:1034C00096E8862F70E060E02AF09A95660F771FE5
:1034D000881FDAF7880F9695879597F90895990FC1
:1034E0000008550FAA0BE0E8FEEF16161706E807CE
:1034F000F907C0F012161306E407F50798F0621BEF
:10350000730B840B950B39F40A2661F0232B242BC3
:10351000252B21F408950A2609F4A140A6958FEFE2
:10352000811D811D089597F99F6780E870E060E034
:1035300008959FEF80EC0895DF93CF931F930F932F
:10354000FF92EF92DF927B018C01689405C0DA2E26
:10355000EF016FD0FE01E894A59125913591459139
:103560005591AEF3EF018EDEFE019701A801DA94CA
:1035700079F7DF90EF90FF900F911F91CF91DF913E
:10358000089500240A9416161706180609060895C9
:1035900000240A9412161306140605060895092E2F
:1035A0000394000C11F4882352F0BB0F40F4BF2B9E
:1035B00011F460FF04C06F5F7F4F8F4F9F4F0895DE
:1035C00057FD9058440F551F59F05F3F71F04795D4
:1035D000880F97FB991F61F09F3F79F087950895B9
:1035E000121613061406551FF2CF4695F1DF08C0D8
:1035F000161617061806991FF1CF869571056105F5
:1036000008940895E894BB2766277727CB0197F99C
:10361000089565DF08F48FEF08950BD0C0CFB1DFB8
:1036200028F0B6DF18F0952309F07DCF82CF112462
:10363000EACFC6DFA0F3959FD1F3950F50E0551F59
:10364000629FF001729FBB27F00DB11D639FAA27F7
:10365000F00DB11DAA1F649F6627B00DA11D661F46
:10366000829F2227B00DA11D621F739FB00DA11D67
:10367000621F839FA00D611D221F749F3327A00D21
:10368000611D231F849F600D211D822F762F6A2FBD
:1036900011249F5750408AF0E1F088234AF0EE0F42
:1036A000FF1FBB1F661F771F881F91505040A9F74F
:1036B0009E3F510570F037CFA6CF5F3FECF3983EA9
:1036C000DCF3869577956795B795F795E7959F5FB6
:1036D000C1F7FE2B880F911D9695879597F9089550
:1036E000FA01EE0FFF1F30962105310599F16115A2
:1036F000710561F48038BFE39B0749F16894903805
:10370000810561F08038BFEF9B0741F0992342F5B6
:10371000FF3FE1053105210511F1E8940894E79593
:10372000D901AA2329F4AB2FBE2FF85FD0F310C024
:10373000FF5F70F4A695E0F7F73950F019F0FF3A03
:1037400038F49F779F930CD00F9007FC9058089502
:103750003EF0EFCE60E070E080E89FE308954FE731
:103760009F775F934F933F932F9387D02F913F91F4
:103770004F915F9152DF05C019F40EF0D4CE42CFC5
:10378000D8CE26DFC8F39638C0F707F80F92E89432
:103790002BE33AEA48EB5FE74EDF0F920F920F926E
:1037A0004DB75EB70F92A9D0E2E2F2E0C5DE4F91CD
:1037B0005F91EF91FF91E595EE1FFF1F49F0FE57D6
:1037C000E0684427EE0F441FFA95E1F74195550B49
:1037D0001BD00F9007FE0FC008959F3F31F091500E
:1037E00020F4879577956795B795880F911D9695E5
:1037F000879597F908959B01AC0160E070E080E83F
:103800009FE397CD90CEE9CFE3DEE8F39923D9F398
:10381000940F511DBBF39150504094F059F0882300
:1038200032F0660F771F881F91505040C1F79E3FBE
:10383000510544F7880F911D9695879597F908953E
:103840005F3FACF0983E9CF0BB27869577956795D7
:10385000B79508F4B1609395C1F7BB0F58F711F411
:1038600060FFE8CF6F5F7F4F8F4F9F4FE3CFCBCE8F
:103870000EF0B3CF5ECE689456CEAADEC8F399237D
:10388000D1F3C6F3DF93CF931F930F93FF92C92F0A
:10389000DD2788232AF02197660F771F881FDAF724
:1038A00020E030E040E85FEB9FE3883920F0803E85
:1038B00030F021968F77D5DCEAE4F2E003C0D1DC6A
:1038C000E7E7F2E039DE8B01BE01EC01FB2E6F571A
:1038D00071097595771F880B990BC6DD28E132E7D2
:1038E00041E35FE3A6DEAF2D9801AE01FF900F919B
:1038F0001F91CF91DF91C6DC52CEFA01DC01AA0FF5
:10390000BB1F9B01AC01BF5728F422273327442754
:1039100050781FC0B75188F4AB2F002446953795D7
:103920002795011CA395D2F3002069F0220F331FC5
:10393000441FB395DAF30DD093CC61307105A0E844
:103940008A07B94630F49B01AC01662777278827A0
:103950009078309621F020833183428353830895F9
:103960002F923F924F925F926F927F928F929F928F
:10397000AF92BF92CF92DF92EF92FF920F931F937D
:10398000CF93DF93CDB7DEB76097CDBFDEBF7C01AD
:103990001B016A01FC0116821782838181FF2AC301
:1039A0009E012F5F3F4F3901F7019381F10193FD94
:1039B000859193FF81911F01882309F417C38532F4
:1039C00039F493FD859193FF81911F01853231F484
:1039D000B70190E0DCD456016501E6CF10E0512C30
:1039E000912CFFE1F915D8F08B3279F038F4803260
:1039F00079F08332A1F4F92DF0612EC08D3261F09F
:103A0000803369F4292D21602DC0392D3260932E29
:103A1000892D8460982E2AC0E92DE86015C097FC96
:103A20002DC020ED280F2A3088F496FE06C03AE01B
:103A3000139F200D1124122F19C08AE0589E200DCB
:103A40001124522EE92DE0629E2E10C08E3231F4E8
:103A500096FCCCC2F92DF0649F2E08C08C3621F460
:103A6000292D2068922E02C0883641F4F10193FD81
:103A7000859193FF81911F018111B3CF9BEB980F2B
:103A8000933020F4992D9061805E07C09BE9980FD8
:103A9000933008F059C1992D9F7E96FF16E09F73D1
:103AA000992E853619F49064992E08C0863621F433
:103AB000392F3068932E02C01111115097FE07C0A4
:103AC0001C3350F444244394410E27E00BC01830BB
:103AD00038F027E017E005C027E09CE3492E02C03C
:103AE000212F412C560184E0A80EB11CF601608103
:103AF000718182819381042DA3013ED36C01F981F0
:103B0000FC87F0FF02C0F3FF06C091FC06C092FEE6
:103B100006C000E205C00DE203C00BE201C000E0F8
:103B20008C858C7019F0011143C280C297FE10C0C1
:103B30004C0CFC85F4FF04C08A81813309F44A945B
:103B4000141474F528E0241578F588E0482E2CC06C
:103B500096FC2AC0812F90E08C159D059CF03CEFCF
:103B6000C3163FEFD30674F0892D8068982E0AC0E3
:103B7000E2E0F0E0EC0FFD1FE10FF11D80818033EA
:103B800019F411501111F4CF97FE0EC04424439440
:103B9000410E812F90E0C816D9062CF41C1904C0E0
:103BA0004424439401C010E097FE06C01C141D0479
:103BB00034F4C601019605C085E090E002C081E0C2
:103BC00090E001110196112331F0212F30E02F5F99
:103BD0003F4F820F931F252D30E08217930714F477
:103BE000581A01C0512C892D897041F4552031F0AB
:103BF000B70180E290E0CBD35A94F8CF002321F0B4
:103C0000B701802F90E0C3D393FC08C0552031F05A
:103C1000B70180E390E0BBD35A94F8CF97FE4AC037
:103C20004601D7FE02C0812C912CC6018819990942
:103C3000F301E80FF91FED87FE879601241931097A
:103C40002F87388B012F10E01195019511093FEF57
:103C50008316930621F4B7018EE290E098D3C8143E
:103C6000D9044CF08F8598898815990524F4ED8541
:103C7000FE85818101C080E3F1E08F1A91082D85D6
:103C80003E852F5F3F4F2D873E878016910624F09B
:103C9000B70190E07CD3DBCFC814D90441F49A81FA
:103CA000963320F4953319F43C8534FF81E3B70152
:103CB00090E048C08A81813319F09C859F7E9C8763
:103CC000B70190E064D3111105C094FC16C085E6DD
:103CD00090E015C0B7018EE290E059D31E5F82E0FC
:103CE00001E0080FF301E80FF11D8081B70190E0BA
:103CF0004ED3802F0113F4CFE8CF85E490E0B701D5
:103D000046D3D7FC06C0C114D10441F4EC85E4FFCE
:103D100005C0D194C194D1088DE201C08BE2B701F6
:103D200090E035D380E32AE0C216D1042CF08F5FF7
:103D3000FAE0CF1AD108F7CFB70190E028D3B70146
:103D4000C601C09624D349C1833631F0833779F058
:103D5000833509F052C01FC0560132E0A30EB11CDA
:103D6000F6018081898301E010E0630111C05601F2
:103D7000F2E0AF0EB11CF601C080D18096FE03C008
:103D8000612F70E002C06FEF7FEFC601D8D28C01C7
:103D9000F92DFF7713C0560122E0A20EB11CF601E7
:103DA000C080D18096FE03C0612F70E002C06FEF2B
:103DB0007FEFC601B9D28C01F92DF0689F2EF3FD7B
:103DC00018C0852D90E00817190798F4B70180E214
:103DD00090E0DDD25A94F5CFF60197FC859197FEDD
:103DE00081916F01B70190E0D2D251105A940150E5
:103DF00011090115110581F7F0C0843611F08936DB
:103E000059F5560197FE09C024E0A20EB11CF60137
:103E100060817181828193810AC0F2E0AF0EB11C92
:103E2000F60160817181072E000C880B990BF92D2A
:103E3000FF769F2E97FF09C09095809570956195AC
:103E40007F4F8F4F9F4FF0689F2E2AE030E0A301F5
:103E500002D3C82EC6183EC0092D853721F40F7E27
:103E60002AE030E01DC0097F8F3691F018F48835C4
:103E700059F0BCC0803719F0883711F0B7C0006125
:103E800004FF09C0046007C094FE08C0066006C0B5
:103E900028E030E005C020E130E002C020E132E05F
:103EA000560107FF09C084E0A80EB11CF60160812D
:103EB00071818281938108C0F2E0AF0EB11CF601DE
:103EC0006081718180E090E0A301C5D2C82EC61840
:103ED0000F77902E96FE0BC0092D0E7FC11650F461
:103EE00094FE0AC092FC08C0092D0E7E05C0DC2C91
:103EF000092D03C0DC2C01C0D12E04FF0DC0FE0132
:103F0000EC0DF11D8081803311F4097E09C002FFA0
:103F100006C0D394D39404C0802F867809F0D3943C
:103F200003FD10C000FF06C01C2DD51478F4150D3C
:103F30001D190CC0D51450F4B70180E290E027D2CF
:103F4000D394F8CFD51410F45D1801C0512C04FFA0
:103F50000FC0B70180E390E01AD202FF16C001FD46
:103F600003C088E790E002C088E590E0B7010CC08C
:103F7000802F867851F001FF02C08BE201C080E201
:103F800007FD8DE2B70190E002D2C11630F4B7010F
:103F900080E390E0FCD11150F8CFCA94F301EC0D0E
:103FA000F11D8081B70190E0F2D1C110F6CF15C0AC
:103FB000F4E0F51550F584E0581A93FE1EC0011187
:103FC00025C02C8523FF27C004EA12E0392D30716B
:103FD000932EF8018491811121C0552009F4FCCC65
:103FE000B70180E290E0D3D15A94F7CFF7018681F0
:103FF000978123C08FEF9FEF20C0B70180E290E050
:10400000C6D15A945110F9CFDACF512CB701802F75
:1040100090E0BDD1D6CF08EA12E0D8CF91108052FF
:10402000B70190E0B4D10F5F1F4FD3CF23E0251528
:1040300010F483E0C1CF512CC4CF6096CDBFDEBF5A
:10404000DF91CF911F910F91FF90EF90DF90CF9074
:10405000BF90AF909F908F907F906F905F904F90A8
:104060003F902F900895A1E21A2EAA1BBB1BFD01C1
:104070000DC0AA1FBB1FEE1FFF1FA217B307E40747
:10408000F50720F0A21BB30BE40BF50B661F771F9F
:10409000881F991F1A9469F760957095809590957F
:1040A0009B01AC01BD01CF010895EE0FFF1F881FDA
:1040B0008BBF0790F691E02D1994A29FB001B39F9A
:1040C000C001A39F700D811D1124911DB29F700D21
:1040D000811D1124911D0895F0DFA59F900DB49FBF
:1040E000900DA49F800D911D1124089566277727B8
:1040F00010C2FC0188279927E89421912032E9F326
:10410000293010F02E30C8F32B3239F02D3231F433
:10411000689403C034D1820F911D219120532A301D
:10412000C8F31EF4909581959F4F08951F93FC014D
:1041300099278827BC01E89411911032E9F31930CE
:1041400010F01E30C8F31B3249F01D3241F4689460
:1041500005C000D1610F711D811D911D119110537A
:104160001A30B8F33EF490958095709561957F4F25
:104170008F4F9F4F1F910895283008F027E0332775
:10418000DA01990F311D87FD916000966105710577
:1041900039F432602E5F3D9330E32A95E1F70895BC
:1041A0009F3F30F080387105610509F03C5F3C5F4E
:1041B0003D93913008F08068911DDF93CF931F935A
:1041C0000F93FF92EF92192F987F9695E92F96956E
:1041D0009695E90FFF27EA5FFC4F99273327EE24D6
:1041E000FF24A701E70105900894079428F4360FEF
:1041F000E71EF81E491F511D660F771F881F991F64
:104200000694A1F70590079428F4E70EF81E491FBD
:10421000561FC11D770F881F991F661F0694A1F7AF
:104220000590079428F4F80E491F561FC71FD11D8B
:10423000880F991F661F771F0694A1F705900794B2
:1042400020F4490F561FC71FD81F990F661F771FED
:10425000881F0694A9F784911095177041F0D695A0
:10426000C79557954795F794E7941A95C1F7ECEAE7
:10427000F2E06894159015913591659195910590AE
:104280007FE27395E118F10A430B560BC90BD00975
:10429000C0F7E10CF11E431F561FC91FD01D7EF44D
:1042A000703311F48A95E6CFE894015030F0080F8E
:1042B0000AF40027021708F4202F2395022F7A33DF
:1042C00028F079E37D932A95E9F710C07D932A952C
:1042D00089F6069497956795379517951794E11881
:1042E000F10A430B560BC90BD00998F023957E9128
:1042F00073957A3308F070E37C932013B8F77E91BE
:1043000070617D9330F0839571E37D9370E32A951E
:10431000E1F71124EF90FF900F911F91CF91DF9162
:10432000992787FD90950895FC0105906150704094
:104330000110D8F7809590958E0F9F1F0895FC016E
:104340006150704001900110D8F7809590958E0FC4
:104350009F1F0895592F482F372F262F660F771F3D
:10436000881F991F660F771F881F991F620F731F81
:10437000841F951F660F771F881F991F08957AE085
:10438000979F902D879F802D910D112408950F9355
:104390001F93CF93DF93FB01238121FD03C08FEF98
:1043A0009FEF2CC022FF16C04681578124813581A2
:1043B0004217530744F4A081B1819D012F5F3F4F05
:1043C000208331838C93268137812F5F3F4F268353
:1043D000378314C08B01EC01FB010084F185E02DD3
:1043E0001995892BE1F6D80116968D919C91179716
:1043F000019616968D939C931797CE01DF91CF91DE
:104400001F910F9108950F931F93CF93DF93CDB713
:10441000DEB72E97CDBFDEBF0E891F8986E08C8365
:1044200009831A838FEF9FE78D839E83AE01465EDB
:104430005F4F688D798DCE01019692DAEF81F88514
:10444000E00FF11F10822E96CDBFDEBFDF91CF911E
:104450001F910F910895FA01AA27283051F12031B8
:1044600081F1E8946F936E7F6E5F7F4F8F4F9F4F08
:10447000AF4FB1E03ED0B4E03CD0670F781F891F4A
:104480009A1FA11D680F791F8A1F911DA11D6A0F18
:10449000711D811D911DA11D20D009F468943F91CB
:1044A0002AE0269F11243019305D3193DEF6CF01CA
:1044B0000895462F4770405D4193B3E00FD0C9F790
:1044C000F6CF462F4F70405D4A3318F0495D31FDFD
:1044D0004052419302D0A9F7EACFB4E0A695979550
:1044E000879577956795BA95C9F700976105710526
:1044F00008959B01AC010A2E069457954795379570
:104500002795BA95C9F7620F731F841F951FA01DC9
:1045100008958F929F92AF92BF92CF92DF92EF92C7
:10452000FF920F931F93CF93DF93EC016B01611503
:10453000710519F0FB01808391837E01FFEFEF1A73
:10454000FF0A0881802F90E03BD1892B11F0E70111
:10455000F4CF0D3239F47E0182E0E80EF11C0981BE
:1045600011E008C00B3229F47E0192E0E90EF11C43
:10457000098110E0E701219743E050E06EEA73E023
:10458000CE0126D1892BB9F4239645E050E069EAA3
:1045900073E0CE011DD1892B09F42596C114D104F5
:1045A00019F0F601C083D1831111F4C060E070E00E
:1045B00080E89FE7F8C043E050E066EA73E0CE0190
:1045C00007D1892B59F4C114D10409F4E8C0F2E0F1
:1045D000EF0EF11CF601E082F182E1C020E030E054
:1045E000A901C0E0D0E0F70160EDA62EA00E89E0A1
:1045F0008A1528F1912F9260B92E812F887012FFB1
:1046000004C0811123C0219621C081112197A5E00A
:10461000B0E062DDDC01CB01880F991FAA1FBB1F30
:104620009C01AD012A0D311D411D511D283989E91B
:104630003807480789E1580748F0166006C09EEF22
:10464000A9120AC013FD40C01860B12E8FEFE81AFE
:10465000F80A00811B2DC7CF802F8F7D8534A1F5EF
:1046600080818D3211F4106106C08B3221F03196B9
:1046700061E070E004C08181329662E070E08053B6
:104680008A3018F0E61BF70B1FC060E070E060385E
:104690009CE079075CF4DB01AA0FBB1FAA0FBB1FCC
:1046A0006A0F7B1F660F771F680F711D3196DF0140
:1046B00011978C9180538A3050F314FF03C0719589
:1046C00061957109C60FD71F11FF08C0C114D1042D
:1046D00029F0CF010197F60180839183CA01B901C6
:1046E0000E94321A212F2370233019F04B015C01F4
:1046F00006C04B015C01B7FAB094B7F8B09420E063
:1047000030E0A901C501B4010E949519882309F47C
:104710003EC0D7FF06C0D195C195D10905EC13E085
:1047200002C00DED13E06801F8E1CF1AD10890E264
:10473000E92EF12CCE15DF0574F0F80125913591A5
:1047400045915491C501B4010E940D1B4B015C01C0
:10475000CE19DF09EFCF04501109F594E7940C1539
:104760001D0541F78A2D880F8B2D881F8F3F49F03B
:1047700020E030E0A901C501B4010E949519811122
:1047800006C082E290E08093DF2A9093E02AC50180
:10479000B40109C060E070E080E89FEF04C060E011
:1047A00070E080EC9FE7DF91CF911F910F91FF9018
:1047B000EF90DF90CF90BF90AF909F908F90089533
:1047C00091111EC0803219F089508550D0F708959C
:1047D000FB01DC014150504088F08D9181341CF088
:1047E0008B350CF4805E659161341CF06B350CF4F4
:1047F000605E861B611171F3990B0895881BFCCFD5
:0A480000992788270895F894FFCF48
:10480A000A0D4D656D6F7279206572617365642159
:10481A000A0D0A0D00000A0D49442C54696D654DB4
:10482A00532C466C6967687453746174652C4261D1
:10483A00742C416C7469747564652C56656C6F636D
:10484A006974792C416363656C582C416363656CA8
:10485A00592C416363656C5A2C4779726F582C47FF
:10486A0079726F592C4779726F5A2C4C61742C4C9F
:10487A006F6E672C416C74694750530A0D0A0D001C
:10488A00000A0D52656164696E6720646F6E650A7D
:10489A000D0A0D00000D0A2B494E513D310D0A003B
:1048AA00245370616365466F726573742C253036C4
:1048BA006C752C2531752C2530342E32662C252B1F
:1048CA0030382E32662C252B30362E31662C252B8D
:1048DA0030362E32662C252B30362E32662C252B7E
:1048EA0030362E32662C252B30362E31662C252B6F
:1048FA0030362E31662C252B30362E31662C252B60
:10490A0030392E35662C252B3031302E35662C2544
:0E491A002B30382E31662C2531750D0A000029
:00000001FF
