:100000001BC200003AC2000038C2000036C2000025
:1000100034C2000032C2000030C200002EC2000014
:100020002CC200002AC2000028C2000026C2000024
:1000300024C2000022C2000044C600001EC200000C
:100040001CC200001AC2000018C2000016C2000044
:1000500014C2000012C2000010C200000EC2000054
:100060000CC200000AC2000008C2000006C2000064
:1000700004C2000002C2000000C20000FEC1000075
:10008000FCC10000FAC10000F8C10000F6C1000088
:10009000F4C10000F2C10000F0C10000EEC1000098
:1000A000ECC10000EAC10000E8C10000E6C10000A8
:1000B000E4C10000E2C10000E0C10000BAC60000D7
:1000C000DCC10000DAC10000D8C10000D6C10000C8
:1000D000D4C10000D2C10000D0C10000CEC10000D8
:1000E000CCC10000CAC10000C8C10000C6C10000E8
:1000F000C4C10000C2C10000C0C10000BEC10000F8
:10010000BCC10000BAC10000B8C10000B6C1000007
:10011000B4C10000B2C10000B0C10000AEC1000017
:10012000ACC10000AAC10000A8C10000A6C1000027
:10013000A4C100000AC60000A0C100009EC10000CA
:100140009CC100009AC1000098C1000096C1000047
:1001500094C1000092C1000090C100008EC1000057
:10016000CCC400008AC1000088C1000086C1000024
:1001700084C1000082C1000080C100007EC1000077
:100180007CC100007AC1000078C1000076C1000087
:1001900074C1000072C1000070C100006EC1000097
:1001A0006CC100006AC1000068C1000066C10000A7
:1001B00051C6000062C1000060C100005EC10000C5
:1001C0005CC100005AC1000058C1000056C10000C7
:1001D00054C1000052C1000050C10000E7C200003D
:1001E0004CC100004AC1000048C1000046C10000E7
:1001F00044C1000042C1000040C100003704C704F0
:10020000BD046104570423053704370432053F0D4C
:10021000F90CCA0CA40C770C700C4E0C470C160C85
:10022000AA0D084AD73B3BCE016E84BCBFFDC12F4F
:100230003D6C74319ABD56833DDA3D00C77F11BED7
:10024000D9E4BB4C3E916BAAAABE000000803F07D8
:100250002C7AA5BA6CC590DA3B9365FC8BBC53F83D
:1002600010FD3C5692834DBD879D3AB63DCBC9BF2C
:100270005BBE73DA0FC93F07634236B79BD8A71A34
:1002800039685618AEBAAB558C1D3CB7CC5763BD18
:100290006DEDFD753EF6177231BF000000803F081E
:1002A000000000BE922449123EABAAAA2ABECDCCC1
:1002B000CC4C3E00000080BEABAAAAAA3E000000C3
:1002C00000BF000000803F0000000000084178D31C
:1002D000BB4387D1133D190E3CC3BD4282AD2B3EBB
:1002E00068EC8276BED98FE1A93E4C80EFFFBE015B
:1002F000C4FF7F3F0000000000006E616E00696E69
:10030000660000407A10F35A00A0724E18090010DF
:10031000A5D4E80000E87648170000E40B5402007A
:1003200000CA9A3B000000E1F505000080969800A5
:10033000000040420F000000A086010000001027CE
:1003400000000000E803000000006400000000005E
:100350000A00000000000100000000002C76D88890
:10036000DC674F0823DFC1DFAE59E1B1B796E5E3A3
:10037000E453C63AE651997696E8E6C28426EB89BC
:100380008C9B62ED407C6FFCEFBC9C9F40F2BAA559
:100390006FA5F490055A2AF75C936B6CF9676DC1F1
:1003A0001BFCE0E40D47FEF520E6B500D0ED902EF5
:1003B0000300943577050080841E080000204E0A53
:1003C000000000C80C333333330F986E1283114191
:1003D000EF8D2114893BE65516CFFEE6DB18D1845C
:1003E0004B381BF77C1D901DA4BBE4242032847283
:1003F0005E228100C9F124ECA1E53D274E414E4922
:100400004E495459494E46CDCCCC3D0AD7233C17D2
:10041000B7D13877CC2B329595E6241FB14F0A001F
:100420000020410000C84200401C4620BCBE4CCA0F
:100430001B0E5AAEC59D740011241FBECFEFCDBF59
:10044000DFE5DEBF00E00CBF11E2A0E0B0E2EEE1CC
:10045000FAE500E00BBF02C007900D92AE31B10784
:10046000D9F72BE2AEE1B1E201C01D92AD32B20785
:10047000E1F70E94270B0C940D2D89C14F925F92DA
:100480006F927F928F929F92AF92BF92CF92DF92A4
:10049000EF92FF920F931F93CF93DF9300D000D082
:1004A000CDB7DEB78D839E838091200281608093DB
:1004B00020028FE680932102809120028068809341
:1004C00020028091060280FFFCCF81E0809323020E
:1004D000609110027091110280E090E00E94D5229C
:1004E00020E030E040E85DE30E94D2232B013C0194
:1004F00087E7809321028091200280688093200208
:100500008091060280FFFCCF81E0809323026091FE
:1005100010027091110280E090E00E94D52220E04C
:1005200030E040E85DE30E94D2234B015C018FE79D
:100530008093210280912002806880932002809124
:10054000060280FFFCCF81E08093230260911002BD
:100550007091110280E090E00E94D52220E030E00E
:1005600040E85DE30E94D2236B017C0188E3809325
:1005700021028091200280688093200280910602EF
:1005800080FFFCCF81E08093230260911002709184
:10059000110280E090E00E94D52220E030E040E8A7
:1005A00059E30E94D2232DEC3CEC4CE45DE30E9425
:1005B00071212DEC3CEC44E251E40E94D22369838A
:1005C0007A838B839C838FE0809321028091200229
:1005D0008068809320028091060280FFFCCF81E03A
:1005E00080932302809110029091110287E48093FE
:1005F000210280912002806880932002809106026F
:1006000080FFFCCF81E080932302809110029091C3
:1006100011021092200280E1809321028091200239
:100620008068809320028091060280FFFCCF81E0E9
:1006300080932302009110021091110220E030E01B
:1006400048EC52E4C301B2010E94D22320E030E022
:100650004FE753E40E943C22ED81FE81608B718B59
:10066000828B938B20E030E048EC52E4C501B4016A
:100670000E94D22320E030E04FE753E40E943C2266
:10068000ED81FE81648B758B868B978B20E030E04B
:1006900048EC52E4C701B6010E94D22320E030E0CA
:1006A0004FE753E40E943C22ED81FE81608F718F01
:1006B000828F938F23E333E343E75FE364817581A4
:1006C000868197810E94D2236B017C012DEC3CEC4A
:1006D0004CE45DE369817A818B819C810E94D22305
:1006E0009B01AC01C701B6010E947221ED81FE8120
:1006F0006483758386839783B80180E090E00E94CD
:10070000D52220E030E040E859E30E94D2232DECCE
:100710003CEC4CE45DE30E9471212AE939E945E2B1
:1007200051E40E94D2232DEC3CEC4CE45DE30E94AA
:10073000D2236B017C0123E333E343E75FE3ED81E5
:10074000FE81648D758D868D978D0E94D2239B01CD
:10075000AC01C701B6010E947221ED81FE81648F58
:10076000758F868F978F2696CDBFDEBFDF91CF9195
:100770001F910F91FF90EF90DF90CF90BF90AF90BF
:100780009F908F907F906F905F904F9008951F92F1
:100790000F920FB60F9211248F9388E08093070673
:1007A0008F910F900FBE0F901F9018951F920F9270
:1007B0000FB60F9211240BB60F922F933F934F93C6
:1007C0005F936F937F938F939F93AF93BF93EF93B9
:1007D000FF93CF93DF931F92CDB7DEB700008091D8
:1007E000A00B89838981843209F455C089818A32BA
:1007F00009F43FC080916424882391F08981E091BD
:1008000061248C32D9F181E08E0F8093612489813B
:10081000F0E0EC5EFB4D81AF80916524811116C044
:100820000F90DF91CF91FF91EF91BF91AF919F9189
:100830008F917F916F915F914F913F912F910F9089
:100840000BBE0F900FBE0F901F901895E091622481
:10085000109265248E2F90E0FC013297E930F1056B
:10086000F8F68827E250FF4F8F4F0C945F29000065
:10087000D7CF1092642410926124D2CFF0E0EC5EC6
:10088000FB4D81AF1092612480916224E1E0E80F7A
:10089000E0936224DDCF81E08093642484E194E2DC
:1008A0000E9435201092612410926224B9CF809169
:1008B0004D24853419F0873509F088E58093262486
:1008C000AFCF80914D248C3209F4AACF8093272496
:1008D00080914E248C3209F4A3CF809328248091F8
:1008E0004F248C3209F49CCF80932924809150248A
:1008F0008C3209F495CF80932A24809151248C3234
:1009000009F48ECF80932B24809152248C3209F4E9
:1009100087CF80932C24809153248C3209F480CF8C
:1009200080932D24809154248C3209F479CF8093C4
:100930002E24809155248C3209F472CF80932F2479
:10094000809156248C3209F46BCF809330248091AF
:1009500057248C3209F464CF809331248091582439
:100960008C3209F45DCF80933224809159248C32EB
:1009700009F456CF8093332453CF80914D248E3485
:1009800019F0833509F088E58093182449CF8091C8
:100990004D248C3209F444CF8093192480914E2445
:1009A0008C3209F43DCF80931A2480914F248C32ED
:1009B00009F436CF80931B24809150248C3209F4A3
:1009C0002FCF80931C24809151248C3209F428CF9E
:1009D00080931D24809152248C3209F421CF80937E
:1009E0001E24809153248C3209F41ACF80931F2443
:1009F000809154248C3209F413CF80932024809169
:100A000055248C3209F40CCF8093212480915624F4
:100A10008C3209F405CF80932224809157248C32A4
:100A200009F4FECE80932324809158248C3209F45B
:100A3000F7CE80932424809159248C3209F4F0CE8F
:100A400080932524EDCE80914D24803309F44EC04F
:100A5000813309F44EC0823309F0E2CE82E0809304
:100A60004C24DECE80914D248C3291F1809334243D
:100A700080914E248C3261F18093352480914F24F3
:100A80008C3231F180933624809150248C3201F1E4
:100A900080933724809151248C32D1F08093382474
:100AA000809152248C32A1F0809339248091532478
:100AB0008C3271F080933A24809154248C3241F02E
:100AC00080933B24809155248C3211F080933C24F8
:100AD00084E194E20E94992084E5E4E1F4E2A0EC50
:100AE000B3E201900D928A95E1F79ACE10924C24D0
:100AF00097CE81E080934C2493CE1F920F920FB635
:100B00000F9211240BB60F922F933F934F935F9345
:100B10006F937F938F939F93AF93BF93EF93FF93C5
:100B2000CF93DF931F92CDB7DEB780E180930506A8
:100B30008091A00989838981843209F47BC08981ED
:100B40008235C1F18981833409F443C089818035BC
:100B500009F474C08981883509F44CC089818B34CB
:100B600009F453C08981833509F459C089818634D9
:100B700009F484C08981813409F48AC0898184346C
:100B800009F490C0109276290F90DF91CF91FF91D8
:100B9000EF91BF91AF919F918F917F916F915F91F5
:100BA0004F913F912F910F900BBE0F900FBE0F9062
:100BB0001F90189580917629882321F28FB7F89499
:100BC0001092762998ED94BF91E0909379008FBFB1
:100BD000DBCF80917629882309F4B8CF10928D233A
:100BE00010928E2381E080938F2380937729109237
:100BF0007629CACF80917629882309F4AFCF81E086
:100C00008093792910927629BFCF80917629882305
:100C100009F4A8CF1092792910927629B5CF809146
:100C20007629882309F4A2CF81E080937829109255
:100C30007629AACF81E080937629A6CF8091762964
:100C4000882309F487CF0E94D31510926221109255
:100C5000632110926421109265211092762981E01F
:100C600080936A23809369232FEF87EA91E62150CE
:100C700080409040E1F700C0000086CF8091762947
:100C800081111AC08981813409F078CF89817ACFA6
:100C9000809176298823D1F381E080937A2910927C
:100CA000762972CF80917629882309F46BCF109230
:100CB0007A291092762968CF109278291092762995
:100CC00063CF1F920F920FB60F9211240BB60F92A3
:100CD0002F933F934F935F936F937F938F939F9344
:100CE000AF93BF93CF93DF93EF93FF93E5E6FAE2E1
:100CF000A285B38581E08C93C689D7896881798183
:100D00008A819B810E94D52220E030E040E251E4BC
:100D10000E9472210E94A922688379838A839B831F
:100D2000FF91EF91DF91CF91BF91AF919F918F9103
:100D30007F916F915F914F913F912F910F900BBEDB
:100D40000F900FBE0F901F9018951F920F920FB625
:100D50000F9211242F933F938F939F938091692338
:100D6000882331F180916A238230B1F108F449C0BF
:100D7000843061F108F44FC08530F9F490916C2310
:100D8000943038F520916B238BEA289F812D112414
:100D90008695382F330F830F281306C080E4809385
:100DA000A7069F5F90936C232F5F20936B2305C052
:100DB00010926A2380E48093A6069F918F913F91C1
:100DC0002F910F900FBE0F901F90189580E4809385
:100DD000A50610926A23F1CF90916B238DEC989F1A
:100DE000812D112486958695282F220F220F820FA0
:100DF000981303C080E48093A7069F5F90936B23B2
:100E0000DCCF882361F08130C1F690916C2396305D
:100E100008F4B8CFDECF80E48093A506CECF109241
:100E2000692310926C2310926B2380E48093A606B2
:100E3000C4CF1F920F920FB60F9211248F9380E1AF
:100E400080930606109276298F910F900FBE0F9017
:100E50001F9018951F920F920FB60F9211240BB688
:100E60000F922F933F934F935F936F937F938F9343
:100E70009F93AF93BF93EF93FF9380E28093070616
:100E800080917829882319F180914B2A90914C2ADE
:100E9000A0914D2AB0914E2A8F3926E8920721E081
:100EA000A207B10538F110924B2A10924C2A1092E9
:100EB0004D2A10924E2A0E949520882341F060917D
:100EC0004829709149298EEE96E20E945D20FF919B
:100ED000EF91BF91AF919F918F917F916F915F91B2
:100EE0004F913F912F910F900BBE0F900FBE0F901F
:100EF0001F9018950196A11DB11D80934B2A9093C8
:100F00004C2AA0934D2AB0934E2AD5CFCF93DF938E
:100F1000C0918D23D0918E23209709F00DC110929E
:100F20006D2310926E2310926F23109270231092F3
:100F300071231092722310927323109274231092D3
:100F400075231092762310927723109278231092B3
:100F5000792310927A2310927B2310927C23109293
:100F60007D2310927E2310927F2310928023109273
:100F70008123109282231092832310928423109253
:100F80008523109286231092872310928823109233
:100F9000892310928A2310928B2310928C2380E451
:100FA000809305062091A6233091A7234091A82382
:100FB0005091A923609171237091722380917323C2
:100FC000909174230E947221609371237093722315
:100FD00080937323909374238091E9299091EA2957
:100FE000092E000CAA0BBB0B409175235091762360
:100FF0006091772370917823840F951FA61FB71FE8
:101000008093752390937623A0937723B0937823CE
:101010008091EB299091EC29092E000CAA0BBB0BB7
:101020004091792350917A2360917B2370917C23A6
:10103000840F951FA61FB71F8093792390937A235F
:10104000A0937B23B0937C238091ED299091EE298E
:10105000092E000CAA0BBB0B40917D2350917E23DF
:1010600060917F2370918023840F951FA61FB71F67
:1010700080937D2390937E23A0937F23B09380233E
:101080008091832990918429092E000CAA0BBB0B17
:101090004091812350918223609183237091842316
:1010A000840F951FA61FB71F8093812390938223DF
:1010B000A0938323B09384238091852990918629DE
:1010C000092E000CAA0BBB0B40918523509186235F
:1010D0006091872370918823840F951FA61FB71FE7
:1010E0008093852390938623A0938723B0938823AE
:1010F0008091872990918829092E000CAA0BBB0B9F
:101100004091892350918A2360918B2370918C2385
:10111000840F951FA61FB71F8093892390938A235E
:10112000A0938B23B0938C232196C0938D23D093CF
:101130008E23DF91CF910895C83CD10508F432CFBA
:1011400020E030E048E453E4609171237091722311
:1011500080917323909174230E943C226093B0236A
:101160007093B1238093B2239093B323609175233E
:101170007091762380917723909178230E94D722D3
:1011800020E030E048E453E40E943C226093312A9E
:101190007093322A8093332A9093342A6091792372
:1011A00070917A2380917B2390917C230E94D72297
:1011B00020E030E048E453E40E943C226093352A6A
:1011C0007093362A8093372A9093382A60917D2332
:1011D00070917E2380917F23909180230E94D7225B
:1011E00020E030E048E453E40E943C226093392A36
:1011F00070933A2A80933B2A90933C2A60918123F2
:101200007091822380918323909184230E94D7221E
:1012100020E030E048E453E40E943C226093CD2972
:101220007093CE298093CF299093D0296091852304
:101230007091862380918723909188230E94D722E2
:1012400020E030E048E453E40E943C226093D1293E
:101250007093D2298093D3299093D42960918923C4
:1012600070918A2380918B2390918C230E94D722A6
:1012700020E030E048E453E40E943C226093D5290A
:101280007093D6298093D7299093D82910928D23D3
:1012900010928E2310928F231092772980E48093EE
:1012A0000606DF91CF91089580E20E94EA170E941E
:1012B00025180E9426180E94A9180E94E8180E946A
:1012C000D1180E94E7180E94FE188AE090E00E9460
:1012D000271882E390E00E94461882E390E00E9483
:1012E000651888EE93E00E948418109246291092A7
:1012F0004729A4E7B9E21C9211961C921197E5E6E2
:10130000FAE28BE09BE28087918783EE99E280830B
:1013100091838DE799E28283938382EA93E28483C7
:10132000958380EC93E286839783A287B38780E9D5
:1013300093E28487958785EA9AE2868797878EEE7F
:1013400096E2808B918B88E694E2828B938B83E587
:101350009AE2848B958B87E49AE2868B978B86E65C
:1013600091E2808F918F81E89AE2828F938F0E9421
:1013700056190E9476190E940D1E0E94681A0E943A
:101380007A190E946B1B0E9463190E94C01760E8C3
:1013900070E080E090E00E94ED166093622170930F
:1013A0006321809364219093652187E08093A2005C
:1013B0000895CF92DF92EF92FF921F93CF93DF9326
:1013C000CDB7DEB7CF57D109CDBFDEBF809188063C
:1013D00080FFFCCF1092792983E080936A2381E01B
:1013E000809369232FEF87E893E12150804090405C
:1013F000E1F700C00000109269238091880681FF08
:10140000FCCF8BE6E6E1F0E2DE01119601900D9251
:101410008A95E1F784E1E1E8F0E2DE01A459BF4FEB
:1014200001900D928A95E1F769E670E0CE01019690
:101430000E9472202FEF87EA91E621508040904071
:10144000E1F700C0000084E08093050681E00E947F
:10145000C91583E00E94AE1580E00E94AE1580E0C1
:101460000E94AE1580E00E94AE1510E0C12CD12C78
:1014700076010CC08FE39CE90197F1F700C00000F2
:101480008091880680FF24C0143610F50E94C01594
:101490008F3FB1F1882391F18093A00910E02FEFE5
:1014A000C21AD20AE20AF20AD701C6018F77992737
:1014B000AA27BB27892B8A2B8B2BE1F28FE193E0A4
:1014C0000197F1F700C000008091880680FDDCCF15
:1014D00080E00E94C91562E170E0CE0184599F4FFF
:1014E0000E947220C158DF4FCDBFDEBFDF91CF9188
:1014F0001F91FF90EF90DF90CF90089510E0CFCF35
:101500001F5FCDCF8BE0E5E9F0E2AEEEB6E20190F1
:101510000D928A95E1F76AE070E08EEE96E20E9405
:1015200072202FEF33EC89E0215030408040E1F70A
:1015300000C00000E0E0F6E088E085839FEF27E848
:1015400033E1915020403040E1F700C00000868335
:101550009FEF23EC39E0915020403040E1F700C08C
:10156000000085839FEF27E833E191502040304011
:10157000E1F700C0000086838FEF93EC29E08150F3
:1015800090402040E1F700C000000895CF93DF9322
:10159000CDB7DEB76697CDBFDEBF8091880680FDF0
:1015A00004C08091880681FF10C08091880680FF6A
:1015B00006C06696CDBFDEBFDF91CF9108956696D7
:1015C000CDBFDEBFDF91CF91F4CE86E1E0E0F0E267
:1015D000DE01119601900D928A95E1F780918806BF
:1015E00080FFFCCF8091880681FFF8CF83E0809355
:1015F0006A2381E0809369230E94D3152FEF87EA45
:1016000091E6215080409040E1F700C000008981C0
:10161000882369F0FE0132968093A0098FE79EE34C
:101620000197F1F700C0000081918111F5CF109270
:10163000692310926221109263211092642110920A
:1016400065216696CDBFDEBFDF91CF9108952CDE78
:10165000789458DF9BDF10928D2310928E2381E0C7
:1016600080938F238093772910927929809378290A
:1016700080937A29D2E086E0682E92E0D92EFF246A
:10168000F39425E0E22E38E0732E47E0C42EC4E048
:101690002AE02A95F1F700C0809174298823C1F3CC
:1016A000109274298091652A9091662A0E94211EC9
:1016B0008091652A9091662A0E946D1E8091712A00
:1016C0009091722A0E94AB198091712A9091722A8E
:1016D0000E94F3198091692A90916A2A0E94771AD0
:1016E0008091692A90916A2A0E94A51A8091692A9C
:1016F00090916A2A0E94D11A8091672A9091682A53
:101700000E94121C80916D2A90916E2A0E943E02C6
:101710008090B4239090B523A090B623B090B723C7
:101720002091B8233091B9234091BA235091BB2323
:10173000C501B4010E94C723181644F48092B8234F
:101740009092B923A092BA23B092BB2343E06EE1FA
:1017500071E285EA9AE2BCD405EA1AE22EE131E2AE
:101760004AE057ED63E27CE381E89AE2B2D38091EC
:101770007A2981114DC010927B2910926A23109210
:101780007929D0936606C093050685E69AE20E9401
:10179000711FC093060680917929811115C080912F
:1017A0004A2981110AC086E892E0E8E6F4E2AEEE4A
:1017B000B6E201900D920197E1F780918F23882383
:1017C00009F466CFA3DB63CF48E654E260E870E03B
:1017D00082E691E20E94651780914F2A9091502AEB
:1017E000A091512AB091522A8F3322E492072FE020
:1017F000A207B10508F0B5C10196A11DB11D8093E6
:101800004F2A9093502AA093512AB093522AC7CFBF
:1018100080917B2990E08A30910508F0B4CFFC01DB
:101820008827E95FFE4F8F4F0C945F2920E030E05E
:1018300048E453E46091B4237091B5238091B623BA
:101840009091B7230E94382287FF9DCF8090BC23C0
:101850009090BD23A090BE23B090BF2320E030E045
:1018600040E85FE3C501B4010E94382287FF8BCFB7
:1018700020E030E040E85FEBC501B4010E94C723DF
:1018800018160CF080CFF9E0F0937B297CCFE09222
:101890006A23F092692370927B2975CFA090732AF6
:1018A000B090742A20E030E048EC53E4F5016489FC
:1018B0007589868997890E94382287FDC0927B2985
:1018C00020E030E040EF51ECF501608971898289B8
:1018D00093890E94382287FF56CFC0927B2953CF2D
:1018E000F0926A23F092692360927B294CCF209179
:1018F000B4233091B5234091B6235091B723609122
:10190000B8237091B9238091BA239091BB230E9490
:10191000712120E030E040E251E40E94C723181614
:101920000CF031CF20E030E0A9016091BC23709130
:10193000BD238091BE239091BF230E94382287FF50
:1019400022CFE0927B291FCF6091472A7091482ACD
:101950008091492A90914A2A0E94D5224B015C012C
:1019600020E030E04AEF54E460915E2170915F2105
:1019700080916021909161210E9472219B01AC01B4
:10198000C501B4010E94C72318160CF0FCCEC09309
:101990007B29F9CE6091472A7091482A8091492A83
:1019A00090914A2A0E94D5224B015C0120E030E050
:1019B0004AE754E460915E2170915F21809160213B
:1019C000909161210E9472219B01AC01C501B4017B
:1019D0000E94C72318160CF0D6CE80925E219092FA
:1019E0005F21A0926021B092612183E080937B29E6
:1019F000CACE20E030E0A9016091A52A7091A62A04
:101A00008091A72A9091A82A0E94382287FFBBCEF6
:101A100020E030E048E452E46091B92A7091BA2A9B
:101A20008091BB2A9091BC2A0E94C72318160CF003
:101A3000AACE20E030E048E452E46091B52A7091EB
:101A4000B62A8091B72A9091B82A0E94C723181607
:101A50000CF099CE6091472A7091482A8091492ACA
:101A600090914A2A0E94D52260935E2170935F2153
:101A70008093602190936121D0927B2984CE8090C5
:101A8000A52A9090A62AA090A72AB090A82A20E084
:101A900030E040E450E4C501B4010E94C7231816A9
:101AA00024F4F0927929C0937B2920E030E040E0D3
:101AB00050E4C501B4010E94382287FF2CC026E6FD
:101AC00036E646E65FE36091B0237091B1238091E2
:101AD000B2239091B3230E94D2231B012C012DEC41
:101AE0003CEC4CEC5DE36091A6237091A7238091C0
:101AF000A8239091A9230E94D2239B01AC01C2018B
:101B0000B1010E9472216093B0237093B12380933E
:101B1000B2239093B32320E030E040E050E4C501CD
:101B2000B4010E94C723181624F4C0936A23F092CC
:101B300069238091B4239091B523A091B623B091ED
:101B4000B7238093B8239093B923A093BA23B0937B
:101B5000BB2319CED0926A23F0926923109279297F
:101B600012CE10924F2A1092502A1092512A10929F
:101B7000522A15CE9091840497FFFCCF882319F048
:101B800087E080938304809187040895809386047E
:101B90008091840486FFFCCF609387048091840445
:101BA00086FFFCCF409387048091840486FFFCCF9E
:101BB00083E0809383040895F901809386049091D3
:101BC000840496FFFCCF609387049091840496FF71
:101BD000FCCF91E09093830481608093860450E071
:101BE000415051091416150674F490E08091840454
:101BF00087FFFCCF8091870481939F5F292F30E07E
:101C0000241735079CF38091840487FFFCCF87E07D
:101C10008093830480918704808308954F925F921C
:101C20006F927F928F929F92AF92BF92CF92DF92EC
:101C3000EF92FF92CF93DF93CDB7DEB76E97CDBF14
:101C4000DEBF8D8F9E8FDC014D905D906D907C90FE
:101C5000139714968D919D910D90BC91A02D898321
:101C60009A83AB83BC839C01AD01C301B2010E9486
:101C7000D2236D837E838F839887ED8DFE8D808444
:101C80009184A284B384A5019401C301B2010E948E
:101C9000D22369877A878B879C87AD8DBE8D1C96F2
:101CA000CD90DD90ED90FC901F97A7019601C301A8
:101CB000B2010E94D2232B013C01A501940169814C
:101CC0007A818B819C810E94D2236D877E878F874A
:101CD000988BA701960169817A818B819C810E94F2
:101CE000D223698B7A8B8B8B9C8BA7019601C501C4
:101CF000B4010E94D2236D8B7E8B8F8B988FA501B0
:101D00009401C501B4010E94D2239B01AC010E9441
:101D10007221698F7A8F8B8F9C8FA7019601C701E3
:101D2000B6010E94D2239B01AC010E9472216B017B
:101D30007C01298D3A8D4B8D5C8D60E070E080E8F0
:101D40009FE30E947121A70196010E947121ED8DF0
:101D5000FE8D608B718B828B938BA30192016D85BD
:101D60007E858F8598890E9471219B01AC010E941C
:101D70007221AD8DBE8D54966D937D938D939C9302
:101D8000579729893A894B895C8969857A858B853A
:101D90009C850E9472219B01AC010E947221ED8DF5
:101DA000FE8D608F718F828F938F2D853E854F853D
:101DB0005889C301B2010E9472219B01AC010E94AB
:101DC0007221AD8DBE8D5C966D937D938D939C93AA
:101DD0005F9729813A814B815C81CA01B9010E94D8
:101DE000D2239B01AC010E9472219B01AC0160E0F7
:101DF00070E080E89FE30E9471214B015C01A70124
:101E000096010E947121ED8DFE8D60A371A382A3C6
:101E100093A32D813E814F8158856D897E898F895D
:101E2000988D0E9471219B01AC010E947221AD8DA1
:101E3000BE8D94966D937D938D939C9397972985F2
:101E40003A854B855C8569897A898B899C890E9452
:101E500071219B01AC010E947221ED8DFE8D60A766
:101E600071A782A793A72D893E894F89588D6D81CF
:101E70007E818F8198850E9472219B01AC010E9416
:101E80007221AD8DBE8D9C966D937D938D939C93A9
:101E90009F97298D3A8D4B8D5C8DC501B4010E94B1
:101EA0007121ED8DFE8D60AB71AB82AB93AB6E9605
:101EB000CDBFDEBFDF91CF91FF90EF90DF90CF904D
:101EC000BF90AF909F908F907F906F905F904F905A
:101ED00008952F923F924F925F926F927F928F92CE
:101EE0009F92AF92BF92CF92DF92EF92FF920F93A9
:101EF0001F93CF93DF93CDB7DEB72A97CDBFDEBF59
:101F00001C0129873A87F80180809180A280B380E4
:101F1000C480D580E680F780208531854285538551
:101F200029833A834B835C83A985BA855C962D917E
:101F30003D914D915C915F97C501B4010E94D22300
:101F40002B013C01E985FA8520A131A142A153A1D1
:101F5000C701B6010E94D2239B01AC01C301B201AB
:101F60000E9472212B013C01A985BA8594962D917E
:101F70003D914D915C91979769817A818B819C818C
:101F80000E94D2239B01AC01C301B2010E947221C5
:101F90009B01AC0150582D833E834F835887A98500
:101FA000BA8598962D913D914D915C919B97C50175
:101FB000B4010E94D2232B013C01E985FA8524A5B6
:101FC00035A546A557A5C701B6010E94D2239B019E
:101FD000AC01C301B2010E9472212B013C01A98511
:101FE000BA85D0962D913D914D915C91D3976981A1
:101FF0007A818B819C810E94D2239B01AC01C30119
:10200000B2010E94722120E030E040E85FE30E94CC
:1020100071212B013C01E985FA85208931894289AA
:102020005389C501B4010E94D2234B015C01A985EB
:10203000BA8554962D913D914D915C915797C7016A
:10204000B6010E94D2239B01AC01C501B4010E94DC
:1020500072216B017C01E985FA85208D318D428DDD
:10206000538D69817A818B819C810E94D2239B014F
:10207000AC01C701B6010E947221D1016D937D931D
:102080008D939C9313972D813E814F815885149693
:102090002D933D934D935C931797F10140865186A4
:1020A000628673862A96CDBFDEBFDF91CF911F91E6
:1020B0000F91FF90EF90DF90CF90BF90AF909F90E7
:1020C0008F907F906F905F904F903F902F900895EA
:1020D0004F925F926F927F928F929F92AF92BF9238
:1020E000CF92DF92EF92FF920F931F93CF93DF93E4
:1020F000CDB7DEB7AE97CDBFDEBF8C016DA77EA793
:10210000DC018D919D910D90BC91A02D8D879E87B6
:10211000AF87B88BD80114968D919D910D90BC918D
:10212000A02D8D8F9E8FAF8FB8A3D80118968D915B
:102130009D910D90BC91A02D89A39AA3ABA3BCA3A4
:1021400025E33AEF4EE85CE3F80160A171A182A1BA
:1021500093A10E94D2236D837E838F83988725E38A
:102160003AEF4EE85CE3D80194966D917D918D91A4
:102170009C9197970E94D22369877A878B879C8747
:1021800025E33AEF4EE85CE3F80160A571A582A56E
:1021900093A50E94D223698F7A8F8B8F9C8FD80151
:1021A0009C964D905D906D907C909F97D0968D9071
:1021B0009D90AD90BC90D397D4968D919D910D90AC
:1021C000BC91A02D89839A83AB83BC832D813E81F2
:1021D0004F815885CA01B9010E94D223698B7A8B3D
:1021E0008B8B9C8B29853A854B855C85CA01B9010F
:1021F0000E94D2236D8B7E8B8F8B988F298D3A8D89
:102200004B8D5C8DCA01B9010E94D2236B017C0108
:102210002D893E894F89588D69897A898B899C8956
:102220000E947221A70196010E9472210E948524BA
:102230006DA37EA38FA398A7A3019201C301B2014E
:102240000E94D2236B017C01A5019401C501B40158
:102250000E94D2239B01AC01C701B6010E947221EA
:102260006B017C0129813A814B815C81CA01B901F2
:102270000E94D2239B01AC01C701B6010E947221CA
:102280006B017C012AE037ED43E25CE30E94C72347
:1022900018160CF04EC4C701B6010E9485246B01CC
:1022A0007C019B01AC01C301B2010E943C222B01C5
:1022B0003C01A7019601C501B4010E943C224B01DB
:1022C0005C01A701960169817A818B819C810E94C2
:1022D0003C2269837A838B839C83EDA5FEA52089AC
:1022E000318942895389C301B2010E94D2236B0113
:1022F0007C01ADA5BEA554962D913D914D915C916B
:102300005797C501B4010E94D2239B01AC01C701BC
:10231000B6010E9472216B017C01EDA5FEA5208D06
:10232000318D428D538D69817A818B819C810E9490
:10233000D2239B01AC01C701B6010E9472216B013F
:102340007C01ADA5BEA55C962D913D914D915C9112
:102350005F97C301B2010E94D2232B013C01EDA57E
:10236000FEA520A131A142A153A1C501B4010E9443
:10237000D2239B01AC01C301B2010E9472214B0127
:102380005C01ADA5BEA594962D913D914D915C91BA
:10239000979769817A818B819C810E94D2239B01CE
:1023A000AC01C501B4010E9472214B015C019B018B
:1023B000AC010E94D2232B013C01A7019601C70169
:1023C000B6010E94D223A30192010E9472210E94B1
:1023D00085249B01AC01C501B4010E94D2236B018D
:1023E0007C01F7FAF094F7F8F094EDA5FEA520A58E
:1023F00031A542A553A5C701B6010E94D22320E012
:1024000030E0A9010E94722169837A838B839C83C7
:10241000ADA5BEA59C962D913D914D915C919F9748
:10242000C701B6010E94D22320E030E0A9010E943A
:102430007221698B7A8B8B8B9C8BEDA5FEA520A9D5
:1024400031A942A953A9C701B6010E94D22320E0B5
:1024500030E0A9010E9472216D8B7E8B8F8B988F4B
:102460002D853E854F855889CA01B9010E94D22326
:102470006B017C012D8D3E8D4F8D58A1CA01B90194
:102480000E94D2239B01AC01C701B6010E947221B8
:102490006B017C0129A13AA14BA15CA1CA01B90140
:1024A0000E94D2239B01AC01C701B6010E94722198
:1024B0006B017C012AE037ED43E25CE30E94C72315
:1024C00018160CF0ACC0C701B6010E9485246B0140
:1024D0007C019B01AC016D857E858F8598890E946A
:1024E0003C2269A77AA78BA79CA7A70196016D8DAF
:1024F0007E8D8F8D98A10E943C226D8F7E8F8F8F55
:1025000098A3A701960169A17AA18BA19CA10E9421
:102510003C222B013C01ADA5BEA5D0968D909D908F
:10252000AD90BC90D3979C968D919D910D90BC9150
:10253000A02D8D879E87AF87B88BA50194016D8DE7
:102540007E8D8F8D98A10E94D2236B017C012D85F9
:102550003E854F855889C301B2010E94D2239B0159
:10256000AC01C701B6010E9471219B01AC016981D8
:102570007A818B819C810E94722169837A838B830B
:102580009C83EDA5FEA5C0A4D1A4E2A4F3A4A70159
:102590009601C301B2010E94D2232B013C01A50187
:1025A000940169A57AA58BA59CA50E94D2239B01C5
:1025B000AC01C301B2010E9471219B01AC01698988
:1025C0007A898B899C890E947221698B7A8B8B8B8B
:1025D0009C8B2D853E854F85588969A57AA58BA54D
:1025E0009CA50E94D2234B015C01A70196016D8D31
:1025F0007E8D8F8D98A10E94D2239B01AC01C501D5
:10260000B4010E9471219B01AC016D897E898F8983
:10261000988D0E9472216D8B7E8B8F8B988F22EC10
:1026200038EB42EB5EE36DA17EA18FA198A50E94DD
:10263000382287FF8BC226EA3BE944E45BE36981E9
:102640007A818B819C810E94D2232AE037ED43E27C
:102650005CE30E94D22320E030E0A9010E947221B5
:102660002B013C0126EA3BE944E45BE369897A8972
:102670008B899C890E94D2232AE037ED43E25CE3F8
:102680000E94D22320E030E0A9010E9472214B0178
:102690005C0126EA3BE944E45BE36D897E898F892E
:1026A000988D0E94D2232AE037ED43E25CE30E943A
:1026B000D22320E030E0A9010E9472216B017C014D
:1026C00020E030E040E250E469817A818B819C8196
:1026D0000E94D223A30192010E9472212D813E818A
:1026E0004F8158850E9472212AE037ED43EA5BE36F
:1026F0000E94D2236D877E878F87988B20E030E001
:1027000040E250E469897A898B899C890E94D223AE
:10271000A50194010E94722129853A854B855C852B
:102720000E9472212AE037ED43EA5BE30E94D22344
:102730002B013C0120E030E040E250E46D897E89CD
:102740008F89988D0E94D223A70196010E94722141
:10275000298D3A8D4B8D5C8D0E9472212AE037EDD8
:1027600043EA5BE30E94D2236B017C01ADA5BEA5C9
:102770008D919D910D90BC91A02D8D839E83AF83F3
:10278000B887ADA5BEA514968D919D910D90BC9175
:10279000A02D89879A87AB87BC87ADA5BEA5189663
:1027A0008D919D910D90BC91A02D898F9A8FAB8FAB
:1027B000BC8FADA5BEA51C968D919D910D90BC9131
:1027C000A02D89839A83AB83BC8369857A858B85A9
:1027D0009C8590582D853E854F8558890E94D2232F
:1027E0004B015C01298D3A8D4B8D5C8DC301B2018B
:1027F0000E94D2239B01AC01C501B4010E9471214A
:102800004B015C0129813A814B815C81C701B60192
:102810000E94D2239B01AC01C501B4010E94712129
:102820002D813E814F8158850E947221698B7A8B60
:102830008B8B9C8B2D813E814F8158856D857E854C
:102840008F8598890E94D2234B015C01298D3A8D96
:102850004B8D5C8DC701B6010E94D2239B01AC0158
:10286000C501B4010E9472214B015C0129813A81AA
:102870004B815C81C301B2010E94D2239B01AC0158
:10288000C501B4010E94712129853A854B855C857B
:102890000E9472216D8B7E8B8F8B988F2D813E8154
:1028A0004F815885C301B2010E94D2234B015C01C4
:1028B00029853A854B855C85C701B6010E94D223E4
:1028C0009B01AC01C501B4010E9471214B015C0167
:1028D00029813A814B815C816D857E858F859889C0
:1028E0000E94D2239B01AC01C501B4010E94722158
:1028F000298D3A8D4B8D5C8D0E9472216D8F7E8F5C
:102900008F8F98A32D813E814F815885C701B601D5
:102910000E94D2236B017C0129853A854B855C8519
:10292000C301B2010E94D2239B01AC01C701B601D1
:102930000E9472216B017C01298D3A8D4B8D5C8D3B
:102940006D857E858F8598890E94D2239B01AC017D
:10295000C701B6010E94712129813A814B815C81B6
:102960000E9472216B017C0129893A894B895C891B
:10297000CA01B9010E94D2232B013C012D893E8955
:102980004F89588DCA01B9010E94D2236D837E837D
:102990008F8398872D8D3E8D4F8D58A1CA01B90127
:1029A0000E94D22369877A878B879C87A70196012B
:1029B000C701B6010E94D2234B015C012D813E81EB
:1029C0004F815885C301B2010E94722129853A8541
:1029D0004B855C850E947221A50194010E947221A1
:1029E0000E9485244B015C019B01AC0169897A89B5
:1029F0008B899C890E943C22EDA5FEA56083718392
:102A000082839383A50194016D897E898F89988D36
:102A10000E943C22ADA5BEA514966D937D938D9327
:102A20009C931797A50194016D8D7E8D8F8D98A134
:102A30000E943C22EDA5FEA560877187828793875F
:102A4000A5019401C701B6010E943C22ADA5BEA517
:102A50001C966D937D938D939C931F97CD01DED82B
:102A6000EDA5FEA520A931A942A953A964A575A584
:102A700086A597A50E94E52120EE3EE245E652E4B8
:102A80000E94D223ADA5BEA5D4966D937D938D9360
:102A90009C93D797FD0180A591A5A2A5B3A5BC01E4
:102AA000CD0190580E9463219B01AC016BED7FE04A
:102AB00089EC9FE30E94712120EE3EE245E652E45C
:102AC0000E94D223ADA5BEA5D8966D937D938D931C
:102AD0009C93DB9750962D913D914D915C9153972E
:102AE0005C966D917D918D919C915F970E94E521FF
:102AF000905820EE3EE245E652E40E94D223EDA536
:102B0000FEA564AF75AF86AF97AFAE96CDBFDEBF03
:102B1000DF91CF911F910F91FF90EF90DF90CF90B9
:102B2000BF90AF909F908F907F906F905F904F90ED
:102B300008951D8A1E8A1F8A188E198A1A8A1B8A6E
:102B40001C8A19821A821B821C828ACCC12CD12C2D
:102B500076014601570126013701B2CDCF93DF93AD
:102B60001F92CDB7DEB78093C3088091C20887FF5C
:102B7000FCCF8091C30889830F90DF91CF91089596
:102B80001092C3088091C20887FFFCCF8091C308D0
:102B90000895811104C081E080936506089581E065
:102BA000809366060895CF93DF93CDB7DEB727975E
:102BB000CDBFDEBF81E08093660685E08093C308C9
:102BC0008091C20887FFFCCF8091C3088B8310924D
:102BD000C3088091C20887FFFCCF8091C3088C8313
:102BE0001092C3088091C20887FFFCCF8091C30870
:102BF0008C838C8180FDF4CF81E080936506809387
:102C0000660686E08093C3088091C20887FFFCCFE8
:102C10008091C3088E8381E0809365068093660669
:102C200087EC8093C3088091C20887FFFCCF809116
:102C3000C3088F8381E080936506EFE1F3E031976D
:102C4000F1F700C000008093660685E08093C3081A
:102C50008091C20887FFFCCF8091C30889831092BE
:102C6000C3088091C20887FFFCCF8091C3088A8384
:102C70001092C3088091C20887FFFCCF8091C308DF
:102C80008A838A8180FDF4CF81E0809365068093FA
:102C9000660684E08093C3088091C20887FFFCCF5A
:102CA0008091C3088D8381E0809365062796CDBF10
:102CB000DEBFDF91CF910895CF92DF92EF92FF9226
:102CC000CF93DF93CDB7DEB72897CDBFDEBF6B01C3
:102CD0007C0181E08093660685E08093C308809143
:102CE000C20887FFFCCF8091C30889831092C30874
:102CF0008091C20887FFFCCF8091C3088A8310921D
:102D0000C3088091C20887FFFCCF8091C3088A83E3
:102D10008A8180FDF4CF81E080936506809366060A
:102D200086E08093C3088091C20887FFFCCF809122
:102D3000C3088C8381E0809365068093660682E0F9
:102D40008093C3088091C20887FFFCCF8091C3089D
:102D50008D83C701AA27BB278093C3088091C2082F
:102D600087FFFCCF8091C3088E83BB27AF2D9E2D9C
:102D70008D2D8093C3088091C20887FFFCCF80917E
:102D8000C3088F83C092C3088091C20887FFFCCF1D
:102D90008091C30888872115310591F0FA0190E0F0
:102DA00081918093C3088091C20887FFFCCF8091F6
:102DB000C3088B839F5F492F50E04217530780F36E
:102DC00081E0809365062896CDBFDEBFDF91CF916D
:102DD000FF90EF90DF90CF9008958F929F92AF92E7
:102DE000BF92CF92DF92EF92FF92CF93DF9300D00A
:102DF0001F92CDB7DEB74B015C0181E08093660680
:102E000083E08093C3088091C20887FFFCCF809144
:102E1000C30889831092C3088091C20887FFFCCF42
:102E20008091C3088A831092C3088091C20887FFEB
:102E3000FCCF8091C3088B831092C3088091C20895
:102E400087FFFCCF8091C3088C83C12CD12C7601E5
:102E50001092C3088091C20887FFFCCF8091C308FD
:102E60008F3F69F08FEFC81AD80AE80AF80A80EA9B
:102E7000C8168FE8D8068EE3E806F10449F781E02A
:102E800080936506C701B601A50194010E943D2902
:102E9000611571058105910541F0C80CD91CEA1C2A
:102EA000FB1CC61AD70AE80AF90AC701B60124961C
:102EB000CDBFDEBFDF91CF91FF90EF90DF90CF903D
:102EC000BF90AF909F908F900895EF92FF920F93D5
:102ED0001F93CF93DF931F921F92CDB7DEB7FC01F4
:102EE00080819181A281B381803D9E4FAF43B10526
:102EF00048F00F900F90DF91CF911F910F91FF90AD
:102F0000EF90089581E08093660685E08093C30882
:102F10009091C20897FFFCCF8091C30889831092DB
:102F2000C3089091C20897FFFCCF8091C3088A83A1
:102F30001092C3089091C20897FFFCCF9091C308EC
:102F40009A839A8190FDF4CF7B018F0181E0809379
:102F5000650660817181828193819701ADDEF80100
:102F600080819181A281B3818E0D9F1DA11DB11D14
:102F700080839183A283B38384E080930706B9CFD3
:102F8000CF93DF931F921F92CDB7DEB781E080937E
:102F9000660686E08093C3088091C20887FFFCCF55
:102FA0008091C308898381E08093650680936606DB
:102FB00088E98093C3088091C20887FFFCCF809185
:102FC000C3088A8381E0809365060F900F90DF919C
:102FD000CF91089586959091500091609093500004
:102FE00090E490936A009DE090936B009091500064
:102FF0009460909350009091510092FFFCCF90917B
:103000005600987F9093560090916800916090933D
:1030100068009091510090FFFCCF98ED94BF109202
:103020004000909150009F7E9093500080935500F7
:1030300080E1809350008091510084FFFCCF88EDA7
:1030400084BF84E08093400008950895089527E0A8
:103050002093000810920108109220081092210875
:103060009C01A0E0BDE70E946729DC01CB012AE0BA
:10307000B695A795979587952A95D1F780932608B9
:103080009093270882E080930608089527E0209314
:1030900000091092010910922009109221099C0147
:1030A000A0E0BDE70E946729DC01CB012AE0B695CC
:1030B000A795979587952A95D1F7809326099093A0
:1030C000270981E080930609089527E02093000AEC
:1030D0001092010A1092200A1092210A9C01A0E08D
:1030E000BDE70E946729DC01CB012AE0B695A795D0
:1030F000979587952A95D1F78093260A9093270A6A
:1031000082E08093060A089527E02093000B109236
:10311000010B1092200B1092210B813D27E09207AA
:1031200010F080ED97E09C01A0E0BDE70E946729C8
:10313000DC01CB012AE0B695A795979587952A954E
:10314000D1F78093260B9093270B82E08093060B98
:103150000895CF93DF93A0E0B2E081E08C93CAECB6
:10316000D1E092E09883E0E2F0E0E49118821C96CE
:10317000EC931C979883E1E2F0E0E49118821D96AD
:10318000EC931D9711961C92119712961C92129710
:1031900093E014969C93149790968C93DF91CF9123
:1031A0000895E0EAF6E084E0868388E08583818301
:1031B000E0EAFBE083E0858387E1868384EA878316
:1031C00083818061838384818861848308950895E5
:1031D000E0E6F6E084E0868388E085838183E0EAA8
:1031E000F9E083E0858387E1868384EA87838381AE
:1031F000806183838481886184830895CF93DF9382
:1032000088E18093900680939106A0E0B6E08C91CF
:1032100081608C93E6E0F6E021E020838C918C675E
:103220008C938CE78083A0EAB6E08C9180648C93C9
:1032300066EA76E050E4DB015C9334E030934106CB
:1032400030934606C1E6D6E082E08883A6E6B6E083
:103250008C933C9348E0488390E298839C93DB01F5
:103260003C934093A5064093A10633E0309340067B
:1032700030934406A2EEB7E02C938C93A2E8B6E01C
:1032800030E13C939C93A2EAB6E02C938C933C9360
:1032900030936206808380E88083E6E2F6E0208354
:1032A000908350838083DF91CF910895E0E8F4E02C
:1032B00080E3818391E092838FE0858381818860C0
:1032C000818394830895E0E4F6E080E1818380EADD
:1032D000818380E4828380EE8583E0E6F6E081E00E
:1032E0008183858381E58093C008089580E8809379
:1032F0000001089582E3809386048091840486FF10
:10330000FCCF80E2809387048091840486FFFCCF09
:103310008FE2809387048091840486FFFCCF83E052
:103320008093830482E3809386048091840486FFE3
:10333000FCCF83E2809387048091840486FFFCCFD6
:1033400080E3809387048091840486FFFCCF83E030
:10335000809383040895CF92DF92EF92FF920F93B0
:103360001F93CF93DF937C0182E380938604809147
:10337000840486FFFCCF88EA8093870480918404CC
:1033800086FFFCCF81E08093830483E380938604EF
:1033900080E00E94BA0DC82ED12C80E00E94BA0DA8
:1033A000D82A80E00E94BA0D082F10E080E00E9429
:1033B000BA0D182B80E00E94BA0DC82FD0E081E032
:1033C0000E94BA0DF701C082D18202831383D82BE9
:1033D000C483D583DF91CF911F910F91FF90EF9020
:1033E000DF90CF9008950F931F93CF93DF93CDB7C6
:1033F000DEB72C97CDBFDEBF8C01FC0160817181EF
:10340000072E000C880B990B0E94D72220E030E099
:1034100040E45AE30E94D22369877A878B879C878E
:10342000F80162817381072E000C880B990B0E94B2
:10343000D72220E030E040E45AE30E94D2236D839B
:103440007E838F839887F80164817581072E000C35
:10345000880B990B0E94D72220E030E040E45AE329
:103460000E94D22369837A838B839C8369857A85C2
:103470008B859C852BE83DEF45E65EE333D7F8016D
:1034800066837783808791876D817E818F81988520
:103490002BE83DEF45E65EE325D7F80162877387A9
:1034A0008487958769817A818B819C812BE83DEFA8
:1034B00045E65EE316D7F80166877787808B918BA8
:1034C0002C96CDBFDEBFDF91CF911F910F91089554
:1034D0004FE060E188EB0E94C60D41E063E288EBBB
:1034E0000E94C60D40EC60E288EB0C94C60D0F9371
:1034F0001F93CF93DF93CDB7DEB72A97CDBFDEBF43
:103500008C019E012F5F3F4F45E068EA88EB0E94E7
:10351000DC0D2A818B8190E0A0E0B0E0DC019927EE
:103520008827922B2981822BF80180839183A283A3
:10353000B3838C819D81808791872A96CDBFDEBF22
:10354000DF91CF911F910F910895CF93DF93EC01FD
:10355000688179818A819B810E94D52220E030E0B8
:1035600040E859E30E94D2236C837D838E839F833E
:1035700068857985072E000C880B990B0E94D7224D
:1035800020E030E040EF53E477D720E030E04AE23B
:1035900052E4A8D66A877B878C879D87DF91CF917D
:1035A00008954F925F926F927F928F929F92AF9207
:1035B000BF92CF92DF92EF92FF920F931F93CF9320
:1035C000DF93EC01EE84FF840889198920E030E064
:1035D000A901B701C8014CD7CC80DD80FE81EF8105
:1035E00081110AC0C601AF2FBE2F8E879F87A88B7F
:1035F000B98B76010F2F1E2F9701A801B6018F2FCF
:103600009E2F3AD72EE534ED42E45EE30E94352446
:103610009B01AC018A889B88AC88BD8860E070E023
:1036200080E89FE35ED620E032E14AE257E40E9460
:10363000D2232DEC3CEC4CE45EE30E94D2236B01E0
:103640007C012DEC3CEC4CE45FE3C501B4010E942D
:10365000D2239B01AC01C701B60144D66B017C01AA
:103660006A8B7B8B8C8B9D8B26E636E646E65FE38A
:103670006A8D7B8D8C8D9D8D0E94D2232B013C0108
:10368000A5019401C701B6012CD62DEC3CEC4CEC05
:103690005DE30E94D22320E030E048EC52E40E9437
:1036A000D2239B01AC01C301B2011CD66A8F7B8F70
:1036B0008C8F9D8FDF91CF911F910F91FF90EF9095
:1036C000DF90CF90BF90AF909F908F907F906F9042
:1036D0005F904F90089584ED8093860480918404D8
:1036E00086FFFCCF80E2809387048091840486FF6C
:1036F000FCCF8FEB809387048091840486FFFCCFFE
:1037000083E08093830484ED809386048091840415
:1037100086FFFCCF83E2809387048091840486FF38
:10372000FCCF80E2809387048091840486FFFCCFE5
:1037300083E0809383048AE38093860480918404E9
:1037400086FFFCCF80E2809387048091840486FF0B
:10375000FCCF87E8809387048091840486FFFCCFA8
:1037600083E0809383048AE38093860480918404B9
:1037700086FFFCCF81E2809387048091840486FFDA
:10378000FCCF80E6809387048091840486FFFCCF81
:1037900083E0809383048AE3809386048091840489
:1037A00086FFFCCF84E2809387048091840486FFA7
:1037B000FCCF80EF809387048091840486FFFCCF48
:1037C00083E0809383048AE3809386048091840459
:1037D00086FFFCCF85E2809387048091840486FF76
:1037E000FCCF109287048091840486FFFCCF83E095
:1037F000809383048AE3809386048091840486FF07
:10380000FCCF86E2809387048091840486FFFCCFFE
:10381000109287048091840486FFFCCF83E080931C
:10382000830408950F931F93CF93DF93EC0184EDEE
:10383000809386048091840486FFFCCF88EA80937D
:1038400087048091840486FFFCCF81E08093830409
:1038500085ED8093860480E00E94BA0D90E08E830F
:103860009F8380E00E94BA0D2E813F81382B2E83EA
:103870003F8380E00E94BA0D90E08887998780E0BE
:103880000E94BA0D28853985382B2887398780E032
:103890000E94BA0D90E08A879B8781E00E94BA0D52
:1038A0002A853B85382B2A873B878AE380938604C9
:1038B0008091840486FFFCCF88E880938704809100
:1038C000840486FFFCCF81E0809383048BE38093A4
:1038D000860480E00E94BA0D90E08E879F8780E08A
:1038E0000E94BA0D2E853F85382B2E873F8780E0BA
:1038F0000E94BA0D90E0888B998B80E00E94BA0DEF
:1039000028893989382B288B398B80E00E94BA0DA1
:1039100090E08A8B9B8B81E00E94BA0D2A893B89BB
:10392000382B2A8B3B8B8AE3809386048091840416
:1039300086FFFCCF88EA809387048091840486FF09
:10394000FCCF81E0809383048BE38093860480E046
:103950000E94BA0D90E08883998380E00E94BA0D9E
:1039600028813981382B2883398380E00E94BA0D61
:1039700090E08A839B8380E00E94BA0D2A813B817C
:10398000382B2A833B8380E00E94BA0D90E08C8321
:103990009D8381E00E94BA0D2C813D81382B2C83C0
:1039A0003D838AE3809386048091840486FFFCCF64
:1039B00085E8809387048091840486FFFCCF81E0B2
:1039C000809383048BE38093860480E00E94BA0D89
:1039D00090E08C879D8781E00E94BA0D0C851D8543
:1039E000182B0C871D8768817981072E000C880BA6
:1039F000990BDDD5FE01EC5BFF4F208131814281C7
:103A000053816FD42AE534E64BE35FE3CBD620E065
:103A100030E04AE754E430D56C8B7D8B8E8B9F8BE6
:103A20006A817B81072E000C880B990BC0D5FE01A3
:103A3000E85BFF4F208131814281538152D42AE5D6
:103A400034E64BE35FE3AED620E030E04AE754E4EF
:103A500013D5688F798F8A8F9B8F6C817D81072E1C
:103A6000000C880B990BA3D5FE01E45BFF4F20816E
:103A700031814281538135D42AE534E64BE35FE35B
:103A800091D620E030E04AE754E4F6D46C8F7D8F85
:103A90008E8F9F8F6E817F81072E000C880B990B74
:103AA00086D5FE01E05BFF4F208131814281538149
:103AB00018D420E030E04AE755E474D620E030E046
:103AC00040E857E36FD66CA37DA38EA39FA36885C0
:103AD0007985072E000C880B990B69D5FE01EC5AED
:103AE000FF4F2081318142815381FBD320E030E0C0
:103AF0004AE755E457D620E030E040E857E352D695
:103B000068A779A78AA79BA76A857B85072E000CE3
:103B1000880B990B4CD5FE01E85AFF4F208131816B
:103B200042815381DED320E030E04AE755E43AD6C3
:103B300020E030E040E857E335D66CA77DA78EA79C
:103B40009FA7FE01E45AFF4F6E857F85808191819A
:103B5000681B790B072E000C880B990B28D520E0E9
:103B600030E040E850E41ED62AE037ED43E254E46A
:103B700083D46CAB7DAB8EAB9FABFE01E25AFF4FA3
:103B80006889798980819181681B790B072E000CE7
:103B9000880B990B0CD520E030E040E850E402D6C9
:103BA0002AE037ED43E254E467D468AF79AF8AAFD7
:103BB0009BAFFE01E05AFF4F6A897B89808191812A
:103BC000681B790B072E000C880B990BF0D420E0B2
:103BD00030E040E850E4E6D52AE037ED43E254E433
:103BE0004BD46CAF7DAF8EAF9FAFB801110F880B78
:103BF000990BDDD420E030E040E05EE3D3D520E057
:103C000030E048EA51E46ED368AB79AB8AAB9BAB4A
:103C1000DF91CF911F910F91089542E06BE680ED07
:103C20000E94C60D42E06AE180ED0E94C60D48E1A7
:103C30006BE180ED0E94C60D48E16CE180ED0C94D3
:103C4000C60D0F931F93CF93DF93CDB7DEB7649765
:103C5000CDBFDEBF8C019E012F5F3F4F4EE06BE377
:103C600080ED0E94DC0D89819A8198278927982709
:103C7000F801808391838B819C81982789279827DD
:103C8000828393838D819E819827892798278483B7
:103C900095838F819885982789279827848795878A
:103CA00089859A85982789279827868397838B8586
:103CB0009C85982789279827808791878D859E8561
:103CC000982789279827828793876496CDBFDEBF80
:103CD000DF91CF911F910F910895CF93DF93EC0166
:103CE0002E853F85FC01E05AFF4F40814203B00121
:103CF000439F700D1124672F770F770B620F731F8F
:103D0000072E000C880B990B52D42AE939E949E9AE
:103D10005EE348D56AAB7BAB8CAB9DAB2889398918
:103D2000FE01EF59FF4F40814203B001439F700DE8
:103D30001124672F770F770B620F731F072E000C6C
:103D4000880B990B34D42AE939E949E95EE32AD58D
:103D50006EAB7FAB88AF99AF2A893B89FE01EE59E4
:103D6000FF4F40814203B001439F700D1124672F24
:103D7000770F770B620F731F072E000C880B990BC0
:103D800016D42AE939E949E95EE30CD56AAF7BAF7D
:103D90008CAF9DAF68817981072E000C880B990B41
:103DA00006D4FE01EE5BFF4F2081318142815381B9
:103DB00098D220E030E040E05AE3F4D46C8B7D8B65
:103DC0008E8B9F8B6A817B81072E000C880B990B51
:103DD000EED3FE01EA5BFF4F2081318142815381A6
:103DE00080D220E030E040E05AE3DCD4688F798F65
:103DF0008A8F9B8F6C817D81072E000C880B990B1D
:103E0000D6D3FE01E65BFF4F208131814281538191
:103E100068D220E030E040E05AE3C4D46C8F7D8F5C
:103E20008E8F9F8F6E817F81072E000C880B990BE0
:103E3000BED3FE01E25BFF4F20813181428153817D
:103E400050D223E333E343E851E416D36CA37DA3BC
:103E50008EA39FA368857985072E000C880B990B8C
:103E6000A6D3FE01EE5AFF4F20813181428153815A
:103E700038D223E333E343E851E4FED268A779A7BD
:103E80008AA79BA76A857B85072E000C880B990B58
:103E90008ED3FE01EA5AFF4F208131814281538146
:103EA00020D223E333E343E851E4E6D26CA77DA7B5
:103EB0008EA79FA76C857D85072E000C880B990B1C
:103EC00076D320E030EF49E356E40CD220E030E036
:103ED00048E052E4D1D238D368AB79ABDF91CF91CF
:103EE0000895EF92FF920F931F93CF93DF938C016E
:103EF000DC011696ED90FC9017971E96CD91DC9103
:103F00001F97F70180AD1F928F9362A973A984A9AF
:103F100095A94DD320E030E040E251E4ADD29F932B
:103F20008F937F936F93D7019E966D917D918D9125
:103F30009C91D1973CD320E836E948E15BE49CD2E0
:103F40009F938F937F936F93F70162A573A584A5C9
:103F500095A52DD320E836E948E15BE48DD29F9307
:103F60008F937F936F938BA58F938AA58F9389A54A
:103F70008F9388A58F938FA18F938EA18F938DA1FF
:103F80008F938CA18F938BA18F938AA18F9389A1FB
:103F90008F9388A18F938B858F938A858F93898543
:103FA0008F9388858F938F818F938E818F938D814F
:103FB0008F938C818F938B818F938A818F9389814B
:103FC0008F9388818F938B898F938A898F93898927
:103FD0008F9388898F938F898F938E898F938D8903
:103FE0008F938C898F93D8011896ED91FC91199736
:103FF00087818F9386818F9385818F9384818F931F
:104000001A96ED91FC911B9787811F928F9356967C
:10401000ED91FC91579783818F9382818F9381815A
:104020008F9380818F9380EA90E29F938F93539632
:104030008C9153978F9352968C918F930E940D2B56
:10404000D8015296ED91FC915397E65AFD4F80832B
:104050009183EDB7FEB7FC96EDBFFEBFDF91CF9128
:104060001F910F91FF90EF900895FC0180E380A3D2
:1040700081A382A383A384A385A386A387A380A708
:1040800081A7828B838B848B858B868B878B808F9C
:10409000818F828F838F848F858F868F84838583A2
:1040A00086838783808781878287838784878587C4
:1040B00086878787808B10AE0895E0E0F1E0808FDF
:1040C000918F128E80EA848F89E0858F168E648BA3
:1040D000758B8CE6838B80E5828B80E1818B84E815
:1040E000808B0895809318019093190110921A0102
:1040F00080EA80931C0189E080931D0110921E01CB
:1041000060931401709315018CE68093130180E590
:104110008093120180E18093110184E88093100163
:104120008091110184FFFCCF08958091110180716D
:1041300008957F928F929F92AF92BF92CF92DF921B
:10414000EF92FF920F931F93CF93DF93CDB7DEB71C
:104150002C97CDBFDEBF8C01FC018581880F805676
:10416000F82EFF0CFF0C8F0D96819053F82EF90E50
:104170008781898380858A8382858B8383858C83ED
:1041800084858D8385858E8386858F831886CE0171
:1041900001960E94A02909D22AE939E949E15FE3A1
:1041A0006BD1D7D14B015C01AF2DB0E020E836E9EF
:1041B00048E950E00E947629860E971EA81EB91E77
:1041C000F80184818E3431F0833509F473C0812C79
:1041D000912C5401F8018389898384898A83858994
:1041E0008B831C82CE0101960E948329782EF801D0
:1041F0008689898387898A83818D8B83828D8C834D
:10420000838D8D83848D8E83858D8F83CE010196E2
:104210000E94A029CAD12AE939E949E15FE32CD1FA
:1042200098D16B017C01A72DB0E020E836E948E980
:1042300050E00E947629C60ED71EE81EF91EF8012E
:104240008289853429F0873561F1C12CD12C760122
:10425000C80180960E948029F80182A693A6A4A690
:10426000B5A6C6A6D7A6E0AAF1AA20E030E040E2B3
:1042700051E498D269D1F80162AB73AB84AB95ABD2
:104280002C96CDBFDEBFDF91CF911F910F91FF9094
:10429000EF90DF90CF90BF90AF909F908F907F90E6
:1042A0000895F094E094D094C094C11CD11CE11CFA
:1042B000F11CCECFB094A09490948094811C911C5A
:1042C000A11CB11C87CF9F939F77ACD10F9000208A
:1042D0003AF49058A2EA2AED3FE049E450E413D0C2
:1042E0001CC25058BB27AA270ED017C208D230F0E4
:1042F0000DD220F031F49F3F11F41EF4D8C10EF41A
:10430000E095E7FBCEC1E92F19D280F3BA17620717
:1043100073078407950718F071F49EF531C20EF407
:10432000E0950B2EBA2FA02D0B01B90190010C01C5
:10433000CA01A0011124FF27591B99F0593F50F4DD
:10434000503E68F11A16F040A22F232F342F442735
:10435000585FF3CF469537952795A795F04053952D
:10436000C9F77EF41F16BA0B620B730B840BBAF0FD
:104370009150A1F0FF0FBB1F661F771F881FC2F768
:104380000EC0BA0F621F731F841F48F4879577957C
:104390006795B795F7959E3F08F0B3CF9395880F33
:1043A00008F09927EE0F979587950895A8D158F0B2
:1043B00080E891E009F49EEFA9D128F040E851E0AF
:1043C00059F45EEF09C073C1DBC1E92FE078B6D1C3
:1043D00068F3092E052AC1F326173707480759073E
:1043E00038F00E2E07F8E02569F0E025E0640AC0F9
:1043F000EF6307F8009407FADB01B9019D01DC01C6
:10440000CA01AD01EF9347D088D10AD05F915523FF
:1044100031F02BED3FE049E450FD49EC63CF0895C6
:10442000DF93DD27B92FBF7740E85FE31616170645
:1044300048075B0710F4D92FAED19F938F937F93DA
:104440006F93A1D2E2E2F2E035D167D12F913F9193
:104450004F915F91B3D1DD2349F09058A2EA2AED44
:104460003FE049EC5FE3D0785D274DDFDF9155C138
:10447000F4D008F481E008950CD04FC147D140F04A
:104480003ED130F021F45F3F19F00BC1511179C1D9
:104490000EC154D198F39923C9F35523B1F3951B59
:1044A000550BBB27AA2762177307840738F09F5F55
:1044B0005F4F220F331F441FAA1FA9F333D00E2EC4
:1044C0003AF0E0E830D091505040E695001CCAF731
:1044D00029D0FE2F27D0660F771F881FBB1F2617F6
:1044E00037074807AB07B0E809F0BB0B802DBF01C9
:1044F000FF2793585F4F2AF09E3F510568F0D1C0C7
:1045000040C15F3FECF3983EDCF386957795679565
:10451000B795F7959F5FC9F7880F911D9695879579
:1045200097F90895E1E0660F771F881FBB1F621798
:1045300073078407BA0720F0621B730B840BBA0B56
:10454000EE1F88F7E095089504D06894B11119C161
:104550000895FCD088F09F5790F0B92F9927B75154
:10456000A0F0D1F0660F771F881F991F1AF0BA9537
:10457000C9F712C0B13081F003D1B1E0089500C194
:10458000672F782F8827B85F39F0B93FCCF386952D
:1045900077956795B395D9F73EF49095809570958A
:1045A00061957F4F8F4F9F4F0895E89409C097FB07
:1045B0003EF490958095709561957F4F8F4F9F4FFA
:1045C0009923A9F0F92F96E9BB279395F69587953E
:1045D00077956795B795F111F8CFFAF4BB0F11F401
:1045E00060FF1BC06F5F7F4F8F4F9F4F16C08823A8
:1045F00011F096E911C0772321F09EE8872F762FDE
:1046000005C0662371F096E8862F70E060E02AF01E
:104610009A95660F771F881FDAF7880F969587950A
:1046200097F90895DF93CF931F930F938B01EC01BC
:10463000EFE4F2E03FD071D09801AE018B01EC01C4
:1046400060E070E080E89FE34CDE5FD19801AE014E
:104650000F911F91CF91DF91B1C0990F0008550FB5
:10466000AA0BE0E8FEEF16161706E807F907C0F0F8
:1046700012161306E407F50798F0621B730B840B00
:10468000950B39F40A2661F0232B242B252B21F4DA
:1046900008950A2609F4A140A6958FEF811D811D7A
:1046A000089597F99F6780E870E060E008959FEFB4
:1046B00080EC0895DF93CF931F930F93FF92EF92B7
:1046C000DF927B018C01689405C0DA2EEF0176D071
:1046D000FE01E894A5912591359145915591AEF350
:1046E000EF0111DEFE019701A801DA9479F7DF905E
:1046F000EF90FF900F911F91CF91DF9108950024CB
:104700000A941616170618060906089500240A9436
:1047100012161306140605060895092E0394000CBC
:1047200011F4882352F0BB0F40F4BF2B11F460FF4B
:1047300004C06F5F7F4F8F4F9F4F089557FD905874
:10474000440F551F59F05F3F71F04795880F97FB55
:10475000991F61F09F3F79F087950895121613060F
:104760001406551FF2CF4695F1DF08C0161617063E
:104770001806991FF1CF8695710561050894089573
:10478000E894BB2766277727CB0197F9089565DF63
:1047900008F48FEF08959B01AC0160E070E080E8C1
:1047A0009FE36ACE0BD0B9CFAADF28F0AFDF18F0B5
:1047B000952309F076CF7BCF1124E3CFBFDFA0F3A1
:1047C000959FD1F3950F50E0551F629FF001729FA6
:1047D000BB27F00DB11D639FAA27F00DB11DAA1FC5
:1047E000649F6627B00DA11D661F829F2227B00D12
:1047F000A11D621F739FB00DA11D621F839FA00D9D
:10480000611D221F749F3327A00D611D231F849FEC
:10481000600D211D822F762F6A2F11249F57504043
:104820008AF0E1F088234AF0EE0FFF1FBB1F661FDE
:10483000771F881F91505040A9F79E3F510570F097
:1048400030CF9FCF5F3FECF3983EDCF386957795B2
:104850006795B795F795E7959F5FC1F7FE2B880F92
:10486000911D9695879597F90895FA01EE0FFF1F10
:1048700030962105310599F16115710561F4803893
:10488000BFE39B0749F168949038810561F0803857
:10489000BFEF9B0741F0992342F5FF3FE10531054A
:1048A000210511F1E8940894E795D901AA2329F488
:1048B000AB2FBE2FF85FD0F310C0FF5F70F4A6954A
:1048C000E0F7F73950F019F0FF3A38F49F779F93EB
:1048D0000CD00F9007FC905808953EF0E8CE60E0B1
:1048E00070E080E89FE308954FE79F775F934F93D1
:1048F0003F932F93CCD02F913F914F915F9152DFF7
:104900004AC011F40EF4D3CE72C020DFD0F3992345
:10491000D9F3CEF39F57550B87FF77D00024A0E63D
:1049200040EA900180585695979528F4805C660F70
:10493000771F881F20F026173707480730F4621BBF
:10494000730B840B202931294A2BA69517940794C1
:10495000202531254A2758F7660F771F881F20F03A
:1049600026173707480730F4620B730B840B200DB2
:10497000311D411DA09581F7B901842F9158880FF1
:104980009695879508959B01AC010CCF19F40EF014
:1049900088CEF6CE8CCEDADEC8F39638C0F707F8AC
:1049A0000F92E8942BE33AEA48EB5FE709DF0F92B6
:1049B0000F920F924DB75EB70F92A9D0E7E7F2E0E2
:1049C00079DE4F915F91EF91FF91E595EE1FFF1F0B
:1049D00049F0FE57E0684427EE0F441FFA95E1F7CF
:1049E0004195550B1BD00F9007FED5CE08959F3FE4
:1049F00031F0915020F4879577956795B795880F9A
:104A0000911D9695879597F9089591505040660F9E
:104A1000771F881FD2F7089544CEE9CF97DEE8F3D9
:104A20009923D9F3940F511DBBF39150504094F04A
:104A300059F0882332F0660F771F881F915050403D
:104A4000C1F79E3F510544F7880F911D96958795B4
:104A500097F908955F3FACF0983E9CF0BB27869590
:104A600077956795B79508F4B1609395C1F7BB0F3B
:104A700058F711F460FFE8CF6F5F7F4F8F4F9F4F64
:104A8000E3CF7FCE0EF0B3CF12CE68940ACE5EDEB7
:104A9000C8F39923D1F3C6F3DF93CF931F930F93FA
:104AA000FF92C92FDD2788232AF02197660F771FF1
:104AB000881FDAF720E030E040E85FEB9FE38839B9
:104AC00020F0803E30F021968F770CDCEFE9F2E0A9
:104AD00003C008DCECECF2E0EDDD8B01BE01EC0183
:104AE000FB2E6F5771097595771F880B990B5FDD4A
:104AF00028E132E741E35FE361DEAF2D9801AE01CB
:104B0000FF900F911F91CF91DF91FDDB06CEFA014F
:104B1000DC01AA0FBB1F9B01AC01BF5728F4222761
:104B20003327442750781FC0B75188F4AB2F002497
:104B3000469537952795011CA395D2F3002069F07F
:104B4000220F331F441FB395DAF30DD0CACB613067
:104B50007105A0E88A07B94630F49B01AC016627CD
:104B6000772788279078309621F0208331834283FD
:104B7000538308952F923F924F925F926F927F924C
:104B80008F929F92AF92BF92CF92DF92EF92FF925D
:104B90000F931F93CF93DF93CDB7DEB76097CDBF51
:104BA000DEBF7C011B016A01FC0116821782838132
:104BB00081FF2AC39E012F5F3F4F3901F701938187
:104BC000F10193FD859193FF81911F01882309F4E1
:104BD00017C3853239F493FD859193FF81911F01AD
:104BE000853231F4B70190E0DCD456016501E6CF9F
:104BF00010E0512C912CFFE1F915D8F08B3279F0AF
:104C000038F4803279F08332A1F4F92DF0612EC0AE
:104C10008D3261F0803369F4292D21602DC0392D4A
:104C20003260932E892D8460982E2AC0E92DE86089
:104C300015C097FC2DC020ED280F2A3088F496FE71
:104C400006C03AE0139F200D1124122F19C08AE0EC
:104C5000589E200D1124522EE92DE0629E2E10C088
:104C60008E3231F496FCCCC2F92DF0649F2E08C030
:104C70008C3621F4292D2068922E02C0883641F40A
:104C8000F10193FD859193FF81911F018111B3CFB4
:104C90009BEB980F933020F4992D9061805E07C0B4
:104CA0009BE9980F933008F059C1992D9F7E96FF8C
:104CB00016E09F73992E853619F49064992E08C0DA
:104CC000863621F4392F3068932E02C0111111500D
:104CD00097FE07C01C3350F444244394410E27E050
:104CE0000BC0183038F027E017E005C027E09CE340
:104CF000492E02C0212F412C560184E0A80EB11C80
:104D0000F6016081718182819381042DA3013ED3DC
:104D10006C01F981FC87F0FF02C0F3FF06C091FC33
:104D200006C092FE06C000E205C00DE203C00BE221
:104D300001C000E08C858C7019F0011143C280C263
:104D400097FE10C04C0CFC85F4FF04C08A818133AF
:104D500009F44A94141474F528E0241578F588E0D1
:104D6000482E2CC096FC2AC0812F90E08C159D0502
:104D70009CF03CEFC3163FEFD30674F0892D80689A
:104D8000982E0AC0E2E0F0E0EC0FFD1FE10FF11DEC
:104D90008081803319F411501111F4CF97FE0EC0A9
:104DA00044244394410E812F90E0C816D9062CF478
:104DB0001C1904C04424439401C010E097FE06C0AF
:104DC0001C141D0434F4C601019605C085E090E072
:104DD00002C081E090E001110196112331F0212FF2
:104DE00030E02F5F3F4F820F931F252D30E0821759
:104DF000930714F4581A01C0512C892D897041F47D
:104E0000552031F0B70180E290E0CBD35A94F8CF2F
:104E1000002321F0B701802F90E0C3D393FC08C09A
:104E2000552031F0B70180E390E0BBD35A94F8CF1E
:104E300097FE4AC04601D7FE02C0812C912CC601C4
:104E400088199909F301E80FF91FED87FE8796018C
:104E5000241931092F87388B012F10E01195019506
:104E600011093FEF8316930621F4B7018EE290E01B
:104E700098D3C814D9044CF08F8598898815990562
:104E800024F4ED85FE85818101C080E3F1E08F1A75
:104E900091082D853E852F5F3F4F2D873E878016D9
:104EA000910624F0B70190E07CD3DBCFC814D9047D
:104EB00041F49A81963320F4953319F43C8534FFFC
:104EC00081E3B70190E048C08A81813319F09C8565
:104ED0009F7E9C87B70190E064D3111105C094FCBC
:104EE00016C085E690E015C0B7018EE290E059D378
:104EF0001E5F82E001E0080FF301E80FF11D8081E1
:104F0000B70190E04ED3802F0113F4CFE8CF85E4B2
:104F100090E0B70146D3D7FC06C0C114D10441F4D8
:104F2000EC85E4FF05C0D194C194D1088DE201C0A5
:104F30008BE2B70190E035D380E32AE0C216D104BA
:104F40002CF08F5FFAE0CF1AD108F7CFB70190E0CD
:104F500028D3B701C601C09624D349C1833631F0A6
:104F6000833779F0833509F052C01FC0560132E013
:104F7000A30EB11CF6018081898301E010E063017A
:104F800011C05601F2E0AF0EB11CF601C080D18015
:104F900096FE03C0612F70E002C06FEF7FEFC60185
:104FA000D8D28C01F92DFF7713C0560122E0A20E52
:104FB000B11CF601C080D18096FE03C0612F70E065
:104FC00002C06FEF7FEFC601B9D28C01F92DF068F6
:104FD0009F2EF3FD18C0852D90E00817190798F44F
:104FE000B70180E290E0DDD25A94F5CFF60197FC4C
:104FF000859197FE81916F01B70190E0D2D2511057
:105000005A94015011090115110581F7F0C0843639
:1050100011F0893659F5560197FE09C024E0A20E19
:10502000B11CF60160817181828193810AC0F2E036
:10503000AF0EB11CF60160817181072E000C880B48
:10504000990BF92DFF769F2E97FF09C090958095BB
:10505000709561957F4F8F4F9F4FF0689F2E2AE08C
:1050600030E0A30102D3C82EC6183EC0092D8537F3
:1050700021F40F7E2AE030E01DC0097F8F3691F0C9
:1050800018F4883559F0BCC0803719F0883711F012
:10509000B7C0006104FF09C0046007C094FE08C0E7
:1050A000066006C028E030E005C020E130E002C024
:1050B00020E132E0560107FF09C084E0A80EB11CD0
:1050C000F601608171818281938108C0F2E0AF0EA8
:1050D000B11CF6016081718180E090E0A301C5D22E
:1050E000C82EC6180F77902E96FE0BC0092D0E7F86
:1050F000C11650F494FE0AC092FC08C0092D0E7E21
:1051000005C0DC2C092D03C0DC2C01C0D12E04FF0E
:105110000DC0FE01EC0DF11D8081803311F4097E7C
:1051200009C002FF06C0D394D39404C0802F8678B0
:1051300009F0D39403FD10C000FF06C01C2DD51448
:1051400078F4150D1D190CC0D51450F4B70180E288
:1051500090E027D2D394F8CFD51410F45D1801C095
:10516000512C04FF0FC0B70180E390E01AD202FF78
:1051700016C001FD03C088E790E002C088E590E01A
:10518000B7010CC0802F867851F001FF02C08BE27E
:1051900001C080E207FD8DE2B70190E002D2C116A6
:1051A00030F4B70180E390E0FCD11150F8CFCA94FD
:1051B000F301EC0DF11D8081B70190E0F2D1C11037
:1051C000F6CF15C0F4E0F51550F584E0581A93FEBB
:1051D0001EC0011125C02C8523FF27C00AEF12E055
:1051E000392D3071932EF8018491811121C0552001
:1051F00009F4FCCCB70180E290E0D3D15A94F7CF08
:10520000F7018681978123C08FEF9FEF20C0B70100
:1052100080E290E0C6D15A945110F9CFDACF512CE8
:10522000B701802F90E0BDD1D6CF0EEF12E0D8CFDE
:1052300091108052B70190E0B4D10F5F1F4FD3CFD0
:1052400023E0251510F483E0C1CF512CC4CF609624
:10525000CDBFDEBFDF91CF911F910F91FF90EF90F7
:10526000DF90CF90BF90AF909F908F907F906F9086
:105270005F904F903F902F900895A1E21A2EAA1BA5
:10528000BB1BFD010DC0AA1FBB1FEE1FFF1FA217F6
:10529000B307E407F50720F0A21BB30BE40BF50BF3
:1052A000661F771F881F991F1A9469F7609570957C
:1052B000809590959B01AC01BD01CF010895EE0F43
:1052C000FF1F881F8BBF0790F691E02D1994A29FB6
:1052D000B001B39FC001A39F700D811D1124911DCA
:1052E000B29F700D811D1124911D0895F0DFA59FBF
:1052F000900DB49F900DA49F800D911D11240895D1
:105300006627772710C2FC0188279927E894219106
:105310002032E9F3293010F02E30C8F32B3239F067
:105320002D3231F4689403C034D1820F911D219144
:1053300020532A30C8F31EF4909581959F4F08950D
:105340001F93FC0199278827BC01E8941191103222
:10535000E9F3193010F01E30C8F31B3249F01D324A
:1053600041F4689405C000D1610F711D811D911D2C
:10537000119110531A30B8F33EF4909580957095C2
:1053800061957F4F8F4F9F4F1F910895283008F0F0
:1053900027E03327DA01990F311D87FD91600096D0
:1053A0006105710539F432602E5F3D9330E32A9533
:1053B000E1F708959F3F30F080387105610509F0ED
:1053C0003C5F3C5F3D93913008F08068911DDF9316
:1053D000CF931F930F93FF92EF92192F987F96957B
:1053E000E92F96959695E90FFF27E45AFC4F9927E8
:1053F0003327EE24FF24A701E701059008940794C2
:1054000028F4360FE71EF81E491F511D660F771F3F
:10541000881F991F0694A1F70590079428F4E70EBA
:10542000F81E491F561FC11D770F881F991F661F41
:105430000694A1F70590079428F4F80E491F561F0B
:10544000C71FD11D880F991F661F771F0694A1F7EC
:105450000590079420F4490F561FC71FD81F990FB6
:10546000661F771F881F0694A9F7849110951770FF
:1054700041F0D695C79557954795F794E7941A95B7
:10548000C1F7E2E0F3E068941590159135916591CC
:10549000959105907FE27395E118F10A430B560B45
:1054A000C90BD009C0F7E10CF11E431F561FC91FDD
:1054B000D01D7EF4703311F48A95E6CFE894015044
:1054C00030F0080F0AF40027021708F4202F239564
:1054D000022F7A3328F079E37D932A95E9F710C0FB
:1054E0007D932A9589F60694979567953795179534
:1054F0001794E118F10A430B560BC90BD00998F029
:1055000023957E9173957A3308F070E37C93201392
:10551000B8F77E9170617D9330F0839571E37D9350
:1055200070E32A95E1F71124EF90FF900F911F91FE
:10553000CF91DF91992787FD90950895FC01059003
:10554000615070400110D8F7809590958E0F9F1F85
:105550000895FC016150704001900110D8F78095CA
:1055600090958E0F9F1F0895592F482F372F262F64
:10557000660F771F881F991F660F771F881F991F57
:10558000620F731F841F951F660F771F881F991F57
:1055900008957AE0979F902D879F802D910D11247B
:1055A00008950F931F93CF93DF93FB01238121FD78
:1055B00003C08FEF9FEF2CC022FF16C0468157819A
:1055C000248135814217530744F4A081B1819D01A4
:1055D0002F5F3F4F208331838C93268137812F5F4C
:1055E0003F4F2683378314C08B01EC01FB010084FD
:1055F000F185E02D1995892BE1F6D80116968D914C
:105600009C911797019616968D939C931797CE01B0
:10561000DF91CF911F910F9108950F931F93CF9317
:10562000DF93CDB7DEB72E97CDBFDEBF0E891F89C2
:1056300086E08C8309831A838FEF9FE78D839E8397
:10564000AE01465E5F4F688D798DCE01019692DA8C
:10565000EF81F885E00FF11F10822E96CDBFDEBFDF
:10566000DF91CF911F910F910895FA01AA27283059
:1056700051F1203181F1E8946F936E7F6E5F7F4F1F
:105680008F4F9F4FAF4FB1E03ED0B4E03CD0670F9B
:10569000781F891F9A1FA11D680F791F8A1F911DEE
:1056A000A11D6A0F711D811D911DA11D20D009F43E
:1056B00068943F912AE0269F11243019305D319380
:1056C000DEF6CF010895462F4770405D4193B3E069
:1056D0000FD0C9F7F6CF462F4F70405D4A3318F010
:1056E000495D31FD4052419302D0A9F7EACFB4E0C1
:1056F000A6959795879577956795BA95C9F7009779
:105700006105710508959B01AC010A2E0694579519
:10571000479537952795BA95C9F7620F731F841F70
:10572000951FA01D08958F929F92AF92BF92CF9226
:10573000DF92EF92FF920F931F93CF93DF93EC01D1
:105740006B016115710519F0FB01808391837E0166
:10575000FFEFEF1AFF0A0881802F90E03BD1892BE1
:1057600011F0E701F4CF0D3239F47E0182E0E80E4A
:10577000F11C098111E008C00B3229F47E0192E08E
:10578000E90EF11C098110E0E701219743E050E0A8
:1057900064E074E0CE0126D1892BB9F4239645E06C
:1057A00050E06FEF73E0CE011DD1892B09F42596EF
:1057B000C114D10419F0F601C083D1831111F4C0D2
:1057C00060E070E080E89FE7F8C043E050E06CEFF5
:1057D00073E0CE0107D1892B59F4C114D10409F427
:1057E000E8C0F2E0EF0EF11CF601E082F182E1C0C8
:1057F00020E030E0A901C0E0D0E0F70160EDA62E86
:10580000A00E89E08A1528F1912F9260B92E812F80
:10581000887012FF04C0811123C0219621C081111C
:105820002197A5E0B0E062DDDC01CB01880F991F74
:10583000AA1FBB1F9C01AD012A0D311D411D511D29
:10584000283989E93807480789E1580748F0166080
:1058500006C09EEFA9120AC013FD40C01860B12E09
:105860008FEFE81AF80A00811B2DC7CF802F8F7D9C
:105870008534A1F580818D3211F4106106C08B3220
:1058800021F0319661E070E004C08181329662E0DF
:1058900070E080538A3018F0E61BF70B1FC060E001
:1058A00070E060389CE079075CF4DB01AA0FBB1F55
:1058B000AA0FBB1F6A0F7B1F660F771F680F711D32
:1058C0003196DF0111978C9180538A3050F314FF89
:1058D00003C0719561957109C60FD71F11FF08C0EC
:1058E000C114D10429F0CF010197F601808391837F
:1058F000CA01B9010E94D522212F2370233019F04B
:105900004B015C0106C04B015C01B7FAB094B7F8DB
:10591000B09420E030E0A901C501B4010E94382212
:10592000882309F43EC0D7FF06C0D195C195D1099F
:105930000BE114E002C003E314E06801F8E1CF1AC0
:10594000D10890E2E92EF12CCE15DF0574F0F801B4
:105950002591359145915491C501B4010E94D223FE
:105960004B015C01CE19DF09EFCF04501109F5940A
:10597000E7940C151D0541F78A2D880F8B2D881F84
:105980008F3F49F020E030E0A901C501B4010E9439
:105990003822811106C082E290E080932B2B9093F5
:1059A0002C2BC501B40109C060E070E080E89FEFD6
:1059B00004C060E070E080EC9FE7DF91CF911F9121
:1059C0000F91FF90EF90DF90CF90BF90AF909F909E
:1059D0008F90089591111EC0803219F08950855022
:1059E000D0F70895FB01DC014150504088F08D91C3
:1059F00081341CF08B350CF4805E659161341CF0B1
:105A00006B350CF4605E861B611171F3990B089580
:0E5A1000881BFCCF992788270895F894FFCFB4
:105A1E000A0D4D656D6F7279206572617365642133
:105A2E000A0D0A0D00000A0D49442C54696D654D8E
:105A3E00532C466C6967687453746174652C4261AB
:105A4E00742C416C7469747564652C56656C6F6347
:105A5E006974792C416363656C582C416363656C82
:105A6E00592C416363656C5A2C4779726F582C47D9
:105A7E0079726F592C4779726F5A2C4C61742C4C79
:105A8E006F6E672C416C74694750530A0D0A0D00F6
:105A9E00000A0D52656164696E6720646F6E650A57
:105AAE000D0A0D00000D0A2B494E513D310D0A0015
:105ABE00245370616365466F726573742C2530369E
:105ACE006C752C2531752C2530342E32662C252BF9
