S018000043616E5361745F5633202D20316B487A2E737265631F
S113000065C1000084C1000082C1000080C10000FD
S11300107EC100007CC100007AC1000078C10000EC
S113002076C1000074C1000072C1000070C10000FC
S11300306EC100006CC1000017C5000068C100005B
S113004066C1000064C1000062C1000060C100001C
S11300505EC100005CC100005AC1000058C100002C
S113006056C1000054C1000052C1000050C100003C
S11300704EC100004CC100004AC1000048C100004C
S113008046C1000044C1000042C1000040C100005C
S11300903EC100003CC100003AC1000038C100006C
S11300A036C1000034C1000032C1000030C100007C
S11300B02EC100002CC100002AC1000066C500004A
S11300C026C1000024C1000022C1000020C100009C
S11300D01EC100001CC100001AC1000018C10000AC
S11300E016C1000014C1000012C1000010C10000BC
S11300F00EC100000CC100000AC1000008C10000CC
S113010006C1000004C1000002C1000000C10000DB
S1130110FEC00000FCC00000FAC00000F8C00000EF
S1130120F6C00000F4C00000F2C00000F0C00000FF
S1130130EEC00000C7C40000EAC00000E8C0000030
S1130140E6C00000E4C00000E2C00000E0C000001F
S1130150DEC00000DCC00000DAC00000D8C000002F
S113016087C30000D4C0000043C30000D0C0000017
S1130170CEC00000CCC00000CAC00000C8C000004F
S1130180C6C00000C4C00000C2C00000C0C000005F
S1130190BEC00000BCC00000BAC00000B8C000006F
S11301A0B6C00000B4C00000B2C00000B0C000007F
S11301B0FDC40000ACC00000AAC00000A8C000003C
S11301C0A6C00000A4C00000A2C00000A0C000009F
S11301D09EC000009CC000009AC0000017C200002E
S11301E096C0000094C0000092C0000090C00000BF
S11301F08EC000008CC000008AC00000810376031A
S11302008C037103A503B503C803CA037B03400829
S1130210AA08F20821094809710976099A099F096F
S1130220CF09072C7AA5BA6CC590DA3B9365FC8B91
S1130230BC53F810FD3C5692834DBD879D3AB63DA4
S1130240CBC9BF5BBE73DA0FC93F07634236B79BA6
S1130250D8A71A39685618AEBAAB558C1D3CB7CC22
S11302605763BD6DEDFD753EF6177231BF0000009A
S1130270803F08000000BE922449123EABAAAA2A7D
S1130280BECDCCCC4C3E00000080BEABAAAAAA3E98
S113029000000000BF000000803F000000000008D4
S11302A04178D3BB4387D1133D190E3CC3BD428271
S11302B0AD2B3E68EC8276BED98FE1A93E4C80EF2F
S11302C0FFBE01C4FF7F3F000000000011241FBED9
S11302D0CFEFCDBFDFE5DEBF00E00CBF10E2A0E052
S11302E0B0E2E8EAFEE500E00BBF02C007900D9221
S11302F0A03DB107D9F728E2A0EDB0E201C01D92FC
S1130300A432B207E1F70E942F0E0C94522F6FC152
S11303102F923F924F925F926F927F928F929F9211
S1130320AF92BF92CF92DF92EF92FF920F931F93FF
S1130330CF93DF9300D01F92CDB7DEB71C01E0E06E
S1130340F2E080A1816080A38FE68093210280A1E6
S1130350806880A3868180FFFDCF00E012E081E009
S1130360F80183A36089718980E090E00E94BB2B2F
S113037020E030E040E85DE30E94B12C2B013C0119
S113038087E780932102F80180A1806880A3868199
S113039080FFFDCF00E012E081E0F80183A36089D3
S11303A0718980E090E00E94BB2B20E030E040E8BF
S11303B05DE30E94B12C4B015C018FE78093210225
S11303C0F80180A1806880A3868180FFFDCF00E0D2
S11303D012E081E0F80183A36089718980E090E0F4
S11303E00E94BB2B20E030E040E85DE30E94B12C8A
S11303F06B017C0188E380932102F80180A180686D
S113040080A3868180FFFDCF00E012E081E0F80147
S113041083A36089718980E090E00E94BB2B20E077
S113042030E040E859E30E94B12C2DEC3CEC4CE464
S11304305DE30E94B92A2DEC3CEC44E251E40E94B5
S1130440B12C69837A838B839C838FE08093210210
S1130450F80180A1806880A3868180FFFDCFE0E061
S1130460F2E081E083A38089918987E4809321026B
S113047080A1806880A3868180FFFDCFE0E0F2E068
S113048081E083A38089918910A280E181A380A166
S1130490806880A3868180FFFDCFE0E0F2E081E008
S11304A083A30089118920E030E048EC52E4C301C1
S11304B0B2010E94B12C20E030E04FE753E40E94E7
S11304C0222BF101608B718B828B938B20E030E0C7
S11304D048EC52E4C501B4010E94B12C20E030E0A4
S11304E04FE753E40E94222BF101648B758B868BBA
S11304F0978B20E030E048EC52E4C701B6010E943B
S1130500B12C20E030E04FE753E40E94222BF101AC
S1130510608F718F828F938F23E333E343E75FE32D
S113052064817581868197810E94B12C6B017C0165
S11305302DEC3CEC4CE45DE369817A818B819C81F8
S11305400E94B12C9B01AC01C701B6010E94BA2ADA
S1130550F101648375838683978323E333E343E75D
S11305605FE3648D758D868D978D0E94B12C6B0130
S11305707C01B80180E090E00E94BB2B20E030E0D9
S113058040E859E30E94B12C2DEC3CEC4CE45DE3D3
S11305900E94B92A2AE939E945E251E40E94B12CC2
S11305A02DEC3CEC4CE45DE30E94B12C9B01AC01CE
S11305B0C701B6010E94BA2AF101648F758F868F34
S11305C0978F2496CDBFDEBFDF91CF911F910F91FE
S11305D0FF90EF90DF90CF90BF90AF909F908F905F
S11305E07F906F905F904F903F902F9008951F924F
S11305F00F920FB60F9211248F9388E08093070611
S11306008F910F900FBE0F901F9018951F920F920D
S11306100FB60F9211240BB60F922F933F934F9363
S11306205F936F937F938F939F93AF93BF93EF9356
S1130630FF93CF93DF931F92CDB7DEB70000809175
S1130640A00B89838981843261F481E08093BB218A
S113065087E791E20E947A291092B8211092B92179
S1130660B1C089818A3229F41092BB211092B82139
S1130670A9C08091BB21882309F4A4C089818C324C
S113068071F4A8EBB1E2EC91F0E0E958FE4D85A7D6
S11306901C92E9EBF1E280818F5F808310C0A8EBAC
S11306A0B1E2EC9181E08E0F8C938981F0E0E958FE
S11306B0FE4D85A78091BC21882309F483C0109244
S11306C0BC21E091B9218E2F90E0FC013297E930F2
S11306D0F10508F077C08827E250FF4F8F4F0C9444
S11306E0272F8091A4218C3239F56CC08091A421EC
S11306F08C3249F467C08091A4218C3209F04CC03B
S113070058C000005FC0ACE7B1E2E5EAF1E28D93C6
S113071081918C32E1F756C08091A4218E3419F472
S113072080937B214FC0833519F480937B214AC089
S113073088E580937B2146C0AAE8B1E2E5EAF1E2CC
S11307408D9381918C32E1F73DC08091A421853451
S113075019F48093892136C0873519F4809389214F
S113076031C088E5809389212DC08091A4218033F4
S113077019F41092A32126C0813321F481E08093DF
S1130780A32120C08233F1F482E08093A3211AC014
S1130790000018C0000016C0A7E9B1E2E5EAF1E2E2
S11307A02EEA31E28D9381918C3219F0E217F3072E
S11307B0C9F788E4E7E7F1E2AFE2B1E201900D9214
S11307C08A95E1F70F90DF91CF91FF91EF91BF915F
S11307D0AF919F918F917F916F915F914F913F91D5
S11307E02F910F900BBE0F900FBE0F901F90189576
S11307F01F920F920FB60F9211240BB60F928F9384
S11308009F93EF93FF93E0919C26F0919D26EC5BE0
S1130810FB4D80818823F9F08332E9F091E09093D5
S11308209E26853221F48AE08093A00902C0809339
S1130830A00980919C2690919D268739910530F4DA
S1130840019680939C2690939D2607C0FC01EC5B47
S1130850FB4D108202C010929E26FF91EF919F9152
S11308608F910F900BBE0F900FBE0F901F90189595
S11308701F920F920FB60F9211240BB60F922F9363
S11308803F934F935F936F937F938F939F93AF9314
S1130890BF93EF93FF93CF93DF931F92CDB7DEB750
S11308A080E1809305068091A0098983898184323F
S11308B021F481E08093CB26C1C08981823581F403
S11308C08091CB26882309F493C08FB7F8941092B3
S11308D0CB2698ED94BF91E0909379008FBFAEC082
S11308E08981833481F48091CB26882309F486C0DE
S11308F0ECEDF0E210A211A281E082A3E9ECF6E2B1
S1130900838312829BC08981803501F58091CB2637
S1130910882309F479C00E94B40F1092D420109255
S1130920D5201092D6201092D7201092CB26E8ED35
S1130930F0E281E0818380832FEF87EA91E6215002
S113094080409040E1F700C0000078C0898188357C
S113095059F48091CB26882309F45CC0E9ECF6E2D3
S113096081E0858312826AC089818B3451F480913D
S1130970CB26882309F453C0E9ECF6E215821282EF
S11309805DC08981833559F48091CB26882309F48D
S11309904BC0E9ECF6E281E0848312824FC0898186
S11309A0863451F48091CB26882309F442C0E9ECC3
S11309B0F6E21482128242C08981813451F480911A
S11309C0CB268823C9F1E9ECF6E281E08683128222
S11309D035C08981843449F48091CB26882329F059
S11309E0E9ECF6E21682128229C01092CB2626C0C8
S11309F089818981803509F0A9CF06C089818981DF
S1130A00883509F0B1CF06C0898189818B3409F01A
S1130A10B8CF05C089818981833509F605C08981EC
S1130A208981863449F605C089818981813489F6B2
S1130A3003C089818981D9CF8981D7CF0F90DF9174
S1130A40CF91FF91EF91BF91AF919F918F917F9142
S1130A506F915F914F913F912F910F900BBE0F902B
S1130A600FBE0F901F9018951F920F920FB60F9202
S1130A7011240BB60F928F939F93AF93BF93EF9371
S1130A80FF93E2E9F7E2A285B38581E08C930688BF
S1130A90F789E02D80819181A281B3810196A11D06
S1130AA0B11D80839183A283B383FF91EF91BF91A2
S1130AB0AF919F918F910F900BBE0F900FBE0F902F
S1130AC01F9018951F920F920FB60F9211240BB618
S1130AD00F928F939F93EF93FF938091D820882355
S1130AE009F443C08091D920823019F128F4882375
S1130AF049F0813081F03EC0843019F1F0F0853046
S1130B0031F138C0E8EDF0E210821382128280E401
S1130B108093A6062FC08091DB20873018F01092B6
S1130B20D92028C090E49093A7068F5F8093DB20A0
S1130B3021C080E48093A7061DC080E48093A506AD
S1130B4019C080E48093A5061092D92013C0809127
S1130B50DB20853018F01092D9200CC090E49093DB
S1130B60A7068F5F8093DB2005C01092D92080E414
S1130B708093A606FF91EF919F918F910F900BBEEA
S1130B800F900FBE0F901F9018951F920F920FB6E3
S1130B900F9211248F9380E1809306061092CB2646
S1130BA08F910F900FBE0F901F9018951F920F9268
S1130BB00FB60F9211240BB60F922F933F934F93BE
S1130BC05F936F937F938F939F93AF93BF93EF93B1
S1130BD0FF9380E28093070610929F268091CD2692
S1130BE0882341F18091882790918927A0918A27B1
S1130BF0B0918B278F3926E8920721E0A207B1052F
S1130C0060F40196A11DB11D8093882790938927D4
S1130C10A0938A27B0938B2708C01092882710923C
S1130C20892710928A2710928B27109217241092EA
S1130C301824DEDDFF91EF91BF91AF919F918F91C9
S1130C407F916F915F914F913F912F910F900BBEC8
S1130C500F900FBE0F901F901895E8EDF0E281E021
S1130C60818380830895E8EDF0E282E0818381E06E
S1130C7080830895E8EDF0E284E0818381E080835D
S1130C800895E8EDF0E285E0818381E080830895B2
S1130C90CF92DF92EF92FF92CF93DF938091FC206B
S1130CA09091FD20892B29F5ECEDF0E21082118260
S1130CB0128213821482158216821782108611867C
S1130CC0128613861486158616861786108A118A4C
S1130CD0128A138A148A158A168A178A108E118E1C
S1130CE0128E138E148E158E168E178E80E48093BA
S1130CF00506E090FC20F090FD2082E3E816F10464
S1130D0008F08AC0CCEDD0E2209115213091162153
S1130D1040911721509118216C817D818E819F8192
S1130D200E94BA2A6C837D838E839F83ECE2F7E270
S1130D3086819781092E000CAA0BBB0B4885598527
S1130D406A857B85840F951FA61FB71F888799879F
S1130D50AA87BB8780859185092E000CAA0BBB0B43
S1130D604C855D856E857F85840F951FA61FB71FF3
S1130D708C879D87AE87BF8782859385092E000C5B
S1130D80AA0BBB0B488959896A897B89840F951FF3
S1130D90A61FB71F888B998BAA8BBB8BE2EDF6E25B
S1130DA086819781092E000CAA0BBB0B4C895D89A7
S1130DB06E897F89840F951FA61FB71F8C8B9D8B0F
S1130DC0AE8BBF8B80859185092E000CAA0BBB0BC3
S1130DD0488D598D6A8D7B8D840F951FA61FB71F73
S1130DE0888F998FAA8FBB8F82859385092E000CDB
S1130DF0AA0BBB0B4C8D5D8D6E8D7F8D840F951F63
S1130E00A61FB71F8C8F9D8FAE8FBF8F8FEFE81AF1
S1130E10F80AE8A2F9A26BC0CCEDD0E220E030E001
S1130E2048E452E46C817D818E819F810E94222B53
S1130E3060931F217093202180932121909322217C
S1130E40688579858A859B850F2EF2E3CF2ED12C78
S1130E50E12CF12CF02DA70196010E940B2F209379
S1130E607427309375276C857D858E859F85A701B2
S1130E7096010E940B2F2093762730937727688959
S1130E8079898A899B89A70196010E940B2F209357
S1130E907827309379276C897D898E899F89A7016A
S1130EA096010E940B2F20931C2730931D27688DD9
S1130EB0798D8A8D9B8DA70196010E940B2F20931B
S1130EC01E2730931F276C8D7D8D8E8D9F8DA701DE
S1130ED096010E940B2F209320273093212718A2DC
S1130EE019A21AA21092CC2680E480930606DF9100
S1130EF0CF91FF90EF90DF90CF90089510929C26B1
S1130F0010929D26A9ECB6E21C9211961C921197A0
S1130F10E2E9F7E284E098E2808791878CE297E245
S1130F208083918382ED96E28283938381E191E2CF
S1130F30848395838FE291E286839783A287B38724
S1130F408FEF90E2848795878AEA97E2868797876E
S1130F5084E494E2808B918B8FEB91E2828B938B70
S1130F6080E997E2848B958B84E897E2868B978B54
S1130F700895FC019DE090838AE081832BE2228323
S1130F8029E423832EE4248321E525832DE326838A
S1130F9021E3278390878187E85AFD4F10821182CD
S1130FA00895CF92DF92EF92FF92CF93DF93EC01FB
S1130FB0888199810E948616888199810E94D81619
S1130FC08C859D850E9400128C859D850E9444120B
S1130FD08C819D810E94C9128C819D810E94FA128C
S1130FE08C819D810E9428138A819B810E947114A7
S1130FF0888599858DD9E1E1F1E2C288D388E488B6
S1131000F58826893789408D518DC701B6010E9424
S1131010AD2C181644F4C0922721D0922821E092D6
S11310202921F0922A21DF91CF91FF90EF90DF9058
S1131030CF9008958F929F92AF92BF92CF92DF92FA
S1131040EF92FF92CF93DF939C019091CF26911161
S113105008C01092D0261092D92082E080936606B0
S1131060A1C14091D02650E04A30510508F09AC100
S1131070D901FA018827E95FFE4F8F4F0C94272F7F
S1131080C090AA27D090AB27E090AC27F090AD2772
S113109020E030E040E450E4C701B6010E94AD2CEA
S11310A01816B4F420E030E040E251E460912B21C2
S11310B070912C2180912D2190912E210E94AD2C94
S11310C0181634F4E9ECF6E281E0858384E0878342
S11310D020E030E040E050E4C701B6010E941E2B3E
S11310E0882314F5C1E1D1E226E636E646E65FE35D
S11310F06E857F85888999890E94B12C4B015C019A
S11311002DEC3CEC4CEC5DE36C817D818E819F8108
S11311100E94B12C9B01AC01C501B4010E94BA2A02
S11311206E877F87888B998B20E030E040E050E425
S1131130C701B6010E94AD2C18160CF49BDDE1E149
S1131140F1E282899389A489B589868B978BA08FD4
S1131150B18F28C120E030E0A9016091AA277091E5
S1131160AB278091AC279091AD270E941E2B88233A
S11311700CF018C120E030E048E452E46091BE274E
S11311807091BF278091C0279091C1270E94AD2CF8
S113119018160CF007C120E030E048E452E46091F6
S11311A0BA277091BB278091BC279091BD270E94DC
S11311B0AD2C18160CF0F6C0609184277091852729
S11311C080918627909187270E94BB2B6093D02023
S11311D07093D1208093D2209093D32082E0809387
S11311E0D026E0C06091842770918527809186275E
S11311F0909187270E94BB2B6B017C0120E030E09B
S113120040E85FE36091D0207091D1208091D2209A
S11312109091D3200E94BA2A9B01AC01C701B60168
S11312200E94AD2C18160CF0BDC0C092D020D092F4
S1131230D120E092D220F092D32083E08093D02674
S1131240B1C0609184277091852780918627909101
S113125087270E94BB2B6B017C0120E030E040E03B
S113126050E46091D0207091D1208091D22090914F
S1131270D3200E94BA2A9B01AC01C701B6010E9487
S1131280AD2C18160CF08EC084E08093D0268AC052
S1131290E1E1F1E2228933894489558966897789B4
S11312A0808D918D0E94B92A20E030E040E251E423
S11312B00E94AD2C18160CF075C020E030E0A90196
S11312C060912B2170912C2180912D2190912E21C0
S11312D00E941E2B88230CF065C085E08093D026E5
S11312E061C0BBDC86E08093D0265CC01E96CD91A5
S11312F0DC911F9720E030E048EC53E46C897D8951
S11313008E899F890E941E2B88231CF487E080937A
S1131310D02620E030E040EF51EC688979898A8951
S11313209B890E941E2B88230CF03CC087E080938D
S1131330D02638C0A6DC88E08093D02633C020E0D5
S113134030E048E453E4609123217091242180919A
S11313502521909126210E941E2B88231CF5C090E4
S11313602B21D0902C21E0902D21F0902E2120E0F3
S113137030E040E85FE3C701B6010E941E2B8823DA
S11313808CF420E030E040E85FEBC701B6010E9436
S1131390AD2C18163CF489E08093D02603C063DC9E
S11313A01092CE26DF91CF91FF90EF90DF90CF90F7
S11313B0BF90AF909F908F90089580E2ADD6AFD646
S11313C0AFD6E5D74FD737D74CD762D788E290E06E
S11313D0A8D68AEF90E0C6D682E390E0E4D688EE01
S11313E093E002D78BDDACD70E9475160E94BC1225
S11313F00E94F9110E94C113AFD780E071D5CBD5FB
S11314006093D4207093D5208093D6209093D720D6
S113141087E08093A2000895CF93DF93CDB7DEB722
S11314206697CDBFDEBF86E1E0E0F0E2DE01119613
S113143001900D928A95E1F7E0E8F6E0808580FF5F
S1131440FDCF808581FFFACFE8EDF0E283E0818370
S113145081E0808389D52FEF87EA91E6215080408F
S11314609040E1F700C000008981882371F0FE01FB
S11314703296A0EAB9E08C938FE79EE30197F1F7E7
S113148000C0000081918111F6CF1092D8201092F3
S1131490D4201092D5201092D6201092D720669690
S11314A0CDBFDEBFDF91CF9108954F925F926F92CF
S11314B07F929F92AF92BF92CF92DF92EF92FF9270
S11314C00F931F93CF93DF93CDB7DEB7CA5BD109D8
S11314D0CDBFDEBF1092CE26E8EDF0E283E081833B
S11314E081E080832FEF87E893E121508040904092
S11314F0E1F700C000001082E0E8F6E0808581FF9B
S1131500FDCF86EAE6E1F0E2DE01119601900D924C
S11315108A95E1F784E1ECEBF0E2DE01A955BF4FD7
S113152001900D928A95E1F78981882389F0FE0163
S11315303296A0EAB9E08C932FEF89EF90E0215026
S113154080409040E1F700C0000081918111F3CF09
S1131550EFEFF7EA21E6E150F0402040E1F700C068
S1131560000084E08093050681E071D483E052D4C6
S113157080E050D480E04ED480E04CD4912CC12C37
S1131580D12C76010F2EF0EAAF2EF9E0BF2EF02D0C
S11315900F2EF4E64F2E512C612C712CF02D00E807
S11315A016E04BD48F3F21F0F5018083912C01C0CC
S11315B09394FFEFCF1ADF0AEF0AFF0AC701B601BF
S11315C0A30192010E94E92E672B682B692B51F429
S11315D02FEF89EF90E0215080409040E1F700C068
S11315E0000006C0EFE1F3E03197F1F700C000001E
S11315F0F801808580FF03C0F3E6F91590F680E0DA
S113160026D4C955DF4F8881C75AD040882379F042
S1131610FE01E855FF4FA0EAB9E08C938FE39FE108
S11316200197F1F700C0000081918111F6CFC654F3
S1131630DF4FCDBFDEBFDF91CF911F910F91FF90A0
S1131640EF90DF90CF90BF90AF909F907F906F907E
S11316505F904F90089584E494E28BDCC9D8E0E075
S1131660F6E088E085832FEF37E893E1215030409E
S11316709040E1F700C0000086832FEF33EC99E03F
S1131680215030409040E1F700C0000085832FEFE7
S113169037E893E1215030409040E1F700C000006A
S11316A086832FEF33EC89E0215030408040E1F70E
S11316B000C0000008958091880680FD06C08091D6
S11316C0880681FD02C0A8CE08958091880681FF16
S11316D0ECCE08952F923F924F925F926F927F9239
S11316E08F929F92AF92BF92CF92DF92EF92FF922E
S11316F00F931F93CF93DF93FC0124883588D10186
S11317008C918230E9F08330B1F1C081D1814C8970
S11317105D896E897F89C88CD98CEA8CFB8C0C8D91
S11317201D8D2E8D3F8D8CA19DA1AEA1BFA188A43E
S113173099A4AAA4BBA44CA45DA46EA47FA435C0A0
S1131740C081D181488D598D6A8D7B8DCC88DD888F
S1131750EE88FF880C8D1D8D2E8D3F8D88A599A553
S1131760AAA5BBA58CA09DA0AEA0BFA04CA45DA4BF
S11317706EA47FA41AC0C081D1814C8D5D8D6E8D05
S11317807F8DC88CD98CEA8CFB8C0C891D892E89A1
S11317903F898CA59DA5AEA5BFA588A499A4AAA49C
S11317A0BBA44CA05DA06EA07FA0E10139803320D2
S11317B011F07058B058C685D785488359836A8319
S11317C07B83C685D785CC82DD82EE82FF82C68587
S11317D0D785088719872A873B87C685D78588A335
S11317E099A3AAA3BBA3A685B78594968D929D922F
S11317F0AD92BC929797A685B78598964D925D92C7
S11318006D927C929B97A685B785C481D5814A89C0
S11318105B896C897D8954964D935D936D937C931C
S11318205797A685B7850480F581E02D428D538DA9
S1131830648D758D50964D935D936D937C93539702
S1131840DF91CF911F910F91FF90EF90DF90CF9098
S1131850BF90AF909F908F907F906F905F904F90CC
S11318603F902F9008952F923F924F925F926F92E4
S11318707F928F929F92AF92BF92CF92DF92EF921C
S1131880FF920F931F93CF93DF93CDB7DEB7A0974B
S1131890CDBFDEBF1C0119821A821B821C821D82ED
S11318A01E821F82188619861A861B861C861D8630
S11318B01E861F86188A198A1A8A1B8A1C8A1D8A00
S11318C01E8A1F8A188E198E1A8E1B8E1C8EDC019E
S11318D01E960D911C911F970F2EF4E6FF2EF02DEE
S11318E082E997E25EDB82E997E2F4DE6D817E8134
S11318F08F819885F80120813181428153810E9432
S1131900BA2A6D837E838F83988769857A858B85D0
S11319109C85D80114962D913D914D915C9117971A
S11319200E94BA2A69877A878B879C876D857E8512
S11319308F859889F80120853185428553850E94D9
S1131940BA2A6D877E878F87988BFA94F110C8CF57
S11319506D817E818F81988520E030E048EC52E4EF
S11319600E94222B6D837E838F83988769857A8575
S11319708B859C8520E030E048EC52E40E94222BC9
S113198069877A878B879C876D857E858F85988903
S113199020E030E048EC52E40E94222B6D877E87E1
S11319A08F87988BD8018D909D90AD90BC901397A4
S11319B01496CD90DD90ED90FC90179718964D906D
S11319C05D906D907C901B97A5019401C501B401B5
S11319D00E94B12C6D8F7E8F8F8F98A3A7019601E3
S11319E0C701B6010E94B12C9B01AC016D8D7E8DA7
S11319F08F8D98A10E94BA2A6D8F7E8F8F8F98A3A6
S1131A00A5019401C501B4010E94B12C4B015C01F4
S1131A10A7019601C701B6010E94B12C9B01AC013C
S1131A20C501B4010E94BA2A6B017C01A301920191
S1131A30C301B2010E94B12C9B01AC01C701B601E4
S1131A400E94BA2A0E94642D69837A838B839C83C3
S1131A508D819E81AF81B885BF77898B9A8BAB8B43
S1131A60BC8B89859A85AB85BC85BF778D8B9E8B16
S1131A70AF8BB88F8D859E85AF85B889BF77898FE9
S1131A809A8FAB8FBC8F69817A818B819C810E94F4
S1131A908A2B9B01772324F422273327261B370B19
S1131AA0B901330F880B990B0E94BD2B26E636E64D
S1131AB046E65FE30E941E2B88230CF4AEC06981C6
S1131AC07A818B819C810E948A2B9B01772324F449
S1131AD022273327261B370BB901330F880B990BA9
S1131AE00E94BD2B2DEC3CEC4CE85FE30E94AD2C36
S1131AF018160CF494C069897A898B899C892D897C
S1131B003E894F89588D0E94AD2C1816A4F469891A
S1131B107A898B899C89298D3A8D4B8D5C8D0E94A5
S1131B20AD2C181644F4D1015496ED91FC915597BF
S1131B3081E0808327C06D897E898F89988D29896A
S1131B403A894B895C890E94AD2C1816A4F46D89DE
S1131B507E898F89988D298D3A8D4B8D5C8D0E945D
S1131B60AD2C181644F4D1015496ED91FC9155977F
S1131B7082E0808307C0D1015496ED91FC91559782
S1131B8083E08083F10104891589D8018C91823026
S1131B90A1F0833019F1813081F56D817E818F81CF
S1131BA098852DEC3CEC4CEC5DE30E941E2B8823C5
S1131BB024F581E0F801818320C069857A858B85CD
S1131BC09C852DEC3CEC4CEC5DE30E941E2B8823A1
S1131BD0A4F481E0D80111968C930FC06D857E85A5
S1131BE08F8598892DEC3CEC4CEC5DE30E941E2B18
S1131BF088231CF481E0F8018183E98CFA8C0B8D35
S1131C001C8D2D893E894F89588D69897A898B89E4
S1131C109C890E94A22980E003C081E001C081E088
S1131C20A096CDBFDEBFDF91CF911F910F91FF90A2
S1131C30EF90DF90CF90BF90AF909F908F907F9068
S1131C406F905F904F903F902F900895ECEDF0E2ED
S1131C5010A211A281E082A38093CC260895E9EC1E
S1131C60F6E2158281E0848310929F26A6DB82E946
S1131C7097E2F9DD7894EFDC1EDDE8DFC9ECD6E20B
S1131C800F2EF4E8AF2EF7E2BF2EF02D0F2EFEE953
S1131C90CF2EF6E2DF2EF02D0F2EF5E88F2EF2E098
S1131CA09F2EF02D0F2EE12CF6E0FF2EF02D6894E0
S1131CB0772472F80CED10E22AE02A95F1F700C0BF
S1131CC088818823C9F3188282E997E26AD982E974
S1131CD097E200DD82E997E2ADD982E997E20E94BA
S1131CE0EC178D81882309F14FEB51E260E971E033
S1131CF084ED90E27DD1F50180859185A285B3853F
S1131D008F33F2E49F07FFE0AF07B10548F4019673
S1131D10A11DB11DF50180879187A287B38705C0F6
S1131D20F5011086118612861386F60180818111D1
S1131D3009C0EFEBF1E2A4E4B4E2C40101900D9216
S1131D400197E1F7F7017782F80182A1882309F46A
S1131D50B3CF0E944806B0CFE0E8F4E09481992321
S1131D60ECF7882319F087E080938304809187043B
S1131D70089580938604E0E8F4E0848186FFFDCF33
S1131D8060938704E0E8F4E0848186FFFDCF40930C
S1131D908704E0E8F4E0848186FFFDCF83E080934C
S1131DA083040895FF920F931F93CF93DF93F22E32
S1131DB080938604E0E8F4E0948196FFFDCF60937D
S1131DC08704E0E8F4E0948196FFFDCFE0E8F4E0D6
S1131DD091E0938381608683042F10E00150110900
S1131DE01016110664F4CF2DD32F80E0B5DF89934C
S1131DF08C2F8F1990E080179107BCF302C0CF2D70
S1131E00D32F81E0A9DF8883DF91CF911F910F91B8
S1131E10FF900895CF93DF931F92CDB7DEB78093E1
S1131E20C308E0ECF8E082818823ECF78091C308D2
S1131E3089830F90DF91CF9108951092C308E0EC4D
S1131E40F8E082818823ECF78091C3080895882301
S1131E5021F081E080936606089581E08093650611
S1131E6008951F93CF93DF93C0E6D6E011E01E835D
S1131E7086E0D0DF1D83DF91CF911F9108951F93DA
S1131E80CF93DF93C0E6D6E011E01E8384E0C2DF87
S1131E901D83DF91CF911F910895DF92EF92FF92FE
S1131EA00F931F93CF93DF93F62EE72ED82E042F94
S1131EB0D8DFC0E6D6E011E01E8382E0ABDF8D2DD3
S1131EC0A9DF8E2DA7DF8F2DA5DF802FA3DF1D8334
S1131ED0DF91CF911F910F91FF90EF90DF900895C4
S1131EE01F93CF93DF93882391F0C0E6D6E011E0EF
S1131EF01E8380E58FDF1D838AE08A95F1F700C099
S1131F001E8381E087DF8CE185DF1D8311C0C0E67D
S1131F10D6E011E01E8380E57DDF1D838AE08A958B
S1131F20F1F700C01E8381E075DF80E073DF1D835D
S1131F30DF91CF911F910895CF93DF931F92CDB777
S1131F40DEB781E08093660685E064DF76DF89830F
S1131F5074DF8983898180FDFBCF81E080936506EE
S1131F600F90DF91CF9108951F93CF93DF9379DF83
S1131F70C0E6D6E011E01E8380E64CDF1D838FE1CE
S1131F8093E00197F1F700C00000D6DF78DFDF911E
S1131F90CF911F910895CF92DF92EF92FF9281E04B
S1131FA08093660683E036DF80E034DF80E032DF52
S1131FB080E030DFC12CD12C76010DC08FEFC81A20
S1131FC0D80AE80AF80A80EAC8168FE8D8068EE329
S1131FD0E806F10419F031DF8F3F81F781E0809347
S1131FE06506C701B601FF90EF90DF90CF9008958A
S1131FF08F929F92AF92BF92CF92DF92EF92FF9215
S11320000F931F93CF93DF934B01FA01DC014D91A2
S11320105D916D917C91403D5E4F6F437105B8F5C4
S113202024E0209305064081442371F1A12CB12CB6
S113203081149104A104B10439F18F01EC010F5F03
S11320401F4FC12CD12C7601EFEFCE1ADE0AEE0A17
S1132050FE0A688179818A819B811FDF6DDF888117
S11320609981AA81BB810196A11DB11D88839983A1
S1132070AA83BB83D8014D918D01442329F0C81450
S1132080D904EA04FB0401F784E080930606DF9197
S1132090CF911F910F91FF90EF90DF90CF90BF9061
S11320A0AF909F908F900895E0E5F0E0908191606B
S11320B09083A8E6B0E090E412969C9312979DE07A
S11320C013969C93908194609083918192FFFDCFAD
S11320D0E0E5F0E09681987F9683E8E6F0E0908171
S11320E091609083E0E5F0E0918190FFFDCF98ED61
S11320F094BF10924000E0E5F0E090819F7E9083D1
S1132100858380E18083818184FFFDCF88ED84BF56
S113211084E08093400008958695C6CF089508957D
S1132120089527E0209300081092010810922008D7
S1132130109221089C01A0E0BDE70E942F2FDC0132
S1132140CB01072E7AE0B695A795979587957A9552
S1132150D1F7702D809326089093270882E080930E
S11321600608089527E020930009109201091092AF
S11321702009109221099C01A0E0BDE70E942F2FA5
S1132180DC01CB01072E7AE0B695A7959795879544
S11321907A95D1F7702D809326099093270981E0D1
S11321A080930609089527E02093000A1092010AFB
S11321B01092200A1092210A9C01A0E0BDE70E941F
S11321C02F2FDC01CB01072E7AE0B695A7959795C2
S11321D087957A95D1F7702D8093260A9093270AD4
S11321E082E08093060A089527E02093000B109262
S11321F0010B1092200B1092210B813D27E09207D6
S113220010F080ED97E09C01A0E0BDE70E942F2F25
S1132210DC01CB01072E7AE0B695A79597958795B3
S11322207A95D1F7702D8093260B9093270B82E03B
S11322308093060B0895E0EAF6E084E0868388E064
S113224085838183E0EAFBE083E0858387E18683FD
S113225084EA878383818061838384818861848322
S113226008950895E0E6F6E084E0868388E08583B7
S11322708183E0EAF9E083E0858387E1868384EA69
S1132280878383818C6183838481886184830895B7
S1132290CF93DF9388E18093900680939106A0E02A
S11322A0B6E08C9181608C93E6E0F6E021E0208337
S11322B08C918C678C938CE78083A0EAB6E08C9138
S11322C080648C9366EA76E050E4DB015C9334E04E
S11322D03093410630934606C1E6D6E082E0888317
S11322E0A6E6B6E08C933C9348E0488390E298835A
S11322F09C93DB013C934093A5064093A10633E0F5
S11323003093400630934406A2EEB7E02C938C93AE
S1132310A2E8B6E030E13C939C93A2EAB6E02C93A9
S11323208C933C9330936206808380E88083E6E25A
S1132330F6E02083908350838083DF91CF910895CA
S1132340E0E8F4E080E3818391E0928385838181F6
S11323508860818394830895E0E4F6E080E18183DA
S113236080EA818380E4828380EE8583E0E6F6E080
S113237081E08183858381E58093C0080895AAEC78
S1132380B1E022E02C93FC0184911C9208951F93E8
S1132390CF93DF93C0E0D2E011E0188380E290E0B5
S11323A0EEDF8C8781E290E0EADF8D8719821A8262
S11323B083E08C8318A3DF91CF911F91089592E35A
S11323C090938604E0E8F4E0948196FFFDCF809337
S11323D08704E0E8F4E0848186FFFDCF60938704FE
S11323E0E0E8F4E0848186FFFDCF83E080938304FA
S11323F008956FE280E2E3DF60E383E2E0CF0895D3
S1132400CF92DF92EF92FF920F931F93CF93DF93BC
S11324108C0182E380938604E0E8F4E0948196FFE3
S1132420FDCF88EA80938704E0E8F4E0948196FF86
S1132430FDCFE0E8F4E081E0838383E3868380E0FA
S11324408BDCC82ED12C80E087DCD82A80E084DCA9
S1132450E82EF12C80E080DCF82A80E07DDCC82FB7
S1132460D0E081E079DCF801C082D182E282F3829B
S1132470D82BC483D583DF91CF911F910F91FF9007
S1132480EF90DF90CF9008950F931F93CF93DF9336
S1132490CDB7DEB72C97CDBFDEBF8C01FC016081C8
S11324A07181072E000C880B990B0E94BD2B20E034
S11324B030E040E45AE30E94B12C69837A838B8331
S11324C09C83F80162817381072E000C880B990BA1
S11324D00E94BD2B20E030E040E45AE30E94B12C7E
S11324E06D837E838F839887F80164817581072EBD
S11324F0000C880B990B0E94BD2B20E030E040E4D7
S11325005AE30E94B12C69877A878B879C876981FB
S11325107A818B819C812BE83DEF45E65EE30E9446
S1132520BA2AF80166837783808791876D817E81DB
S11325308F8198852BE83DEF45E65EE30E94BA2A39
S1132540F801628773878487958769857A858B8587
S11325509C852BE83DEF45E65EE30E94B92AF8012D
S113256066877787808B918B2C96CDBFDEBFDF91FA
S1132570CF911F910F9108954FE060E188EBF9DB53
S113258041E063E288EBF5DB40EC60E288EBF1CB01
S113259008950F931F93CF93DF93CDB7DEB72A9798
S11325A0CDBFDEBF8C019E012F5F3F4F45E068EA3F
S11325B088EBF8DB8A814B8150E060E070E0BA017F
S11325C055274427582B8981482BF8014083518390
S11325D0628373838D8190E0982F88272C81822BCE
S11325E0808791872A96CDBFDEBFDF91CF911F915F
S11325F00F910895CF93DF93EC01688179818A81EB
S11326009B810E94BB2B20E030E040E859E30E940C
S1132610B12C6C837D838E839F8368857985072E97
S1132620000C880B990B0E94BD2B20E030E040EF9A
S113263053E40E94222B20E030E04AE252E40E945C
S1132640BA2A6A877B878C879D87DF91CF9108950B
S11326504F925F926F927F928F929F92AF92BF92AE
S1132660CF92DF92EF92FF92CF93DF93EC0120E0C1
S113267030E0A9016E857F85888999890E941E2B87
S1132680811108C08C819D81AE81BF818E879F8717
S1132690A88BB98B2E853F85488959896C817D81AA
S11326A08E819F810E94222B2EE534ED42E45EE36D
S11326B00E94142D2B013C018A889B88AC88BD881C
S11326C02DEC3CEC4CE45FE3C501B4010E94B12C59
S11326D06B017C01A301920160E070E080E89FE35C
S11326E00E94B92A20E032E14AE257E40E94B12C68
S11326F02DEC3CEC4CE45EE30E94B12C9B01AC015C
S1132700C701B6010E94BA2A6B017C016A8B7B8BDC
S11327108C8B9D8B26E636E646E65FE36A8D7B8DE1
S11327208C8D9D8D0E94B12C2B013C01A50194013F
S1132730C701B6010E94B92A2DEC3CEC4CEC5DE3D8
S11327400E94B12C20E030E048EC51E40E94B12C0E
S11327509B01AC01C301B2010E94BA2A6A8F7B8F2C
S11327608C8F9D8FDF91CF91FF90EF90DF90CF9072
S1132770BF90AF909F908F907F906F905F904F909D
S1132780089584ED80938604E0E8F4E0848186FF74
S1132790FDCF80E280938704E0E8F4E0848186FF43
S11327A0FDCF8FEB80938704E0E8F4E0848186FF1B
S11327B0FDCFE0E8F4E083E0838384ED86838481C5
S11327C086FFFDCF83E280938704E0E8F4E0848110
S11327D086FFFDCF80E280938704E0E8F4E0848103
S11327E086FFFDCFE0E8F4E083E083838AE3868319
S11327F0848186FFFDCF80E280938704E0E8F4E0E3
S1132800848186FFFDCF87E880938704E0E8F4E0C5
S1132810848186FFFDCFE0E8F4E083E083838AE3EC
S11328208683848186FFFDCF81E280938704E0E87C
S1132830F4E0848186FFFDCF80E680938704E0E89E
S1132840F4E0848186FFFDCFE0E8F4E083E0838355
S11328508AE38683848186FFFDCF84E280938704A4
S1132860E0E8F4E0848186FFFDCF80EF8093870465
S1132870E0E8F4E0848186FFFDCFE0E8F4E083E063
S113288083838AE38683848186FFFDCF85E28093F8
S11328908704E0E8F4E0848186FFFDCF109287048A
S11328A0E0E8F4E0848186FFFDCFE0E8F4E083E033
S11328B083838AE38683848186FFFDCF86E28093C7
S11328C08704E0E8F4E0848186FFFDCF109287045A
S11328D0E0E8F4E0848186FFFDCF83E08093830405
S11328E008950F931F93CF93DF93EC0184ED8093AE
S11328F08604E0E8F4E0848186FFFDCF88EA8093D3
S11329008704E0E8F4E0848186FFFDCF00E814E06A
S113291081E0F801838385ED868380E01DDA90E011
S11329208E839F8380E018DA2E813F81382B2E839B
S11329303F8380E011DA90E08887998780E00CDAA1
S113294028853985382B2887398780E005DA90E097
S11329508A879B8781E000DA2A853B85382B2A8782
S11329603B878AE3F8018683848186FFFDCF88E86C
S113297080938704E0E8F4E0848186FFFDCF00E8DB
S113298014E081E0F80183838BE3868380E0E4D95B
S113299090E08E879F8780E0DFD92E853F85382B96
S11329A02E873F8780E0D8D990E0888B998B80E090
S11329B0D3D928893989382B288B398B80E0CCD915
S11329C090E08A8B9B8B81E0C7D92A893B89382B7D
S11329D02A8B3B8B8AE3F8018683848186FFFDCFB3
S11329E088EA80938704E0E8F4E0848186FFFDCFE1
S11329F000E814E081E0F80183838BE3868380E0C0
S1132A00ABD990E08883998380E0A6D92881398165
S1132A10382B2883398380E09FD990E08A839B8375
S1132A2080E09AD92A813B81382B2A833B8380E03A
S1132A3093D990E08C839D8381E08ED92C813D8154
S1132A40382B2C833D838AE3F8018683848186FFB7
S1132A50FDCF85E880938704E0E8F4E0848186FF75
S1132A60FDCFE0E8F4E081E083838BE3868380E0BC
S1132A7073D990E08C879D8781E06ED90C851D8584
S1132A80182B0C871D87FE01EC5BFF4F6881798151
S1132A9080819181681B790B072E000C880B990BA0
S1132AA00E94BD2B2AE534E64BE35FE30E94B12C80
S1132AB020E030E04AE754E40E94222B6C8B7D8BAB
S1132AC08E8B9F8BFE01EA5BFF4F6A817B81808145
S1132AD09181681B790B072E000C880B990B0E94BF
S1132AE0BD2B2AE534E64BE35FE30E94B12C20E0E2
S1132AF030E04AE754E40E94222B688F798F8A8F52
S1132B009B8FFE01E85BFF4F6C817D818081918109
S1132B10681B790B072E000C880B990B0E94BD2BA8
S1132B202AE534E64BE35FE30E94B12C20E030E079
S1132B304AE754E40E94222B6C8F7D8F8E8F9F8FE7
S1132B40FE01E65BFF4F6E817F8180819181681B6E
S1132B50790B072E000C880B990B0E94BD2B20E0EB
S1132B6030E04AE755E40E94B12C20E030E040E830
S1132B7057E30E94B12C6CA37DA38EA39FA3FE01F7
S1132B80E45BFF4F6885798580819181681B790BAF
S1132B90072E000C880B990B0E94BD2B20E030E01F
S1132BA04AE755E40E94B12C20E030E040E857E3C6
S1132BB00E94B12C68A779A78AA79BA7FE01E25BB4
S1132BC0FF4F6A857B8580819181681B790B072E75
S1132BD0000C880B990B0E94BD2B20E030E04AE7E3
S1132BE055E40E94B12C20E030E040E857E30E9415
S1132BF0B12C6CA77DA78EA79FA7FE01E05BFF4FBA
S1132C006E857F8580819181681B790B072E000C6E
S1132C10880B990B0E94BD2B20E030E040E850E483
S1132C200E94B12C2AE037ED43E254E40E94222BA7
S1132C306CAB7DAB8EAB9FABFE01EE5AFF4F688948
S1132C40798980819181681B790B072E000C880B90
S1132C50990B0E94BD2B20E030E040E850E40E9434
S1132C60B12C2AE037ED43E254E40E94222B68AFF2
S1132C7079AF8AAF9BAFFE01EC5AFF4F6A897B891B
S1132C8080819181681B790B072E000C880B990BAE
S1132C900E94BD2B20E030E040E850E40E94B12CBB
S1132CA02AE037ED43E254E40E94222B6CAF7DAF5F
S1132CB08EAF9FAFB801110F880B990B0E94BD2BEB
S1132CC020E030E040E05EE30E94B12C20E030E000
S1132CD048EA51E40E94BA2A68AB79AB8AAB9BAB51
S1132CE0DF91CF911F910F91089542E06BE680ED43
S1132CF040D842E06AE180ED3CD848E16BE180EDE8
S1132D0038D848E16CE180ED34C808950F931F93DF
S1132D10CF93DF93CDB7DEB76497CDBFDEBF8C0111
S1132D209E012F5F3F4F4EE06BE380ED3BD88981DE
S1132D3090E0982F88272A81822BF8018083918341
S1132D408B8190E0982F88272C81822B8283938318
S1132D508D8190E0982F88272E81822B8483958300
S1132D608F8190E0982F88272885822B84879587E8
S1132D70898590E0982F88272A85822B86839783DC
S1132D808B8590E0982F88272C85822B80879187CC
S1132D908D8590E0982F88272E85822B82879387B4
S1132DA06496CDBFDEBFDF91CF911F910F9108953F
S1132DB0CF93DF93EC012E853F85FC01EC5AFF4F46
S1132DC040814203B001439F700D1124672F770F98
S1132DD0770B620F731F072E000C880B990B0E9450
S1132DE0BD2B2AE939E949E95EE30E94B12C6AABBB
S1132DF07BAB8CAB9DAB28893989FE01EB5AFF4F25
S1132E0040814203B001439F700D1124672F770F57
S1132E10770B620F731F072E000C880B990B0E940F
S1132E20BD2B2AE939E949E95EE30E94B12C6EAB76
S1132E307FAB88AF99AF2A893B89FE01EA5AFF4FDD
S1132E4040814203B001439F700D1124672F770F17
S1132E50770B620F731F072E000C880B990B0E94CF
S1132E60BD2B2AE939E949E95EE30E94B12C6AAF36
S1132E707BAF8CAF9DAFFE01EE5BFF4F6881798124
S1132E8080819181681B790B072E000C880B990BAC
S1132E900E94BD2B20E030E040E05AE30E94B12CB8
S1132EA06C8B7D8B8E8B9F8BFE01EC5BFF4F6A815D
S1132EB07B8180819181681B790B072E000C880B24
S1132EC0990B0E94BD2B20E030E040E05AE30E94C1
S1132ED0B12C688F798F8A8F9B8FFE01EA5BFF4F3D
S1132EE06C817D8180819181681B790B072E000C98
S1132EF0880B990B0E94BD2B20E030E040E05AE3A0
S1132F000E94B12C6C8F7D8F8E8F9F8FFE01E85BAA
S1132F10FF4F6E817F8180819181681B790B072E21
S1132F20000C880B990B0E94BD2B23E333E343E889
S1132F3051E40E94222B6CA37DA38EA39FA3FE01C8
S1132F40E65BFF4F6885798580819181681B790BE9
S1132F50072E000C880B990B0E94BD2B23E333E34F
S1132F6043E851E40E94222B68A779A78AA79BA76C
S1132F70FE01E45BFF4F6A857B8580819181681B3C
S1132F80790B072E000C880B990B0E94BD2B23E3B1
S1132F9033E343E851E40E94222B6CA77DA78EA75C
S1132FA09FA76C857D85072E000C880B990B0E94CA
S1132FB0BD2B20E030EF49E356E40E94BA2A20E01A
S1132FC030E048E052E40E94222B0E948A2B68AB36
S1132FD079ABDF91CF9108952F923F924F925F92F8
S1132FE06F927F928F929F92AF92BF92CF92DF9215
S1132FF0EF92FF920F931F93CF93DF93CDB7DEB77A
S11330002A97CDBFDEBF8C0119821A82DC01529649
S11330102D913C91539789819A81AC014F5F5F4F09
S113302049835A83F901E80FF91F23E32083529659
S11330302D913C91539789819A81AC014F5F5F4FE9
S113304049835A83F901E80FF91F22E3208352963A
S11330502D913C91539789819A81AC014F5F5F4FC9
S113306049835A83F901E80FF91F29E32083529613
S11330702D913C91539789819A81AC014F5F5F4FA9
S113308049835A83F901E80FF91F26E320835296F6
S11330902D913C91539789819A81AC014F5F5F4F89
S11330A049835A83F901E80FF91F0F2EFCE2DF2E42
S11330B0F02DD0825696ED91FC915797848195819D
S11330C08B839C8352964D915C91539729813A81CD
S11330D0C901019689839A838B819C81FA01E20F4D
S11330E0F31F60E177E20E94D62ECB010F2EFAE0A7
S11330F0EF2EF12CF02DB7010E94D62E805D808337
S1133100F8014289538929813A81C9010196898349
S11331109A838B819C81FA01E20FF31F0F2EF8EE44
S11331208F2EF3E09F2EF02DB4010E94D62ECB01FA
S1133130B7010E94D62E805D8083D80152964D91AE
S11331405C91539729813A81C901019689839A83B5
S11331508B819C81FA01E20FF31F0F2EF4E6AF2E50
S1133160B12CF02DB5010E94D62ECB01B7010E94DF
S1133170D62E805D8083F8014289538929813A8162
S1133180C901019689839A838B819C81FA01E20F9C
S1133190F31FB7010E94D62ECB01B7010E94D62E91
S11331A0805D8083D80152964D915C91539729811B
S11331B03A81C901019689839A838B819C81FA01A2
S11331C0E20FF31FB7010E94D62E805D8083F801C1
S11331D02289338989819A81AC014F5F5F4F49838A
S11331E05A83F901E80FF91FD082D8011896ED919E
S11331F0FC91199720E030E04AE754E4648175813A
S1133200868197810E94B12C0E948A2B6B837C83D8
S1133210F8014289538929813A81C9010196898338
S11332209A838B819C81FA01E20FF31FB4010E94FF
S1133230D62ECB01B7010E94D62E805D8083D801A3
S113324052962D913C91539789819A81AC014F5F9D
S11332505F4F49835A83F901E80FF91F2EE2208357
S113326052964D915C91539729813A81C9010196F7
S113327089839A838B819C81FA01E20FF31FB50144
S11332800E94D62ECB01B7010E94D62E805D80838A
S1133290F8014289538929813A81C90101968983B8
S11332A09A838B819C81FA01E20FF31FB7010E947C
S11332B0D62ECB01B7010E94D62E805D8083D80123
S11332C052964D915C91539729813A81C901019697
S11332D089839A838B819C81FA01E20FF31FB701E2
S11332E00E94D62E805D8083F801228933898981EA
S11332F09A81AC014F5F5F4F49835A83F901E80F0C
S1133300F91FD082D8011A96ED91FC911B97878101
S113331090E08B839C8352964D915C915397898165
S11333209A819C012F5F3F4F29833A832B813C81F3
S1133330FA01E80FF91F205D208352962D913C91EC
S1133340539789819A81AC014F5F5F4F49835A83B8
S1133350F901E80FF91FD08252962D913C915397B1
S113336089819A81AC014F5F5F4F49835A83F90188
S1133370E80FF91F23E5208352962D913C91539732
S113338089819A81AC014F5F5F4F49835A83D90188
S1133390A80FB91FF80182859385FC012681205D61
S11333A02C93D80152962D913C91539789819A81FF
S11333B0AC014F5F5F4F49835A83D901A80FB91FEE
S11333C0F80182859385FC012481205D2C93D8012A
S11333D052962D913C91539789819A81AC014F5F0C
S11333E05F4F49835A83D901A80FB91FF801828519
S11333F09385FC012581205D2C93D80152962D9153
S11334003C91539789819A81AC014F5F5F4F498307
S11334105A83D901A80FB91FF80182859385FC014D
S11334202381205D2C93D80152962D913C91539782
S113343089819A81AC014F5F5F4F49835A83F901B7
S1133440E80FF91FD0821E96ED91FC911F97C48856
S1133450D588E688F788C701B6010E948A2B6B835A
S11334607C83C701B6010E94A22D9B01AC01C70158
S1133470B6010E94B92A20E030E048EC52E40E94F0
S1133480B12C0E948A2B6D837E838B819C8199232E
S113349024F08D819E819923F4F48B819C819195F4
S11334A0819591098B839C838D819E8191958195D2
S11334B091098D839E83F8012289338989819A81B8
S11334C0AC014F5F5F4F49835A83F901E80FF91F3D
S11334D02DE2208311C0D80152962D913C9153972F
S11334E089819A81AC014F5F5F4F49835A83F90107
S11334F0E80FF91F2BE22083D8015296ED91FC913D
S1133500539729813A81C901019689839A838B81D2
S11335109C81E20FF31F60E177E20E94D62ECB017B
S11335202AE030E0B9010E94D62E805D8083D80164
S11335305296ED91FC91539749815A81CA010196A3
S113354089839A838B819C81E40FF51F68EE73E075
S11335500E94D62ECB01B9010E94D62E805D8083B5
S1133560D8015296ED91FC91539749815A81CA0131
S1133570019689839A838B819C81E40FF51F64E60D
S113358070E00E94D62ECB01B9010E94D62E805D38
S11335908083D8015296ED91FC91539749815A81C9
S11335A0CA01019689839A838B819C81E40FF51F5C
S11335B0B9010E94D62ECB01B9010E94D62E805D9E
S11335C08083D8015296ED91FC91539749815A8199
S11335D0CA01019689839A838B819C81E40FF51F2C
S11335E0B9010E94D62E805D8083F80142895389F7
S11335F089819A81BC016F5F7F4F69837A83FA0165
S1133600E80FF91F4EE24083D8015296ED91FC91E8
S1133610539749815A81CA01019689839A838D817E
S11336209E81E40FF51FB9010E94D62ECB01B9018A
S11336300E94D62E805D8083D8015296ED91FC9134
S1133640539749815A81CA01019689839A838D814E
S11336509E81E40FF51FB9010E94D62E805D808300
S1133660F8012289338989819A81AC014F5F5F4FC8
S113367049835A83F901E80FF91F2CE22083D8010A
S11336801E96ED91FC911F9720E030E040E251E45A
S113369060897189828993890E94B12C0E948A2B46
S11336A06B837C838B819C819923BCF48B819C816B
S11336B09195819591098B839C83F80122893389A3
S11336C089819A81AC014F5F5F4F49835A83F90125
S11336D0E80FF91F2DE2208311C0D80152962D91D5
S11336E03C91539789819A81AC014F5F5F4F498325
S11336F05A83F901E80FF91F2BE22083D80152966F
S1133700ED91FC91539729813A81C90101968983EE
S11337109A838B819C81E20FF31F60E177E20E9420
S1133720D62ECB012AE030E0B9010E94D62E805D6E
S11337308083D8015296ED91FC91539749815A8127
S1133740CA01019689839A838B819C81E40FF51FBA
S113375068EE73E00E94D62ECB01B9010E94D62EEA
S1133760805D8083D8015296ED91FC9153974981F5
S11337705A81CA01019689839A838B819C81E40FC3
S1133780F51F64E670E00E94D62ECB01B9010E94B9
S1133790D62E805D8083D8015296ED91FC9153978B
S11337A049815A81CA01019689839A838B819C81BC
S11337B0E40FF51FB9010E94D62ECB01B9010E9476
S11337C0D62E805D8083F8014289538989819A814C
S11337D0BC016F5F7F4F69837A83FA01E80FF91F99
S11337E04EE24083D8015296ED91FC915397498162
S11337F05A81CA01019689839A838B819C81E40F43
S1133800F51FB9010E94D62E805D8083F8012289BC
S1133810338989819A81AC014F5F5F4F49835A8311
S1133820F901E80FF91F2CE22083D8011E96ED91CF
S1133830FC911F9720E030E04AE754E460817181F5
S1133840828193810E94B12C0E948A2B6B837C839A
S11338508B819C819923BCF48B819C81919581956A
S113386091098B839C83F8012289338989819A8108
S1133870AC014F5F5F4F49835A83F901E80FF91F89
S11338802DE2208311C0D80152962D913C9153977B
S113389089819A81AC014F5F5F4F49835A83F90153
S11338A0E80FF91F2BE22083D8015296ED91FC9189
S11338B0539729813A81C901019689839A838B811F
S11338C09C81E20FF31F60E177E20E94D62ECB01C8
S11338D02AE030E0B9010E94D62E805D8083D801B1
S11338E05296ED91FC91539749815A81CA010196F0
S11338F089839A838B819C81E40FF51F68EE73E0C2
S11339000E94D62ECB01B9010E94D62E805D808301
S1133910F8014289538989819A81BC016F5F7F4F85
S113392069837A83FA01E80FF91F4EE24083D801D4
S11339305296ED91FC91539749815A81CA0101969F
S113394089839A838B819C81E40FF51F64E670E080
S11339500E94D62ECB01B9010E94D62E805D8083B1
S1133960D8015296ED91FC91539749815A81CA012D
S1133970019689839A838B819C81E40FF51FB90199
S11339800E94D62ECB01B9010E94D62E805D808381
S1133990D8015296ED91FC91539749815A81CA01FD
S11339A0019689839A838B819C81E40FF51FB90169
S11339B00E94D62E805D8083F80122893389898113
S11339C09A81AC014F5F5F4F49835A83F901E80F35
S11339D0F91F2CE22083D8011E96ED91FC911F97CC
S11339E020E030E040E251E460A171A182A193A102
S11339F00E94B12C0E948A2B6B837C838B819C81D7
S1133A009923BCF48B819C819195819591098B8339
S1133A109C83F8012289338989819A81AC014F5FA3
S1133A205F4F49835A83F901E80FF91F2DE2208380
S1133A3011C0D80152962D913C91539789819A8156
S1133A40AC014F5F5F4F49835A83F901E80FF91FB7
S1133A502BE22083F8014289538929813A81C901E3
S1133A60019689839A838B819C81FA01E20FF31F6B
S1133A7060E177E20E94D62ECB010F2EFAE02F2EC2
S1133A80312CF02DB1010E94D62E805D8083D801A7
S1133A9052964D915C91539729813A81C9010196BF
S1133AA089839A838B819C81FA01E20FF31F68EE6C
S1133AB073E00E94D62ECB01B1010E94D62E805D08
S1133AC08083F8014289538929813A81C901019689
S1133AD089839A838B819C81FA01E20FF31F64E648
S1133AE070E00E94D62ECB01B1010E94D62E805DDB
S1133AF08083D80152964D915C91539729813A81E4
S1133B00C901019689839A838B819C81FA01E20F12
S1133B10F31FB1010E94D62ECB01B1010E94D62E13
S1133B20805D8083F8012289338989819A81AC017F
S1133B304F5F5F4F49835A83F901E80FF91F0F2E36
S1133B40FEE28F2EF02D8082D80152964D915C9129
S1133B50539729813A81C901019689839A838B817C
S1133B609C81FA01E20FF31FB1010E94D62E805D01
S1133B708083F8012289338989819A81AC014F5F5E
S1133B805F4F49835A83F901E80FF91F0F2EFCE2B6
S1133B909F2EF02D9082D80152964D915C915397AF
S1133BA089819A819C012F5F3F4F29833A8316961E
S1133BB0ED91FC9117972481FA01E80FF91F2083F6
S1133BC052964D915C91539789819A819C012F5F04
S1133BD03F4F29833A831696ED91FC9117972581DF
S1133BE0FA01E80FF91F208352964D915C91539787
S1133BF089819A819C012F5F3F4F29833A831696CE
S1133C00ED91FC9117972681FA01E80FF91F2083A3
S1133C1052964D915C91539789819A819C012F5FB3
S1133C203F4F29833A831696ED91FC91179727818C
S1133C30FA01E80FF91F208352964D915C91539736
S1133C4089819A819C012F5F3F4F29833A8316967D
S1133C50ED91FC9117972085FA01E80FF91F208355
S1133C6052964D915C91539789819A819C012F5F63
S1133C703F4F29833A831696ED91FC91179721853E
S1133C80FA01E80FF91F208352964D915C915397E6
S1133C9089819A819C012F5F3F4F29833A8316962D
S1133CA0ED91FC9117972285FA01E80FF91F208303
S1133CB052964D915C91539789819A819C012F5F13
S1133CC03F4F29833A831696ED91FC9117972385EC
S1133CD0FA01E80FF91F208352964D915C91539796
S1133CE089819A819C012F5F3F4F29833A831696DD
S1133CF0ED91FC9117972485FA01E80FF91F2083B1
S1133D0052964D915C91539789819A819C012F5FC2
S1133D103F4F29833A831696ED91FC911797258599
S1133D20FA01E80FF91F2083F80142895389898138
S1133D309A819C012F5F3F4F29833A830680F78144
S1133D40E02D2685FA01E80FF91F208352962D9164
S1133D503C91539789819A81AC014F5F5F4F4983AE
S1133D605A83F901E80FF91F908252964D915C91A4
S1133D70539789819A819C012F5F3F4F29833A830E
S1133D801696ED91FC9117972289FA01E80FF91F15
S1133D90208352964D915C91539789819A819C011D
S1133DA02F5F3F4F29833A831696ED91FC91179725
S1133DB02389FA01E80FF91F208352964D915C91F3
S1133DC0539789819A819C012F5F3F4F29833A83BE
S1133DD01696ED91FC9117972489FA01E80FF91FC3
S1133DE0208352964D915C91539789819A819C01CD
S1133DF02F5F3F4F29833A831696ED91FC911797D5
S1133E002589FA01E80FF91F208352964D915C91A0
S1133E10539789819A819C012F5F3F4F29833A836D
S1133E201696ED91FC9117972689FA01E80FF91F70
S1133E30208352964D915C91539789819A819C017C
S1133E402F5F3F4F29833A831696ED91FC91179784
S1133E502789FA01E80FF91F208352964D915C914E
S1133E60539789819A819C012F5F3F4F29833A831D
S1133E701696ED91FC911797208DFA01E80FF91F22
S1133E80208352964D915C91539789819A819C012C
S1133E902F5F3F4F29833A831696ED91FC91179734
S1133EA0218DFA01E80FF91F208352964D915C9100
S1133EB0539789819A819C012F5F3F4F29833A83CD
S1133EC01696ED91FC911797228DFA01E80FF91FD0
S1133ED0208352964D915C91539789819A819C01DC
S1133EE02F5F3F4F29833A831696ED91FC911797E4
S1133EF0238DFA01E80FF91F208352964D915C91AE
S1133F00539789819A819C012F5F3F4F29833A837C
S1133F101696ED91FC911797248DFA01E80FF91F7D
S1133F20208352962D913C91539789819A81AC01BB
S1133F304F5F5F4F49835A83F901E80FF91F90825D
S1133F4052964D915C91539789819A819C012F5F80
S1133F503F4F29833A831696ED91FC91179720A140
S1133F60FA01E80FF91F208352964D915C91539703
S1133F7089819A819C012F5F3F4F29833A8316964A
S1133F80ED91FC91179721A1FA01E80FF91F208305
S1133F9052964D915C91539789819A819C012F5F30
S1133FA03F4F29833A831696ED91FC91179722A1EE
S1133FB0FA01E80FF91F208352964D915C915397B3
S1133FC089819A819C012F5F3F4F29833A831696FA
S1133FD0ED91FC91179723A1FA01E80FF91F2083B3
S1133FE052964D915C91539789819A819C012F5FE0
S1133FF03F4F29833A831696ED91FC91179724A19C
S1134000FA01E80FF91F208352964D915C91539762
S113401089819A819C012F5F3F4F29833A831696A9
S1134020ED91FC91179725A1FA01E80FF91F208360
S113403052964D915C91539789819A819C012F5F8F
S11340403F4F29833A831696ED91FC91179726A149
S1134050FA01E80FF91F208352964D915C91539712
S113406089819A819C012F5F3F4F29833A83169659
S1134070ED91FC91179727A1FA01E80FF91F20830E
S1134080F8014289538989819A819C012F5F3F4FAE
S113409029833A830680F781E02D20A5FA01E80FF1
S11340A0F91F208352962D913C91539789819A81CF
S11340B0AC014F5F5F4F49835A83F901E80FF91F41
S11340C0908252962D913C91539789819A81AC01AB
S11340D04F5F5F4F49835A83D901A80FB91FF80175
S11340E086819781FC0124A5205D2C93D8015296EA
S11340F02D913C91539789819A81AC014F5F5F4F19
S113410049835A83F901E80FF91F908252962D9141
S11341103C91539789819A81AC014F5F5F4F4983EA
S11341205A83F901E80FF91F21E3208352962D9158
S11341303C91539789819A81AC014F5F5F4F4983CA
S11341405A83F901E80FF91F23E3208352962D9136
S11341503C91539789819A81AC014F5F5F4F4983AA
S11341605A83F901E80FF91F908252962D913C91E0
S1134170539789819A81AC014F5F5F4F49835A837A
S1134180F901E80FF91F25E2208352962D913C9105
S1134190539789819A81AC014F5F5F4F49835A835A
S11341A0F901E80FF91F23E2208352962D913C91E7
S11341B0539789819A81AC014F5F5F4F49835A833A
S11341C0F901E80FF91F90825696ED91FC915797EB
S11341D080819181A281B3818F839887A987BA87CF
S11341E0F801A288B38849815A819A012F5F3F4F11
S11341F029833A836F81788589859A85A40EB51EB3
S113420020E432E44FE050E00E94E92E0F2EFAE061
S1134210CF2ED12CE12CF12CF02DCA01B901A7012C
S113422096010E94E92E605DD5016C93F801A28885
S1134230B38849815A819A012F5F3F4F29833A837A
S11342406F81788589859A85A40EB51E20EA36E8A3
S113425041E050E00E94E92ECA01B901A70196018C
S11342600E94E92E605DD5016C93F801A288B388A1
S113427049815A819A012F5F3F4F29833A836F8185
S1134280788589859A85A40EB51E20E137E240E041
S113429050E00E94E92ECA01B901A70196010E94CB
S11342A0E92E605DD5016C93F801A288B388498139
S11342B05A819A012F5F3F4F29833A836F81788512
S11342C089859A85A40EB51E28EE33E040E050E0BF
S11342D00E94E92ECA01B901A70196010E94E92EA4
S11342E0605DD5016C93F801A288B38849815A8135
S11342F09A012F5F3F4F29833A836F81788589859F
S11343009A85A40EB51E0F2EF4E64F2E512C612C67
S1134310712CF02DA30192010E94E92ECA01B9016A
S1134320A70196010E94E92E605DD5016C93F80106
S1134330A288B38849815A819A012F5F3F4F29830C
S11343403A836F81788589859A85A40EB51EA70165
S113435096010E94E92ECA01B901A70196010E94A3
S1134360E92E605DD5016C93F801A288B388498178
S11343705A819A012F5F3F4F29833A836F81788551
S113438089859A85A40EB51EA70196010E94E92E7F
S1134390605DD5016C93F8012289338989819A8102
S11343A0AC014F5F5F4F49835A83F901E80FF91F4E
S11343B09082D8015696ED91FC915797808591850E
S11343C0A285B3858F839887A987BA87F801A288C5
S11343D0B38849815A819A012F5F3F4F29833A83D9
S11343E06F81788589859A85A40EB51E20E432E410
S11343F04FE050E00E94E92ECA01B901A7019601DD
S11344000E94E92E605DD5016C93F801A288B388FF
S113441049815A819A012F5F3F4F29833A836F81E3
S1134420788589859A85A40EB51E20EA36E841E090
S113443050E00E94E92ECA01B901A70196010E9429
S1134440E92E605DD5016C93F801A288B388498197
S11344505A819A012F5F3F4F29833A836F81788570
S113446089859A85A40EB51E20E137E240E050E02C
S11344700E94E92ECA01B901A70196010E94E92E02
S1134480605DD5016C93F801A288B38849815A8193
S11344909A012F5F3F4F29833A836F8178858985FD
S11344A09A85A40EB51E28EE33E040E050E00E9449
S11344B0E92ECA01B901A70196010E94E92E605DA7
S11344C0D5016C93F801A288B38849815A819A0175
S11344D02F5F3F4F29833A836F81788589859A8539
S11344E0A40EB51EA30192010E94E92ECA01B901CE
S11344F0A70196010E94E92E605DD5016C93F80135
S1134500A288B38849815A819A012F5F3F4F29833A
S11345103A836F81788589859A85A40EB51EA70193
S113452096010E94E92ECA01B901A70196010E94D1
S1134530E92E605DD5016C93F801A288B3884981A6
S11345405A819A012F5F3F4F29833A836F8178857F
S113455089859A85A40EB51EA70196010E94E92EAD
S1134560605DD5016C93F8012289338989819A8130
S1134570AC014F5F5F4F49835A83F901E80FF91F7C
S11345809082D8011896ED91FC91199720E030E0C3
S11345904AE754E4648D758D868D978D0E94B12C05
S11345A00E948A2B6B837C83D8015296ED91FC91F7
S11345B0539729813A81C901019689839A838B8112
S11345C09C81E20FF31F68EE73E00E94D62ECB01AC
S11345D0B1010E94D62E805D8083F801228933893F
S11345E089819A81AC014F5F5F4F49835A83F901F6
S11345F0E80FF91F8082D80152964D915C91539730
S113460029813A81C901019689839A838B819C818E
S1134610FA01E20FF31F64E670E00E94D62ECB018C
S1134620B1010E94D62E805D8083F80142895389AE
S113463029813A81C901019689839A838B819C815E
S1134640FA01E20FF31FB1010E94D62ECB01B10192
S11346500E94D62E805D8083D80152964D915C9144
S1134660539729813A81C901019689839A838B8161
S11346709C81FA01E20FF31FB1010E94D62E805DE6
S11346808083F8012289338989819A81AC014F5F43
S11346905F4F49835A83F901E80FF91F9082D801CB
S11346A0ED91FC91119720A931A944E6429FC001E4
S11346B0439F900D11248B839C838B819C81992330
S11346C0C4F48B819C819195819591098B839C8302
S11346D052962D913C91539789819A81AC014F5FF9
S11346E05F4F49835A83F901E80FF91F2DE22083B4
S11346F00FC0F8012289338989819A81AC014F5F07
S11347005F4F49835A83F901E80FF91F2BE2208395
S1134710D8015296ED91FC91539729813A81C901B0
S1134720019689839A838B819C81E20FF31F68EE43
S113473073E00E94D62ECB012AE030E0B9010E943A
S1134740D62E805D8083D8015296ED91FC915397CB
S113475049815A81CA01019689839A838B819C81FC
S1134760E40FF51F64E670E00E94D62ECB01B90178
S11347700E94D62E805D8083F80142895389898105
S11347809A81BC016F5F7F4F69837A83FA01E80FD6
S1134790F91F4EE24083D8015296ED91FC91539754
S11347A049815A81CA01019689839A838B819C81AC
S11347B0E40FF51FB9010E94D62ECB01B9010E9466
S11347C0D62E805D8083D8015296ED91FC9153974B
S11347D049815A81CA01019689839A838B819C817C
S11347E0E40FF51FB9010E94D62E805D8083F80185
S11347F02289338989819A81AC014F5F5F4F498354
S11348005A83F901E80FF91F2CE22083D80114968A
S1134810ED91FC911597C480D580E680F780C7019F
S1134820B60178D76B837C83C701B6010E94A22DA1
S11348309B01AC01C701B6019CD620E030E04AE7F9
S113484054E40E94B12C66D76D837E838B819C8156
S11348509923F4F48B819C819195819591098B83A3
S11348609C838D819E819195819591098D839E83F1
S1134870F8012289338989819A81AC014F5F5F4FA6
S113488049835A83F901E80FF91F2DE2208311C0EF
S1134890D80152962D913C91539789819A81AC010C
S11348A04F5F5F4F49835A83F901E80FF91F2BE2E9
S11348B02083D8015296ED91FC91539729813A8136
S11348C0C901019689839A838B819C81E20FF31F2E
S11348D068EE73E00E94D62ECB012AE030E0B901E5
S11348E00E94D62E805D8083D8015296ED91FC9172
S11348F0539749815A81CA01019689839A838B818E
S11349009C81E40FF51F0F2EF4E6EF2EF12CF02D11
S1134910B7010E94D62ECB01B9010E94D62E805D2C
S11349208083D8015296ED91FC91539749815A8125
S1134930CA01019689839A838B819C81E40FF51FB8
S1134940B9010E94D62ECB01B9010E94D62E805DFA
S11349508083D8015296ED91FC91539749815A81F5
S1134960CA01019689839A838B819C81E40FF51F88
S1134970B9010E94D62E805D8083F8014289538953
S113498089819A81BC016F5F7F4F69837A83FA01C1
S1134990E80FF91F4EE24083D8015296ED91FC9145
S11349A0539749815A81CA01019689839A838D81DB
S11349B09E81E40FF51FB7010E94D62ECB01B901E9
S11349C00E94D62E805D8083D8015296ED91FC9191
S11349D0539749815A81CA01019689839A838D81AB
S11349E09E81E40FF51FB9010E94D62ECB01B901B7
S11349F00E94D62E805D8083D8015296ED91FC9161
S1134A00539749815A81CA01019689839A838D817A
S1134A109E81E40FF51FB9010E94D62E805D80832C
S1134A20F8012289338989819A81AC014F5F5F4FF4
S1134A3049835A83F901E80FF91F2CE22083D80136
S1134A401C96ED91FC911D9720E030E04AE754E478
S1134A50628573858485958584D75CD66B837C83D6
S1134A608B819C819923BCF48B819C819195819548
S1134A7091098B839C83F8012289338989819A81E6
S1134A80AC014F5F5F4F49835A83F901E80FF91F67
S1134A902DE2208311C0D80152962D913C91539759
S1134AA089819A81AC014F5F5F4F49835A83F90131
S1134AB0E80FF91F2BE22083D8015296ED91FC9167
S1134AC0539729813A81C901019689839A838B81FD
S1134AD09C81E20FF31F60E177E20E94D62ECB01A6
S1134AE02AE030E0B9010E94D62E805D8083D8018F
S1134AF05296ED91FC91539749815A81CA010196CE
S1134B0089839A838B819C81E40FF51F68EE73E09F
S1134B100E94D62ECB01B9010E94D62E805D8083DF
S1134B20F8014289538989819A81BC016F5F7F4F63
S1134B3069837A83FA01E80FF91F4EE24083D801B2
S1134B405296ED91FC91539749815A81CA0101967D
S1134B5089839A838B819C81E40FF51F64E670E05E
S1134B600E94D62ECB01B9010E94D62E805D80838F
S1134B70D8015296ED91FC91539749815A81CA010B
S1134B80019689839A838B819C81E40FF51FB90177
S1134B900E94D62ECB01B9010E94D62E805D80835F
S1134BA0D8015296ED91FC91539749815A81CA01DB
S1134BB0019689839A838B819C81E40FF51FB90147
S1134BC00E94D62E805D8083F801228933898981F1
S1134BD09A81AC014F5F5F4F49835A83F901E80F13
S1134BE0F91F2CE22083D8011296ED91FC911397C2
S1134BF020E030E04AE754E4608D718D828D938D1E
S1134C00B0D688D56B837C838B819C819923BCF43B
S1134C108B819C819195819591098B839C83F8016B
S1134C202289338989819A81AC014F5F5F4F49831F
S1134C305A83F901E80FF91F2DE2208311C0D8012E
S1134C4052962D913C91539789819A81AC014F5F83
S1134C505F4F49835A83F901E80FF91F2BE2208340
S1134C60D8015296ED91FC91539729813A81C9015B
S1134C70019689839A838B819C81E20FF31F60E103
S1134C8077E20E94D62ECB012AE030E0B9010E94DF
S1134C90D62E805D8083D8015296ED91FC91539776
S1134CA049815A81CA01019689839A838B819C81A7
S1134CB0E40FF51F68EE73E00E94D62ECB01B90114
S1134CC00E94D62E805D8083F801428953898981B0
S1134CD09A81BC016F5F7F4F69837A83FA01E80F81
S1134CE0F91F4EE24083D8015296ED91FC915397FF
S1134CF049815A81CA01019689839A838B819C8157
S1134D00E40FF51F64E670E00E94D62ECB01B901D2
S1134D100E94D62E805D8083D8015296ED91FC913D
S1134D20539749815A81CA01019689839A838B8159
S1134D309C81E40FF51FB9010E94D62ECB01B90165
S1134D400E94D62E805D8083D8015296ED91FC910D
S1134D50539749815A81CA01019689839A838B8129
S1134D609C81E40FF51FB9010E94D62E805D8083DB
S1134D70F8012289338989819A81AC014F5F5F4FA1
S1134D8049835A83F901E80FF91F2CE22083D801E3
S1134D90ED91FC9120E030E040E251E464A175A182
S1134DA086A197A1DED5B6D46B837C838B819C814D
S1134DB09923BCF48B819C819195819591098B8376
S1134DC09C83F8012289338989819A81AC014F5FE0
S1134DD05F4F49835A83F901E80FF91F2DE22083BD
S1134DE011C0D80152962D913C91539789819A8193
S1134DF0AC014F5F5F4F49835A83F901E80FF91FF4
S1134E002BE22083D8015296ED91FC91539729818E
S1134E103A81C901019689839A838B819C81E20F2F
S1134E20F31F60E177E2C2D7CB012AE030E0B90199
S1134E30BDD7805D8083D8015296ED91FC91539744
S1134E4049815A81CA01019689839A838B819C8105
S1134E50E40FF51F68EE73E0A9D7CB01B901A6D71B
S1134E60805D8083D8015296ED91FC9153974981DE
S1134E705A81CA01019689839A838B819C81E40FAC
S1134E80F51F64E670E092D7CB01B9018FD7805D3E
S1134E908083D8015296ED91FC91539749815A81B0
S1134EA0CA01019689839A838B819C81E40FF51F43
S1134EB0B9017CD7CB01B90179D7805D8083F80132
S1134EC04289538989819A81BC016F5F7F4F6983CD
S1134ED07A83FA01E80FF91F4EE24083D801529613
S1134EE0ED91FC91539749815A81CA0101968983B6
S1134EF09A838B819C81E40FF51FB90157D7805D9C
S1134F008083F8012289338989819A81AC014F5FBA
S1134F105F4F49835A83F901E80FF91F2CE220837C
S1134F20D801ED91FC9120E030E040E251E464A529
S1134F3075A586A597A515D5EDD36B837C838B8149
S1134F409C819923BCF48B819C81919581959109D5
S1134F508B839C83F8012289338989819A81AC01EE
S1134F604F5F5F4F49835A83F901E80FF91F2DE220
S1134F70208311C0D80152962D913C915397898179
S1134F809A81AC014F5F5F4F49835A83F901E80F5F
S1134F90F91F2BE22083D8015296ED91FC9153978F
S1134FA029813A81C901019689839A838B819C81E5
S1134FB0E20FF31F60E177E2F9D6CB012AE030E09B
S1134FC0B901F4D6805D8083D8015296ED91FC91AD
S1134FD0539749815A81CA01019689839A838B81A7
S1134FE09C81E40FF51F68EE73E0E0D6CB01B901B4
S1134FF0DDD6805D8083D8015296ED91FC91539764
S113500049815A81CA01019689839A838B819C8143
S1135010E40FF51F64E670E0C9D6CB01B901C6D62A
S1135020805D8083D8015296ED91FC91539749811C
S11350305A81CA01019689839A838B819C81E40FEA
S1135040F51FB901B3D6CB01B901B0D6805D808319
S1135050F8014289538989819A81BC016F5F7F4F2E
S113506069837A83FA01E80FF91F4EE24083D8017D
S11350705296ED91FC91539749815A81CA01019648
S113508089839A838B819C81E40FF51FB9018ED6A5
S1135090805D8083F8012289338989819A81AC01FA
S11350A04F5F5F4F49835A83F901E80FF91F2CE2E0
S11350B02083D8011296ED91FC91139720E030E003
S11350C040E251E460A571A582A593A54AD422D3F8
S11350D06B837C838B819C819923BCF48B819C8121
S11350E09195819591098B839C83F8012289338959
S11350F089819A81AC014F5F5F4F49835A83F901DB
S1135100E80FF91F2DE2208311C0D80152962D918A
S11351103C91539789819A81AC014F5F5F4F4983DA
S11351205A83F901E80FF91F2BE22083D801529624
S1135130ED91FC91539729813A81C90101968983A4
S11351409A838B819C81E20FF31F60E177E22ED674
S1135150CB012AE030E0B90129D6805D8083D801F3
S11351605296ED91FC91539749815A81CA01019657
S113517089839A838B819C81E40FF51F68EE73E029
S113518015D6CB01B90112D6805D8083D801529621
S1135190ED91FC91539749815A81CA010196898303
S11351A09A838B819C81E40FF51F64E670E0FED541
S11351B0CB01B901FBD5805D8083D8015296ED9176
S11351C0FC91539749815A81CA01019689839A8334
S11351D08B819C81E40FF51FB901E8D5CB01B9019E
S11351E0E5D5805D8083F8014289538989819A815C
S11351F0BC016F5F7F4F69837A83FA01E80FF91F5F
S11352004EE24083D8015296ED91FC915397498127
S11352105A81CA01019689839A838B819C81E40F08
S1135220F51FB901C3D5805D8083F80122893389D4
S113523089819A81AC014F5F5F4F49835A83F90199
S1135240E80FF91F2CE22083D80152962D913C914E
S1135250539789819A81AC014F5F5F4F49835A8389
S1135260F901E80FF91F2DE0208352962D913C910E
S1135270539789819A81AC014F5F5F4F49835A8369
S1135280F901E80FF91F2AE0208352962D913C91F1
S1135290539789819A81AC014F5F5F4F49835A8349
S11352A0F901E80FF91F108252962D913C91539702
S11352B089819A81AC014F5F5F4F49835A83F90119
S11352C0E80FF91F28E520832A96CDBFDEBFDF91C2
S11352D0CF911F910F91FF90EF90DF90CF90BF90EF
S11352E0AF909F908F907F906F905F904F903F9082
S11352F02F900895FC0180E380A381A382A383A35C
S113530084A385A386A387A380A781A7828B838B8D
S1135310848B858B868B878B808F818F828F838F05
S1135320848F858F868F8483858386838783808714
S11353308187828783878487858786878787808B11
S113534014A608954F925F926F927F928F929F92CC
S1135350AF92BF92CF92DF92EF92FF920F931F937F
S1135360CF93DF93CDB7DEB76097CDBFDEBF2B0100
S11353703C012D833E834F835887470158019B018D
S1135380AC01EFD26B017C012D813E814F815885A8
S1135390CA01B901E6D269837A838B839C839B011A
S11353A0AC01C701B601E6D06D877E878F87988BE5
S11353B0A5019401C501B401D4D269877A878B878A
S11353C09C8729813A814B815C81C701B601D2D087
S11353D06B017C0129853A854B855C85C701B60143
S11353E0C9D072D369837A838B839C83C301B2014E
S11353F09F7729813A814B815C8124D1ACD023EC05
S113540035EF48E450E41ED120E030E044E353E4B7
S1135410A8D2F62EE72ED82EC92E6D817E818F81DB
S113542098859F7729813A814B815C810BD193D0F8
S113543023EC35EF48E450E405D120E030E044E3C8
S113544053E48FD2662E772E182F092FC501B4018D
S11354509F7729813A814B815C81F4D07CD023EC05
S113546035EF48E450E4EED020E030E044E353E488
S113547078D2B62EA72E982E892E262D372D412F81
S1135480502F6F2D7E2D8D2D9C2DD8D018165CF0AD
S11354902B2D3A2D492D582D6F2D7E2D8D2D9C2D84
S11354A0CDD018167CF5262D372D412F502F6F2D7A
S11354B07E2D8D2D9C2D51D288235CF02B2D3A2DE1
S11354C0492D582D662D772D812F902FB7D0181682
S11354D0F4F42B2D3A2D492D582D662D772D812F3F
S11354E0902F3BD28823B4F02B2D3A2D492D582DE3
S11354F06F2D7E2D8D2D9C2D30D2882384F0192D77
S1135500082D11C0BF2CAE2C1D2D0C2D0CC0B62C9B
S1135510A72C09C0B12CA12C10E000E004C0B12CD0
S1135520A12C10E000E06B2D7A2D812F902F609636
S1135530CDBFDEBFDF91CF911F910F91FF90EF9010
S1135540DF90CF90BF90AF909F908F907F906F909F
S11355505F904F9008959F939F774AD10F900020BA
S11355603AF49058A2EA2AED3FE049E450E413D01B
S1135570BAC15058BB27AA270ED0B5C1A6D130F066
S1135580ABD120F031F49F3F11F41EF476C10EF438
S1135590E095E7FB6CC1E92FB7D180F3BA17620736
S11355A073078407950718F071F49EF5CFC10EF4C4
S11355B0E0950B2EBA2FA02D0B01B90190010C011F
S11355C0CA01A0011124FF27591B99F0593F50F437
S11355D0503E68F11A16F040A22F232F342F44278F
S11355E0585FF3CF469537952795A795F040539587
S11355F0C9F77EF41F16BA0B620B730B840BBAF057
S11356009150A1F0FF0FBB1F661F771F881FC2F7C1
S11356100EC0BA0F621F731F841F48F487957795D5
S11356206795B795F7959E3F08F0B3CF9395880F8C
S113563008F09927EE0F979587950895F4D008F40C
S113564081E008950CD04FC147D140F03ED130F0F5
S113565021F45F3F19F00BC1511179C10EC154D12E
S113566098F39923C9F35523B1F3951B550BBB2725
S1135670AA2762177307840738F09F5F5F4F220FD2
S1135680331F441FAA1FA9F333D00E2E3AF0E0E8CB
S113569030D091505040E695001CCAF729D0FE2F17
S11356A027D0660F771F881FBB1F261737074807A9
S11356B0AB07B0E809F0BB0B802DBF01FF2793585F
S11356C05F4F2AF09E3F510568F0D1C040C15F3F53
S11356D0ECF3983EDCF3869577956795B795F79547
S11356E09F5FC9F7880F911D9695879597F908953F
S11356F0E1E0660F771F881FBB1F621773078407DB
S1135700BA0720F0621B730B840BBA0BEE1F88F7E9
S1135710E095089504D06894B11119C10895FCD09E
S113572088F09F5790F0B92F9927B751A0F0D1F086
S1135730660F771F881F991F1AF0BA95C9F712C010
S1135740B13081F003D1B1E0089500C1672F782F03
S11357508827B85F39F0B93FCCF38695779567957C
S1135760B395D9F73EF490958095709561957F4FE8
S11357708F4F9F4F0895E89409C097FB3EF490958E
S11357808095709561957F4F8F4F9F4F9923A9F016
S1135790F92F96E9BB279395F695879577956795A5
S11357A0B795F111F8CFFAF4BB0F11F460FF1BC0E9
S11357B06F5F7F4F8F4F9F4F16C0882311F096E97C
S11357C011C0772321F09EE8872F762F05C066232A
S11357D071F096E8862F70E060E02AF09A95660FE3
S11357E0771F881FDAF7880F9695879597F908959C
S11357F0DF93CF931F930F938B01EC01E2E2F2E06E
S11358003FD071D09801AE018B01EC0160E070E0F3
S113581080E89FE3AEDE58D19801AE010F911F914D
S1135820CF91DF91AAC0990F0008550FAA0BE0E8A9
S1135830FEEF16161706E807F907C0F0121613064E
S1135840E407F50798F0621B730B840B950B39F48E
S11358500A2661F0232B242B252B21F408950A26F4
S113586009F4A140A6958FEF811D811D089597F934
S11358709F6780E870E060E008959FEF80EC0895F2
S1135880DF93CF931F930F93FF92EF92DF927B01ED
S11358908C01689405C0DA2EEF016FD0FE01E89404
S11358A0A5912591359145915591AEF3EF0173DEA4
S11358B0FE019701A801DA9479F7DF90EF90FF9049
S11358C00F911F91CF91DF91089500240A94161629
S11358D0170618060906089500240A9412161306DA
S11358E0140605060895092E0394000C11F4882368
S11358F052F0BB0F40F4BF2B11F460FF04C06F5F84
S11359007F4F8F4F9F4F089557FD9058440F551F59
S113591059F05F3F71F04795880F97FB991F61F02D
S11359209F3F79F087950895121613061406551FA4
S1135930F2CF4695F1DF08C0161617061806991F10
S1135940F1CF86957105610508940895E894BB2705
S113595066277727CB0197F9089565DF08F48FEF61
S113596008950BD0C0CFB1DF28F0B6DF18F095232F
S113597009F07DCF82CF1124EACFC6DFA0F3959F33
S1135980D1F3950F50E0551F629FF001729FBB2722
S1135990F00DB11D639FAA27F00DB11DAA1F649FCE
S11359A06627B00DA11D661F829F2227B00DA11D81
S11359B0621F739FB00DA11D621F839FA00D611D07
S11359C0221F749F3327A00D611D231F849F600D28
S11359D0211D822F762F6A2F11249F5750408AF061
S11359E0E1F088234AF0EE0FFF1FBB1F661F771FED
S11359F0881F91505040A9F79E3F510570F037CF52
S1135A00A6CF5F3FECF3983EDCF3869577956795D8
S1135A10B795F795E7959F5FC1F7FE2B880F911D0A
S1135A209695879597F90895FA01EE0FFF1F309622
S1135A302105310599F16115710561F48038BFE3E1
S1135A409B0749F168949038810561F08038BFEF75
S1135A509B0741F0992342F5FF3FE10531052105FC
S1135A6011F1E8940894E795D901AA2329F4AB2FFE
S1135A70BE2FF85FD0F310C0FF5F70F4A695E0F777
S1135A80F73950F019F0FF3A38F49F779F930CD010
S1135A900F9007FC905808953EF0EFCE60E070E060
S1135AA080E89FE308954FE79F775F934F933F9379
S1135AB02F9309D12F913F914F915F9152DF4EC0A7
S1135AC011F40EF4DACE91C027DFD0F39923D9F381
S1135AD0CEF39F57550B87FF96D00024A0E640EAEB
S1135AE0900180585695979528F4805C660F771F2F
S1135AF0881F20F026173707480730F4621B730B02
S1135B00840B202931294A2BA69517940794202524
S1135B1031254A2758F7660F771F881F20F026176C
S1135B203707480730F4620B730B840B200D311DCB
S1135B30411DA09581F7B901842F9158880F96953E
S1135B408795089567D020F09F3708F400CF32C0BE
S1135B504CC019F40EF08BCEF9CE8FCEDDDEC8F337
S1135B609638C0F707F80F92E8942BE33AEA48EB2B
S1135B705FE705DF0F920F920F924DB75EB70F925A
S1135B80E2D0EAE4F2E07CDE4F915F91EF91FF9185
S1135B90E595EE1FFF1F49F0FE57E0684427EE0F1E
S1135BA0441FFA95E1F74195550B54D00F9007FE29
S1135BB048C00895882371F4772321F09850872BE7
S1135BC0762F07C0662311F499270DC09051862BB8
S1135BD070E060E02AF09A95660F771F881FDAF765
S1135BE0880F9695879597F908959F3F31F09150C6
S1135BF020F4879577956795B795880F911D9695AD
S1135C00879597F9089591505040660F771F881F24
S1135C10D2F7089581DEA0F0BEE7B91788F4BB2758
S1135C209F3860F41616B11D672F782F8827985F68
S1135C30F7CF869577956795B11D93959639C8F3F7
S1135C4008959B01AC0160E070E080E89FE3FACC2A
S1135C500ECECBCF61DEE8F39923D9F3940F511D17
S1135C60BBF39150504094F059F0882332F0660F02
S1135C70771F881F91505040C1F79E3F510544F74C
S1135C80880F911D9695879597F908955F3FACF01D
S1135C90983E9CF0BB27869577956795B79508F451
S1135CA0B1609395C1F7BB0F58F711F460FFE8CFCB
S1135CB06F5F7F4F8F4F9F4FE3CF49CE0EF095CF4D
S1135CC0DCCD6894D4CD28DEC8F39923D1F3C6F390
S1135CD0DF93CF931F930F93FF92C92FDD27882360
S1135CE02AF02197660F771F881FDAF720E030E04B
