:10000000E6C1000005C2000003C2000001C20000FA
:10001000FFC10000FDC10000FBC10000F9C10000EC
:10002000F7C10000F5C10000F3C10000F1C10000FC
:10003000EFC10000EDC10000BEC60000E9C1000034
:10004000E7C10000E5C10000E3C10000E1C100001C
:10005000DFC10000DDC10000DBC10000D9C100002C
:10006000D7C10000D5C10000D3C10000D1C100003C
:10007000CFC10000CDC10000CBC10000C9C100004C
:10008000C7C10000C5C10000C3C10000C1C100005C
:10009000BFC10000BDC10000BBC10000B9C100006C
:1000A000B7C10000B5C10000B3C10000B1C100007C
:1000B000AFC10000ADC10000ABC1000034C70000FB
:1000C000A7C10000A5C10000A3C10000A1C100009C
:1000D0009FC100009DC100009BC1000099C10000AC
:1000E00097C1000095C1000093C1000091C10000BC
:1000F0008FC100008DC100008BC1000089C10000CC
:1001000087C1000085C1000083C1000081C10000DB
:100110007FC100007DC100007BC1000079C10000EB
:1001200077C1000075C1000073C1000071C10000FB
:100130006FC1000084C600006BC1000069C10000EF
:1001400067C1000065C1000063C1000061C100001B
:100150005FC100005DC100005BC1000059C100002B
:1001600046C5000055C1000053C1000051C1000048
:100170004FC100004DC100004BC1000049C100004B
:1001800047C1000045C1000043C1000041C100005B
:100190003FC100003DC100003BC1000039C100006B
:1001A00037C1000035C1000033C1000031C100007B
:1001B000CBC600002DC100002BC1000029C10000EA
:1001C00027C1000025C1000023C1000021C100009B
:1001D0001FC100001DC100001BC1000065C300005D
:1001E00017C1000015C1000013C1000011C10000BB
:1001F0000FC100000DC100000BC10000B504450592
:100200003B05DF04D504A105B504B504B005FC1019
:1002100070114211D610A910A21080107910491047
:100220003B11072C7AA5BA6CC590DA3B9365FC8B21
:10023000BC53F810FD3C5692834DBD879D3AB63DA8
:10024000CBC9BF5BBE73DA0FC93F07634236B79BAA
:10025000D8A71A39685618AEBAAB558C1D3CB7CC26
:100260005763BD6DEDFD753EF6177231BF0000009E
:10027000803F08000000BE922449123EABAAAA2A81
:10028000BECDCCCC4C3E00000080BEABAAAAAA3E9C
:1002900000000000BF000000803F000000000008D8
:1002A0004178D3BB4387D1133D190E3CC3BD428275
:1002B000AD2B3E68EC8276BED98FE1A93E4C80EF33
:1002C000FFBE01C4FF7F3F00000000006E616E00B2
:1002D000696E660000407A10F35A00A0724E180949
:1002E0000010A5D4E80000E87648170000E40B549D
:1002F000020000CA9A3B000000E1F505000080966C
:100300009800000040420F000000A086010000009D
:10031000102700000000E803000000006400000057
:1003200000000A00000000000100000000002C7620
:10033000D888DC674F0823DFC1DFAE59E1B1B7963B
:10034000E5E3E453C63AE651997696E8E6C2842698
:10035000EB898C9B62ED407C6FFCEFBC9C9F40F274
:10036000BAA56FA5F490055A2AF75C936B6CF967F0
:100370006DC11BFCE0E40D47FEF520E6B500D0EDB5
:10038000902E0300943577050080841E080000201D
:100390004E0A000000C80C333333330F986E1283BB
:1003A0001141EF8D2114893BE65516CFFEE6DB188F
:1003B000D1844B381BF77C1D901DA4BBE424203254
:1003C00084725E228100C9F124ECA1E53D2711244D
:1003D0001FBECFEFCDBFDFE5DEBF00E00CBF11E2F7
:1003E000A0E0B0E2EEE1FEE400E00BBF02C0079047
:1003F0000D92AE30B107D9F72AE2AEE0B1E201C00A
:100400001D92A937B207E1F70E946E0F0C940D27D9
:100410003CC24F925F926F927F928F929F92AF9267
:10042000BF92CF92DF92EF92FF920F931F93CF93E1
:10043000DF9300D000D0CDB7DEB78D839E8380914F
:1004400020028160809320028FE6809321028091B8
:1004500020028068809320028091060280FFFCCFFA
:1004600081E080932302609110027091110280E07C
:1004700090E00E94A31E20E030E040E85DE30E948F
:10048000991F2B013C0187E7809321028091200274
:100490008068809320028091060280FFFCCF81E07B
:1004A00080932302609110027091110280E090E02D
:1004B0000E94A31E20E030E040E85DE30E94991F07
:1004C0004B015C018FE780932102809120028068BC
:1004D000809320028091060280FFFCCF81E0809310
:1004E0002302609110027091110280E090E00E945E
:1004F000A31E20E030E040E85DE30E94991F6B01FD
:100500007C0188E38093210280912002806880939F
:1005100020028091060280FFFCCF81E080932302BD
:10052000609110027091110280E090E00E94A31E81
:1005300020E030E040E859E30E94991F2DEC3CECAC
:100540004CE45DE30E94A11D2DEC3CEC44E251E43F
:100550000E94991F69837A838B839C838FE08093A9
:1005600021028091200280688093200280910602FF
:1005700080FFFCCF81E08093230280911002909154
:10058000110287E480932102809120028068809389
:1005900020028091060280FFFCCF81E0809323023D
:1005A00080911002909111021092200280E18093BC
:1005B00021028091200280688093200280910602AF
:1005C00080FFFCCF81E08093230200911002109104
:1005D000110220E030E048EC52E4C301B2010E9475
:1005E000991F20E030E04FE753E40E940A1EED819E
:1005F000FE81608B718B828B938B20E030E048EC26
:1006000052E4C501B4010E94991F20E030E04FE799
:1006100053E40E940A1EED81FE81648B758B868BEC
:10062000978B20E030E048EC52E4C701B6010E940D
:10063000991F20E030E04FE753E40E940A1EED814D
:10064000FE81608F718F828F938F23E333E343E7C3
:100650005FE364817581868197810E94991F6B0198
:100660007C012DEC3CEC4CE45DE369817A818B816B
:100670009C810E94991F9B01AC01C701B6010E9499
:10068000A21DED81FE816483758386839783B80103
:1006900080E090E00E94A31E20E030E040E859E3B3
:1006A0000E94991F2DEC3CEC4CE45DE30E94A11DDF
:1006B0002AE939E945E251E40E94991F2DEC3CEC0E
:1006C0004CE45DE30E94991F6B017C0123E333E35B
:1006D00043E75FE3ED81FE81648D758D868D978D97
:1006E0000E94991F9B01AC01C701B6010E94A21D87
:1006F000ED81FE81648F758F868F978F2696CDBF93
:10070000DEBFDF91CF911F910F91FF90EF90DF90AF
:10071000CF90BF90AF909F908F907F906F905F90A1
:100720004F9008954F925F926F927F928F929F9217
:10073000AF92BF92CF92DF92EF92FF920F931F93EF
:10074000CF93DF93C091F929D091FA298881E09164
:10075000E529F091E629823009F47EC0833009F45E
:1007600062C04489558966897789808C918CA28C76
:10077000B38CC48CD58CE68CF78C84A195A1A6A1F2
:10078000B7A100A511A522A533A544A455A466A42C
:1007900077A4E981EE2311F07058B058E091F32965
:1007A000F091F4294083518362837383848295821C
:1007B000A682B782C086D186E286F38680A391A303
:1007C000A2A3B3A304A315A326A337A340A651A6AF
:1007D00062A673A6A091E929B091EA2952964D919B
:1007E0005D916D917C915597448B558B668B778B82
:1007F0005A968D919D910D90BC91A02D808B918BDF
:10080000A28BB38BDF91CF911F910F91FF90EF904F
:10081000DF90CF90BF90AF909F908F907F906F9020
:100820005F904F900895448D558D668D778D808CA7
:10083000918CA28CB38CC488D588E688F78884A56F
:1008400095A5A6A5B7A500A511A522A533A544A0E9
:1008500055A066A077A09DCF408D518D628D738D80
:1008600084889588A688B788C48CD58CE68CF78C4C
:1008700080A591A5A2A5B3A504A115A126A137A184
:1008800044A455A466A477A484CF1F920F920FB6F8
:100890000F9211248F9388E0809307068F910F9019
:1008A0000FBE0F901F9018951F920F920FB60F92C8
:1008B00011240BB60F922F933F934F935F936F9337
:1008C0007F938F939F93AF93BF93EF93FF93CF93B8
:1008D000DF931F92CDB7DEB700008091A00B898314
:1008E0008981843209F455C089818A3209F43FC074
:1008F0008091FC23882391F08981E091F9238C3247
:10090000D9F181E08E0F8093F9238981F0E0E854DA
:10091000FC4D85A78091FD23811116C00F90DF91BA
:10092000CF91FF91EF91BF91AF919F918F917F9167
:100930006F915F914F913F912F910F900BBE0F9050
:100940000FBE0F901F901895E091FA231092FD238F
:100950008E2F90E0FC013297E930F105F8F68827F8
:10096000E250FF4F8F4F0C9446250000D7CF1092D6
:10097000FC231092F923D2CFF0E0E854FC4D85A778
:100980001092F9238091FA23E1E0E80FE093FA2333
:10099000DDCF81E08093FC2388EB93E20E94641C0E
:1009A0001092F9231092FA23B9CF8091E523853470
:1009B00019F0873509F088E58093CA23AFCF80917D
:1009C000E5238C3209F4AACF8093CB238091E623D0
:1009D0008C3209F4A3CF8093CC238091E7238C320F
:1009E00009F49CCF8093CD238091E8238C3209F4C5
:1009F00095CF8093CE238091E9238C3209F48ECF5A
:100A00008093CF238091EA238C3209F487CF80939F
:100A1000D0238091EB238C3209F480CF8093D123B3
:100A20008091EC238C3209F479CF8093D22380918A
:100A3000ED238C3209F472CF8093D3238091EE237F
:100A40008C3209F46BCF8093D4238091EF238C32C6
:100A500009F464CF8093D5238091F0238C3209F47C
:100A60005DCF8093D6238091F1238C3209F456CF49
:100A70008093D72353CF8091E5238E3419F08335AB
:100A800009F088E58093BC2349CF8091E5238C321F
:100A900009F444CF8093BD238091E6238C3209F47E
:100AA0003DCF8093BE238091E7238C3209F436CF6B
:100AB0008093BF238091E8238C3209F42FCF809359
:100AC000C0238091E9238C3209F428CF8093C1237D
:100AD0008091EA238C3209F421CF8093C223809144
:100AE000EB238C3209F41ACF8093C3238091EC233B
:100AF0008C3209F413CF8093C4238091ED238C3280
:100B000009F40CCF8093C5238091EE238C3209F435
:100B100005CF8093C6238091EF238C3209F4FECE5B
:100B20008093C7238091F0238C3209F4F7CE809311
:100B3000C8238091F1238C3209F4F0CE8093C9232D
:100B4000EDCE8091E523803309F44AC0813309F466
:100B50004AC0823309F0E2CE82E08093E423DECE05
:100B60008091E5238C3291F18093D8238091E62304
:100B70008C3261F18093D9238091E7238C3231F15B
:100B80008093DA238091E8238C3201F18093DB2378
:100B90008091E9238C32D1F08093DC238091EA2389
:100BA0008C32A1F08093DD238091EB238C3271F0A5
:100BB0008093DE238091EC238C3241F08093DF23FD
:100BC0008091ED238C3211F08093E02388E4E8EBF0
:100BD000F3E2A0E7B3E201900D928A95E1F79ECE91
:100BE0001092E4239BCE81E08093E42397CE1F9262
:100BF0000F920FB60F9211240BB60F922F933F93C3
:100C00004F935F936F937F938F939F93AF93BF9314
:100C1000EF93FF93CF93DF931F92CDB7DEB780E1C1
:100C2000809305068091A00989838981843209F423
:100C30007BC089818235C1F18981833409F443C045
:100C40008981803509F474C08981883509F44CC0E4
:100C500089818B3409F453C08981833509F459C0E3
:100C60008981863409F484C08981813409F48AC079
:100C70008981843409F490C010920E290F90DF917D
:100C8000CF91FF91EF91BF91AF919F918F917F9104
:100C90006F915F914F913F912F910F900BBE0F90ED
:100CA0000FBE0F901F90189580910E29882321F276
:100CB0008FB7F89410920E2998ED94BF91E090931D
:100CC00079008FBFDBCF80910E29882309F4B8CF3C
:100CD00010923D2310923E2381E080933F23809326
:100CE0000F2910920E29CACF80910E29882309F46A
:100CF000AFCF81E08093112910920E29BFCF809150
:100D00000E29882309F4A8CF1092112910920E29D8
:100D1000B5CF80910E29882309F4A2CF81E080937A
:100D2000102910920E29AACF81E080930E29A6CF18
:100D300080910E29882309F487CF0E9473121092A4
:100D40001221109213211092142110921521109249
:100D50000E2981E080931A23809319232FEF87EACD
:100D600091E6215080409040E1F700C0000086CF1E
:100D700080910E2981111AC08981813409F078CFC0
:100D800089817ACF80910E298823D1F381E08093E5
:100D9000122910920E2972CF80910E29882309F40E
:100DA0006BCF1092122910920E2968CF1092102941
:100DB00010920E2963CF1F920F920FB60F9211243B
:100DC0000BB60F922F933F934F935F936F937F9345
:100DD0008F939F93AF93BF93CF93DF93EF93FF9343
:100DE000E5EEF9E2A285B38581E08C93C689D789C7
:100DF000688179818A819B810E94A31E20E030E076
:100E000040E251E40E94A21D0E94771E688379830C
:100E10008A839B83FF91EF91DF91CF91BF91AF9137
:100E20009F918F917F916F915F914F913F912F9102
:100E30000F900BBE0F900FBE0F901F9018951F9232
:100E40000F920FB60F9211242F933F938F939F937E
:100E500080911923882331F180911A238230B1F1D6
:100E600008F449C0843061F108F44FC08530F9F4CA
:100E700090911C23943038F520911B238BEA289FF6
:100E8000812D11248695382F330F830F281306C028
:100E900080E48093A7069F5F90931C232F5F20938D
:100EA0001B2305C010921A2380E48093A6069F910D
:100EB0008F913F912F910F900FBE0F901F9018951B
:100EC00080E48093A50610921A23F1CF90911B2302
:100ED0008DEC989F812D112486958695282F220FC1
:100EE000220F820F981303C080E48093A7069F5FB0
:100EF00090931B23DCCF882361F08130C1F6909161
:100F00001C23963008F4B8CFDECF80E48093A5068A
:100F1000CECF1092192310921C2310921B2380E431
:100F20008093A606C4CF1F920F920FB60F92112482
:100F30008F9380E18093060610920E298F910F9077
:100F40000FBE0F901F9018951F920F920FB60F9221
:100F500011240BB60F922F933F934F935F936F9390
:100F60007F938F939F93AF93BF93EF93FF9380E211
:100F70008093070680911029882319F18091CB294D
:100F80009091CC29A091CD29B091CE298F3926E816
:100F9000920721E0A207B10538F11092CB291092F7
:100FA000CC291092CD291092CE290E948F1D882322
:100FB00041F06091E0287091E12886E896E20E9475
:100FC000571DFF91EF91BF91AF919F918F917F91AD
:100FD0006F915F914F913F912F910F900BBE0F90AA
:100FE0000FBE0F901F9018950196A11DB11D809303
:100FF000CB299093CC29A093CD29B093CE29D5CFDE
:10100000CF92DF92EF92FF92E0903D23F0903E234B
:10101000E114F10409F011C110921D2310921E2356
:1010200010921F231092202310922123109222232A
:10103000109223231092242310922523109226230A
:1010400010922723109228231092292310922A23EA
:1010500010922B2310922C2310922D2310922E23CA
:1010600010922F23109230231092312310923223AA
:10107000109233231092342310923523109236238A
:1010800010923723109238231092392310923A236A
:1010900010923B2310923C2380E48093050620911C
:1010A00056233091572340915823509159236091F2
:1010B00021237091222380912323909124230E9445
:1010C000A21D609321237093222380932323909366
:1010D00024238091752990917629092E000CAA0B62
:1010E000BB0B4091252350912623609127237091BB
:1010F0002823840F951FA61FB71F80932523909345
:101100002623A0932723B0932823809177299091B9
:101110007829092E000CAA0BBB0B40912923509172
:101120002A2360912B2370912C23840F951FA61FD7
:10113000B71F8093292390932A23A0932B23B09346
:101140002C238091792990917A29092E000CAA0BE1
:10115000BB0B40912D2350912E2360912F23709132
:101160003023840F951FA61FB71F80932D239093C4
:101170002E23A0932F23B093302380911B2990918D
:101180001C29092E000CAA0BBB0B40913123509156
:1011900032236091332370913423840F951FA61F4F
:1011A000B71F8093312390933223A0933323B093BE
:1011B000342380911D2990911E29092E000CAA0B21
:1011C000BB0B4091352350913623609137237091AA
:1011D0003823840F951FA61FB71F80933523909344
:1011E0003623A0933723B093382380911F29909101
:1011F0002029092E000CAA0BBB0B409139235091DA
:101200003A2360913B2370913C23840F951FA61FC6
:10121000B71F8093392390933A23A0933B23B09335
:101220003C238FEFE81AF80AE0923D23F0923E2328
:10123000FF90EF90DF90CF90089588ECE816F104CE
:1012400008F42DCF20E030E048E453E460912123FE
:101250007091222380912323909124230E940A1EBF
:101260006093602370936123809362239093632340
:101270006091252370912623809127239091282324
:1012800028ECC22ED12CE12CF12CA70196010E9452
:101290002A252093B7293093B8296091292370918A
:1012A0002A2380912B2390912C23A70196010E9441
:1012B0002A252093B9293093BA2960912D23709162
:1012C0002E2380912F2390913023A70196010E9415
:1012D0002A252093BB293093BC296091312370913A
:1012E00032238091332390913423A70196010E94E9
:1012F0002A2520935F2930936029609135237091CE
:1013000036238091372390913823A70196010E94BC
:101310002A252093612930936229609139237091A5
:101320003A2380913B2390913C23A70196010E9490
:101330002A25209363293093642910923D2310922B
:101340003E2310923F2310920F2980E480930606DB
:10135000FF90EF90DF90CF90089580E20E948A1472
:101360000E94C5140E94C6140E9449150E94881547
:101370000E9471150E9487150E949E158AE090E0D8
:101380000E94C71482E390E00E94E61482E390E09A
:101390000E94051588EE93E00E9424151092DE2825
:1013A0001092DF28ACE0B9E21C9211961C921197C2
:1013B000E5EEF9E289E59AE2808791878FE699E286
:1013C0008083918385E199E28283938382E593E22E
:1013D0008483958380E793E286839783A287B3878C
:1013E00080E493E2848795878FEF99E286879787D9
:1013F00086E896E2808B918B80E094E2828B938BDF
:1014000083ED99E2848B958B87EC99E2868B978BA1
:1014100086E191E2808F918F0E94F6150E94161648
:101420000E947F1A0E9400170E941A160E94F71746
:101430000E9403160E94601460E870E080E090E073
:101440000E948D13609312217093132180931421B5
:101450009093152187E08093A2000895CF92DF92A8
:10146000EF92FF921F93CF93DF93CDB7DEB7CF57A5
:10147000D109CDBFDEBF8091880680FFFCCF1092DE
:10148000112983E080931A2381E0809319232FEFA1
:1014900087E893E1215080409040E1F700C00000D0
:1014A000109219238091880681FFFCCF8BE6E6E13C
:1014B000F0E2DE01119601900D928A95E1F784E148
:1014C000E1E8F0E2DE01A459BF4F01900D928A9548
:1014D000E1F769E670E0CE0101960E946C1D2FEFE6
:1014E00087EA91E6215080409040E1F700C000007B
:1014F00084E08093050681E0ECD783E0CFD780E0DD
:10150000CDD780E0CBD780E0C9D710E0C12CD12C5B
:1015100076010CC08FE39CE90197F1F700C0000051
:101520008091880680FF23C0143608F5C9D78F3F05
:10153000A9F1882389F18093A00910E02FEFC21A46
:10154000D20AE20AF20AD701C6018F779927AA27A1
:10155000BB27892B8A2B8B2BE9F28FE193E0019734
:10156000F1F700C000008091880680FDDDCF80E0AB
:10157000B0D762E170E0CE0184599F4F0E946C1D8C
:10158000C158DF4FCDBFDEBFDF91CF911F91FF90DC
:10159000EF90DF90CF90089510E0D0CF1F5FCECFB7
:1015A0008BE0E5E9F0E2A6E8B6E201900D928A95BB
:1015B000E1F76AE070E086E896E20E946C1D2FEF8A
:1015C00033EC89E0215030408040E1F700C000005A
:1015D000E0E0F6E088E085839FEF27E833E1915073
:1015E00020403040E1F700C0000086839FEF23ECED
:1015F00039E0915020403040E1F700C00000858381
:101600009FEF27E833E1915020403040E1F700C0E0
:10161000000086838FEF93EC29E0815090402040BA
:10162000E1F700C000000895CF93DF93CDB7DEB798
:101630006697CDBFDEBF8091880680FD04C0809193
:10164000880681FF10C08091880680FF06C06696DC
:10165000CDBFDEBFDF91CF9108956696CDBFDEBFCF
:10166000DF91CF91FBCE86E1E0E0F0E2DE01119662
:1016700001900D928A95E1F78091880680FFFCCF5A
:101680008091880681FFF8CF83E080931A2381E060
:101690008093192328D72FEF87EA91E621508040C5
:1016A0009040E1F700C000008981882369F0FE01C5
:1016B00032968093A0098FE79EE30197F1F700C06F
:1016C000000081918111F5CF1092192310921221FF
:1016D0001092132110921421109215216696CDBFFD
:1016E000DEBFDF91CF9108952F923F924F925F928C
:1016F0006F927F928F929F92AF92BF92CF92DF9222
:10170000EF92FF920F931F93CF93DF93CDB7DEB786
:101710006E97CDBFDEBF8D8F9E8F198E1A8E1B8E5A
:101720001C8E1D8A1E8A1F8A188E198A1A8A1B8A85
:101730001C8A1D861E861F86188A19861A861B8695
:101740001C861D821E821F82188619821A821B82A5
:101750001C82DC011E962D903C901F9714E6809110
:10176000E5299091E6290E94931A8091E5299091AC
:10177000E6290E94DF1A8091F1299091F2290E94B6
:101780004B168091F1299091F2290E948D1680913B
:10179000E9299091EA290E940C178091E9299091FA
:1017A000EA290E9439178091E9299091EA290E943B
:1017B00063178091E7299091E8290E949E188091F3
:1017C000ED299091EE290E94090280906423909067
:1017D0006523A0906623B090672320916823309101
:1017E000692340916A2350916B23C501B4010E9483
:1017F000951F181644F48092682390926923A09252
:101800006A23B0926B230E949203F101C080D180C1
:10181000E280F3802D893E894F89588DC701B6013A
:101820000E94A21D6D8B7E8B8F8B988FD101149699
:101830004D905D906D907C90179729893A894B89DE
:101840005C89C301B2010E94A21D698B7A8B8B8BCC
:101850009C8BF10180849184A284B3842D853E8584
:101860004F855889C501B4010E94A21D6D877E87EE
:101870008F87988B115009F072CF6D897E898F897F
:10188000988D20E030E048EC52E40E940A1E6D8BF7
:101890007E8B8F8B988F69897A898B899C8920E0D0
:1018A00030E048EC52E40E940A1E698B7A8B8B8BE5
:1018B0009C8B6D857E858F85988920E030E048EC93
:1018C00052E40E940A1E6D877E878F87988BA7013E
:1018D0009601C701B6010E94991F6B017C01A3010B
:1018E0009201C301B2010E94991F9B01AC01C70183
:1018F000B6010E94A21D2B013C01A5019401C50166
:10190000B4010E94991F9B01AC01C301B2010E9466
:10191000A21D0E944C20698F7A8F8B8F9C8F8D899E
:101920009E89AF89B88DBF7789879A87AB87BC8737
:1019300089899A89AB89BC89BF778D839E83AF8360
:10194000B8878D859E85AF85B889BF7789839A834F
:10195000AB83BC83698D7A8D8B8D9C8D0E94721EAA
:101960009B0177FD8FC0B901330F880B990B0E9443
:10197000A51E26E636E646E65FE30E94061E87FDC4
:1019800039C0698D7A8D8B8D9C8D0E94721E9B0152
:1019900077FD93C0B901330F880B990B0E94A51EE8
:1019A0002DEC3CEC4CE85FE30E94951F181614F1F7
:1019B00069857A858B859C852D813E814F815885EF
:1019C0000E94951F18166CF569857A858B859C8514
:1019D00029813A814B815C810E94951F18160CF574
:1019E000AD8DBE8D5496ED91FC91559781E080832D
:1019F000FD012CC081E06E96CDBFDEBFDF91CF919F
:101A00001F910F91FF90EF90DF90CF90BF90AF901C
:101A10009F908F907F906F905F904F903F902F900E
:101A200008956D817E818F81988529853A854B85C2
:101A30005C850E94951F181654F1AD8DBE8D54968D
:101A4000ED91FC91559783E08083FD01E488F58852
:101A5000D7011C91123009F454C0133099F11130A0
:101A600009F440C0E980FA800B811C812D813E8100
:101A70004F81588569857A858B859C850E948C1C51
:101A800080E0B9CF22273327261B370B6CCF6D811F
:101A90007E818F81988529813A814B815C810E946A
:101AA000951F181654F6AD8DBE8D5496ED91FC9190
:101AB000559782E08083FD01C9CF22273327261B5B
:101AC000370B68CF6D857E858F8598892DEC3CEC32
:101AD0004CEC5DE30E94061E87FFC4CF81E0F70156
:101AE0008183C0CF6D897E898F89988D2DEC3CECE8
:101AF0004CEC5DE30E94061E87FFB4CFF701118313
:101B0000B1CF69897A898B899C892DEC3CEC4CECAE
:101B10005DE30E94061E87FFA5CF81E0D7011196E5
:101B20008C93A0CF2F923F924F925F926F927F92B1
:101B30008F929F92AF92BF92CF92DF92EF92FF92DD
:101B40000F931F93CF93DF93CDB7DEB76E97CDBFC3
:101B5000DEBF898B9A8B1D861E861F86188A198682
:101B60001A861B861C861D821E821F821886198279
:101B70001A821B821C82DC010D911C9111975496D4
:101B80002D903C90559726E636E646E65FE3F10158
:101B900062817381848195810E94991F6B017C0110
:101BA0002DEC3CEC4CEC5DE3D80154966D917D91AD
:101BB0008D919C9157970E94991F9B01AC01C70181
:101BC000B6010E94A21D6B017C01F1016283738347
:101BD0008483958326E636E646E65FE36681778171
:101BE000808591850E94991F4B015C012DEC3CEC96
:101BF0004CEC5DE3D80158966D917D918D919C914F
:101C00005B970E94991F9B01AC01C501B4010E9422
:101C1000A21D6B8B7C8B8D8B9E8BF10166837783F2
:101C20008087918726E636E646E65FE36285738520
:101C3000848595850E94991F4B015C012DEC3CEC3D
:101C40004CEC5DE3D8015C966D917D918D919C91FA
:101C50005F970E94991F9B01AC01C501B4010E94CE
:101C6000A21D2B013C01F101628773878487958750
:101C7000D80154966D917D918D919C91579758966E
:101C80008D909D90AD90BC905B975C962D913D9111
:101C90004D915C915F972F8B388F498F5A8F9B01A5
:101CA000AC010E94991F6B8F7C8F8D8F9E8FA50139
:101CB0009401C501B4010E94991F9B01AC016B8D79
:101CC0007C8D8D8D9E8D0E94A21D4B015C012F8904
:101CD000388D498D5A8DCA01B9010E94991F9B0107
:101CE000AC01C501B4010E94A21D0E944C206D8769
:101CF0007E878F87988BD701C601BF7789879A87A0
:101D0000AB87BC878B899C89AD89BE89BF778D8362
:101D10009E83AF83B887D301C201BF7789839A833B
:101D2000AB83BC836D857E858F8598890E94721EEA
:101D30009B0177FD9AC0B901330F880B990B0E9464
:101D4000A51E26E636E646E65FE30E94061E87FDF0
:101D500033C06D857E858F8598890E94721E9B0198
:101D600077FD99C0B901330F880B990B0E94A51E0E
:101D70002DEC3CEC4CE85FE30E94951F1816E4F054
:101D800069857A858B859C852D813E814F8158851B
:101D90000E94951F18163CF569857A858B859C8570
:101DA00029813A814B815C810E94951F1816DCF4D1
:101DB00081E0F101808326C081E06E96CDBFDEBF59
:101DC000DF91CF911F910F91FF90EF90DF90CF9017
:101DD000BF90AF909F908F907F906F905F904F904B
:101DE0003F902F9008956D817E818F819885298500
:101DF0003A854B855C850E94951F1816DCF183E0BF
:101E0000F1018083A989BA895496AD90BC90559709
:101E1000F5018081823009F451C0833009F440C05B
:101E2000813071F42DEC3CEC4CEC5DE3C701B60164
:101E30000E94061E881F8827881FD50111968C9343
:101E4000E980FA800B811C812D813E814F8158856C
:101E500069857A858B859C850E948C1CF501668737
:101E60007787808B918B80E0A8CF22273327261B92
:101E7000370B61CF6D817E818F81988529813A8171
:101E80004B815C810E94951F18160CF0B8CF82E040
:101E9000D1018C93B7CF22273327261B370B62CF74
:101EA0002DEC3CEC4CEC5DE3C301B2010E94061E3C
:101EB00087FF10C081E0F5018183C2CF2DEC3CEC9F
:101EC0004CEC5DE36B897C898D899E890E94061E9E
:101ED00087FDF0CFD50111961C92B2CF3EDA85EE88
:101EE00099E202DC78945CDB9FDB10923D23109238
:101EF0003E2381E080933F2380930F291092112984
:101F00008093102980931229C4E0D2E011E089E087
:101F1000782E05E098E0992E27E0A22E36E0B32E29
:101F200043E0842E2AE02A95F1F700C080910C2925
:101F30008823C1F3C093050610920C298091E529EE
:101F40009091E6290E94931A8091E5299091E629C3
:101F50000E94DF1A8091F1299091F2299CD68091FC
:101F6000F1299091F229D9D68091E9299091EA2915
:101F700053D78091E9299091EA297BD78091E9296B
:101F80009091EA29A0D78091E7299091E8290E94B1
:101F90009E188091ED299091EE290E940902C0902F
:101FA0006423D0906523E0906623F090672320910E
:101FB00068233091692340916A2350916B23C701B4
:101FC000B6010E94951F181644F4C0926823D0925F
:101FD0006923E0926A23F0926B230E94920380911E
:101FE0001229811148C01092132910921A231092BD
:101FF0001129D093660685EE99E20E94DD1B80913F
:102000001129811115C08091E22881110AC086E84A
:1020100092E0E0E0F4E2A6E8B6E201900D920197CA
:10202000E1F780913F238111A1C1C09306067ACFC9
:1020300040E054E260E870E082E191E2E6D3809112
:10204000CF299091D029A091D129B091D2298F3355
:10205000F2E49F07FFE0AF07B10508F08AC10196DF
:10206000A11DB11D8093CF299093D029A093D12990
:10207000B093D229C8CF8091132990E08A3091057E
:1020800008F0B9CFFC018827E95FFE4F8F4F0C9411
:10209000462520E030E048E453E4609164237091E9
:1020A000652380916623909167230E94061E87FF17
:1020B000A2CFC0906C23D0906D23E0906E23F0905F
:1020C0006F2320E030E040E85FE3C701B6010E94E3
:1020D000061E87FF90CF20E030E040E85FEBC701AD
:1020E000B6010E94951F18160CF085CF7092132927
:1020F00082CF00931A2310931923909213297BCF38
:10210000E090F329F090F42920E030E048EC53E42B
:10211000F70164897589868997890E94061E87FD63
:10212000A092132920E030E040EF51ECF7016089E4
:102130007189828993890E94061E87FF5CCFA092D5
:10214000132959CF10931A2310931923B0921329EE
:1021500052CF2091642330916523409166235091A2
:102160006723609168237091692380916A2390911D
:102170006B230E94A11D20E030E040E251E40E9468
:10218000951F18160CF037CF20E030E0A9016091C0
:102190006C2370916D2380916E2390916F230E9428
:1021A000061E87FF28CF0093132925CF6091C729EA
:1021B0007091C8298091C9299091CA290E94A31EB3
:1021C0006B017C0120E030E04AEF54E460910E2185
:1021D00070910F2180911021909111210E94A21DD8
:1021E0009B01AC01C701B6010E94951F18160CF0A7
:1021F00002CFC0931329FFCEC090FF29D090002AB0
:10220000E090012AF090022A20E030E040E450E41F
:10221000C701B6010E94951F181624F410931129C6
:10222000C093132920E030E040E050E4C701B6013C
:102230000E94061E87FDA6C020E030E040E050E48A
:10224000C701B6010E94951F181624F4C0931A23E3
:10225000109319238091642390916523A0916623A4
:10226000B09167238093682390936923A0936A2396
:10227000B0936B23C0CED0931A23109319231092DE
:102280001129B9CE6091C7297091C8298091C929B7
:102290009091CA290E94A31E6B017C0120E030E0CE
:1022A0004AE754E460910E2170910F218091102132
:1022B000909111210E94A21D9B01AC01C701B601A2
:1022C0000E94951F18160CF096CEC0920E21D09247
:1022D0000F21E0921021F0921121809213298BCED0
:1022E00020E030E0A9016091FF297091002A8091DF
:1022F000012A9091022A0E94061E87FF7CCE20E0D0
:1023000030E048E452E46091132A7091142A8091DD
:10231000152A9091162A0E94951F18160CF06BCE64
:1023200020E030E048E452E460910F2A7091102AD6
:102330008091112A9091122A0E94951F18160CF074
:102340005ACE6091C7297091C8298091C92990916E
:10235000CA290E94A31E60930E2170930F218093BF
:10236000102190931121D093132945CE0E9400088B
:102370005CCE1092CF291092D0291092D1291092C0
:10238000D22941CE26E636E646E65FE36091602339
:102390007091612380916223909163230E94991F21
:1023A0006B017C012DEC3CEC4CEC5DE36091562321
:1023B0007091572380915823909159230E94991F1F
:1023C0009B01AC01C701B6010E94A21D609360236E
:1023D00070936123809362239093632385EE99E247
:1023E000A1DBC090FF29D090002AE090012AF09054
:1023F000022A22CF9091840497FFFCCF882319F002
:1024000087E08093830480918704089580938604F5
:102410008091840486FFFCCF6093870480918404BC
:1024200086FFFCCF409387048091840486FFFCCF15
:1024300083E0809383040895F9018093860490914A
:10244000840496FFFCCF609387049091840496FFE8
:10245000FCCF91E09093830481608093860450E0E8
:10246000415051091416150674F490E080918404CB
:1024700087FFFCCF8091870481939F5F292F30E0F5
:10248000241735079CF38091840487FFFCCF87E0F5
:10249000809383048091870480830895CF93DF9392
:1024A0001F92CDB7DEB78093C3088091C20887FF23
:1024B000FCCF8091C30889830F90DF91CF9108955D
:1024C0001092C3088091C20887FFFCCF8091C30897
:1024D0000895811104C081E080936506089581E02C
:1024E000809366060895CF93DF93CDB7DEB7279725
:1024F000CDBFDEBF81E08093660685E08093C30890
:102500008091C20887FFFCCF8091C3088B83109213
:10251000C3088091C20887FFFCCF8091C3088C83D9
:102520001092C3088091C20887FFFCCF8091C30836
:102530008C838C8180FDF4CF81E08093650680934D
:10254000660686E08093C3088091C20887FFFCCFAF
:102550008091C3088E8381E0809365068093660630
:1025600087EC8093C3088091C20887FFFCCF8091DD
:10257000C3088F8381E080936506EFE1F3E0319734
:10258000F1F700C000008093660685E08093C308E1
:102590008091C20887FFFCCF8091C3088983109285
:1025A000C3088091C20887FFFCCF8091C3088A834B
:1025B0001092C3088091C20887FFFCCF8091C308A6
:1025C0008A838A8180FDF4CF81E0809365068093C1
:1025D000660684E08093C3088091C20887FFFCCF21
:1025E0008091C3088D8381E0809365062796CDBFD7
:1025F000DEBFDF91CF910895CF92DF92EF92FF92ED
:10260000CF93DF93CDB7DEB72897CDBFDEBF6B0189
:102610007C0181E08093660685E08093C308809109
:10262000C20887FFFCCF8091C30889831092C3083A
:102630008091C20887FFFCCF8091C3088A831092E3
:10264000C3088091C20887FFFCCF8091C3088A83AA
:102650008A8180FDF4CF81E08093650680936606D1
:1026600086E08093C3088091C20887FFFCCF8091E9
:10267000C3088C8381E0809365068093660682E0C0
:102680008093C3088091C20887FFFCCF8091C30864
:102690008D83C701AA27BB278093C3088091C208F6
:1026A00087FFFCCF8091C3088E83BB27AF2D9E2D63
:1026B0008D2D8093C3088091C20887FFFCCF809145
:1026C000C3088F83C092C3088091C20887FFFCCFE4
:1026D0008091C30888872115310591F0FA0190E0B7
:1026E00081918093C3088091C20887FFFCCF8091BD
:1026F000C3088B839F5F492F50E04217530780F335
:1027000081E0809365062896CDBFDEBFDF91CF9133
:10271000FF90EF90DF90CF9008958F929F92AF92AD
:10272000BF92CF92DF92EF92FF92CF93DF9300D0D0
:102730001F92CDB7DEB74B015C0181E08093660646
:1027400083E08093C3088091C20887FFFCCF80910B
:10275000C30889831092C3088091C20887FFFCCF09
:102760008091C3088A831092C3088091C20887FFB2
:10277000FCCF8091C3088B831092C3088091C2085C
:1027800087FFFCCF8091C3088C83C12CD12C7601AC
:102790001092C3088091C20887FFFCCF8091C308C4
:1027A0008F3F69F08FEFC81AD80AE80AF80A80EA62
:1027B000C8168FE8D8068EE3E806F10449F781E0F1
:1027C00080936506C701B601A50194010E94082502
:1027D000611571058105910541F0C80CD91CEA1CF1
:1027E000FB1CC61AD70AE80AF90AC701B6012496E3
:1027F000CDBFDEBFDF91CF91FF90EF90DF90CF9004
:10280000BF90AF909F908F900895EF92FF920F939B
:102810001F93CF93DF931F921F92CDB7DEB7FC01BA
:1028200080819181A281B381803D9E4FAF43B105EC
:1028300048F00F900F90DF91CF911F910F91FF9073
:10284000EF90089581E08093660685E08093C30849
:102850009091C20897FFFCCF8091C30889831092A2
:10286000C3089091C20897FFFCCF8091C3088A8368
:102870001092C3089091C20897FFFCCF9091C308B3
:102880009A839A8190FDF4CF7B018F0181E0809340
:10289000650660817181828193819701ADDEF801C7
:1028A00080819181A281B3818E0D9F1DA11DB11DDB
:1028B00080839183A283B38384E080930706B9CF9A
:1028C000CF93DF931F921F92CDB7DEB781E0809345
:1028D000660686E08093C3088091C20887FFFCCF1C
:1028E0008091C308898381E08093650680936606A2
:1028F00088E98093C3088091C20887FFFCCF80914C
:10290000C3088A8381E0809365060F900F90DF9162
:10291000CF910895869590915000916090935000CA
:1029200090E490936A009DE090936B00909150002A
:102930009460909350009091510092FFFCCF909141
:102940005600987F90935600909168009160909304
:1029500068009091510090FFFCCF98ED94BF1092C9
:102960004000909150009F7E9093500080935500BE
:1029700080E1809350008091510084FFFCCF88ED6E
:1029800084BF84E08093400008950895089527E06F
:10299000209300081092010810922008109221083C
:1029A0009C01A0E0BDE70E944E25DC01CB012AE09E
:1029B000B695A795979587952A95D1F78093260880
:1029C0009093270882E080930608089527E02093DB
:1029D00000091092010910922009109221099C010E
:1029E000A0E0BDE70E944E25DC01CB012AE0B695B0
:1029F000A795979587952A95D1F780932609909367
:102A0000270981E080930609089527E02093000AB2
:102A10001092010A1092200A1092210A9C01A0E053
:102A2000BDE70E944E25DC01CB012AE0B695A795B3
:102A3000979587952A95D1F78093260A9093270A30
:102A400082E08093060A089527E02093000B1092FD
:102A5000010B1092200B1092210B813D27E0920771
:102A600010F080ED97E09C01A0E0BDE70E944E25AC
:102A7000DC01CB012AE0B695A795979587952A9515
:102A8000D1F78093260B9093270B82E08093060B5F
:102A90000895CF93DF93A0E0B2E081E08C93CAEC7D
:102AA000D1E092E09883E0E2F0E0E49118821C9695
:102AB000EC931C979883E1E2F0E0E49118821D9674
:102AC000EC931D9711961C92119712961C921297D7
:102AD00093E014969C93149790968C93DF91CF91EA
:102AE0000895E0EAF6E084E0868388E085838183C8
:102AF000E0EAFBE083E0858387E1868384EA8783DD
:102B000083818061838384818861848308950895AB
:102B1000E0E6F6E084E0868388E085838183E0EA6E
:102B2000F9E083E0858387E1868384EA8783838174
:102B3000806183838481886184830895CF93DF9348
:102B400088E18093900680939106A0E0B6E08C9196
:102B500081608C93E6E0F6E021E020838C918C6725
:102B60008C938CE78083A0EAB6E08C9180648C9390
:102B700066EA76E050E4DB015C9334E03093410692
:102B800030934606C1E6D6E082E08883A6E6B6E04A
:102B90008C933C9348E0488390E298839C93DB01BC
:102BA0003C934093A5064093A10633E03093400642
:102BB00030934406A2EEB7E02C938C93A2E8B6E0E3
:102BC00030E13C939C93A2EAB6E02C938C933C9327
:102BD00030936206808380E88083E6E2F6E020831B
:102BE000908350838083DF91CF910895E0E8F4E0F3
:102BF00080E3818391E092838FE085838181886087
:102C0000818394830895E0E4F6E080E1818380EAA3
:102C1000818380E4828380EE8583E0E6F6E081E0D4
:102C20008183858381E58093C008089580E880933F
:102C30000001089582E3809386048091840486FFD6
:102C4000FCCF80E2809387048091840486FFFCCFD0
:102C50008FE2809387048091840486FFFCCF83E019
:102C60008093830482E3809386048091840486FFAA
:102C7000FCCF83E2809387048091840486FFFCCF9D
:102C800080E3809387048091840486FFFCCF83E0F7
:102C9000809383040895CF92DF92EF92FF920F9377
:102CA0001F93CF93DF937C0182E38093860480910E
:102CB000840486FFFCCF88EA809387048091840493
:102CC00086FFFCCF81E08093830483E380938604B6
:102CD00080E090DBC82ED12C80E08CDBD82A80E00D
:102CE00089DB082F10E080E085DB182B80E082DB99
:102CF000C82FD0E081E07EDBF701C082D182028361
:102D00001383D82BC483D583DF91CF911F910F916B
:102D1000FF90EF90DF90CF9008950F931F93CF9384
:102D2000DF93CDB7DEB72C97CDBFDEBF8C01FC01A2
:102D300060817181072E000C880B990B0E94A51EE3
:102D400020E030E040E45AE30E94991F69877A87C7
:102D50008B879C87F80162817381072E000C880B9A
:102D6000990BF3D720E030E040E45AE30E94991F2A
:102D70006D837E838F839887F80164817581072E28
:102D8000000C880B990BE1D720E030E040E45AE3D7
:102D90000E94991F69837A838B839C8369857A85D6
:102DA0008B859C852BE83DEF45E65EE3CBD6F801AD
:102DB00066837783808791876D817E818F819885F7
:102DC0002BE83DEF45E65EE3BDD6F80162877387E9
:102DD0008487958769817A818B819C812BE83DEF7F
:102DE00045E65EE3AED6F80166877787808B918BE8
:102DF0002C96CDBFDEBFDF91CF911F910F9108952B
:102E00004FE060E188EB02DB41E063E288EBFEDA51
:102E100040EC60E288EBFACA0F931F93CF93DF93E5
:102E2000CDB7DEB72A97CDBFDEBF8C019E012F5FE5
:102E30003F4F45E068EA88EBFFDA2A818B8190E01A
:102E4000A0E0B0E0DC0199278827922B2981822B12
:102E5000F80180839183A283B3838C819D818087D5
:102E600091872A96CDBFDEBFDF91CF911F910F9141
:102E70000895CF93DF93EC01688179818A819B81EA
:102E800062D720E030E040E859E30E94991F6C834C
:102E90007D838E839F8368857985072E000C880B40
:102EA000990B53D720E030E040EF53E4B3D620E055
:102EB00030E04AE252E446D66A877B878C879D875A
:102EC000DF91CF9108954F925F926F927F928F9290
:102ED0009F92AF92BF92CF92DF92EF92FF920F93A9
:102EE0001F93CF93DF93EC01EE84FF840889198947
:102EF00020E030E0A901B701C80188D6CC80DD8090
:102F0000FE81EF8181110AC0C601AF2FBE2F8E87CF
:102F10009F87A88BB98B76010F2F1E2F9701A801D1
:102F2000B6018F2F9E2F76D62EE534ED42E45EE378
:102F30000E94FC1F9B01AC018A889B88AC88BD88DD
:102F400060E070E080E89FE3FCD520E032E14AE2F7
:102F500057E4EFD72DEC3CEC4CE45EE3EAD76B0191
:102F60007C012DEC3CEC4CE45FE3C501B401E1D7FE
:102F70009B01AC01C701B601E5D56B017C016A8BF1
:102F80007B8B8C8B9D8B26E636E646E65FE36A8D6F
:102F90007B8D8C8D9D8DCDD72B013C01A50194019E
:102FA000C701B601CED52DEC3CEC4CEC5DE3C1D7AE
:102FB00020E030E048EC52E4BCD79B01AC01C301F7
:102FC000B201C0D56A8F7B8F8C8F9D8FDF91CF919F
:102FD0001F910F91FF90EF90DF90CF90BF90AF9037
:102FE0009F908F907F906F905F904F90089584EDA9
:102FF000809386048091840486FFFCCF80E28093D6
:1030000087048091840486FFFCCF8FEB8093870434
:103010008091840486FFFCCF83E08093830484ED59
:10302000809386048091840486FFFCCF83E28093A2
:1030300087048091840486FFFCCF80E2809387041C
:103040008091840486FFFCCF83E0809383048AE32D
:10305000809386048091840486FFFCCF80E2809375
:1030600087048091840486FFFCCF87E880938704DF
:103070008091840486FFFCCF83E0809383048AE3FD
:10308000809386048091840486FFFCCF81E2809344
:1030900087048091840486FFFCCF80E680938704B8
:1030A0008091840486FFFCCF83E0809383048AE3CD
:1030B000809386048091840486FFFCCF84E2809311
:1030C00087048091840486FFFCCF80EF809387047F
:1030D0008091840486FFFCCF83E0809383048AE39D
:1030E000809386048091840486FFFCCF85E28093E0
:1030F00087048091840486FFFCCF1092870480911E
:10310000840486FFFCCF83E0809383048AE380936A
:1031100086048091840486FFFCCF86E28093870436
:103120008091840486FFFCCF1092870480918404F0
:1031300086FFFCCF83E08093830408950F931F9351
:10314000CF93DF93EC0184ED809386048091840417
:1031500086FFFCCF88EA809387048091840486FFF1
:10316000FCCF81E08093830485ED8093860480E02A
:1031700041D990E08E839F8380E03CD92E813F81AE
:10318000382B2E833F8380E035D990E0888799875C
:1031900080E030D928853985382B2887398780E029
:1031A00029D990E08A879B8781E024D92A853B85AD
:1031B000382B2A873B878AE3809386048091840496
:1031C00086FFFCCF88E8809387048091840486FF83
:1031D000FCCF81E0809383048BE38093860480E0BE
:1031E00009D990E08E879F8780E004D92E853F859E
:1031F000382B2E873F8780E0FDD890E0888B998B15
:1032000080E0F8D828893989382B288B398B80E0E1
:10321000F1D890E08A8B9B8B81E0ECD82A893B899E
:10322000382B2A8B3B8B8AE380938604809184041D
:1032300086FFFCCF88EA809387048091840486FF10
:10324000FCCF81E0809383048BE38093860480E04D
:10325000D1D890E08883998380E0CCD828813981C7
:10326000382B2883398380E0C5D890E08A839B83FC
:1032700080E0C0D82A813B81382B2A833B8380E0C1
:10328000B9D890E08C839D8381E0B4D82C813D81B6
:10329000382B2C833D838AE38093860480918404B9
:1032A00086FFFCCF85E8809387048091840486FFA5
:1032B000FCCF81E0809383048BE38093860480E0DD
:1032C00099D890E08C879D8781E094D80C851D85E6
:1032D000182B0C871D87FE01EC5BFF4F68817981FD
:1032E00080819181681B790B072E000C880B990B4C
:1032F0002CD52AE534E64BE35FE31BD620E030E033
:103300004AE754E487D46C8B7D8B8E8B9F8BFE01B8
:10331000EA5BFF4F6A817B8180819181681B790B19
:10332000072E000C880B990B10D52AE534E64BE3E9
:103330005FE3FFD520E030E04AE754E46BD4688FC8
:10334000798F8A8F9B8FFE01E85BFF4F6C817D81B7
:1033500080819181681B790B072E000C880B990BDB
:10336000F4D42AE534E64BE35FE3E3D520E030E034
:103370004AE754E44FD46C8F7D8F8E8F9F8FFE0170
:10338000E65BFF4F6E817F8180819181681B790BA5
:10339000072E000C880B990BD8D420E030E04AE7C8
:1033A00055E4C7D520E030E040E857E3C2D56CA330
:1033B0007DA38EA39FA3FE01E45BFF4F6885798503
:1033C00080819181681B790B072E000C880B990B6B
:1033D000BCD420E030E04AE755E4ABD520E030E053
:1033E00040E857E3A6D568A779A78AA79BA7FE015F
:1033F000E25BFF4F6A857B8580819181681B790B39
:10340000072E000C880B990BA0D420E030E04AE78F
:1034100055E48FD520E030E040E857E38AD56CA72B
:103420007DA78EA79FA7FE01E05BFF4F6E857F857E
:1034300080819181681B790B072E000C880B990BFA
:1034400084D420E030E040E850E473D52AE037ED42
:1034500043E254E4DFD36CAB7DAB8EAB9FABFE019C
:10346000EE5AFF4F6889798980819181681B790BB9
:10347000072E000C880B990B68D420E030E040E860
:1034800050E457D52AE037ED43E254E4C3D368AFA4
:1034900079AF8AAF9BAFFE01EC5AFF4F6A897B89F7
:1034A00080819181681B790B072E000C880B990B8A
:1034B0004CD420E030E040E850E43BD52AE037ED42
:1034C00043E254E4A7D36CAF7DAF8EAF9FAFB8019A
:1034D000110F880B990B39D420E030E040E05EE317
:1034E00028D520E030E048EA51E42CD368AB79AB32
:1034F0008AAB9BABDF91CF911F910F91089542E072
:103500006BE680ED0E94061242E06AE180ED0E94C7
:10351000061248E16BE180ED0E94061248E16CE181
:1035200080ED0C9406120F931F93CF93DF93CDB7CA
:10353000DEB76497CDBFDEBF8C019E012F5F3F4F8A
:103540004EE06BE380ED0E941C1289819A819827DE
:1035500089279827F801808391838B819C81982704
:1035600089279827828393838D819E819827892735
:103570009827848395838F81988598278927982712
:103580008487958789859A859827892798278683B0
:1035900097838B859C859827892798278087918793
:1035A0008D859E859827892798278287938764969B
:1035B000CDBFDEBFDF91CF911F910F910895CF93C3
:1035C000DF93EC012E853F85FC01EC5AFF4F4081D3
:1035D0004203B001439F700D1124672F770F770BC3
:1035E000620F731F072E000C880B990BAED32AE9CC
:1035F00039E949E95EE39DD46AAB7BAB8CAB9DAB0B
:1036000028893989FE01EB5AFF4F40814203B001FE
:10361000439F700D1124672F770F770B620F731F75
:10362000072E000C880B990B90D32AE939E949E958
:103630005EE37FD46EAB7FAB88AF99AF2A893B89BD
:10364000FE01EA5AFF4F40814203B001439F700DD3
:103650001124672F770F770B620F731F072E000C53
:10366000880B990B72D32AE939E949E95EE361D401
:103670006AAF7BAF8CAF9DAFFE01EE5BFF4F688101
:10368000798180819181681B790B072E000C880B52
:10369000990B5BD320E030E040E05AE34AD46C8BD6
:1036A0007D8B8E8B9F8BFE01EC5BFF4F6A817B8154
:1036B00080819181681B790B072E000C880B990B78
:1036C00044D320E030E040E05AE333D4688F798F70
:1036D0008A8F9B8FFE01EA5BFF4F6C817D81808129
:1036E0009181681B790B072E000C880B990B2DD349
:1036F00020E030E040E05AE31CD46C8F7D8F8E8F49
:103700009F8FFE01E85BFF4F6E817F8180819181F9
:10371000681B790B072E000C880B990B16D323E33B
:1037200033E343E851E476D26CA37DA38EA39FA339
:10373000FE01E65BFF4F6885798580819181681B7A
:10374000790B072E000C880B990BFFD223E333E390
:1037500043E851E45FD268A779A78AA79BA7FE0137
:10376000E45BFF4F6A857B8580819181681B790BC3
:10377000072E000C880B990BE8D223E333E343E8D0
:1037800051E448D26CA77DA78EA79FA76C857D8545
:10379000072E000C880B990BD8D220E030EF49E3BC
:1037A00056E4D0D120E030E048E052E433D29AD25F
:1037B00068AB79ABDF91CF910895CF93DF93EC01A4
:1037C000AE81BF81EE85FF859C968C919C971F9260
:1037D0008F93CD0180969F938F930E979F938F9396
:1037E0001496BF93AF9383A58F9382A58F9381A5E2
:1037F0008F9380A58F9387A18F9386A18F9385A1A7
:103800008F9384A18F9383A18F9382A18F9381A1A2
:103810008F9380A18F9383858F9382858F938185EA
:103820008F9380858F9387818F9386818F938581F6
:103830008F9384818F9383818F9382818F938181F2
:103840008F9380818F9383898F9382898F938189CE
:103850008F9380898F9387898F9386898F938589AA
:103860008F9384898F93E885F98587818F938681EB
:103870008F9385818F9384818F93EA85FB858781E0
:103880001F928F93EE89FF8983818F9382818F931B
:1038900081818F9380818F9380EA90E29F938F93B1
:1038A0008B898F938A898F930E948726EA89FB8967
:1038B000E65AFD4F808391838DB79EB7C6968DBF24
:1038C0009EBFDF91CF910895FC0180E380A381A387
:1038D00082A383A384A385A386A387A380A781A7AC
:1038E000828B838B848B858B868B878B808F818F5C
:1038F000828F838F848F858F868F84838583868351
:103900008783808781878287838784878587868767
:103910008787808B14A608954F925F926F927F9253
:103920008F929F92AF92BF92CF92DF92EF92FF92CF
:103930000F931F93CF93DF93CDB7DEB72C97CDBFF7
:10394000DEBF2B013C0149015A01E982FA820B8357
:103950001C839B01AC01EDD26B017C01A50194019C
:10396000C501B401E6D26D837E838F839887298158
:103970003A814B815C81CA01B901DBD269877A87C0
:103980008B879C872D813E814F815885C701B60169
:10399000D9D029853A854B855C85D4D07DD36B0100
:1039A0007C01C301B2019F77A701960133D1BBD03F
:1039B00023EC35EF48E450E42DD120E030E044E33F
:1039C00053E4B7D22B013C01C501B4019F77A70195
:1039D000960120D1A8D023EC35EF48E450E41AD169
:1039E00020E030E044E353E4A4D24B015C01698160
:1039F0007A818B819C819F77A70196010BD193D00F
:103A000023EC35EF48E450E405D120E030E044E316
:103A100053E48FD26B017C019401A501B201C30173
:103A2000F5D018163CF09601A701B201C301EED003
:103A30001816CCF59401A501B201C30176D287FD19
:103A400007C09601A701B401C501E0D018166CF5B6
:103A50009601A701B401C50168D287FD1FC0960178
:103A6000A701B201C30161D287FD18C02601570129
:103A7000B201C5012C96CDBFDEBFDF91CF911F9162
:103A80000F91FF90EF90DF90CF90BF90AF909F90FD
:103A90008F907F906F905F904F900895412C512CA4
:103AA000A12CB12CE5CF5301E3CF2401E1CFE0E01D
:103AB000F1E0808F918F128E80EA848F89E0858F6C
:103AC000168E648B758B8CE6838B80E5828B80E110
:103AD000818B84E8808B089580931801909319015D
:103AE00010921A0180EA80931C0189E080931D01E5
:103AF00010921E0160931401709315018CE680935F
:103B0000130180E58093120180E18093110184E824
:103B1000809310018091110184FFFCCF0895809162
:103B20001101807108959F939F774AD10F900020D3
:103B30003AF49058A2EA2AED3FE049E450E413D069
:103B4000BAC15058BB27AA270ED0B5C1A6D130F0B4
:103B5000ABD120F031F49F3F11F41EF476C10EF486
:103B6000E095E7FB6CC1E92FB7D180F3BA17620784
:103B700073078407950718F071F49EF5CFC10EF412
:103B8000E0950B2EBA2FA02D0B01B90190010C016D
:103B9000CA01A0011124FF27591B99F0593F50F485
:103BA000503E68F11A16F040A22F232F342F4427DD
:103BB000585FF3CF469537952795A795F0405395D5
:103BC000C9F77EF41F16BA0B620B730B840BBAF0A5
:103BD0009150A1F0FF0FBB1F661F771F881FC2F710
:103BE0000EC0BA0F621F731F841F48F48795779524
:103BF0006795B795F7959E3F08F0B3CF9395880FDB
:103C000008F09927EE0F979587950895F4D008F45A
:103C100081E008950CD04FC147D140F03ED130F043
:103C200021F45F3F19F00BC1511179C10EC154D17C
:103C300098F39923C9F35523B1F3951B550BBB2773
:103C4000AA2762177307840738F09F5F5F4F220F20
:103C5000331F441FAA1FA9F333D00E2E3AF0E0E819
:103C600030D091505040E695001CCAF729D0FE2F65
:103C700027D0660F771F881FBB1F261737074807F7
:103C8000AB07B0E809F0BB0B802DBF01FF279358AD
:103C90005F4F2AF09E3F510568F0D1C040C15F3FA1
:103CA000ECF3983EDCF3869577956795B795F79595
:103CB0009F5FC9F7880F911D9695879597F908958D
:103CC000E1E0660F771F881FBB1F62177307840729
:103CD000BA0720F0621B730B840BBA0BEE1F88F738
:103CE000E095089504D06894B11119C10895FCD0ED
:103CF00088F09F5790F0B92F9927B751A0F0D1F0D5
:103D0000660F771F881F991F1AF0BA95C9F712C05E
:103D1000B13081F003D1B1E0089500C1672F782F51
:103D20008827B85F39F0B93FCCF3869577956795CA
:103D3000B395D9F73EF490958095709561957F4F36
:103D40008F4F9F4F0895E89409C097FB3EF49095DC
:103D50008095709561957F4F8F4F9F4F9923A9F064
:103D6000F92F96E9BB279395F695879577956795F3
:103D7000B795F111F8CFFAF4BB0F11F460FF1BC037
:103D80006F5F7F4F8F4F9F4F16C0882311F096E9CA
:103D900011C0772321F09EE8872F762F05C0662378
:103DA00071F096E8862F70E060E02AF09A95660F31
:103DB000771F881FDAF7880F9695879597F90895EA
:103DC000DF93CF931F930F938B01EC01E2E2F2E0BC
:103DD0003FD071D09801AE018B01EC0160E070E042
:103DE00080E89FE3AEDE58D19801AE010F911F919C
:103DF000CF91DF91AAC0990F0008550FAA0BE0E8F8
:103E0000FEEF16161706E807F907C0F0121613069C
:103E1000E407F50798F0621B730B840B950B39F4DC
:103E20000A2661F0232B242B252B21F408950A2642
:103E300009F4A140A6958FEF811D811D089597F982
:103E40009F6780E870E060E008959FEF80EC089540
:103E5000DF93CF931F930F93FF92EF92DF927B013B
:103E60008C01689405C0DA2EEF016FD0FE01E89452
:103E7000A5912591359145915591AEF3EF0173DEF2
:103E8000FE019701A801DA9479F7DF90EF90FF9097
:103E90000F911F91CF91DF91089500240A94161677
:103EA000170618060906089500240A941216130628
:103EB000140605060895092E0394000C11F48823B6
:103EC00052F0BB0F40F4BF2B11F460FF04C06F5FD2
:103ED0007F4F8F4F9F4F089557FD9058440F551FA8
:103EE00059F05F3F71F04795880F97FB991F61F07C
:103EF0009F3F79F087950895121613061406551FF3
:103F0000F2CF4695F1DF08C0161617061806991F5E
:103F1000F1CF86957105610508940895E894BB2753
:103F200066277727CB0197F9089565DF08F48FEFAF
:103F300008950BD0C0CFB1DF28F0B6DF18F095237D
:103F400009F07DCF82CF1124EACFC6DFA0F3959F81
:103F5000D1F3950F50E0551F629FF001729FBB2770
:103F6000F00DB11D639FAA27F00DB11DAA1F649F1C
:103F70006627B00DA11D661F829F2227B00DA11DCF
:103F8000621F739FB00DA11D621F839FA00D611D55
:103F9000221F749F3327A00D611D231F849F600D76
:103FA000211D822F762F6A2F11249F5750408AF0AF
:103FB000E1F088234AF0EE0FFF1FBB1F661F771F3B
:103FC000881F91505040A9F79E3F510570F037CFA0
:103FD000A6CF5F3FECF3983EDCF386957795679527
:103FE000B795F795E7959F5FC1F7FE2B880F911D59
:103FF0009695879597F90895FA01EE0FFF1F309671
:104000002105310599F16115710561F48038BFE32F
:104010009B0749F168949038810561F08038BFEFC3
:104020009B0741F0992342F5FF3FE105310521054A
:1040300011F1E8940894E795D901AA2329F4AB2F4C
:10404000BE2FF85FD0F310C0FF5F70F4A695E0F7C5
:10405000F73950F019F0FF3A38F49F779F930CD05E
:104060000F9007FC905808953EF0EFCE60E070E0AE
:1040700080E89FE308954FE79F775F934F933F93C7
:104080002F93D0D02F913F914F915F9152DF47C036
:1040900011F40EF4DACE6FC027DFD0F39923D9F3F1
:1040A000CEF39F57550B87FF74D00024A0E640EA5B
:1040B000900180585695979528F4805C660F771F7D
:1040C000881F20F026173707480730F4621B730B50
:1040D000840B202931294A2BA69517940794202573
:1040E00031254A2758F7660F771F881F20F02617BB
:1040F0003707480730F4620B730B840B200D311D1A
:10410000411DA09581F7B901842F9158880F96958C
:104110008795089519F40EF092CE00CF96CEE4DE86
:10412000C8F39638C0F707F80F92E8942BE33AEA01
:1041300048EB5FE70CDF0F920F920F924DB75EB71F
:104140000F92B0D0EAE4F2E083DE4F915F91EF91FD
:10415000FF91E595EE1FFF1F49F0FE57E0684427E9
:10416000EE0F441FFA95E1F74195550B22D00F90C1
:1041700007FE16C008959F3F31F0915020F48795B7
:1041800077956795B795880F911D9695879597F9BF
:10419000089591505040660F771F881FD2F70895F9
:1041A0009B01AC0160E070E080E89FE333CD47CE37
:1041B000E2CF9ADEE8F39923D9F3940F511DBBF3B4
:1041C0009150504094F059F0882332F0660F771FD9
:1041D000881F91505040C1F79E3F510544F7880F0A
:1041E000911D9695879597F908955F3FACF0983E9D
:1041F0009CF0BB27869577956795B79508F4B160D5
:104200009395C1F7BB0F58F711F460FFE8CF6F5FCC
:104210007F4F8F4F9F4FE3CF82CE0EF0ACCF15CEA6
:1042200068940DCE61DEC8F39923D1F3C6F3DF9312
:10423000CF931F930F93FF92C92FDD2788232AF076
:104240002197660F771F881FDAF720E030E040E8FB
:104250005FEB9FE3883920F0803E30F021968F7726
:1042600071DCE2E7F2E003C06DDCEFE9F2E0F0DDE3
:104270008B01BE01EC01FB2E6F5771097595771FFD
:10428000880B990B62DD28E132E741E35FE35DDEF5
:10429000AF2D9801AE01FF900F911F91CF91DF914B
:1042A00062DC09CEFA01DC01AA0FBB1F9B01AC0145
:1042B000BF5728F422273327442750781FC0B7510F
:1042C00088F4AB2F0024469537952795011CA395BC
:1042D000D2F3002069F0220F331F441FB395DAF3A5
:1042E0000DD02FCC61307105A0E88A07B94630F4B3
:1042F0009B01AC016627772788279078309621F0BC
:10430000208331834283538308952F923F924F92AB
:104310005F926F927F928F929F92AF92BF92CF9255
:10432000DF92EF92FF920F931F93CF93DF93CDB75E
:10433000DEB76097CDBFDEBF7C011B016A01FC01C7
:1043400016821782838181FF2AC39E012F5F3F4F10
:104350003901F7019381F10193FD859193FF8191DB
:104360001F01882309F417C3853239F493FD859121
:1043700093FF81911F01853231F4B70190E08BD416
:1043800056016501E6CF10E0512C912CFFE1F915A3
:10439000D8F08B3279F038F4803279F08332A1F49E
:1043A000F92DF0612EC08D3261F0803369F4292D32
:1043B00021602DC0392D3260932E892D8460982E76
:1043C0002AC0E92DE86015C097FC2DC020ED280F0C
:1043D0002A3088F496FE06C03AE0139F200D11247F
:1043E000122F19C08AE0589E200D1124522EE92D5B
:1043F000E0629E2E10C08E3231F496FCCCC2F92DB4
:10440000F0649F2E08C08C3621F4292D2068922E4E
:1044100002C0883641F4F10193FD859193FF8191AB
:104420001F018111B3CF9BEB980F933020F4992D8E
:104430009061805E07C09BE9980F933008F059C1E6
:10444000992D9F7E96FF16E09F73992E853619F45D
:104450009064992E08C0863621F4392F3068932E47
:1044600002C01111115097FE07C01C3350F44424B0
:104470004394410E27E00BC0183038F027E017E0D6
:1044800005C027E09CE3492E02C0212F412C560194
:1044900084E0A80EB11CF601608171818281938154
:1044A000042DA3010AD36C01F981FC87F0FF02C03F
:1044B000F3FF06C091FC06C092FE06C000E205C0F4
:1044C0000DE203C00BE201C000E08C858C7019F096
:1044D000011143C280C297FE10C04C0CFC85F4FF52
:1044E00004C08A81813309F44A94141474F528E0D5
:1044F000241578F588E0482E2CC096FC2AC0812F20
:1045000090E08C159D059CF03CEFC3163FEFD30661
:1045100074F0892D8068982E0AC0E2E0F0E0EC0F7C
:10452000FD1FE10FF11D8081803319F4115011112D
:10453000F4CF97FE0EC044244394410E812F90E0A7
:10454000C816D9062CF41C1904C04424439401C095
:1045500010E097FE06C01C141D0434F4C601019639
:1045600005C085E090E002C081E090E00111019675
:10457000112331F0212F30E02F5F3F4F820F931F27
:10458000252D30E08217930714F4581A01C0512CDE
:10459000892D897041F4552031F0B70180E290E017
:1045A0007AD35A94F8CF002321F0B701802F90E0FE
:1045B00072D393FC08C0552031F0B70180E390E03E
:1045C0006AD35A94F8CF97FE4AC04601D7FE02C07C
:1045D000812C912CC60188199909F301E80FF91F64
:1045E000ED87FE879601241931092F87388B012F1B
:1045F00010E01195019511093FEF8316930621F400
:10460000B7018EE290E047D3C814D9044CF08F85EF
:1046100098898815990524F4ED85FE85818101C06E
:1046200080E3F1E08F1A91082D853E852F5F3F4F83
:104630002D873E878016910624F0B70190E02BD39A
:10464000DBCFC814D90441F49A81963320F4953312
:1046500019F43C8534FF81E3B70190E048C08A81BA
:10466000813319F09C859F7E9C87B70190E013D31E
:10467000111105C094FC16C085E690E015C0B70185
:104680008EE290E008D31E5F82E001E0080FF301A4
:10469000E80FF11D8081B70190E0FDD2802F01135A
:1046A000F4CFE8CF85E490E0B701F5D2D7FC06C09F
:1046B000C114D10441F4EC85E4FF05C0D194C19448
:1046C000D1088DE201C08BE2B70190E0E4D280E333
:1046D0002AE0C216D1042CF08F5FFAE0CF1AD1087D
:1046E000F7CFB70190E0D7D2B701C601C096D3D2B9
:1046F00049C1833631F0833779F0833509F052C0F0
:104700001FC0560132E0A30EB11CF60180818983DF
:1047100001E010E0630111C05601F2E0AF0EB11CE0
:10472000F601C080D18096FE03C0612F70E002C008
:104730006FEF7FEFC601A4D28C01F92DFF7713C074
:10474000560122E0A20EB11CF601C080D18096FE77
:1047500003C0612F70E002C06FEF7FEFC60185D20A
:104760008C01F92DF0689F2EF3FD18C0852D90E087
:104770000817190798F4B70180E290E08CD25A9498
:10478000F5CFF60197FC859197FE81916F01B701F6
:1047900090E081D251105A94015011090115110570
:1047A00081F7F0C0843611F0893659F5560197FE2D
:1047B00009C024E0A20EB11CF601608171818281E2
:1047C00093810AC0F2E0AF0EB11CF60160817181E5
:1047D000072E000C880B990BF92DFF769F2E97FF63
:1047E00009C090958095709561957F4F8F4F9F4F31
:1047F000F0689F2E2AE030E0A301B1D2C82EC6187F
:104800003EC0092D853721F40F7E2AE030E01DC01F
:10481000097F8F3691F018F4883559F0BCC0803785
:1048200019F0883711F0B7C0006104FF09C00460B7
:1048300007C094FE08C0066006C028E030E005C04E
:1048400020E130E002C020E132E0560107FF09C05C
:1048500084E0A80EB11CF601608171818281938190
:1048600008C0F2E0AF0EB11CF6016081718180E0FA
:1048700090E0A30174D2C82EC6180F77902E96FE32
:104880000BC0092D0E7FC11650F494FE0AC092FC95
:1048900008C0092D0E7E05C0DC2C092D03C0DC2CC0
:1048A00001C0D12E04FF0DC0FE01EC0DF11D808171
:1048B000803311F4097E09C002FF06C0D394D3945B
:1048C00004C0802F867809F0D39403FD10C000FF48
:1048D00006C01C2DD51478F4150D1D190CC0D51467
:1048E00050F4B70180E290E0D6D1D394F8CFD5143C
:1048F00010F45D1801C0512C04FF0FC0B70180E314
:1049000090E0C9D102FF16C001FD03C088E790E026
:1049100002C088E590E0B7010CC0802F867851F086
:1049200001FF02C08BE201C080E207FD8DE2B7010A
:1049300090E0B1D1C11630F4B70180E390E0ABD183
:104940001150F8CFCA94F301EC0DF11D8081B7012D
:1049500090E0A1D1C110F6CF15C0F4E0F51550F5E7
:1049600084E0581A93FE1EC0011125C02C8523FF38
:1049700027C00CEC12E0392D3071932EF801849190
:10498000811121C0552009F4FCCCB70180E290E0F0
:1049900082D15A94F7CFF7018681978123C08FEF98
:1049A0009FEF20C0B70180E290E075D15A9451107A
:1049B000F9CFDACF512CB701802F90E06CD1D6CF50
:1049C00000ED12E0D8CF91108052B70190E063D192
:1049D0000F5F1F4FD3CF23E0251510F483E0C1CF25
:1049E000512CC4CF6096CDBFDEBFDF91CF911F9118
:1049F0000F91FF90EF90DF90CF90BF90AF909F907E
:104A00008F907F906F905F904F903F902F90089580
:104A1000A1E21A2EAA1BBB1BFD010DC0AA1FBB1FC2
:104A2000EE1FFF1FA217B307E407F50720F0A21B34
:104A3000B30BE40BF50B661F771F881F991F1A94A1
:104A400069F760957095809590959B01AC01BD01CB
:104A5000CF010895052E97FB16F400940FD057FD53
:104A600005D0D6DF07FC02D046F408C0509540952B
:104A7000309521953F4F4F4F5F4F0895909580950A
:104A8000709561957F4F8F4F9F4F0895EE0FFF1FD9
:104A9000881F8BBF0790F691E02D1994A29FB0015B
:104AA000B39FC001A39F700D811D1124911DB29F62
:104AB000700D811D1124911D0895283008F027E004
:104AC0003327DA01990F311D87FD9160009661054A
:104AD000710539F432602E5F3D9330E32A95E1F79A
:104AE00008959F3F30F080387105610509F03C5F03
:104AF0003C5F3D93913008F08068911DDF93CF9328
:104B00001F930F93FF92EF92192F987F9695E92F9D
:104B100096959695E90FFF27E25DFC4F992733277D
:104B2000EE24FF24A701E70105900894079428F4D8
:104B3000360FE71EF81E491F511D660F771F881F8D
:104B4000991F0694A1F70590079428F4E70EF81E24
:104B5000491F561FC11D770F881F991F661F069496
:104B6000A1F70590079428F4F80E491F561FC71F98
:104B7000D11D880F991F661F771F0694A1F7059016
:104B8000079420F4490F561FC71FD81F990F661F9F
:104B9000771F881F0694A9F784911095177041F02C
:104BA000D695C79557954795F794E7941A95C1F709
:104BB000E4EDF2E068941590159135916591959129
:104BC00005907FE27395E118F10A430B560BC90B70
:104BD000D009C0F7E10CF11E431F561FC91FD01D9D
:104BE0007EF4703311F48A95E6CFE894015030F0EA
:104BF000080F0AF40027021708F4202F2395022F2C
:104C00007A3328F079E37D932A95E9F710C07D93F4
:104C10002A9589F606949795679537951795179471
:104C2000E118F10A430B560BC90BD00998F02395F4
:104C30007E9173957A3308F070E37C932013B8F774
:104C40007E9170617D9330F0839571E37D9370E385
:104C50002A95E1F71124EF90FF900F911F91CF91CA
:104C6000DF91992787FD90950895FC01059061508B
:104C700070400110D8F7809590958E0F9F1F089572
:104C8000FC016150704001900110D8F7809590951B
:104C90008E0F9F1F08950F931F93CF93DF93FB01F8
:104CA000238121FD03C08FEF9FEF2CC022FF16C090
:104CB00046815781248135814217530744F4A081EE
:104CC000B1819D012F5F3F4F208331838C932681DB
:104CD00037812F5F3F4F2683378314C08B01EC0150
:104CE000FB010084F185E02D1995892BE1F6D801AF
:104CF00016968D919C911797019616968D939C937D
:104D00001797CE01DF91CF911F910F9108950F93C7
:104D10001F93CF93DF93CDB7DEB72E97CDBFDEBF06
:104D20000E891F8986E08C8309831A838FEF9FE7A2
:104D30008D839E83AE01465E5F4F688D798DCE0177
:104D40000196E3DAEF81F885E00FF11F10822E96CD
:104D5000CDBFDEBFDF91CF911F910F910895FA0172
:104D6000AA27283051F1203181F1E8946F936E7FAA
:104D70006E5F7F4F8F4F9F4FAF4FB1E03ED0B4E09B
:104D80003CD0670F781F891F9A1FA11D680F791FDC
:104D90008A1F911DA11D6A0F711D811D911DA11DED
:104DA00020D009F468943F912AE0269F11243019FD
:104DB000305D3193DEF6CF010895462F4770405D98
:104DC0004193B3E00FD0C9F7F6CF462F4F70405D47
:104DD0004A3318F0495D31FD4052419302D0A9F7A2
:104DE000EACFB4E0A6959795879577956795BA959C
:104DF000C9F700976105710508959B01AC010A2E62
:104E000006945795479537952795BA95C9F7620F38
:0E4E1000731F841F951FA01D0895F894FFCFF7
:104E1E000A0D4D656D6F727920657261736564213F
:104E2E000A0D0A0D00000A0D49442C54696D654D9A
:104E3E00532C466C6967687453746174652C4261B7
:104E4E00742C416C7469747564652C56656C6F6353
:104E5E006974792C416363656C582C416363656C8E
:104E6E00592C416363656C5A2C4779726F582C47E5
:104E7E0079726F592C4779726F5A2C4C61742C4C85
:104E8E006F6E672C416C74694750530A0D0A0D0002
:104E9E00000A0D52656164696E6720646F6E650A63
:104EAE000D0A0D00000D0A2B494E513D310D0A0021
:104EBE00245370616365466F726573742C253036AA
:104ECE006C752C2531752C2530342E32662C252B05
:104EDE0030382E32662C252B30362E31662C252B73
:104EEE0030362E33662C252B30362E33662C252B62
:104EFE0030362E33662C252B30362E31662C252B54
:104F0E0030362E31662C252B30362E31662C2573FD
:0E4F1E002C25732C25732C2531750D0A0000EF
:00000001FF
