:1000000065C1000084C1000082C1000080C1000001
:100010007EC100007CC100007AC1000078C10000F0
:1000200076C1000074C1000072C1000070C1000000
:100030006EC100006CC1000017C5000068C100005F
:1000400066C1000064C1000062C1000060C1000020
:100050005EC100005CC100005AC1000058C1000030
:1000600056C1000054C1000052C1000050C1000040
:100070004EC100004CC100004AC1000048C1000050
:1000800046C1000044C1000042C1000040C1000060
:100090003EC100003CC100003AC1000038C1000070
:1000A00036C1000034C1000032C1000030C1000080
:1000B0002EC100002CC100002AC1000066C500004E
:1000C00026C1000024C1000022C1000020C10000A0
:1000D0001EC100001CC100001AC1000018C10000B0
:1000E00016C1000014C1000012C1000010C10000C0
:1000F0000EC100000CC100000AC1000008C10000D0
:1001000006C1000004C1000002C1000000C10000DF
:10011000FEC00000FCC00000FAC00000F8C00000F3
:10012000F6C00000F4C00000F2C00000F0C0000003
:10013000EEC00000C7C40000EAC00000E8C0000034
:10014000E6C00000E4C00000E2C00000E0C0000023
:10015000DEC00000DCC00000DAC00000D8C0000033
:1001600087C30000D4C0000043C30000D0C000001B
:10017000CEC00000CCC00000CAC00000C8C0000053
:10018000C6C00000C4C00000C2C00000C0C0000063
:10019000BEC00000BCC00000BAC00000B8C0000073
:1001A000B6C00000B4C00000B2C00000B0C0000083
:1001B000FDC40000ACC00000AAC00000A8C0000040
:1001C000A6C00000A4C00000A2C00000A0C00000A3
:1001D0009EC000009CC000009AC0000017C2000032
:1001E00096C0000094C0000092C0000090C00000C3
:1001F0008EC000008CC000008AC00000810376031E
:100200008C037103A503B503C803CA037B03440829
:10021000AE08F60825094C0975097A099E09A30953
:10022000D309072C7AA5BA6CC590DA3B9365FC8B91
:10023000BC53F810FD3C5692834DBD879D3AB63DA8
:10024000CBC9BF5BBE73DA0FC93F07634236B79BAA
:10025000D8A71A39685618AEBAAB558C1D3CB7CC26
:100260005763BD6DEDFD753EF6177231BF0000009E
:10027000803F08000000BE922449123EABAAAA2A81
:10028000BECDCCCC4C3E00000080BEABAAAAAA3E9C
:1002900000000000BF000000803F000000000008D8
:1002A0004178D3BB4387D1133D190E3CC3BD428275
:1002B000AD2B3E68EC8276BED98FE1A93E4C80EF33
:1002C000FFBE01C4FF7F3F000000000011241FBEDD
:1002D000CFEFCDBFDFE5DEBF00E00CBF11E2A0E055
:1002E000B0E2E0E9F0E400E00BBF02C007900D923D
:1002F000A831B107D9F72AE2A8E1B1E201C01D9205
:10030000A137B207E1F70E94330E0C9446206FC16B
:100310002F923F924F925F926F927F928F929F9215
:10032000AF92BF92CF92DF92EF92FF920F931F9303
:10033000CF93DF9300D01F92CDB7DEB71C01E0E072
:10034000F2E080A1816080A38FE68093210280A1EA
:10035000806880A3868180FFFDCF00E012E081E00D
:10036000F80183A36089718980E090E00E94521AAD
:1003700020E030E040E85DE30E94481B2B013C0197
:1003800087E780932102F80180A1806880A386819D
:1003900080FFFDCF00E012E081E0F80183A36089D7
:1003A000718980E090E00E94521A20E030E040E83D
:1003B0005DE30E94481B4B015C018FE780932102A3
:1003C000F80180A1806880A3868180FFFDCF00E0D6
:1003D00012E081E0F80183A36089718980E090E0F8
:1003E0000E94521A20E030E040E85DE30E94481B82
:1003F0006B017C0188E380932102F80180A1806871
:1004000080A3868180FFFDCF00E012E081E0F8014B
:1004100083A36089718980E090E00E94521A20E0F5
:1004200030E040E859E30E94481B2DEC3CEC4CE4E2
:100430005DE30E9450192DEC3CEC44E251E40E9433
:10044000481B69837A838B839C838FE0809321028E
:10045000F80180A1806880A3868180FFFDCFE0E065
:10046000F2E081E083A38089918987E4809321026F
:1004700080A1806880A3868180FFFDCFE0E0F2E06C
:1004800081E083A38089918910A280E181A380A16A
:10049000806880A3868180FFFDCFE0E0F2E081E00C
:1004A00083A30089118920E030E048EC52E4C301C5
:1004B000B2010E94481B20E030E04FE753E40E9465
:1004C000B919F101608B718B828B938B20E030E046
:1004D00048EC52E4C501B4010E94481B20E030E022
:1004E0004FE753E40E94B919F101648B758B868B39
:1004F000978B20E030E048EC52E4C701B6010E943F
:10050000481B20E030E04FE753E40E94B919F101A5
:10051000608F718F828F938F23E333E343E75FE331
:1005200064817581868197810E94481B6B017C01E3
:100530002DEC3CEC4CE45DE369817A818B819C81FC
:100540000E94481B9B01AC01C701B6010E945119D2
:10055000F101648375838683978323E333E343E761
:100560005FE3648D758D868D978D0E94481B6B01AE
:100570007C01B80180E090E00E94521A20E030E057
:1005800040E859E30E94481B2DEC3CEC4CE45DE351
:100590000E9450192AE939E945E251E40E94481BBA
:1005A0002DEC3CEC4CE45DE30E94481B9B01AC014C
:1005B000C701B6010E945119F101648F758F868FB2
:1005C000978F2496CDBFDEBFDF91CF911F910F9102
:1005D000FF90EF90DF90CF90BF90AF909F908F9063
:1005E0007F906F905F904F903F902F9008951F9253
:1005F0000F920FB60F9211248F9388E08093070615
:100600008F910F900FBE0F901F9018951F920F9211
:100610000FB60F9211240BB60F922F933F934F9367
:100620005F936F937F938F939F93AF93BF93EF935A
:10063000FF93CF93DF931F92CDB7DEB70000809179
:10064000A00B89838981843261F481E08093062440
:1006500082EC93E20E941118109203241092042459
:10066000B1C089818A3229F41092062410920324A1
:10067000A9C080910624882309F4A4C089818C3202
:1006800071F4A3E0B4E2EC91F0E0EE53FC4D85A7E9
:100690001C92E4E0F4E280818F5F808310C0A3E0CD
:1006A000B4E2EC9181E08E0F8C938981F0E0EE53FF
:1006B000FC4D85A780910724882309F483C01092FC
:1006C0000724E09104248E2F90E0FC013297E9305A
:1006D000F10508F077C08827E250FF4F8F4F0C9448
:1006E000721D8091EF238C3239F56CC08091EF231D
:1006F0008C3249F467C08091EF238C3209F04CC0F2
:1007000058C000005FC0A7ECB3E2E0EFF3E28D93C6
:1007100081918C32E1F756C08091EF238E3419F429
:100720008093C6234FC0833519F48093C6234AC0F3
:1007300088E58093C62346C0A5EDB3E2E0EFF3E27F
:100740008D9381918C32E1F73DC08091EF23853408
:1007500019F48093D42336C0873519F48093D423B9
:1007600031C088E58093D4232DC08091EF2380335E
:1007700019F41092EE2326C0813321F481E0809396
:10078000EE2320C08233F1F482E08093EE231AC07E
:10079000000018C0000016C0A2EEB3E2E0EFF3E2E2
:1007A00029EF33E28D9381918C3219F0E217F30730
:1007B000C9F788E4E2ECF3E2AAE7B3E201900D9214
:1007C0008A95E1F70F90DF91CF91FF91EF91BF9163
:1007D000AF919F918F917F916F915F914F913F91D9
:1007E0002F910F900BBE0F900FBE0F901F9018957A
:1007F0001F920F920FB60F9211240BB60F928F9388
:100800009F93EF93FF93E091E728F091E828E15759
:10081000F94D80818823F9F08332E9F091E09093DB
:10082000E928853221F48AE08093A00902C08093F0
:10083000A0098091E7289091E8288739910530F444
:1008400001968093E7289093E82807C0FC01E157C0
:10085000F94D108202C01092E928FF91EF919F910B
:100860008F910F900BBE0F900FBE0F901F90189599
:100870001F920F920FB60F9211240BB60F922F9367
:100880003F934F935F936F937F938F939F93AF9318
:10089000BF93EF93FF93CF93DF931F92CDB7DEB754
:1008A00080E1809305068091A00989838981843243
:1008B00021F481E080931629C1C08981823581F4B9
:1008C00080911629882309F493C08FB7F894109269
:1008D000162998ED94BF91E0909379008FBFAEC038
:1008E0008981833481F480911629882309F486C094
:1008F000E7E2F3E210A211A281E082A3E4E1F9E2CF
:10090000838312829BC08981803501F580911629ED
:10091000882309F479C00E94B80F10921C2110920C
:100920001D2110921E2110921F2110921629E3E220
:10093000F3E281E0818380832FEF87EA91E6215003
:1009400080409040E1F700C0000078C08981883580
:1009500059F480911629882309F45CC0E4E1F9E296
:1009600081E0858312826AC089818B3451F4809141
:100970001629882309F453C0E4E1F9E215821282B2
:100980005DC08981833559F480911629882309F443
:100990004BC0E4E1F9E281E0848312824FC0898197
:1009A000863451F480911629882309F442C0E4E189
:1009B000F9E21482128242C08981813451F480911B
:1009C00016298823C9F1E4E1F9E281E086831282E5
:1009D00035C08981843449F480911629882329F00F
:1009E000E4E1F9E21682128229C01092162926C08B
:1009F00089818981803509F0A9CF06C089818981E3
:100A0000883509F0B1CF06C0898189818B3409F01E
:100A1000B8CF05C089818981833509F605C08981F0
:100A20008981863449F605C089818981813489F6B6
:100A300003C089818981D9CF8981D7CF0F90DF9178
:100A4000CF91FF91EF91BF91AF919F918F917F9146
:100A50006F915F914F913F912F910F900BBE0F902F
:100A60000FBE0F901F9018951F920F920FB60F9206
:100A700011240BB60F928F939F93AF93BF93EF9375
:100A8000FF93EDEDF9E2A285B38581E08C930688B2
:100A9000F789E02D80819181A281B3810196A11D0A
:100AA000B11D80839183A283B383FF91EF91BF91A6
:100AB000AF919F918F910F900BBE0F900FBE0F9033
:100AC0001F9018951F920F920FB60F9211240BB61C
:100AD0000F928F939F93EF93FF938091232388230B
:100AE00009F443C080912423823019F128F488232B
:100AF00049F0813081F03EC0843019F1F0F085304A
:100B000031F138C0E3E2F3E210821382128280E412
:100B10008093A6062FC080912623873018F010926C
:100B2000242328C090E49093A7068F5F8093262308
:100B300021C080E48093A7061DC080E48093A506B1
:100B400019C080E48093A5061092242313C08091DD
:100B50002623853018F0109224230CC090E4909343
:100B6000A7068F5F8093262305C01092242380E47C
:100B70008093A606FF91EF919F918F910F900BBEEE
:100B80000F900FBE0F901F9018951F920F920FB6E7
:100B90000F9211248F9380E18093060610921629FC
:100BA0008F910F900FBE0F901F9018951F920F926C
:100BB0000FB60F9211240BB60F922F933F934F93C2
:100BC0005F936F937F938F939F93AF93BF93EF93B5
:100BD000FF9380E2809307061092EA2880911829FB
:100BE000882341F18091D3299091D429A091D529CE
:100BF000B091D6298F3926E8920721E0A207B105E6
:100C000060F40196A11DB11D8093D3299093D4293E
:100C1000A093D529B093D62908C01092D329109259
:100C2000D4291092D5291092D629109262261092BA
:100C30006326DEDDFF91EF91BF91AF919F918F9180
:100C40007F916F915F914F913F912F910F900BBECC
:100C50000F900FBE0F901F901895E3E2F3E281E032
:100C6000818380830895E3E2F3E282E0818381E07F
:100C700080830895E3E2F3E284E0818381E080836E
:100C80000895E3E2F3E285E0818381E080830895C3
:100C9000CF92DF92EF92FF92CF93DF938091472321
:100CA00090914823892B29F5E7E2F3E21082118223
:100CB0001282138214821582168217821086118680
:100CC000128613861486158616861786108A118A50
:100CD000128A138A148A158A168A178A108E118E20
:100CE000128E138E148E158E168E178E80E48093BE
:100CF0000506E0904723F090482382E3E816F104CC
:100D000008F08AC0C7E2D3E22091602330916123CA
:100D100040916223509163236C817D818E819F81FC
:100D20000E9451196C837D838E839F83E7E7F9E2EC
:100D300086819781092E000CAA0BBB0B488559852B
:100D40006A857B85840F951FA61FB71F88879987A3
:100D5000AA87BB8780859185092E000CAA0BBB0B47
:100D60004C855D856E857F85840F951FA61FB71FF7
:100D70008C879D87AE87BF8782859385092E000C5F
:100D8000AA0BBB0B488959896A897B89840F951FF7
:100D9000A61FB71F888B998BAA8BBB8BEDE1F9E25D
:100DA00086819781092E000CAA0BBB0B4C895D89AB
:100DB0006E897F89840F951FA61FB71F8C8B9D8B13
:100DC000AE8BBF8B80859185092E000CAA0BBB0BC7
:100DD000488D598D6A8D7B8D840F951FA61FB71F77
:100DE000888F998FAA8FBB8F82859385092E000CDF
:100DF000AA0BBB0B4C8D5D8D6E8D7F8D840F951F67
:100E0000A61FB71F8C8F9D8FAE8FBF8F8FEFE81AF5
:100E1000F80AE8A2F9A26BC0C7E2D3E220E030E012
:100E200048E452E46C817D818E819F810E94B919D2
:100E300060936A2370936B2380936C2390936D234C
:100E4000688579858A859B850F2EF2E3CF2ED12C7C
:100E5000E12CF12CF02DA70196010E94561D209344
:100E6000BF293093C0296C857D858E859F85A7011C
:100E700096010E94561D2093C1293093C22968898A
:100E800079898A899B89A70196010E94561D209322
:100E9000C3293093C4296C897D898E899F89A701D4
:100EA00096010E94561D2093672930936829688D0A
:100EB000798D8A8D9B8DA70196010E94561D2093E6
:100EC000692930936A296C8D7D8D8E8D9F8DA70148
:100ED00096010E94561D20936B2930936C2918A20D
:100EE00019A21AA21092172980E480930606DF91B6
:100EF000CF91FF90EF90DF90CF9008951092E72868
:100F00001092E828A4E1B9E21C9211961C92119764
:100F1000EDEDF9E281E59AE28087918787E799E232
:100F2000808391838DE199E2828393838CE593E2C0
:100F3000848395838AE793E286839783A287B38726
:100F40008AE493E28487958787EF99E2868797877B
:100F50008FE896E2808B918B8AE094E2828B938B70
:100F60008BED99E2848B958B8FEC99E2868B978B36
:100F700080E291E2808F918F0895FC019DE0908343
:100F80008AE081832BE2228329E423832EE42483D5
:100F900021E525832DE3268321E32783908781871D
:100FA000E85AFD4F108211820895CF92DF92EF929E
:100FB000FF92CF93DF93EC01888199810E945616AE
:100FC000888199810E94A8168C859D850E940412B3
:100FD0008C859D850E9448128C819D810E94C7123C
:100FE0008C819D810E94F8128C819D810E94221328
:100FF0008A819B810E945F148885998589D9ECE557
:10100000F3E2C288D388E488F58826893789408D41
:10101000518DC701B6010E94441B181644F4C092BA
:101020007223D0927323E0927423F0927523DF91A0
:10103000CF91FF90EF90DF90CF9008958F929F9285
:10104000AF92BF92CF92DF92EF92FF92CF93DF9356
:101050009C0190911A29911108C010921B2910929D
:10106000242382E080936606A1C140911B2950E0B1
:101070004A30510508F09AC1D901FA018827E95F81
:10108000FE4F8F4F0C94721DC090F729D090F82915
:10109000E090F929F090FA2920E030E040E450E4B3
:1010A000C701B6010E94441B1816B4F420E030E0DA
:1010B00040E251E460917623709177238091782308
:1010C000909179230E94441B181634F4E4E1F9E26C
:1010D00081E0858384E0878320E030E040E050E4D5
:1010E000C701B6010E94B519882314F5CCE5D3E2F7
:1010F00026E636E646E65FE36E857F858889998930
:101100000E94481B4B015C012DEC3CEC4CEC5DE378
:101110006C817D818E819F810E94481B9B01AC0167
:10112000C501B4010E9451196E877F87888B998B06
:1011300020E030E040E050E4C701B6010E94441BCB
:1011400018160CF497DDECE5F3E282899389A48903
:10115000B589868B978BA08FB18F28C120E030E0B6
:10116000A9016091F7297091F8298091F92990914E
:10117000FA290E94B51988230CF018C120E030E04C
:1011800048E452E460910B2A70910C2A80910D2A58
:1011900090910E2A0E94441B18160CF007C120E003
:1011A00030E048E452E46091072A7091082A809167
:1011B000092A90910A2A0E94441B18160CF0F6C0C6
:1011C0006091CF297091D0298091D1299091D22915
:1011D0000E94521A609318217093192180931A214A
:1011E00090931B2182E080931B29E0C06091CF295E
:1011F0007091D0298091D1299091D2290E94521AC0
:101200006B017C0120E030E040E251E46091182164
:101210007091192180911A2190911B210E945119DE
:101220009B01AC01C701B6010E94441B18160CF0CB
:10123000BDC0C0921821D0921921E0921A21F092DB
:101240001B2183E080931B29B1C06091CF2970914D
:10125000D0298091D1299091D2290E94521A6B01F4
:101260007C0120E030E040EA51E460911821709167
:10127000192180911A2190911B210E9451199B01E3
:10128000AC01C701B6010E94441B18160CF08EC0B9
:1012900084E080931B298AC0ECE5F3E2228933893C
:1012A0004489558966897789808D918D0E9450196E
:1012B00020E030E040E251E40E94441B18160CF09C
:1012C00075C020E030E0A90160917623709177230A
:1012D00080917823909179230E94B51988230CF08E
:1012E00065C085E080931B2961C0B7DC86E08093F0
:1012F0001B295CC01E96CD91DC911F9720E030E049
:1013000048EC53E46C897D898E899F890E94B519C8
:1013100088231CF487E080931B2920E030E040EF15
:1013200051EC688979898A899B890E94B51988233B
:101330000CF03CC087E080931B2938C0A2DC88E019
:1013400080931B2933C020E030E048E453E46091EF
:101350006E2370916F2380917023909171230E946E
:10136000B51988231CF5C0907623D0907723E090A0
:101370007823F090792320E030E040E85FE3C70174
:10138000B6010E94B51988238CF420E030E040E8D3
:101390005FEBC701B6010E94441B18163CF489E0BC
:1013A00080931B2903C05FDC10921929DF91CF9134
:1013B000FF90EF90DF90CF90BF90AF909F908F9075
:1013C000089580E2ADD6AFD6AFD6E5D74FD737D7A1
:1013D0004CD762D788E290E0A8D68AEF90E0C6D6D4
:1013E00082E390E0E4D688EE93E002D787DDACD7C5
:1013F0000E9445160E94BA120E94FD110E94AF136E
:10140000AFD780E071D5CBD560931C2170931D219F
:1014100080931E2190931F2187E08093A20008955E
:10142000CF93DF93CDB7DEB76697CDBFDEBF86E142
:10143000E0E0F0E2DE01119601900D928A95E1F76D
:10144000E0E8F6E0808580FFFDCF808581FFFACF60
:10145000E3E2F3E283E0818381E0808389D52FEFAB
:1014600087EA91E6215080409040E1F700C00000FB
:101470008981882371F0FE013296A0EAB9E08C934D
:101480008FE79EE30197F1F700C000008191811181
:10149000F6CF1092232310921C2110921D2110923E
:1014A0001E2110921F216696CDBFDEBFDF91CF9126
:1014B00008954F925F926F927F929F92AF92BF92E8
:1014C000CF92DF92EF92FF920F931F93CF93DF9310
:1014D000CDB7DEB7CA5BD109CDBFDEBF10921929E7
:1014E000E3E2F3E283E0818381E080832FEF87E80A
:1014F00093E1215080409040E1F700C0000010824D
:10150000E0E8F6E0808581FFFDCF86EAE6E1F0E2E3
:10151000DE01119601900D928A95E1F784E1ECEBE2
:10152000F0E2DE01A955BF4F01900D928A95E1F7D7
:101530008981882389F0FE013296A0EAB9E08C9374
:101540002FEF89EF90E0215080409040E1F700C0FC
:10155000000081918111F3CFEFEFF7EA21E6E1502E
:10156000F0402040E1F700C0000084E080930506D1
:1015700081E071D483E052D480E050D480E04ED436
:1015800080E04CD4912CC12CD12C76010F2EF0EAA6
:10159000AF2EF9E0BF2EF02D0F2EF4E64F2E512C7A
:1015A000612C712CF02D00E816E04BD48F3F21F018
:1015B000F5018083912C01C09394FFEFCF1ADF0ACD
:1015C000EF0AFF0AC701B601A30192010E94341D70
:1015D000672B682B692B51F42FEF89EF90E0215096
:1015E00080409040E1F700C0000006C0EFE1F3E06A
:1015F0003197F1F700C00000F801808580FF03C03B
:10160000F3E6F91590F680E026D4C955DF4F8881BE
:10161000C75AD040882379F0FE01E855FF4FA0EA71
:10162000B9E08C938FE39FE10197F1F700C00000D0
:1016300081918111F6CFC654DF4FCDBFDEBFDF9160
:10164000CF911F910F91FF90EF90DF90CF90BF90BF
:10165000AF909F907F906F905F904F9008958FE82C
:1016600096E28BDCC5D8E0E0F6E088E085832FEFDA
:1016700037E893E1215030409040E1F700C000008E
:1016800086832FEF33EC99E0215030409040E1F712
:1016900000C0000085832FEF37E893E121503040F0
:1016A0009040E1F700C0000086832FEF33EC89E023
:1016B000215030408040E1F700C000000895809143
:1016C000880680FD06C08091880681FD02C0A8CEF4
:1016D00008958091880681FFECCE08952F923F9265
:1016E0004F925F926F927F928F929F92AF92BF9232
:1016F000CF92DF92EF92FF920F931F93CF93DF93DE
:10170000FC0124883588D1018C918230E9F0833046
:10171000B1F1C081D1814C895D896E897F89C88C86
:10172000D98CEA8CFB8C0C8D1D8D2E8D3F8D8CA160
:101730009DA1AEA1BFA188A499A4AAA4BBA44CA4B6
:101740005DA46EA47FA435C0C081D181488D598D20
:101750006A8D7B8DCC88DD88EE88FF880C8D1D8D91
:101760002E8D3F8D88A599A5AAA5BBA58CA09DA06F
:10177000AEA0BFA04CA45DA46EA47FA41AC0C0817B
:10178000D1814C8D5D8D6E8D7F8DC88CD98CEA8C0E
:10179000FB8C0C891D892E893F898CA59DA5AEA542
:1017A000BFA588A499A4AAA4BBA44CA05DA06EA0C8
:1017B0007FA0E1013980332011F07058B058C68500
:1017C000D785488359836A837B83C685D785CC8236
:1017D000DD82EE82FF82C685D785088719872A8732
:1017E0003B87C685D78588A399A3AAA3BBA3A68553
:1017F000B78594968D929D92AD92BC929797A6854F
:10180000B78598964D925D926D927C929B97A68536
:10181000B785C481D5814A895B896C897D89549655
:101820004D935D936D937C935797A685B785048000
:10183000F581E02D428D538D648D758D50964D93BD
:101840005D936D937C935397DF91CF911F910F918F
:10185000FF90EF90DF90CF90BF90AF909F908F90D0
:101860007F906F905F904F903F902F9008952F92B0
:101870003F924F925F926F927F928F929F92AF9220
:10188000BF92CF92DF92EF92FF920F931F93CF936D
:10189000DF93CDB7DEB7A097CDBFDEBF1C011982A5
:1018A0001A821B821C821D821E821F821886198644
:1018B0001A861B861C861D861E861F86188A198A14
:1018C0001A8A1B8A1C8A1D8A1E8A1F8A188E198EE4
:1018D0001A8E1B8E1C8EDC011E960D911C911F977B
:1018E0000F2EF4E6FF2EF02D8DED99E25EDB8DEDEF
:1018F00099E2F4DE6D817E818F819885F8012081E7
:101900003181428153810E9451196D837E838F837F
:10191000988769857A858B859C85D80114962D9149
:101920003D914D915C9117970E94511969877A8773
:101930008B879C876D857E858F859889F8012085AA
:101940003185428553850E9451196D877E878F8727
:10195000988BFA94F110C8CF6D817E818F81988524
:1019600020E030E048EC52E40E94B9196D837E8398
:101970008F83988769857A858B859C8520E030E008
:1019800048EC52E40E94B91969877A878B879C8753
:101990006D857E858F85988920E030E048EC52E4A3
:1019A0000E94B9196D877E878F87988BD8018D909B
:1019B0009D90AD90BC9013971496CD90DD90ED90D6
:1019C000FC90179718964D905D906D907C901B97AA
:1019D000A5019401C501B4010E94481B6D8F7E8F43
:1019E0008F8F98A3A7019601C701B6010E94481BDB
:1019F0009B01AC016D8D7E8D8F8D98A10E94511938
:101A00006D8F7E8F8F8F98A3A5019401C501B401BE
:101A10000E94481B4B015C01A7019601C701B6015A
:101A20000E94481B9B01AC01C501B4010E945119E1
:101A30006B017C01A3019201C301B2010E94481B0A
:101A40009B01AC01C701B6010E9451190E94FB1B0A
:101A500069837A838B839C838D819E81AF81B885D6
:101A6000BF77898B9A8BAB8BBC8B89859A85AB852D
:101A7000BC85BF778D8B9E8BAF8BB88F8D859E85F8
:101A8000AF85B889BF77898F9A8FAB8FBC8F6981FB
:101A90007A818B819C810E94211A9B01772324F4F7
:101AA00022273327261B370BB901330F880B990BDD
:101AB0000E94541A26E636E646E65FE30E94B51910
:101AC00088230CF4AEC069817A818B819C810E944D
:101AD000211A9B01772324F422273327261B370B57
:101AE000B901330F880B990B0E94541A2DEC3CEC72
:101AF0004CE85FE30E94441B18160CF494C06989FB
:101B00007A898B899C892D893E894F89588D0E94BD
:101B1000441B1816A4F469897A898B899C89298DBC
:101B20003A8D4B8D5C8D0E94441B181644F4D101F4
:101B30005496ED91FC91559781E0808327C06D8983
:101B40007E898F89988D29893A894B895C890E9481
:101B5000441B1816A4F46D897E898F89988D298D70
:101B60003A8D4B8D5C8D0E94441B181644F4D101B4
:101B70005496ED91FC91559782E0808307C0D10186
:101B80005496ED91FC91559783E08083F10104898F
:101B90001589D8018C918230A1F0833019F1813000
:101BA00081F56D817E818F8198852DEC3CEC4CEC2C
:101BB0005DE30E94B519882324F581E0F801818353
:101BC00020C069857A858B859C852DEC3CEC4CEC9E
:101BD0005DE30E94B5198823A4F481E0D801119631
:101BE0008C930FC06D857E858F8598892DEC3CEC9C
:101BF0004CEC5DE30E94B51988231CF481E0F801E8
:101C00008183E98CFA8C0B8D1C8D2D893E894F893F
:101C1000588D69897A898B899C890E94391880E05E
:101C200003C081E001C081E0A096CDBFDEBFDF919F
:101C3000CF911F910F91FF90EF90DF90CF90BF90C9
:101C4000AF909F908F907F906F905F904F903F905C
:101C50002F900895E7E2F3E210A211A281E082A39F
:101C6000809317290895E4E1F9E2158281E08483E5
:101C70001092EA28A6DB8DED99E2F9DD7894EFDC8D
:101C80001EDDE8DFC4E1D9E20F2EFFECAF2EF9E252
:101C9000BF2EF02D0F2EF9EECF2EF8E2DF2EF02D15
:101CA0000F2EF5E88F2EF2E09F2EF02D0F2EE12C57
:101CB000F6E0FF2EF02D6894772472F807E213E225
:101CC0002AE02A95F1F700C088818823C9F3188299
:101CD0008DED99E26AD98DED99E200DD8DED99E205
:101CE000ADD98DED99E20E94A6178D81882309F167
:101CF0004AE054E260E971E08CE191E27DD1F501C6
:101D000080859185A285B3858F33F2E49F07FFE03C
:101D1000AF07B10548F40196A11DB11DF5018087FB
:101D20009187A287B38705C0F501108611861286B8
:101D30001386F6018081811109C0EAE0F4E2AFE880
:101D4000B6E2C40101900D920197E1F7F7017782A5
:101D5000F80182A1882309F4B3CF0E944806B0CFCE
:101D6000E0E8F4E094819923ECF7882319F087E008
:101D70008093830480918704089580938604E0E82B
:101D8000F4E0848186FFFDCF60938704E0E8F4E00F
:101D9000848186FFFDCF40938704E0E8F4E08481EE
:101DA00086FFFDCF83E0809383040895FF920F9315
:101DB0001F93CF93DF93F22E80938604E0E8F4E044
:101DC000948196FFFDCF60938704E0E8F4E094816E
:101DD00096FFFDCFE0E8F4E091E093838160868395
:101DE000042F10E0015011091016110664F4CF2DD4
:101DF000D32F80E0B5DF89938C2F8F1990E0801767
:101E00009107BCF302C0CF2DD32F81E0A9DF8883D7
:101E1000DF91CF911F910F91FF900895CF93DF93A2
:101E20001F92CDB7DEB78093C308E0ECF8E0828163
:101E30008823ECF78091C30889830F90DF91CF91BD
:101E400008951092C308E0ECF8E082818823ECF753
:101E50008091C3080895882321F081E0809366066D
:101E6000089581E08093650608951F93CF93DF93D3
:101E7000C0E6D6E011E01E8386E0D0DF1D83DF914F
:101E8000CF911F9108951F93CF93DF93C0E6D6E0C3
:101E900011E01E8384E0C2DF1D83DF91CF911F918B
:101EA0000895DF92EF92FF920F931F93CF93DF93EA
:101EB000F62EE72ED82E042FD8DFC0E6D6E011E0AC
:101EC0001E8382E0ABDF8D2DA9DF8E2DA7DF8F2D46
:101ED000A5DF802FA3DF1D83DF91CF911F910F918D
:101EE000FF90EF90DF9008951F93CF93DF938823A7
:101EF00091F0C0E6D6E011E01E8380E58FDF1D8300
:101F00008AE08A95F1F700C01E8381E087DF8CE1CB
:101F100085DF1D8311C0C0E6D6E011E01E8380E599
:101F20007DDF1D838AE08A95F1F700C01E8381E082
:101F300075DF80E073DF1D83DF91CF911F910895DE
:101F4000CF93DF931F92CDB7DEB781E08093660613
:101F500085E064DF76DF898374DF8983898180FD92
:101F6000FBCF81E0809365060F90DF91CF910895BC
:101F70001F93CF93DF9379DFC0E6D6E011E01E8395
:101F800080E64CDF1D838FE193E00197F1F700C0FD
:101F90000000D6DF78DFDF91CF911F910895CF92B7
:101FA000DF92EF92FF9281E08093660683E036DF56
:101FB00080E034DF80E032DF80E030DFC12CD12CE4
:101FC00076010DC08FEFC81AD80AE80AF80A80EA2D
:101FD000C8168FE8D8068EE3E806F10419F031DF61
:101FE0008F3F81F781E080936506C701B601FF90BE
:101FF000EF90DF90CF9008958F929F92AF92BF9213
:10200000CF92DF92EF92FF920F931F93CF93DF93C4
:102010004B01FA01DC014D915D916D917C91403D48
:102020005E4F6F437105B8F524E0209305064081AB
:10203000442371F1A12CB12C81149104A104B104A9
:1020400039F18F01EC010F5F1F4FC12CD12C7601AC
:10205000EFEFCE1ADE0AEE0AFE0A688179818A81E4
:102060009B811FDF6DDF88819981AA81BB810196E9
:10207000A11DB11D88839983AA83BB83D8014D918B
:102080008D01442329F0C814D904EA04FB0401F7A4
:1020900084E080930606DF91CF911F910F91FF900E
:1020A000EF90DF90CF90BF90AF909F908F9008956A
:1020B000E0E5F0E0908191609083A8E6B0E090E4E4
:1020C00012969C9312979DE013969C939081946036
:1020D0009083918192FFFDCFE0E5F0E09681987FBB
:1020E0009683E8E6F0E0908191609083E0E5F0E08F
:1020F000918190FFFDCF98ED94BF10924000E0E5F4
:10210000F0E090819F7E9083858380E18083818150
:1021100084FFFDCF88ED84BF84E080934000089564
:102120008695C6CF08950895089527E02093000866
:102130001092010810922008109221089C01A0E042
:10214000BDE70E947A1DDC01CB01072E7AE0B6952F
:10215000A795979587957A95D1F7702D8093260846
:102160009093270882E080930608089527E0209343
:1021700000091092010910922009109221099C0176
:10218000A0E0BDE70E947A1DDC01CB01072E7AE0BA
:10219000B695A795979587957A95D1F7702D8093E9
:1021A00026099093270981E080930609089527E086
:1021B0002093000A1092010A1092200A1092210A1C
:1021C0009C01A0E0BDE70E947A1DDC01CB01072E37
:1021D0007AE0B695A795979587957A95D1F7702D62
:1021E0008093260A9093270A82E08093060A089536
:1021F00027E02093000B1092010B1092200B1092FD
:10220000210B813D27E0920710F080ED97E09C01C3
:10221000A0E0BDE70E947A1DDC01CB01072E7AE029
:10222000B695A795979587957A95D1F7702D809358
:10223000260B9093270B82E08093060B0895E0EA2B
:10224000F6E084E0868388E085838183E0EAFBE032
:1022500083E0858387E1868384EA87838381806145
:10226000838384818861848308950895E0E6F6E09D
:1022700084E0868388E085838183E0EAF9E083E077
:10228000858387E1868384EA878383818C61838366
:102290008481886184830895CF93DF9388E180935C
:1022A000900680939106A0E0B6E08C9181608C93BB
:1022B000E6E0F6E021E020838C918C678C938CE73C
:1022C0008083A0EAB6E08C9180648C9366EA76E025
:1022D00050E4DB015C9334E03093410630934606D2
:1022E000C1E6D6E082E08883A6E6B6E08C933C9314
:1022F00048E0488390E298839C93DB013C934093B1
:10230000A5064093A10633E030934006309344067F
:10231000A2EEB7E02C938C93A2E8B6E030E13C93B8
:102320009C93A2EAB6E02C938C933C933093620684
:10233000808380E88083E6E2F6E020839083508308
:102340008083DF91CF910895E0E8F4E080E381831A
:1023500091E092838583818188608183948308954D
:10236000E0E4F6E080E1818380EA818380E4828397
:1023700080EE8583E0E6F6E081E08183858381E578
:102380008093C0080895AAECB1E022E02C93FC01F0
:1023900084911C9208951F93CF93DF93C0E0D2E005
:1023A00011E0188380E290E0EEDF8C8781E290E01C
:1023B000EADF8D8719821A8283E08C8318A3DF916C
:1023C000CF911F91089592E390938604E0E8F4E0A2
:1023D000948196FFFDCF80938704E0E8F4E0848148
:1023E00086FFFDCF60938704E0E8F4E0848186FFF8
:1023F000FDCF83E08093830408956FE280E2E3DF02
:1024000060E383E2E0CF0895CF92DF92EF92FF92F4
:102410000F931F93CF93DF938C0182E38093860405
:10242000E0E8F4E0948196FFFDCF88EA809387048A
:10243000E0E8F4E0948196FFFDCFE0E8F4E081E08D
:10244000838383E3868380E08BDCC82ED12C80E0FD
:1024500087DCD82A80E084DCE82EF12C80E080DC68
:10246000F82A80E07DDCC82FD0E081E079DCF8013B
:10247000C082D182E282F382D82BC483D583DF91DC
:10248000CF911F910F91FF90EF90DF90CF90089523
:102490000F931F93CF93DF93CDB7DEB72C97CDBFAC
:1024A000DEBF8C01FC0160817181072E000C880B5E
:1024B000990BFAD720E030E040E45AE30E94481B31
:1024C00069837A838B839C83F80162817381072EF1
:1024D000000C880B990BE8D720E030E040E45AE389
:1024E0000E94481B6D837E838F839887F8016481E7
:1024F0007581072E000C880B990BD6D720E030E0B1
:1025000040E45AE30E94481B69877A878B879C873F
:1025100069817A818B819C812BE83DEF45E65EE302
:10252000C0D6F80166837783808791876D817E812D
:102530008F8198852BE83DEF45E65EE3B2D6F80142
:10254000628773878487958769857A858B859C8563
:102550002BE83DEF45E65EE3A3D6F8016687778773
:10256000808B918B2C96CDBFDEBFDF91CF911F91D9
:102570000F9108954FE060E188EBFFDB41E063E2FB
:1025800088EBFBDB40EC60E288EBF7CB08950F9320
:102590001F93CF93DF93CDB7DEB72A97CDBFDEBFB2
:1025A0008C019E012F5F3F4F45E068EA88EBFEDB20
:1025B0008A814B8150E060E070E0BA0155274427E2
:1025C000582B8981482BF8014083518362837383A0
:1025D0008D8190E0982F88272C81822B808791878E
:1025E0002A96CDBFDEBFDF91CF911F910F91089545
:1025F000CF93DF93EC01688179818A819B8152D7E7
:1026000020E030E040E859E30E94481B6C837D8362
:102610008E839F8368857985072E000C880B990B24
:1026200043D720E030E040EF53E4A3D620E030E091
:102630004AE252E436D66A877B878C879D87DF9192
:10264000CF9108954F925F926F927F928F929F9257
:10265000AF92BF92CF92DF92EF92FF92CF93DF9330
:10266000EC0120E030E0A9016E857F858889998999
:102670007CD6811108C08C819D81AE81BF818E87FF
:102680009F87A88BB98B2E853F85488959896C8196
:102690007D818E819F816DD62EE534ED42E45EE32F
:1026A0000E94AB1B2B013C018A889B88AC88BD88AB
:1026B0002DEC3CEC4CE45FE3C501B401E9D76B01C0
:1026C0007C01A301920160E070E080E89FE3E8D51F
:1026D00020E032E14AE257E4DBD72DEC3CEC4CE45D
:1026E0005EE3D6D79B01AC01C701B601DAD56B0119
:1026F0007C016A8B7B8B8C8B9D8B26E636E646E6CF
:102700005FE36A8D7B8D8C8D9D8DC2D72B013C0143
:10271000A5019401C701B601C3D52DEC3CEC4CECEE
:102720005DE3B6D720E030E048EC51E4B1D79B013F
:10273000AC01C301B201B5D56A8F7B8F8C8F9D8FA1
:10274000DF91CF91FF90EF90DF90CF90BF90AF904F
:102750009F908F907F906F905F904F90089584ED41
:1027600080938604E0E8F4E0848186FFFDCF80E278
:1027700080938704E0E8F4E0848186FFFDCF8FEB4F
:1027800080938704E0E8F4E0848186FFFDCFE0E8F1
:10279000F4E083E0838384ED8683848186FFFDCF2C
:1027A00083E280938704E0E8F4E0848186FFFDCF34
:1027B00080E280938704E0E8F4E0848186FFFDCF27
:1027C000E0E8F4E083E083838AE38683848186FF04
:1027D000FDCF80E280938704E0E8F4E0848186FF07
:1027E000FDCF87E880938704E0E8F4E0848186FFEA
:1027F000FDCFE0E8F4E083E083838AE3868384818D
:1028000086FFFDCF81E280938704E0E8F4E08481D5
:1028100086FFFDCF80E680938704E0E8F4E08481C2
:1028200086FFFDCFE0E8F4E083E083838AE38683DC
:10283000848186FFFDCF84E280938704E0E8F4E0A2
:10284000848186FFFDCF80EF80938704E0E8F4E089
:10285000848186FFFDCFE0E8F4E083E083838AE3B0
:102860008683848186FFFDCF85E280938704E0E83C
:10287000F4E0848186FFFDCF10928704E0E8F4E065
:10288000848186FFFDCFE0E8F4E083E083838AE380
:102890008683848186FFFDCF86E280938704E0E80B
:1028A000F4E0848186FFFDCF10928704E0E8F4E035
:1028B000848186FFFDCF83E08093830408950F9386
:1028C0001F93CF93DF93EC0184ED80938604E0E8BF
:1028D000F4E0848186FFFDCF88EA80938704E0E8F6
:1028E000F4E0848186FFFDCF00E814E081E0F80188
:1028F000838385ED868380E033DA90E08E839F8347
:1029000080E02EDA2E813F81382B2E833F8380E0BA
:1029100027DA90E08887998780E022DA2885398550
:10292000382B2887398780E01BDA90E08A879B87DD
:1029300081E016DA2A853B85382B2A873B878AE394
:10294000F8018683848186FFFDCF88E88093870421
:10295000E0E8F4E0848186FFFDCF00E814E081E048
:10296000F80183838BE3868380E0FAD990E08E8739
:102970009F8780E0F5D92E853F85382B2E873F87AE
:1029800080E0EED990E0888B998B80E0E9D92889A6
:102990003989382B288B398B80E0E2D990E08A8BFB
:1029A0009B8B81E0DDD92A893B89382B2A8B3B8B95
:1029B0008AE3F8018683848186FFFDCF88EA8093CD
:1029C0008704E0E8F4E0848186FFFDCF00E814E0AE
:1029D00081E0F80183838BE3868380E0C1D990E0B6
:1029E0008883998380E0BCD928813981382B28835A
:1029F000398380E0B5D990E08A839B8380E0B0D9A9
:102A00002A813B81382B2A833B8380E0A9D990E03F
:102A10008C839D8381E0A4D92C813D81382B2C832C
:102A20003D838AE3F8018683848186FFFDCF85E8B4
:102A300080938704E0E8F4E0848186FFFDCFE0E83E
:102A4000F4E081E083838BE3868380E089D990E0A2
:102A50008C879D8781E084D90C851D85182B0C8778
:102A60001D87FE01EC5BFF4F688179818081918138
:102A7000681B790B072E000C880B990B15D52AE5DE
:102A800034E64BE35FE304D620E030E04AE754E469
:102A900070D46C8B7D8B8E8B9F8BFE01EA5BFF4F1E
:102AA0006A817B8180819181681B790B072E000CE4
:102AB000880B990BF9D42AE534E64BE35FE3E8D5BC
:102AC00020E030E04AE754E454D4688F798F8A8F4D
:102AD0009B8FFE01E85BFF4F6C817D81808191813E
:102AE000681B790B072E000C880B990BDDD42AE5A7
:102AF00034E64BE35FE3CCD520E030E04AE754E432
:102B000038D46C8F7D8F8E8F9F8FFE01E65BFF4FD9
:102B10006E817F8180819181681B790B072E000C6B
:102B2000880B990BC1D420E030E04AE755E4B0D5DA
:102B300020E030E040E857E3ABD56CA37DA38EA343
:102B40009FA3FE01E45BFF4F6885798580819181B9
:102B5000681B790B072E000C880B990BA5D420E07D
:102B600030E04AE755E494D520E030E040E857E310
:102B70008FD568A779A78AA79BA7FE01E25BFF4FC5
:102B80006A857B8580819181681B790B072E000CFB
:102B9000880B990B89D420E030E04AE755E478D5DA
:102BA00020E030E040E857E373D56CA77DA78EA7FF
:102BB0009FA7FE01E05BFF4F6E857F85808191813D
:102BC000681B790B072E000C880B990B6DD420E045
:102BD00030E040E850E45CD52AE037ED43E254E4CD
:102BE000C8D36CAB7DAB8EAB9FABFE01EE5AFF4FF3
:102BF0006889798980819181681B790B072E000C87
:102C0000880B990B51D420E030E040E850E440D5E7
:102C10002AE037ED43E254E4ACD368AF79AF8AAF32
:102C20009BAFFE01EC5AFF4F6A897B8980819181BD
:102C3000681B790B072E000C880B990B35D420E00C
:102C400030E040E850E424D52AE037ED43E254E494
:102C500090D36CAF7DAF8EAF9FAFB801110F880BD3
:102C6000990B22D420E030E040E05EE311D520E073
:102C700030E048EA51E415D368AB79AB8AAB9BAB43
:102C8000DF91CF911F910F91089542E06BE680EDA7
:102C900074D842E06AE180ED70D848E16BE180EDE4
:102CA0006CD848E16CE180ED68C808950F931F93DC
:102CB000CF93DF93CDB7DEB76497CDBFDEBF8C0176
:102CC0009E012F5F3F4F4EE06BE380ED6FD889810F
:102CD00090E0982F88272A81822BF80180839183A6
:102CE0008B8190E0982F88272C81822B828393837D
:102CF0008D8190E0982F88272E81822B8483958365
:102D00008F8190E0982F88272885822B848795874C
:102D1000898590E0982F88272A85822B8683978340
:102D20008B8590E0982F88272C85822B8087918730
:102D30008D8590E0982F88272E85822B8287938718
:102D40006496CDBFDEBFDF91CF911F910F910895A3
:102D5000CF93DF93EC012E853F85FC01EC5AFF4FAA
:102D600040814203B001439F700D1124672F770FFC
:102D7000770B620F731F072E000C880B990B94D3EF
:102D80002AE939E949E95EE383D46AAB7BAB8CABD2
:102D90009DAB28893989FE01EB5AFF4F40814203E0
:102DA000B001439F700D1124672F770F770B620FCF
:102DB000731F072E000C880B990B76D32AE939E98B
:102DC00049E95EE365D46EAB7FAB88AF99AF2A89E2
:102DD0003B89FE01EA5AFF4F40814203B001439F05
:102DE000700D1124672F770F770B620F731F072E5B
:102DF000000C880B990B58D32AE939E949E95EE3BD
:102E000047D46AAF7BAF8CAF9DAFFE01EE5BFF4F47
:102E10006881798180819181681B790B072E000C74
:102E2000880B990B41D320E030E040E05AE330D4E6
:102E30006C8B7D8B8E8B9F8BFE01EC5BFF4F6A81D1
:102E40007B8180819181681B790B072E000C880B98
:102E5000990B2AD320E030E040E05AE319D4688F80
:102E6000798F8A8F9B8FFE01EA5BFF4F6C817D819A
:102E700080819181681B790B072E000C880B990BC0
:102E800013D320E030E040E05AE302D46C8F7D8F12
:102E90008E8F9F8FFE01E85BFF4F6E817F81808167
:102EA0009181681B790B072E000C880B990BFCD2C3
:102EB00023E333E343E851E45CD26CA37DA38EA308
:102EC0009FA3FE01E65BFF4F688579858081918134
:102ED000681B790B072E000C880B990BE5D223E3B6
:102EE00033E343E851E445D268A779A78AA79BA7B3
:102EF000FE01E45BFF4F6A857B8580819181681BC1
:102F0000790B072E000C880B990BCED223E333E309
:102F100043E851E42ED26CA77DA78EA79FA76C85AE
:102F20007D85072E000C880B990BBED220E030EF78
:102F300049E356E4B6D120E030E048E052E419D24B
:102F400080D268AB79ABDF91CF910895CF93DF93B7
:102F5000DC011696CD91DC9117971E96ED91FC91B0
:102F60001F978CA51F928F93CE0180969F938F936E
:102F70000E979F938F932496DF93CF9383A18F9384
:102F800082A18F9381A18F9380A18F9383818F934F
:102F900082818F9381818F9380818F9383898F9397
:102FA00082898F9381898F9380898F9387898F936B
:102FB00086898F9385898F9384898F931896ED9155
:102FC000FC91199787818F9386818F9385818F9349
:102FD00084818F931A96ED91FC911B9787811F92A4
:102FE0008F935696ED91FC91579783818F938281B1
:102FF0008F9381818F9380818F9380ED90E29F9357
:103000008F9351968C9151978F9350968C918F936B
:1030100080D58DB79EB786968DBF9EBFDF91CF912D
:103020000895FC0180E380A381A382A383A384A3EA
:1030300085A386A387A380A781A7828B838B848B9C
:10304000858B868B878B808F818F828F838F848FF8
:10305000858F868F84838583868387838087818716
:10306000828783878487858786878787808B14A656
:1030700008954F925F926F927F928F929F92AF923C
:10308000BF92CF92DF92EF92FF920F931F93CF9355
:10309000DF93CDB7DEB76097CDBFDEBF2B013C011C
:1030A0002D833E834F835887470158019B01AC0114
:1030B000EFD26B017C012D813E814F815885CA0181
:1030C000B901E6D269837A838B839C839B01AC012F
:1030D000C701B601E6D06D877E878F87988BA501E3
:1030E0009401C501B401D4D269877A878B879C8704
:1030F00029813A814B815C81C701B601D2D06B0135
:103100007C0129853A854B855C85C701B601C9D00C
:1031100072D369837A838B839C83C301B2019F77C7
:1031200029813A814B815C8124D1ACD023EC35EFED
:1031300048E450E41ED120E030E044E353E4A8D258
:10314000F62EE72ED82EC92E6D817E818F8198852F
:103150009F7729813A814B815C810BD193D023ECFD
:1031600035EF48E450E405D120E030E044E353E497
:103170008FD2662E772E182F092FC501B4019F77A5
:1031800029813A814B815C81F4D07CD023EC35EFEE
:1031900048E450E4EED020E030E044E353E478D259
:1031A000B62EA72E982E892E262D372D412F502F43
:1031B0006F2D7E2D8D2D9C2DD8D018165CF02B2DCB
:1031C0003A2D492D582D6F2D7E2D8D2D9C2DCDD036
:1031D00018167CF5262D372D412F502F6F2D7E2D63
:1031E0008D2D9C2D51D288235CF02B2D3A2D492D0D
:1031F000582D662D772D812F902FB7D01816F4F407
:103200002B2D3A2D492D582D662D772D812F902F5E
:103210003BD28823B4F02B2D3A2D492D582D6F2DFC
:103220007E2D8D2D9C2D30D2882384F0192D082DD4
:1032300011C0BF2CAE2C1D2D0C2D0CC0B62CA72CF4
:1032400009C0B12CA12C10E000E004C0B12CA12CCD
:1032500010E000E06B2D7A2D812F902F6096CDBF6E
:10326000DEBFDF91CF911F910F91FF90EF90DF9024
:10327000CF90BF90AF909F908F907F906F905F9016
:103280004F9008959F939F774AD10F9000203AF472
:103290009058A2EA2AED3FE049E450E413D0BAC1C5
:1032A0005058BB27AA270ED0B5C1A6D130F0ABD15C
:1032B00020F031F49F3F11F41EF476C10EF4E09536
:1032C000E7FB6CC1E92FB7D180F3BA176207730728
:1032D0008407950718F071F49EF5CFC10EF4E095C0
:1032E0000B2EBA2FA02D0B01B90190010C01CA01C0
:1032F000A0011124FF27591B99F0593F50F4503E6B
:1033000068F11A16F040A22F232F342F4427585F5C
:10331000F3CF469537952795A795F0405395C9F774
:103320007EF41F16BA0B620B730B840BBAF091502C
:10333000A1F0FF0FBB1F661F771F881FC2F70EC0CB
:10334000BA0F621F731F841F48F48795779567959E
:10335000B795F7959E3F08F0B3CF9395880F08F087
:103360009927EE0F979587950895F4D008F481E09A
:1033700008950CD04FC147D140F03ED130F021F438
:103380005F3F19F00BC1511179C10EC154D198F3AF
:103390009923C9F35523B1F3951B550BBB27AA27D6
:1033A00062177307840738F09F5F5F4F220F331F48
:1033B000441FAA1FA9F333D00E2E3AF0E0E830D014
:1033C00091505040E695001CCAF729D0FE2F27D017
:1033D000660F771F881FBB1F261737074807AB07E5
:1033E000B0E809F0BB0B802DBF01FF2793585F4F5A
:1033F0002AF09E3F510568F0D1C040C15F3FECF319
:10340000983EDCF3869577956795B795F7959F5F1E
:10341000C9F7880F911D9695879597F90895E1E072
:10342000660F771F881FBB1F621773078407BA07D1
:1034300020F0621B730B840BBA0BEE1F88F7E0952C
:10344000089504D06894B11119C10895FCD088F092
:103450009F5790F0B92F9927B751A0F0D1F0660F80
:10346000771F881F991F1AF0BA95C9F712C0B1309B
:1034700081F003D1B1E0089500C1672F782F88272C
:10348000B85F39F0B93FCCF3869577956795B395DA
:10349000D9F73EF490958095709561957F4F8F4F49
:1034A0009F4F0895E89409C097FB3EF4909580954E
:1034B000709561957F4F8F4F9F4F9923A9F0F92FFA
:1034C00096E9BB279395F695879577956795B79578
:1034D000F111F8CFFAF4BB0F11F460FF1BC06F5F5E
:1034E0007F4F8F4F9F4F16C0882311F096E911C070
:1034F000772321F09EE8872F762F05C0662371F091
:1035000096E8862F70E060E02AF09A95660F771FA4
:10351000881FDAF7880F9695879597F90895DF93B6
:10352000CF931F930F938B01EC01E2E2F2E03FD0C7
:1035300071D09801AE018B01EC0160E070E080E891
:103540009FE3AEDE58D19801AE010F911F91CF914C
:10355000DF91AAC0990F0008550FAA0BE0E8FEEF13
:1035600016161706E807F907C0F012161306E40747
:10357000F50798F0621B730B840B950B39F40A2640
:1035800061F0232B242B252B21F408950A2609F41E
:10359000A140A6958FEF811D811D089597F99F6722
:1035A00080E870E060E008959FEF80EC0895DF937D
:1035B000CF931F930F93FF92EF92DF927B018C01C9
:1035C000689405C0DA2EEF016FD0FE01E894A59152
:1035D0002591359145915591AEF3EF0173DEFE01D2
:1035E0009701A801DA9479F7DF90EF90FF900F919F
:1035F0001F91CF91DF91089500240A9416161706A3
:1036000018060906089500240A94121613061406D3
:1036100005060895092E0394000C11F4882352F036
:10362000BB0F40F4BF2B11F460FF04C06F5F7F4FEE
:103630008F4F9F4F089557FD9058440F551F59F0D5
:103640005F3F71F04795880F97FB991F61F09F3F8F
:1036500079F087950895121613061406551FF2CFB8
:103660004695F1DF08C0161617061806991FF1CF08
:1036700086957105610508940895E894BB2766272F
:103680007727CB0197F9089565DF08F48FEF089548
:103690000BD0C0CFB1DF28F0B6DF18F0952309F0CA
:1036A0007DCF82CF1124EACFC6DFA0F3959FD1F35F
:1036B000950F50E0551F629FF001729FBB27F00DE0
:1036C000B11D639FAA27F00DB11DAA1F649F662735
:1036D000B00DA11D661F829F2227B00DA11D621F84
:1036E000739FB00DA11D621F839FA00D611D221F3E
:1036F000749F3327A00D611D231F849F600D211D22
:10370000822F762F6A2F11249F5750408AF0E1F0C4
:1037100088234AF0EE0FFF1FBB1F661F771F881F0D
:1037200091505040A9F79E3F510570F037CFA6CF7A
:103730005F3FECF3983EDCF3869577956795B795F8
:10374000F795E7959F5FC1F7FE2B880F911D969522
:10375000879597F90895FA01EE0FFF1F309621051E
:10376000310599F16115710561F48038BFE39B075C
:1037700049F168949038810561F08038BFEF9B076C
:1037800041F0992342F5FF3FE1053105210511F193
:10379000E8940894E795D901AA2329F4AB2FBE2F0A
:1037A000F85FD0F310C0FF5F70F4A695E0F7F7392B
:1037B00050F019F0FF3A38F49F779F930CD00F9098
:1037C00007FC905808953EF0EFCE60E070E080E88E
:1037D0009FE308954FE79F775F934F933F932F9316
:1037E000D0D02F913F914F915F9152DF47C011F49C
:1037F0000EF4DACE6FC027DFD0F39923D9F3CEF3DE
:103800009F57550B87FF74D00024A0E640EA900133
:1038100080585695979528F4805C660F771F881F0F
:1038200020F026173707480730F4621B730B840B10
:10383000202931294A2BA695179407942025312554
:103840004A2758F7660F771F881F20F0261737077B
:10385000480730F4620B730B840B200D311D411DA2
:10386000A09581F7B901842F9158880F9695879577
:10387000089519F40EF092CE00CF96CEE4DEC8F390
:103880009638C0F707F80F92E8942BE33AEA48EB32
:103890005FE70CDF0F920F920F924DB75EB70F925A
:1038A000B0D0EAE4F2E083DE4F915F91EF91FF91B7
:1038B000E595EE1FFF1F49F0FE57E0684427EE0F25
:1038C000441FFA95E1F74195550B22D00F9007FE62
:1038D00016C008959F3F31F0915020F48795779559
:1038E0006795B795880F911D9695879597F90895D7
:1038F00091505040660F771F881FD2F708959B01A3
:10390000AC0160E070E080E89FE333CD47CEE2CFCA
:103910009ADEE8F39923D9F3940F511DBBF391502C
:10392000504094F059F0882332F0660F771F881FBB
:1039300091505040C1F79E3F510544F7880F911DAB
:103940009695879597F908955F3FACF0983E9CF067
:10395000BB27869577956795B79508F4B1609395E1
:10396000C1F7BB0F58F711F460FFE8CF6F5F7F4FCF
:103970008F4F9F4FE3CF82CE0EF0ACCF15CE689421
:103980000DCE61DEC8F39923D1F3C6F3DF93CF9355
:103990001F930F93FF92C92FDD2788232AF02197C9
:1039A000660F771F881FDAF720E030E040E85FEB12
:1039B0009FE3883920F0803E30F021968F7771DCCC
:1039C000E2E7F2E003C06DDCEFE9F2E0F0DD8B014D
:1039D000BE01EC01FB2E6F5771097595771F880B9F
:1039E000990B62DD28E132E741E35FE35DDEAF2D55
:1039F0009801AE01FF900F911F91CF91DF9162DC92
:103A000009CEFA01DC01AA0FBB1F9B01AC01BF5715
:103A100028F422273327442750781FC0B75188F451
:103A2000AB2F0024469537952795011CA395D2F31B
:103A3000002069F0220F331F441FB395DAF30DD035
:103A40002FCC61307105A0E88A07B94630F49B019C
:103A5000AC016627772788279078309621F020835D
:103A60003183428353830895A1E21A2EAA1BBB1B04
:103A7000FD010DC0AA1FBB1FEE1FFF1FA217B3073A
:103A8000E407F50720F0A21BB30BE40BF50B661F50
:103A9000771F881F991F1A9469F760957095809514
:103AA00090959B01AC01BD01CF010895052E97FBB8
:103AB00016F400940FD057FD05D0D6DF07FC02D0D6
:103AC00046F408C050954095309521953F4F4F4F93
:103AD0005F4F089590958095709561957F4F8F4FBA
:103AE0009F4F0895EE0FFF1F881F8BBF0790F69121
:103AF000E02D1994A29FB001B39FC001A39F700D48
:103B0000811D1124911DB29F700D811D1124911DE5
:103B100008950F931F93CF93DF93CDB7DEB72E9702
:103B2000CDBFDEBF0E891F8986E08C8309831A838F
:103B30008FEF9FE78D839E83AE01465E5F4F688D5A
:103B4000798DCE0101960ED02F813885F801E20FD4
:103B5000F31F10822E96CDBFDEBFDF91CF911F9154
:103B60000F9108952F923F924F925F926F927F92A2
:103B70008F929F92AF92BF92CF92DF92EF92FF927D
:103B80000F931F93CF93DF93CDB7DEB72C97CDBFA5
:103B9000DEBF7C016B018A01FC01168217828381E2
:103BA00081FFB0C1CE0101964C01F7019381F6016E
:103BB00093FD859193FF81916F01882309F49EC144
:103BC000853239F493FD859193FF81916F018532A0
:103BD00021F4B70190E0C4D1E8CF512C312C20E082
:103BE0002032A0F48B3269F030F4803259F0833205
:103BF00069F420612CC08D3239F0803339F42160B2
:103C000026C02260246023C0286021C027FD27C071
:103C100030ED380F3A3078F426FF06C0FAE05F9EA8
:103C2000300D1124532E13C08AE0389E300D11241C
:103C3000332E20620CC08E3221F426FD5FC1206439
:103C400006C08C3611F4206802C0883641F4F601B3
:103C500093FD859193FF81916F018111C1CF982FC1
:103C60009F7D9554933028F40C5F1F4FFFE3F98339
:103C70000DC0833631F0833771F0833509F057C0BA
:103C800021C0F801808189830E5F1F4F4424439433
:103C9000512C540114C03801F2E06F0E711CF80170
:103CA000A080B18026FF03C0652D70E002C06FEFD9
:103CB0007FEFC5012C8749D12C0183012C852F77FB
:103CC000222E16C03801F2E06F0E711CF801A080A0
:103CD000B18026FF03C0652D70E002C06FEF7FEF5B
:103CE000C5012C8727D12C012C852068222E830129
:103CF00023FC19C0832D90E048165906A0F4B701A3
:103D000080E290E02DD13A94F5CFF50127FC859122
:103D100027FE81915F01B70190E022D131103A94E2
:103D2000F1E04F1A51084114510479F7DEC084368E
:103D300011F0893631F5F80127FF07C060817181E4
:103D4000828193810C5F1F4F08C060817181072EB3
:103D5000000C880B990B0E5F1F4F2F76722E97FF6A
:103D600009C090958095709561957F4F8F4F9F4FBB
:103D70002068722E2AE030E0A4012AD1A82EA818CB
:103D800043C0853729F42F7EB22E2AE030E025C0CB
:103D9000F22FF97FBF2E8F36C1F018F4883579F0F5
:103DA000ADC0803719F0883721F0A8C02F2F2061CF
:103DB000B22EB4FE0DC08B2D8460B82E09C024FF36
:103DC0000AC09F2F9660B92E06C028E030E005C0DB
:103DD00020E130E002C020E132E0F801B7FE07C088
:103DE00060817181828193810C5F1F4F06C0608169
:103DF000718180E090E00E5F1F4FA401E9D0A82EF2
:103E0000A818FB2DFF777F2E76FE0BC0372D3E7F47
:103E1000A51450F474FE0AC072FC08C0372D3E7E13
:103E200005C0BA2C372D03C0BA2C01C0B52C34FF05
:103E30000DC0FE01EA0DF11D8081803311F4397E41
:103E400009C032FF06C0B394B39404C0832F8678B0
:103E500009F0B39433FD12C030FF06C05A2CB314DE
:103E600018F4530C5B18B32CB31460F4B70180E260
:103E700090E03C8775D0B3943C85F6CFB31410F432
:103E80003B1801C0312C34FF11C0B70180E390E032
:103E90003C8766D03C8532FF16C031FD03C088E701
:103EA00090E002C088E590E0B7010CC0832F8678CF
:103EB00051F031FF02C08BE201C080E237FD8DE29C
:103EC000B70190E04DD0A51430F4B70180E390E045
:103ED00047D05A94F8CFAA94F401EA0DF11D8081DD
:103EE000B70190E03DD0A110F6CF332009F45DCEAC
:103EF000B70180E290E034D03A94F7CFF7018681A1
:103F0000978102C08FEF9FEF2C96CDBFDEBFDF9170
:103F1000CF911F910F91FF90EF90DF90CF90BF90C6
:103F2000AF909F908F907F906F905F904F903F9059
:103F30002F900895FC010590615070400110D8F752
:103F4000809590958E0F9F1F0895FC0161507040E1
:103F500001900110D8F7809590958E0F9F1F0895BE
:103F60000F931F93CF93DF93FB01238121FD03C0A8
:103F70008FEF9FEF28C022FF16C046815781248112
:103F800035814217530744F4A081B1819D012F5F11
:103F90003F4F208331838C93268137812F5F3F4FA2
:103FA0002683378310C0EB01092F182F0084F18579
:103FB000E02D1995892BE1F68E819F8101968E83E4
:103FC0009F83812F902FDF91CF911F910F910895A3
:103FD000FA01AA27283051F1203181F1E8946F933A
:103FE0006E7F6E5F7F4F8F4F9F4FAF4FB1E03ED0E0
:103FF000B4E03CD0670F781F891F9A1FA11D680F7E
:10400000791F8A1F911DA11D6A0F711D811D911DB0
:10401000A11D20D009F468943F912AE0269F112425
:104020003019305D3193DEF6CF010895462F477089
:10403000405D4193B3E00FD0C9F7F6CF462F4F70E4
:10404000405D4A3318F0495D31FD4052419302D042
:10405000A9F7EACFB4E0A6959795879577956795E8
:10406000BA95C9F700976105710508959B01AC01E8
:104070000A2E06945795479537952795BA95C9F70F
:10408000620F731F841F951FA01D0895F894FFCF22
:104090000A0D4D656D6F72792065726173656421DB
:1040A0000A0D0A0D00000A0D5465616D2C54656CF3
:1040B00065436E742C466C696768745374617465EB
:1040C0002C536F667453746174652C416C746974FD
:1040D0007564652C56656C6F636974792C416363F4
:1040E000656C2C4779726F2C4C61742C4C6F6E6729
:1040F0002C416C74694750532C4669782C43686591
:10410000636B2C2C436E742C566F6C746167654224
:1041100061742C566F6C746167655643432C54650B
:104120006D702C50726573732C416363592C41631D
:104130006359322C4779726F582C4779726F5A2C19
:104140004779726F592C0A0D0A0D00000A0D52654D
:104150006164696E6720646F6E650A0D0A0D000068
:104160002441474853532C2530366C752C25317526
:104170002C2530312E32662C252B30352E32662CF4
:10418000252B30342E31662C252B30322E33662CE5
:10419000252B30342E31662C25732C25732C25735A
:0841A0002C2531750D0A000009
:00000001FF
