:1000000065C1000084C1000082C1000080C1000001
:100010007EC100007CC100007AC1000078C10000F0
:1000200076C1000074C1000072C1000070C1000000
:100030006EC100006CC10000E4C5000068C1000092
:1000400066C1000064C1000062C1000060C1000020
:100050005EC100005CC100005AC1000058C1000030
:1000600056C1000054C1000052C1000050C1000040
:100070004EC100004CC100004AC1000048C1000050
:1000800046C1000044C1000042C1000040C1000060
:100090003EC100003CC100003AC1000038C1000070
:1000A00036C1000034C1000032C1000030C1000080
:1000B0002EC100002CC100002AC100005AC6000059
:1000C00026C1000024C1000022C1000020C10000A0
:1000D0001EC100001CC100001AC1000018C10000B0
:1000E00016C1000014C1000012C1000010C10000C0
:1000F0000EC100000CC100000AC1000008C10000D0
:1001000006C1000004C1000002C1000000C10000DF
:10011000FEC00000FCC00000FAC00000F8C00000F3
:10012000F6C00000F4C00000F2C00000F0C0000003
:10013000EEC00000AAC50000EAC00000E8C0000050
:10014000E6C00000E4C00000E2C00000E0C0000023
:10015000DEC00000DCC00000DAC00000D8C0000033
:100160004DC40000D4C000000AC40000D0C000008C
:10017000CEC00000CCC00000CAC00000C8C0000053
:10018000C6C00000C4C00000C2C00000C0C0000063
:10019000BEC00000BCC00000BAC00000B8C0000073
:1001A000B6C00000B4C00000B2C00000B0C0000083
:1001B000F1C50000ACC00000AAC00000A8C000004B
:1001C000A6C00000A4C00000A2C00000A0C00000A3
:1001D0009EC000009CC000009AC000002DC200001C
:1001E00096C0000094C0000092C0000090C00000C3
:1001F0008EC000008CC000008AC000007D030D048A
:100200000304A7039D0369047D037D037804980F0D
:10021000510FF70E64103F1036101B108B10BA0EE2
:100220001210072C7AA5BA6CC590DA3B9365FC8B4B
:10023000BC53F810FD3C5692834DBD879D3AB63DA8
:10024000CBC9BF5BBE73DA0FC93F07634236B79BAA
:10025000D8A71A39685618AEBAAB558C1D3CB7CC26
:100260005763BD6DEDFD753EF6177231BF0000009E
:10027000803F08000000BE922449123EABAAAA2A81
:10028000BECDCCCC4C3E00000080BEABAAAAAA3E9C
:1002900000000000BF000000803F000000000008D8
:1002A0004178D3BB4387D1133D190E3CC3BD428275
:1002B000AD2B3E68EC8276BED98FE1A93E4C80EF33
:1002C000FFBE01C4FF7F3F000000000011241FBEDD
:1002D000CFEFCDBFDFE5DEBF00E00CBF11E2A0E055
:1002E000B0E2E8E7F6E400E00BBF02C007900D9231
:1002F000A831B107D9F72AE2A8E1B1E201C01D9205
:10030000A137B207E1F70E94950D0C943A2385C1FD
:100310002F923F924F925F926F927F928F929F9215
:10032000AF92BF92CF92DF92EF92FF920F931F9303
:10033000CF93DF9300D01F92CDB7DEB71C01809121
:1003400020028160809320028FE6809321028091B9
:1003500020028068809320028091060280FFFCCFFB
:1003600081E080932302609110027091110280E07D
:1003700090E00E94461D20E030E040E85DE30E94EE
:100380003C1E2B013C0187E78093210280912002D3
:100390008068809320028091060280FFFCCF81E07C
:1003A00080932302609110027091110280E090E02E
:1003B0000E94461D20E030E040E85DE30E943C1EC4
:1003C0004B015C018FE780932102809120028068BD
:1003D000809320028091060280FFFCCF81E0809311
:1003E0002302609110027091110280E090E00E945F
:1003F000461D20E030E040E85DE30E943C1E6B01BA
:100400007C0188E3809321028091200280688093A0
:1004100020028091060280FFFCCF81E080932302BE
:10042000609110027091110280E090E00E94461DE0
:1004300020E030E040E859E30E943C1E2DEC3CEC0B
:100440004CE45DE30E94441C2DEC3CEC44E251E49E
:100450000E943C1E69837A838B839C838FE0809308
:100460002102809120028068809320028091060200
:1004700080FFFCCF81E08093230280911002909155
:10048000110287E48093210280912002806880938A
:1004900020028091060280FFFCCF81E0809323023E
:1004A00080911002909111021092200280E18093BD
:1004B00021028091200280688093200280910602B0
:1004C00080FFFCCF81E08093230200911002109105
:1004D000110220E030E048EC52E4C301B2010E9476
:1004E0003C1E20E030E04FE753E40E94AD1CF101D8
:1004F000608B718B828B938B20E030E048EC52E470
:10050000C501B4010E943C1E20E030E04FE753E4F7
:100510000E94AD1CF101648B758B868B978B20E05C
:1005200030E048EC52E4C701B6010E943C1E20E0D6
:1005300030E04FE753E40E94AD1CF101608F718FF2
:10054000828F938F23E333E343E75FE36481758115
:10055000868197810E943C1E6B017C012DEC3CEC56
:100560004CE45DE369817A818B819C810E943C1E11
:100570009B01AC01C701B6010E94451CF1016483D7
:1005800075838683978323E333E343E75FE3648DD7
:10059000758D868D978D0E943C1E6B017C01B80184
:1005A00080E090E00E94461D20E030E040E859E302
:1005B0000E943C1E2DEC3CEC4CE45DE30E94441C8C
:1005C0002AE939E945E251E40E943C1E2DEC3CEC5D
:1005D0004CE45DE30E943C1E9B01AC01C701B601E7
:1005E0000E94451CF101648F758F868F978F24962A
:1005F000CDBFDEBFDF91CF911F910F91FF90EF90A4
:10060000DF90CF90BF90AF909F908F907F906F9032
:100610005F904F903F902F9008951F920F920FB6CA
:100620000F9211248F9388E0809307068F910F908B
:100630000FBE0F901F9018951F920F920FB60F923A
:1006400011240BB60F922F933F934F935F936F93A9
:100650007F938F939F93AF93BF93EF93FF93CF932A
:10066000DF931F92CDB7DEB700008091A00B898386
:100670008981843209F455C089818A3209F43FC0E6
:1006800080910624882391F08981E09103248C32A3
:10069000D9F181E08E0F809303248981F0E0EE533D
:1006A000FC4D85A780910724811116C00F90DF9122
:1006B000CF91FF91EF91BF91AF919F918F917F91DA
:1006C0006F915F914F913F912F910F900BBE0F90C3
:1006D0000FBE0F901F901895E091042410920724EC
:1006E0008E2F90E0FC013297E930F105F8F688276B
:1006F000E250FF4F8F4F0C9466200000D7CF10922E
:10070000062410920324D2CFF0E0EE53FC4D85A7CF
:100710001092032480910424E1E0E80FE093042484
:10072000DDCF81E08093062482EC93E20E94431B9C
:100730001092032410920424B9CF8091EF238534C2
:1007400019F0873509F088E58093D423AFCF8091E5
:10075000EF238C3209F4AACF8093D5238091F02324
:100760008C3209F4A3CF8093D6238091F1238C326D
:1007700009F49CCF8093D7238091F2238C3209F423
:1007800095CF8093D8238091F3238C3209F48ECFB8
:100790008093D9238091F4238C3209F487CF8093FE
:1007A000DA238091F5238C3209F480CF8093DB2308
:1007B0008091F6238C3209F479CF8093DC238091E9
:1007C000F7238C3209F472CF8093DD238091F823D4
:1007D0008C3209F46BCF8093DE238091F9238C3225
:1007E00009F464CF8093DF238091FA238C3209F4DB
:1007F0005DCF8093E0238091FB238C3209F456CFA8
:100800008093E12353CF8091EF238E3419F0833509
:1008100009F088E58093C62349CF8091EF238C327D
:1008200009F444CF8093C7238091F0238C3209F4DC
:100830003DCF8093C8238091F1238C3209F436CFC9
:100840008093C9238091F2238C3209F42FCF8093B7
:10085000CA238091F3238C3209F428CF8093CB23D1
:100860008091F4238C3209F421CF8093CC238091A2
:10087000F5238C3209F41ACF8093CD238091F6238F
:100880008C3209F413CF8093CE238091F7238C32DE
:1008900009F40CCF8093CF238091F8238C3209F494
:1008A00005CF8093D0238091F9238C3209F4FECEBA
:1008B0008093D1238091FA238C3209F4F7CE809370
:1008C000D2238091FB238C3209F4F0CE8093D32382
:1008D000EDCE8091EF23803309F44AC0813309F4CF
:1008E0004AC0823309F0E2CE82E08093EE23DECE6E
:1008F0008091EF238C3291F18093E2238091F02359
:100900008C3261F18093E3238091F1238C3231F1B9
:100910008093E4238091F2238C3201F18093E523CC
:100920008091F3238C32D1F08093E6238091F423DD
:100930008C32A1F08093E7238091F5238C3271F003
:100940008093E8238091F6238C3241F08093E92351
:100950008091F7238C3211F08093EA2388E4E2EC53
:10096000F3E2AAE7B3E201900D928A95E1F79ECEF9
:100970001092EE239BCE81E08093EE2397CE1F92C0
:100980000F920FB60F9211240BB60F922F933F9335
:100990008F939F93EF93FF932091E7283091E8285E
:1009A000F901E157F94D8081882399F0833289F06C
:1009B00091E09093E9288532E9F08093A0092739E6
:1009C0003105B0F42F5F3F4F2093E7283093E8289C
:1009D00002C01092E928FF91EF919F918F913F9172
:1009E0002F910F900BBE0F900FBE0F901F90189578
:1009F0001082F1CF8AE08093A009E1CF1F920F927D
:100A00000FB60F9211240BB60F922F933F934F9373
:100A10005F936F937F938F939F93AF93BF93EF9366
:100A2000FF93CF93DF931F92CDB7DEB780E1809322
:100A300005068091A00989838981843209F482C0E6
:100A400089818235C1F18981833409F444C0898167
:100A5000803509F47BC08981883509F446C08981D5
:100A60008B3409F44CC08981833509F454C08981E1
:100A7000863409F48BC08981813409F491C089815D
:100A8000843409F498C0109216290F90DF91CF9109
:100A9000FF91EF91BF91AF919F918F917F916F9156
:100AA0005F914F913F912F910F900BBE0F900FBE12
:100AB0000F901F90189580911629811197C08981F8
:100AC0008981803541F6898189818B34E1F0898182
:100AD000833569F620C080911629811127C089814C
:100AE0008981883509F0BBCF04C080911629811116
:100AF0006CC089818981833509F0B9CF10C080919C
:100B00001629811168C089818981863409F0B3CFA3
:100B100089818981B8CF80911629811161C089812D
:100B20008981813409F0ABCF8981ADCF1092472301
:100B30001092482381E080934923809317291092D3
:100B40001629A3CF81E0809316299FCF8091162983
:100B5000882309F4B8CF0E94831110921C211092AF
:100B60001D2110921E2110921F211092162981E042
:100B700080932423809323232FEF87EA91E621504B
:100B800080409040E1F700C000007FCF809116299F
:100B9000882309F4BDCF109218291092162975CF19
:100BA00080911629882309F4BFCF81E080931A2908
:100BB000109216296ACF80911629882309F463CFF1
:100BC00010921A291092162960CF81E0809319297A
:100BD000109216295ACF109219291092162955CF22
:100BE00081E080931829109216294FCF8FB7F8947F
:100BF0001092162998ED94BF91E0909379008FBFE1
:100C000044CF1F920F920FB60F9211240BB60F9282
:100C10002F933F934F935F936F937F938F939F9304
:100C2000AF93BF93CF93DF93EF93FF93EDEDF9E293
:100C3000A285B38581E08C93C689D7896881798143
:100C40008A819B810E94461D20E030E040EA50E40A
:100C50000E94451C0E941A1D688379838A839B83A6
:100C6000FF91EF91DF91CF91BF91AF919F918F91C4
:100C70007F916F915F914F913F912F910F900BBE9C
:100C80000F900FBE0F901F9018951F920F920FB6E6
:100C90000F9211242F933F938F939F93809123233F
:100CA000882331F1809124238230B1F108F449C0C6
:100CB000843061F108F44FC08530F9F49091262317
:100CC000943038F5209125238BEA289F812D11241B
:100CD0008695382F330F830F281306C080E4809346
:100CE000A7069F5F909326232F5F2093252305C09F
:100CF0001092242380E48093A6069F918F913F91C8
:100D00002F910F900FBE0F901F90189580E4809345
:100D1000A50610922423F1CF909125238DEC989F66
:100D2000812D112486958695282F220F220F820F60
:100D3000981303C080E48093A7069F5F90932523B8
:100D4000DCCF882361F08130C1F690912623963064
:100D500008F4B8CFDECF80E48093A506CECF109202
:100D60002323109226231092252380E48093A60645
:100D7000C4CF1F920F920FB60F9211248F9380E170
:100D800080930606109216298F910F900FBE0F9038
:100D90001F9018951F920F920FB60F9211240BB649
:100DA0000F922F933F934F935F936F937F938F9304
:100DB0009F93AF93BF93EF93FF9380E280930706D7
:100DC0001092EA28809118298823E1F08091D32994
:100DD0009091D429A091D529B091D6298F3926E8B0
:100DE000920721E0A207B10500F11092D3291092D9
:100DF000D4291092D5291092D629109262261092E9
:100E00006326BDDDFF91EF91BF91AF919F918F91CF
:100E10007F916F915F914F913F912F910F900BBEFA
:100E20000F900FBE0F901F9018950196A11DB11D38
:100E30008093D3299093D429A093D529B093D62910
:100E4000DCCFCF92DF92EF92FF92E0904723F090B9
:100E50004823E114F10409F011C1109227231092E4
:100E600028231092292310922A2310922B231092C8
:100E70002C2310922D2310922E2310922F231092A8
:100E80003023109231231092322310923323109288
:100E90003423109235231092362310923723109268
:100EA00038231092392310923A2310923B23109248
:100EB0003C2310923D2310923E2310923F23109228
:100EC0004023109241231092422310924323109208
:100ED0004423109245231092462380E48093050614
:100EE00020916023309161234091622350916323CC
:100EF00060912B2370912C2380912D2390912E2390
:100F00000E94451C60932B2370932C2380932D23E8
:100F100090932E2380917D2990917E29092E000C9B
:100F2000AA0BBB0B40912F235091302360913123AA
:100F300070913223840F951FA61FB71F80932F2314
:100F400090933023A0933123B093322380917F2953
:100F500090918029092E000CAA0BBB0B40913323E2
:100F6000509134236091352370913623840F951F5F
:100F7000A61FB71F8093332390933423A093352368
:100F8000B09336238091812990918229092E000CFB
:100F9000AA0BBB0B40913723509138236091392322
:100FA00070913A23840F951FA61FB71F8093372394
:100FB00090933823A0933923B0933A238091232927
:100FC00090912429092E000CAA0BBB0B40913B23C6
:100FD00050913C2360913D2370913E23840F951FD7
:100FE000A61FB71F80933B2390933C23A0933D23E0
:100FF000B0933E238091252990912629092E000C3B
:10100000AA0BBB0B40913F23509140236091412399
:1010100070914223840F951FA61FB71F80933F2313
:1010200090934023A0934123B0934223809127299A
:1010300090912829092E000CAA0BBB0B4091432349
:10104000509144236091452370914623840F951F4E
:10105000A61FB71F8093432390934423A093452357
:10106000B09346238FEFE81AF80AE0924723F092F4
:101070004823FF90EF90DF90CF90089580E9E81625
:1010800081E0F80608F42CCF20E030E048EC53E48F
:1010900060912B2370912C2380912D2390912E23EE
:1010A0000E94AD1C60936A2370936B2380936C2322
:1010B00090936D2360912F23709130238091312381
:1010C0009091322320E9C22EDD24D394E12CF12C1F
:1010D000A70196010E944A202093BF293093C0297E
:1010E000609133237091342380913523909136237E
:1010F000A70196010E944A202093C1293093C2295A
:1011000060913723709138238091392390913A234D
:10111000A70196010E944A202093C3293093C42935
:1011200060913B2370913C2380913D2390913E231D
:10113000A70196010E944A202093672930936829CD
:1011400060913F23709140238091412390914223ED
:10115000A70196010E944A202093692930936A29A9
:1011600060914323709144238091452390914623BD
:10117000A70196010E944A2020936B2930936C2985
:101180001092472310924823109249231092172956
:1011900080E480930606FF90EF90DF90CF90089553
:1011A00080E20E947D130E94B8130E94B9130E942E
:1011B0003C140E947B140E9464140E947A140E94C2
:1011C000911485E090E00E94BA1382E390E00E94BF
:1011D000D91382E390E00E94F81388EE93E00E9416
:1011E00017141092E7281092E828A4E1B9E21C92A3
:1011F00011961C921197EDEDF9E281E59AE2808754
:10120000918787E799E2808391838DE199E28283D8
:1012100093838CE593E2848395838AE793E28683C4
:101220009783A287B3878AE493E28487958787EFC1
:1012300099E2868797878FE896E2808B918B8AE088
:1012400094E2828B938B8BED99E2848B958B8FEC60
:1012500099E2868B978B80E291E2808F918F0E943A
:10126000E9140E9473190E94EE150E9409150E944C
:10127000EB160E94F61480E00E94E8110E945312BF
:1012800060931C2170931D2180931E2190931F2138
:1012900087E08093A20008958F929F92AF92BF92B1
:1012A000CF92DF92EF92FF921F93CF93DF93CDB750
:1012B000DEB7CA5BD109CDBFDEBF1092192983E02A
:1012C0008093242381E0809323232FEF87E893E109
:1012D000215080409040E1F700C00000109223238D
:1012E0008091880681FFFCCF86EAE6E1F0E2DE012C
:1012F000119601900D928A95E1F784E1ECEBF0E212
:10130000DE01A955BF4F01900D928A95E1F78981C1
:10131000882381F0FE0132968093A0092FEF89EF98
:1013200090E0215080409040E1F700C000008191A2
:101330008111F2CF2FEF87EA91E621508040904053
:10134000E1F700C0000084E08093050681E0D1D77A
:1013500083E0B4D780E0B2D780E0B0D780E0AED7EA
:1013600010E0C12CD12C760184E6882E912CA12C82
:10137000B12C0FC08FEF99EF20E0815090402040BA
:10138000E1F700C000008091880680FF22C014367B
:1013900000F5A6D78F3F09F445C08093A00910E05F
:1013A0002FEFC21AD20AE20AF20AC701B601A5015A
:1013B00094010E942820672B682B692BD9F28FE1BA
:1013C00093E00197F1F700C000008091880680FD4E
:1013D000DECF80E08ED7C955DF4F8881C75AD04015
:1013E000882381F0E7EAF0E0EC0FFD1F319680934F
:1013F000A0098FE39FE10197F1F700C00000819100
:101400008111F5CFC654DF4FCDBFDEBFDF91CF9145
:101410001F91FF90EF90DF90CF90BF90AF909F9083
:101420008F9008951F5FBCCFEFE8F6E29DE09083B8
:101430008AE081832BE2228329E423832EE4248320
:1014400021E525832DE3268321E327839087818768
:101450001092E7281092E82892DAE0E0F6E088E0BF
:1014600085832FEF37E893E1215030409040E1F73A
:1014700000C0000086832FEF33EC99E0215030400C
:101480009040E1F700C0000085832FEF37E893E13B
:10149000215030409040E1F700C0000086832FEFDC
:1014A00033EC89E0215030408040E1F700C000007B
:1014B0000895CF93DF93CDB7DEB76697CDBFDEBF7C
:1014C0008091880680FD04C08091880681FF10C04D
:1014D0008091880681FF06C06696CDBFDEBFDF9192
:1014E000CF9108956696CDBFDEBFDF91CF91D4CE68
:1014F00086E1E0E0F0E2DE01119601900D928A951E
:10150000E1F78091880680FFFCCF8091880681FFFB
:10151000F8CF83E08093242381E080932323F3D6C4
:101520002FEF87EA91E6215080409040E1F700C01C
:1015300000008981882369F0FE0132968093A0091A
:101540008FE79EE30197F1F700C0000081918111C0
:10155000F5CF1092232310921C2110921D2110927E
:101560001E2110921F216696CDBFDEBFDF91CF9165
:1015700008952F923F924F925F926F927F928F9237
:101580009F92AF92BF92CF92DF92EF92FF920F9312
:101590001F93CF93DF93CDB7DEB7A397CDBFDEBF49
:1015A0008AA39BA3198E1A8E1B8E1C8E1D8A1E8ADF
:1015B0001F8A188E198A1A8A1B8A1C8A1D861E8603
:1015C0001F86188A19861A861B861C861D821E8213
:1015D0001F82188619821A821B821C82DC011E96C9
:1015E0002D903C901F970091DD291091DE29B4E6E3
:1015F000BD8F9DC0833009F41BC154964D915D9100
:101600006D917C91579758968D919D910D90BC91BD
:10161000A02D8E8F9F8FA8A3B9A3F801448C558C61
:10162000668C778C84A195A1A6A1B7A180A491A472
:10163000A2A4B3A4C4A4D5A4E6A4F7A4F90121816B
:10164000222311F07058B058E091EB29F091EC2969
:1016500040835183628373832E8D3F8D48A159A1AE
:1016600024833583468357834086518662867386FA
:1016700080A391A3A2A3B3A384A295A2A6A2B7A27A
:10168000C0A6D1A6E2A6F3A6A091E129B091E229D5
:1016900052964D915D916D917C915597448B558BF0
:1016A000668B778B5A968D919D910D90BC91A02D54
:1016B000808B918BA28BB38BD1014D905D906D90FF
:1016C0007C902D893E894F89588DC301B2010E94BB
:1016D000451C6D8B7E8B8F8B988FF101C480D580DC
:1016E000E680F78029893A894B895C89C701B60170
:1016F0000E94451C698B7A8B8B8B9C8BD101189631
:101700008D909D90AD90BC901B972D853E854F850B
:101710005889C501B4010E94451C6D877E878F875B
:10172000988BBD8DB150BD8FBB2309F4A3C0C801F8
:101730000E9487198091DD299091DE290E94DA1993
:101740008091E9299091EA290E943A158091E9292E
:101750009091EA290E947C158091E1299091E229DB
:101760000E94FA158091E1299091E2290E942B169E
:101770008091E1299091E2290E9455168091DF29FC
:101780009091E0290E9492178091E5299091E62995
:101790000E94880180906E2390906F23A090702308
:1017A000B090712320917223309173234091742360
:1017B00050917523C501B4010E94381E181644F4D7
:1017C0008092722390927323A0927423B092752317
:1017D0002091F1293091F229F90180810091DD29D0
:1017E0001091DE29D801823009F004CF58964D912E
:1017F0005D916D917C915B9754968D919D910D902B
:10180000BC91A02D8E8F9F8FA8A3B9A3F801448C03
:10181000558C668C778C80A591A5A2A5B3A584A0D4
:1018200095A0A6A0B7A0C4A4D5A4E6A4F7A406CF0B
:101830005C964D915D916D917C915F9758968D91DD
:101840009D910D90BC91A02D8E8F9F8FA8A3B9A3C1
:10185000F801448855886688778884A595A5A6A54B
:10186000B7A580A491A4A2A4B3A4C4A0D5A0E6A0C7
:10187000F7A0E4CED701C601750164014C015D01FA
:101880006D897E898F89988D20E030E048EC52E4A4
:101890000E94AD1C6D8B7E8B8F8B988F69897A89A6
:1018A0008B899C8920E030E048EC52E40E94AD1C1A
:1018B000698B7A8B8B8B9C8B6D857E858F859889C8
:1018C00020E030E048EC52E40E94AD1C6D877E873A
:1018D0008F87988BA3019201C301B2010E943C1E25
:1018E0002B013C01A5019401C501B4010E943C1EDD
:1018F0009B01AC01C301B2010E94451C4B015C017C
:10190000A7019601C701B6010E943C1E9B01AC01D4
:10191000C501B4010E94451C0E94EF1E698F7A8F99
:101920008B8F9C8F8D899E89AF89B88DBF77898772
:101930009A87AB87BC8789899A89AB89BC89BF772D
:101940008D839E83AF83B8878D859E85AF85B8894B
:10195000BF7789839A83AB83BC83698D7A8D8B8DA6
:101960009C8D0E94151D9B0177FD8FC0B901330F1F
:10197000880B990B0E94481D26E636E646E65FE393
:101980000E94A91C87FD39C0698D7A8D8B8D9C8D35
:101990000E94151D9B0177FD93C0B901330F880B81
:1019A000990B0E94481D2DEC3CEC4CE85FE30E9433
:1019B000381E181614F169857A858B859C852D81D2
:1019C0003E814F8158850E94381E18166CF5698536
:1019D0007A858B859C8529813A814B815C810E9427
:1019E000381E18160CF5AAA1BBA15496ED91FC91D6
:1019F000559781E08083FD012CC081E0A396CDBF87
:101A0000DEBFDF91CF911F910F91FF90EF90DF909C
:101A1000CF90BF90AF909F908F907F906F905F908E
:101A20004F903F902F9008956D817E818F81988592
:101A300029853A854B855C850E94381E181654F11D
:101A4000AAA1BBA15496ED91FC91559783E08083A8
:101A5000FD01E488F588D7011C91123009F454C0C7
:101A6000133099F1113009F440C0E980FA800B81FC
:101A70001C812D813E814F81588569857A858B85B2
:101A80009C850E946B1B80E0B9CF22273327261B41
:101A9000370B6CCF6D817E818F81988529813A814A
:101AA0004B815C810E94381E181654F6AAA1BBA176
:101AB0005496ED91FC91559782E08083FD01C9CF4A
:101AC00022273327261B370B68CF6D857E858F85B0
:101AD00098892DEC3CEC4CEC5DE30E94A91C87FF3F
:101AE000C4CF81E0F7018183C0CF6D897E898F8962
:101AF000988D2DEC3CEC4CEC5DE30E94A91C87FF1B
:101B0000B4CFF7011183B1CF69897A898B899C8918
:101B10002DEC3CEC4CEC5DE30E94A91C87FFA5CFAB
:101B200081E0D70111968C93A0CFCF93DF93CDB7EF
:101B3000DEB72E97CDBFDEBF1092192911E01093AA
:101B400018291092EA282CDB8DED99E212DD7894A9
:101B50006BDCAFDC1092472310924823109349238B
:101B60001093172910931A292AE02A95F1F700C03B
:101B7000809114298823C1F3109214298091DD29C2
:101B80009091DE290E9487198091DD299091DE29AC
:101B90000E94DA198091E9299091EA296BD7809106
:101BA000E9299091EA29A8D78091E1299091E22929
:101BB0000E94FA158091E1299091E2290E942B164A
:101BC0008091E1299091E2290E9455168091DF29A8
:101BD0009091E0290E9492178091E5299091E62941
:101BE0000E94880100916E2310916F233091702321
:101BF0003E87409171234D8730907223209073234C
:101C0000509174235983809175238A83232D322D1B
:101C1000452F582FB8018E859D850E94381E1816B5
:101C20007CF4C801AE85BD858093722390937323A5
:101C3000A0937423B0937523302E212EA983BA83E9
:101C4000E091F129F091F229EF83F88780812091CA
:101C5000DD293091DE29D901823009F499C283301F
:101C600009F46BC254964D915D916D917C9157979B
:101C700058964D905D906D907C905B975C968D91A1
:101C80009D910D90BC91A02D8B839C83AD83BE83D1
:101C9000D90194968D919D910D90BC91A02D89872D
:101CA0009A87AB87BC87F901C0A4D1A4E2A4F3A4AE
:101CB00084A495A4A6A4B7A4AF81B88511962C914D
:101CC000222351F0705889859A85AB85BC85B05820
:101CD00089879A87AB87BC87E091EB29F091EC2943
:101CE0004083518362837383448255826682778204
:101CF0002B813C814D815E812087318742875387CC
:101D000089859A85AB85BC8580A391A3A2A3B3A343
:101D1000C4A2D5A2E6A2F7A280A691A6A2A6B3A6C7
:101D2000A091E129B091E22952968D909D90AD90BD
:101D3000BC905597848A958AA68AB78A5A96CD9080
:101D4000DD90ED90FC905D97C08AD18AE28AF38A9B
:101D500080911A29882309F4E8C180911B2990E019
:101D60008A30910520F5FC018827E95FFE4F8F4FEF
:101D70000C94662020E030E048E453E4B8018E85FE
:101D80009D850E94A91C87FF12C0C0907623D09029
:101D90007723E0907823F090792320E030E040E84A
:101DA0005FE3C701B6010E94A91C87FD25C28DED26
:101DB00099E20E94D81A8091192981114FC080910F
:101DC000E92881110AC0EAE0F4E2AFE8B6E285E86A
:101DD00092E001900D920197E1F7F4E0F09307068D
:101DE00080914923882309F4BFCE2BD8BDCE6091C2
:101DF000CF297091D0298091D1299091D2290E9428
:101E0000461D6B017C0120E030E04AE754E460911C
:101E100018217091192180911A2190911B210E9403
:101E2000451C9B01AC01C701B6010E94381E181663
:101E30000CF0BDCFC0921821D0921921E0921A2146
:101E4000F0921B2133E030931B298DED99E20E9423
:101E5000D81A80911929882309F4B1CF4AE054E2B5
:101E600060E971E08CE191E26FD38091D729909184
:101E7000D829A091D929B091DA298F33E2E49E07BD
:101E8000EFE0AE07B10508F0AEC10196A11DB11D8E
:101E90008093D7299093D829A093D929B093DA2990
:101EA0008ECF20E030E0A9016091F7297091F829E8
:101EB0008091F9299091FA290E94A91C87FF77CF78
:101EC00020E030E048E452E460910B2A70910C2A43
:101ED00080910D2A90910E2A0E94381E18160CF03F
:101EE00066CF20E030E048E452E46091072A709128
:101EF000082A8091092A90910A2A0E94381E1816F1
:101F00000CF055CF6091CF297091D0298091D129C3
:101F10009091D2290E94461D609318217093192137
:101F200080931A2190931B2122E020931B293FCFFD
:101F3000C090F729D090F829E090F929F090FA297B
:101F400020E030E040E450E4C701B6010E94381EB2
:101F50001816B4F420E030E040E251E460917623BA
:101F60007091772380917823909179230E94381E75
:101F7000181634F4A1E0A0931929B4E0B0931B29FA
:101F800020E030E040E050E4C701B6010E94A91C07
:101F900087FF2CC026E636E646E65FE360916A23BB
:101FA00070916B2380916C2390916D230E943C1E55
:101FB0004B015C012DEC3CEC4CEC5DE3609160234B
:101FC0007091612380916223909163230E943C1E53
:101FD0009B01AC01C501B4010E94451C60936A23BA
:101FE00070936B2380936C2390936D2320E030E0FB
:101FF00040E050E4C701B6010E94381E181634F4C0
:10200000E4E0E0932423F1E0F0932323C801AE85BC
:10201000BD858093722390937323A0937423B09310
:102020007523C5CE42E04093242351E050932323EF
:1020300010921929BCCE20E030E048EC53E4C501F1
:10204000B4010E94A91C87FF03C0A7E0A0931B292D
:1020500020E030E040EF51ECC701B6010E94A91C1E
:1020600087FFA5CEB7E0B0931B29A1CE81E0809376
:1020700024238093232396E090931B2998CE9801E4
:102080004E855D85632D722D89819A810E94441C45
:1020900020E030E040E251E40E94381E18160CF0B7
:1020A00086CE20E030E0A9016091762370917723FD
:1020B00080917823909179230E94A91C87FF77CE85
:1020C00055E050931B2973CE6091CF297091D02990
:1020D0008091D1299091D2290E94461D6B017C01EB
:1020E00020E030E04AEF54E460911821709119210A
:1020F00080911A2190911B210E94451C9B01AC01EB
:10210000C701B6010E94381E18160CF050CE44E0EC
:1021100040931B294CCEE5E0E0932423F1E0F093BB
:10212000232328E020931B2942CE10921B291092D2
:10213000242392E0909366063ACE5C964D915D9191
:102140006D917C915F9758964D905D906D907C90CD
:102150005B9754968D919D910D90BC91A02D8B8392
:102160009C83AD83BE83D9019C968D919D910D90EA
:10217000BC91A02D89879A87AB87BC87F901C0A441
:10218000D1A4E2A4F3A484A095A0A6A0B7A094CD66
:1021900058964D915D916D917C915B9754964D90C1
:1021A0005D906D907C9057975C968D919D910D9070
:1021B000BC91A02D8B839C83AD83BE83D90198965F
:1021C0008D919D910D90BC91A02D89879A87AB87A9
:1021D000BC87F901C4A0D5A0E6A0F7A084A495A46B
:1021E000A6A4B7A469CD1092D7291092D82910922D
:1021F000D9291092DA29E3CD20E030E040E85FEB06
:10220000C701B6010E94381E18160CF0D0CD39E077
:1022100030931B29CCCD9091840497FFFCCF882369
:1022200019F087E080938304809187040895809358
:1022300086048091840486FFFCCF6093870480919C
:10224000840486FFFCCF409387048091840486FF3A
:10225000FCCF83E08093830408958093860490915B
:10226000840496FFFCCF609387049091840496FFCA
:10227000FCCF91E09093830481608093860450E0CA
:1022800041505109F901141615066CF4809184042B
:1022900087FFFCCF8091870481938E2F821B90E073
:1022A000841795079CF38091840487FFFCCF87E017
:1022B000809383048091870480830895CF93DF9374
:1022C0001F92CDB7DEB78093C3088091C20887FF05
:1022D000FCCF8091C30889830F90DF91CF9108953F
:1022E0001092C3088091C20887FFFCCF8091C30879
:1022F0000895811104C081E080936506089581E00E
:10230000809366060895CF93DF93CDB7DEB7259708
:10231000CDBFDEBF81E08093660686E08093C30870
:102320008091C20887FFFCCF8091C3088D8381E034
:10233000809365068093660680E68093C30880914B
:10234000C20887FFFCCF8091C3088C8381E0809313
:102350006506EFE1F3E03197F1F700C000008093EC
:10236000660685E08093C3088091C20887FFFCCF92
:102370008091C30889831092C3088091C20887FFA7
:10238000FCCF8091C3088A831092C3088091C20851
:1023900087FFFCCF8091C3088A838A8180FDF4CFB8
:1023A00081E0809365068093660684E08093C3088D
:1023B0008091C20887FFFCCF8091C3088B8381E0A6
:1023C000809365062596CDBFDEBFDF91CF9108953E
:1023D000CF93DF9300D000D0CDB7DEB7882391F143
:1023E00081E08093660680E58093C3088091C208EF
:1023F00087FFFCCF8091C3088E8381E080936506C0
:102400009AE09A95F1F700C0809366068093C3081E
:102410008091C20887FFFCCF8091C3088D838CE137
:102420008093C3088091C20887FFFCCF8091C308C6
:102430008C8381E0809365062696CDBFDEBFDF9159
:10244000CF91089581E08093660680E58093C3086C
:102450008091C20887FFFCCF8091C3088B8381E005
:10246000809365069AE09A95F1F700C0809366061E
:102470008093C3088091C20887FFFCCF8091C30876
:102480008A831092C3088091C20887FFFCCF809195
:10249000C308898381E0809365062696CDBFDEBFA1
:1024A000DF91CF910895CF93DF9300D01F92CDB7E6
:1024B000DEB781E08093660683E08093C308809155
:1024C000C20887FFFCCF8091C3088C831092C30899
:1024D0008091C20887FFFCCF8091C3088B83109244
:1024E000C3088091C20887FFFCCF8091C3088A830C
:1024F0001092C3088091C20887FFFCCF8091C30867
:10250000898340E050E0BA011092C3088091C2086C
:1025100087FFFCCF8091C3088F3F59F04F5F5F4F1B
:102520006F4F7F4F403A8FE858078EE36807710579
:1025300059F781E080936506CB01BA012496CDBF9F
:10254000DEBFDF91CF9108954F925F926F927F929D
:102550008F929F92AF92BF92CF92DF92EF92FF92B3
:102560000F931F93CF93DF93CDB7DEB72897CDBFDF
:10257000DEBFFC0180819181A281B381803D9E4FAD
:10258000AF43B10508F0A5C084E080930506DA01E9
:10259000CC90CC2009F49AC08B0120E030E00115EA
:1025A00011052105310509F491C080809180A28038
:1025B000B380DA01119640E050E0BA0181E096E084
:1025C000D92E92E0E92E95E0F92E4F5F5F4F6F4FC5
:1025D0007F4F80936606D092C3089091C20897FF00
:1025E000FCCF9091C3089B83809365068093660619
:1025F000E092C3089091C20897FFFCCF9091C30866
:102600009C832501662477244092C3089091C208D8
:1026100097FFFCCF9091C3089D83492C5A2C6B2CBB
:1026200077244092C3089091C20897FFFCCF909105
:10263000C3089E838092C3089091C20897FFFCCF85
:102640009091C3089F83C092C3089091C20897FFDE
:10265000FCCF9091C30898878093650680936606A7
:10266000F092C3089091C20897FFFCCF9091C308E5
:1026700099831092C3089091C20897FFFCCF909164
:10268000C3089A831092C3089091C20897FFFCCFA9
:102690009091C3089A839A8190FDF4CF8093650648
:1026A00080809180A280B3809FEF891A990AA90A3D
:1026B000B90A80829182A282B382CD90CC2031F07F
:1026C000401751076207730709F07FCF84E08093BA
:1026D00006062896CDBFDEBFDF91CF911F910F91E7
:1026E000FF90EF90DF90CF90BF90AF909F908F9032
:1026F0007F906F905F904F900895869590915000D5
:1027000091609093500090E490936A009DE09093C4
:102710006B00909150009460909350009091510004
:1027200092FFFCCF90915600987F90935600909125
:1027300068009160909368009091510090FFFCCFE9
:1027400098ED94BF10924000909150009F7E90931E
:1027500050008093550080E180935000809151009B
:1027600084FFFCCF88ED84BF84E08093400008950F
:102770000895089527E02093000810920108109210
:102780002008109221089C01A0E0BDE70E946E2065
:10279000DC01CB012AE0B695A795979587952A95F8
:1027A000D1F7809326089093270882E0809306084B
:1027B000089527E020930009109201091092200942
:1027C000109221099C01A0E0BDE70E946E20DC016F
:1027D000CB012AE0B695A795979587952A95D1F7CD
:1027E000809326099093270981E080930609089534
:1027F00027E02093000A1092010A1092200A1092FA
:10280000210A9C01A0E0BDE70E946E20DC01CB0103
:102810002AE0B695A795979587952A95D1F7809345
:10282000260A9093270A82E08093060A089527E0FB
:102830002093000B1092010B1092200B1092210B91
:10284000813D27E0920710F080ED97E09C01A0E029
:10285000BDE70E946E20DC01CB012AE0B695A7956A
:10286000979587952A95D1F78093260B9093270B00
:1028700082E08093060B0895CF93DF93A0E0B2E04F
:1028800081E08C93CAECD1E092E09883E0E2F0E042
:10289000E49118821C96EC931C979883E1E2F0E097
:1028A000E49118821D96EC931D9711961C92119736
:1028B00012961C92129793E014969C9314979096FC
:1028C0008C93DF91CF910895E0EAF6E084E086836F
:1028D00088E085838183E0EAFBE083E0858387E10C
:1028E000868384EA8783838180618383848188618E
:1028F000848308950895E0E6F6E084E0868388E026
:1029000085838183E0EAF9E083E0858387E186833C
:1029100084EA878383818C61838384818861848353
:102920000895CF93DF9388E180939006809391067A
:10293000A0E0B6E08C9181608C93E6E0F6E021E0C7
:1029400020838C918C678C938CE78083A0EAB6E01F
:102950008C9180648C9366EA76E050E4DB015C93B2
:1029600034E03093410630934606C1E6D6E082E07B
:102970008883A6E6B6E08C933C9348E0488390E2D7
:1029800098839C93DB013C934093A5064093A1065A
:1029900033E03093400630934406A2EEB7E02C9328
:1029A0008C93A2E8B6E030E13C939C93A2EAB6E0B7
:1029B0002C938C933C9330936206808380E88083D1
:1029C000E6E2F6E02083908350838083DF91CF910D
:1029D0000895E0E8F4E080E3818391E092838FE062
:1029E000858381818860818394830895E0E4F6E0A3
:1029F00080E1818380EA818380E4828380EE858325
:102A0000E0E6F6E081E08183858381E58093C0087C
:102A1000089582E3809386048091840486FFFCCF2E
:102A200080E2809387048091840486FFFCCF8FE24C
:102A3000809387048091840486FFFCCF83E0809399
:102A4000830482E3809386048091840486FFFCCF14
:102A500083E2809387048091840486FFFCCF80E327
:102A6000809387048091840486FFFCCF83E0809369
:102A700083040895CF92DF92EF92FF920F931F93FA
:102A8000CF93DF937C0182E380938604909184044A
:102A900096FFFCCF88EA809387049091840496FF88
:102AA000FCCF81E08093830483E38093860480E0FD
:102AB000B2DBC82ED12C80E0AEDBD82A80E0ABDBC5
:102AC000082F10E080E0A7DB182B80E0A4DBC82FE4
:102AD000D0E081E0A0DBF701C082D18202831383C2
:102AE000D82BC483D583DF91CF911F910F91FF9095
:102AF000EF90DF90CF9008950F931F93CF93DF93C4
:102B0000CDB7DEB72C97CDBFDEBF8C01FC01608155
:102B10007181072E000C880B990BBAD720E030E0AA
:102B200040E45AE30E943C1E69877A878B879C8722
:102B3000F80162817381072E000C880B990BA8D7CE
:102B400020E030E040E45AE30E943C1E6D837E8327
:102B50008F839887F80164817581072E000C880B9C
:102B6000990B96D720E030E040E45AE30E943C1EE7
:102B700069837A838B839C8369857A858B859C8521
:102B80002BE83DEF45E65EE380D6F8016683778368
:102B9000808791876D817E818F8198852BE83DEFBD
:102BA00045E65EE372D6F80162877387848795876E
:102BB00069817A818B819C812BE83DEF45E65EE35C
:102BC00063D6F80166877787808B918B2C96CDBF73
:102BD000DEBFDF91CF911F910F9108954FE060E12B
:102BE00088EB25DB41E063E288EB21DB40EC60E22F
:102BF00088EB1DCB0F931F93CF93DF93CDB7DEB739
:102C00002A97CDBFDEBF8C019E012F5F3F4F45E06D
:102C100068EA88EB22DB8A814B8150E060E070E05B
:102C2000BA0155274427582B8981482BF801408346
:102C30005183628373838D8190E0982F88272C8144
:102C4000822B808791872A96CDBFDEBFDF91CF91FF
:102C50001F910F910895CF93DF93EC0168817981E3
:102C60008A819B8113D720E030E040E859E30E943D
:102C70003C1E6C837D838E839F8368857985072EB8
:102C8000000C880B990B04D720E030E040EF53E4B0
:102C900064D620E030E04AE252E4F7D56A877B87C9
:102CA0008C879D87DF91CF9108954F925F926F92AD
:102CB0007F928F929F92AF92BF92CF92DF92EF92CC
:102CC000FF920F931F93CF93DF93EC01EE84FF8469
:102CD0000889198920E030E0A901B701C80139D677
:102CE000CC80DD80FE81EF8181110AC0C601AF2F4B
:102CF000BE2F8E879F87A88BB98B76010F2F1E2F33
:102D00009701A801B6018F2F9E2F27D62EE534ED0F
:102D100042E45EE30E949F1E2B013C018A889B884F
:102D2000AC88BD882DEC3CEC4CE45FE3C501B401FC
:102D3000A3D76B017C01A301920160E070E080E801
:102D40009FE3A2D520E032E14AE257E495D72DEC8B
:102D50003CEC4CE45EE390D79B01AC01C701B601AB
:102D600094D56B017C016A8B7B8B8C8B9D8B26E6CB
:102D700036E646E65FE36A8D7B8D8C8D9D8D7CD734
:102D80002B013C01A5019401C701B6017DD52DECB5
:102D90003CEC4CEC5DE370D720E030E048E453E4D9
:102DA0006BD79B01AC01C301B2016FD56A8F7B8FDA
:102DB0008C8F9D8FDF91CF911F910F91FF90EF909E
:102DC000DF90CF90BF90AF909F908F907F906F904B
:102DD0005F904F90089584ED8093860480918404E1
:102DE00086FFFCCF80E2809387048091840486FF75
:102DF000FCCF8FEB809387048091840486FFFCCF07
:102E000083E08093830484ED80938604809184041E
:102E100086FFFCCF83E2809387048091840486FF41
:102E2000FCCF80E2809387048091840486FFFCCFEE
:102E300083E0809383048AE38093860480918404F2
:102E400086FFFCCF80E2809387048091840486FF14
:102E5000FCCF87E8809387048091840486FFFCCFB1
:102E600083E0809383048AE38093860480918404C2
:102E700086FFFCCF81E2809387048091840486FFE3
:102E8000FCCF80E6809387048091840486FFFCCF8A
:102E900083E0809383048AE3809386048091840492
:102EA00086FFFCCF84E2809387048091840486FFB0
:102EB000FCCF80EF809387048091840486FFFCCF51
:102EC00083E0809383048AE3809386048091840462
:102ED00086FFFCCF85E2809387048091840486FF7F
:102EE000FCCF109287048091840486FFFCCF83E09E
:102EF000809383048AE3809386048091840486FF10
:102F0000FCCF86E2809387048091840486FFFCCF07
:102F1000109287048091840486FFFCCF83E0809325
:102F2000830408950F931F93CF93DF93EC0184EDF7
:102F3000809386048091840486FFFCCF88EA809386
:102F400087048091840486FFFCCF81E08093830412
:102F500085ED8093860480E05ED990E08E839F8328
:102F600080E059D92E813F81382B2E833F8380E02A
:102F700052D990E08887998780E04DD92885398596
:102F8000382B2887398780E046D990E08A879B874D
:102F900081E041D92A853B85382B2A873B878AE304
:102FA000809386048091840486FFFCCF88E8809318
:102FB00087048091840486FFFCCF81E080938304A2
:102FC0008BE38093860480E026D990E08E879F87EC
:102FD00080E021D92E853F85382B2E873F8780E0E2
:102FE0001AD990E0888B998B80E015D92889398986
:102FF000382B288B398B80E00ED990E08A8B9B8B05
:1030000081E009D92A893B89382B2A8B3B8B8AE3BB
:10301000809386048091840486FFFCCF88EA8093A5
:1030200087048091840486FFFCCF81E08093830431
:103030008BE38093860480E0EED890E088839983C8
:1030400080E0E9D828813981382B2883398380E0D2
:10305000E2D890E08A839B8380E0DDD82A813B819F
:10306000382B2A833B8380E0D6D890E08C839D83E5
:1030700081E0D1D82C813D81382B2C833D838AE39C
:10308000809386048091840486FFFCCF85E880933A
:1030900087048091840486FFFCCF81E080938304C1
:1030A0008BE38093860480E0B6D890E08C879D8780
:1030B00081E0B1D80C851D85182B0C871D87FE017A
:1030C000EC5BFF4F6881798180819181681B790B6E
:1030D000072E000C880B990BDBD42AE534E64BE372
:1030E0005FE3CAD520E030E04AE754E436D46C8B85
:1030F0007D8B8E8B9F8BFE01EA5BFF4F6A817B810C
:1031000080819181681B790B072E000C880B990B2D
:10311000BFD42AE534E64BE35FE3AED520E030E0F0
:103120004AE754E41AD4688F798F8A8F9B8FFE0107
:10313000E85BFF4F6C817D8180819181681B790BF9
:10314000072E000C880B990BA3D42AE534E64BE339
:103150005FE392D520E030E04AE754E4FED36C8F81
:103160007D8F8E8F9F8FFE01E65BFF4F6E817F818B
:1031700080819181681B790B072E000C880B990BBD
:1031800087D420E030E04AE755E476D520E030E00F
:1031900040E857E371D56CA37DA38EA39FA3FE01E6
:1031A000E45BFF4F6885798580819181681B790B8D
:1031B000072E000C880B990B6BD420E030E04AE717
:1031C00055E45AD520E030E040E857E355D568A7EC
:1031D00079A78AA79BA7FE01E25BFF4F6A857B85E3
:1031E00080819181681B790B072E000C880B990B4D
:1031F0004FD420E030E04AE755E43ED520E030E00F
:1032000040E857E339D56CA77DA78EA79FA7FE019D
:10321000E05BFF4F6E857F8580819181681B790B14
:10322000072E000C880B990B33D420E030E040E8E7
:1032300050E422D52AE037ED43E254E48ED36CAB60
:103240007DAB8EAB9FABFE01EE5AFF4F688979894B
:1032500080819181681B790B072E000C880B990BDC
:1032600017D420E030E040E850E406D52AE037EDFE
:1032700043E254E472D368AF79AF8AAF9BAFFE01EB
:10328000EC5AFF4F6A897B8980819181681B790B99
:10329000072E000C880B990BFBD320E030E040E8B0
:1032A00050E4EAD42AE037ED43E254E456D36CAF5D
:1032B0007DAF8EAF9FAFB801110F880B990BE8D38C
:1032C00020E030E040E05EE3D7D420E030E048EAA0
:1032D00051E4DBD268AB79AB8AAB9BABDF91CF918A
:1032E0001F910F91089542E06BE680ED0E94171147
:1032F00042E06AE180ED0E94171148E16BE180ED48
:103300000E94171148E16CE180ED0C9417110F93A6
:103310001F93CF93DF93CDB7DEB76497CDBFDEBFEA
:103320008C019E012F5F3F4F4EE06BE380ED0E94CA
:103330002D11898190E0982F88272A81822BF8010E
:10334000808391838B8190E0982F88272C81822B1A
:10335000828393838D8190E0982F88272E81822B02
:10336000848395838F8190E0982F88272885822BEE
:1033700084879587898590E0982F88272A85822BD6
:10338000868397838B8590E0982F88272C85822BC6
:10339000808791878D8590E0982F88272E85822BB6
:1033A000828793876496CDBFDEBFDF91CF911F9157
:1033B0000F910895CF93DF93EC012E853F85FC019B
:1033C000EC5AFF4F40814203B001439F700D11241E
:1033D000672F770F770B620F731F072E000C880B78
:1033E000990B56D32AE939E949E95EE345D46AAB3A
:1033F0007BAB8CAB9DAB28893989FE01EB5AFF4F23
:1034000040814203B001439F700D1124672F770F55
:10341000770B620F731F072E000C880B990B38D3A4
:103420002AE939E949E95EE327D46EAB7FAB88AF7F
:1034300099AF2A893B89FE01EA5AFF4F4081420336
:10344000B001439F700D1124672F770F770B620F28
:10345000731F072E000C880B990B1AD32AE939E940
:1034600049E95EE309D46AAF7BAF8CAF9DAFFE0143
:10347000EE5BFF4F6881798180819181681B790BB8
:10348000072E000C880B990B03D320E030E040E0BE
:103490005AE3F2D36C8B7D8B8E8B9F8BFE01EC5BA2
:1034A000FF4F6A817B8180819181681B790B072E98
:1034B000000C880B990BECD220E030E040E05AE39E
:1034C000DBD3688F798F8A8F9B8FFE01EA5BFF4F7A
:1034D0006C817D8180819181681B790B072E000CA6
:1034E000880B990BD5D220E030E040E05AE3C4D3FA
:1034F0006C8F7D8F8E8F9F8FFE01E85BFF4F6E81FB
:103500007F8180819181681B790B072E000C880BCD
:10351000990BBED223E333E343E851E41ED26CA3FC
:103520007DA38EA39FA3FE01E65BFF4F688579858F
:1035300080819181681B790B072E000C880B990BF9
:10354000A7D223E333E343E851E407D268A779A77E
:103550008AA79BA7FE01E45BFF4F6A857B8580817C
:103560009181681B790B072E000C880B990B90D268
:1035700023E333E343E851E4F0D16CA77DA78EA7A2
:103580009FA76C857D85072E000C880B990B80D238
:1035900020E030EF49E356E478D120E030E048E025
:1035A00052E4DBD142D268AB79ABDF91CF91089581
:1035B000CF93DF93DC011696CD91DC9117971E9681
:1035C000ED91FC911F978CA51F928F93CE01809651
:1035D0009F938F930E979F938F932496DF93CF9310
:1035E00083A18F9382A18F9381A18F9380A18F93C9
:1035F00083818F9382818F9381818F9380818F9339
:1036000083898F9382898F9381898F9380898F9308
:1036100087898F9386898F9385898F9384898F93E8
:103620001896ED91FC91199787818F9386818F93DE
:1036300085818F9384818F931A96ED91FC911B97CE
:1036400087811F928F935696ED91FC9157978381B6
:103650008F9382818F9381818F9380818F9380ED6F
:1036600090E29F938F9351968C9151978F935096A0
:103670008C918F9342D58DB79EB786968DBF9EBF96
:10368000DF91CF910895FC0180E380A381A382A301
:1036900083A384A385A386A387A380A781A7828B06
:1036A000838B848B858B868B878B808F818F828F9A
:1036B000838F848F858F868F84838583868387839A
:1036C00080878187828783878487858786878787A6
:1036D000808B14A608954F925F926F927F928F9283
:1036E0009F92AF92BF92CF92DF92EF92FF920F9391
:1036F0001F93CF93DF93CDB7DEB72C97CDBFDEBF3F
:103700002B013C0149015A01E982FA820B831C8397
:103710009B01AC01B1D26B017C01A5019401C501F3
:10372000B401AAD26D837E838F83988729813A81E1
:103730004B815C81CA01B9019FD269877A878B87E7
:103740009C872D813E814F815885C701B6019DD050
:1037500029853A854B855C8598D041D36B017C01E6
:10376000C301B2019F77A7019601F7D07FD023EC68
:1037700035EF48E450E4F1D020E030E044E353E496
:103780007BD22B013C01C501B4019F77A7019601B3
:10379000E4D06CD023EC35EF48E450E4DED020E0F8
:1037A00030E044E353E468D24B015C0169817A81E3
:1037B0008B819C819F77A7019601CFD057D023ECB6
:1037C00035EF48E450E4C9D020E030E044E353E46E
:1037D00053D26B017C019401A501B201C301B9D0A0
:1037E00018163CF09601A701B201C301B2D0181619
:1037F000CCF59401A501B201C3013AD287FD07C0FF
:103800009601A701B401C501A4D018166CF5960164
:10381000A701B401C5012CD287FD1FC09601A701E5
:10382000B201C30125D287FD18C026015701B2019C
:10383000C5012C96CDBFDEBFDF91CF911F910F91B7
:10384000FF90EF90DF90CF90BF90AF909F908F90C0
:103850007F906F905F904F900895412C512CA12C38
:10386000B12CE5CF5301E3CF2401E1CF9F939F77A4
:103870004AD10F9000203AF49058A2EA2AED3FE096
:1038800049E450E413D0BAC15058BB27AA270ED040
:10389000B5C1A6D130F0ABD120F031F49F3F11F487
:1038A0001EF476C10EF4E095E7FB6CC1E92FB7D1A9
:1038B00080F3BA17620773078407950718F071F44D
:1038C0009EF5CFC10EF4E0950B2EBA2FA02D0B0163
:1038D000B90190010C01CA01A0011124FF27591B55
:1038E00099F0593F50F4503E68F11A16F040A22F5B
:1038F000232F342F4427585FF3CF469537952795CC
:10390000A795F0405395C9F77EF41F16BA0B620BCA
:10391000730B840BBAF09150A1F0FF0FBB1F661F11
:10392000771F881FC2F70EC0BA0F621F731F841F54
:1039300048F4879577956795B795F7959E3F08F07A
:10394000B3CF9395880F08F09927EE0F9795879539
:103950000895F4D008F481E008950CD04FC147D108
:1039600040F03ED130F021F45F3F19F00BC151110E
:1039700079C10EC154D198F39923C9F35523B1F3FA
:10398000951B550BBB27AA2762177307840738F0CE
:103990009F5F5F4F220F331F441FAA1FA9F333D02D
:1039A0000E2E3AF0E0E830D091505040E695001CE1
:1039B000CAF729D0FE2F27D0660F771F881FBB1F9D
:1039C000261737074807AB07B0E809F0BB0B802D77
:1039D000BF01FF2793585F4F2AF09E3F510568F0C3
:1039E000D1C040C15F3FECF3983EDCF386957795FC
:1039F0006795B795F7959F5FC9F7880F911D9695C5
:103A0000879597F90895E1E0660F771F881FBB1F20
:103A1000621773078407BA0720F0621B730B840BCD
:103A2000BA0BEE1F88F7E095089504D06894B111A1
:103A300019C10895FCD088F09F5790F0B92F9927AD
:103A4000B751A0F0D1F0660F771F881F991F1AF0A9
:103A5000BA95C9F712C0B13081F003D1B1E0089531
:103A600000C1672F782F8827B85F39F0B93FCCF3B2
:103A7000869577956795B395D9F73EF4909580959F
:103A8000709561957F4F8F4F9F4F0895E89409C0BF
:103A900097FB3EF490958095709561957F4F8F4F81
:103AA0009F4F9923A9F0F92F96E9BB279395F69597
:103AB000879577956795B795F111F8CFFAF4BB0F15
:103AC00011F460FF1BC06F5F7F4F8F4F9F4F16C079
:103AD000882311F096E911C0772321F09EE8872F03
:103AE000762F05C0662371F096E8862F70E060E0BF
:103AF0002AF09A95660F771F881FDAF7880F969538
:103B0000879597F90895DF93CF931F930F938B01B8
:103B1000EC01E2E2F2E03FD071D09801AE018B01FE
:103B2000EC0160E070E080E89FE3AEDE58D19801E0
:103B3000AE010F911F91CF91DF91AAC0990F00089C
:103B4000550FAA0BE0E8FEEF16161706E807F9076F
:103B5000C0F012161306E407F50798F0621B730B0A
:103B6000840B950B39F40A2661F0232B242B252B8B
:103B700021F408950A2609F4A140A6958FEF811D2E
:103B8000811D089597F99F6780E870E060E00895CF
:103B90009FEF80EC0895DF93CF931F930F93FF92D5
:103BA000EF92DF927B018C01689405C0DA2EEF0161
:103BB0006FD0FE01E894A5912591359145915591DD
:103BC000AEF3EF0173DEFE019701A801DA9479F7F5
:103BD000DF90EF90FF900F911F91CF91DF910895AB
:103BE00000240A94161617061806090608950024DC
:103BF0000A9412161306140605060895092E039456
:103C0000000C11F4882352F0BB0F40F4BF2B11F4C9
:103C100060FF04C06F5F7F4F8F4F9F4F089557FD28
:103C20009058440F551F59F05F3F71F04795880F2A
:103C300097FB991F61F09F3F79F0879508951216C1
:103C400013061406551FF2CF4695F1DF08C016166D
:103C500017061806991FF1CF86957105610508941E
:103C60000895E894BB2766277727CB0197F9089535
:103C700065DF08F48FEF08950BD0C0CFB1DF28F0D7
:103C8000B6DF18F0952309F07DCF82CF1124EACF5B
:103C9000C6DFA0F3959FD1F3950F50E0551F629FAB
:103CA000F001729FBB27F00DB11D639FAA27F00D95
:103CB000B11DAA1F649F6627B00DA11D661F829FBC
:103CC0002227B00DA11D621F739FB00DA11D621FA1
:103CD000839FA00D611D221F749F3327A00D611DBE
:103CE000231F849F600D211D822F762F6A2F1124A0
:103CF0009F5750408AF0E1F088234AF0EE0FFF1FF3
:103D0000BB1F661F771F881F91505040A9F79E3F29
:103D1000510570F037CFA6CF5F3FECF3983EDCF350
:103D2000869577956795B795F795E7959F5FC1F766
:103D3000FE2B880F911D9695879597F90895FA01A6
:103D4000EE0FFF1F30962105310599F161157105C0
:103D500061F48038BFE39B0749F16894903881058E
:103D600061F08038BFEF9B0741F0992342F5FF3F98
:103D7000E1053105210511F1E8940894E795D90191
:103D8000AA2329F4AB2FBE2FF85FD0F310C0FF5F3A
:103D900070F4A695E0F7F73950F019F0FF3A38F4CF
:103DA0009F779F930CD00F9007FC905808953EF09A
:103DB000EFCE60E070E080E89FE308954FE79F77E3
:103DC0005F934F933F932F93D0D02F913F914F917B
:103DD0005F9152DF47C011F40EF4DACE6FC027DFD7
:103DE000D0F39923D9F3CEF39F57550B87FF74D0A7
:103DF0000024A0E640EA900180585695979528F453
:103E0000805C660F771F881F20F02617370748074A
:103E100030F4621B730B840B202931294A2BA695A1
:103E200017940794202531254A2758F7660F771FE6
:103E3000881F20F026173707480730F4620B730BF2
:103E4000840B200D311D411DA09581F7B901842FF0
:103E50009158880F96958795089519F40EF092CE93
:103E600000CF96CEE4DEC8F39638C0F707F80F927D
:103E7000E8942BE33AEA48EB5FE70CDF0F920F92EE
:103E80000F924DB75EB70F92B0D0EAE4F2E083DE56
:103E90004F915F91EF91FF91E595EE1FFF1F49F064
:103EA000FE57E0684427EE0F441FFA95E1F741956D
:103EB000550B22D00F9007FE16C008959F3F31F09A
:103EC000915020F4879577956795B795880F911D48
:103ED0009695879597F9089591505040660F771FF2
:103EE000881FD2F708959B01AC0160E070E080E884
:103EF0009FE333CD47CEE2CF9ADEE8F39923D9F39F
:103F0000940F511DBBF39150504094F059F0882309
:103F100032F0660F771F881F91505040C1F79E3FC7
:103F2000510544F7880F911D9695879597F9089547
:103F30005F3FACF0983E9CF0BB27869577956795E0
:103F4000B79508F4B1609395C1F7BB0F58F711F41A
:103F500060FFE8CF6F5F7F4F8F4F9F4FE3CF82CEE1
:103F60000EF0ACCF15CE68940DCE61DEC8F3992368
:103F7000D1F3C6F3DF93CF931F930F93FF92C92F13
:103F8000DD2788232AF02197660F771F881FDAF72D
:103F900020E030E040E85FEB9FE3883920F0803E8E
:103FA00030F021968F7771DCE2E7F2E003C06DDC40
:103FB000EFE9F2E0F0DD8B01BE01EC01FB2E6F5763
:103FC00071097595771F880B990B62DD28E132E73F
:103FD00041E35FE35DDEAF2D9801AE01FF900F91ED
:103FE0001F91CF91DF9162DC09CEFA01DC01AA0FAB
:103FF000BB1F9B01AC01BF5728F42227332744275E
:1040000050781FC0B75188F4AB2F002446953795E0
:104010002795011CA395D2F3002069F0220F331FCE
:10402000441FB395DAF30DD02FCC61307105A0E8B1
:104030008A07B94630F49B01AC01662777278827A9
:104040009078309621F02083318342835383089502
:10405000A1E21A2EAA1BBB1BFD010DC0AA1FBB1F8C
:10406000EE1FFF1FA217B307E407F50720F0A21BFE
:10407000B30BE40BF50B661F771F881F991F1A946B
:1040800069F760957095809590959B01AC01BD0195
:10409000CF010895052E97FB16F400940FD057FD1D
:1040A00005D0D6DF07FC02D046F408C050954095F5
:1040B000309521953F4F4F4F5F4F089590958095D4
:1040C000709561957F4F8F4F9F4F0895EE0FFF1FA3
:1040D000881F8BBF0790F691E02D1994A29FB00125
:1040E000B39FC001A39F700D811D1124911DB29F2C
:1040F000700D811D1124911D08950F931F93CF936F
:10410000DF93CDB7DEB72E97CDBFDEBF0E891F89F7
:1041100086E08C8309831A838FEF9FE78D839E83CC
:10412000AE01465E5F4F688D798DCE0101960ED04F
:104130002F813885F801E20FF31F10822E96CDBF34
:10414000DEBFDF91CF911F910F9108952F923F9283
:104150004F925F926F927F928F929F92AF92BF9297
:10416000CF92DF92EF92FF920F931F93CF93DF9343
:10417000CDB7DEB72C97CDBFDEBF7C016B018A01C6
:10418000FC0116821782838181FFB0C1CE010196A6
:104190004C01F7019381F60193FD859193FF819185
:1041A0006F01882309F49EC1853239F493FD85910E
:1041B00093FF81916F01853221F4B70190E0C4D162
:1041C000E8CF512C312C20E02032A0F48B3269F062
:1041D00030F4803259F0833269F420612CC08D3282
:1041E00039F0803339F4216026C02260246023C076
:1041F000286021C027FD27C030ED380F3A3078F411
:1042000026FF06C0FAE05F9E300D1124532E13C026
:104210008AE0389E300D1124332E20620CC08E327D
:1042200021F426FD5FC1206406C08C3611F420689D
:1042300002C0883641F4F60193FD859193FF819188
:104240006F018111C1CF982F9F7D9554933028F431
:104250000C5F1F4FFFE3F9830DC0833631F08337C6
:1042600071F0833509F057C021C0F801808189833E
:104270000E5F1F4F44244394512C540114C0380145
:10428000F2E06F0E711CF801A080B18026FF03C020
:10429000652D70E002C06FEF7FEFC5012C8749D11B
:1042A0002C0183012C852F77222E16C03801F2E0D5
:1042B0006F0E711CF801A080B18026FF03C0652D30
:1042C00070E002C06FEF7FEFC5012C8727D12C0172
:1042D0002C852068222E830123FC19C0832D90E0B9
:1042E00048165906A0F4B70180E290E02DD13A9427
:1042F000F5CFF50127FC859127FE81915F01B7017C
:1043000090E022D131103A94F1E04F1A5108411453
:10431000510479F7DEC0843611F0893631F5F801A1
:1043200027FF07C060817181828193810C5F1F4FDD
:1043300008C060817181072E000C880B990B0E5FFD
:104340001F4F2F76722E97FF09C09095809570951C
:1043500061957F4F8F4F9F4F2068722E2AE030E08B
:10436000A4012AD1A82EA81843C0853729F42F7E8E
:10437000B22E2AE030E025C0F22FF97FBF2E8F3613
:10438000C1F018F4883579F0ADC0803719F088375E
:1043900021F0A8C02F2F2061B22EB4FE0DC08B2DAE
:1043A0008460B82E09C024FF0AC09F2F9660B92EE2
:1043B00006C028E030E005C020E130E002C020E186
:1043C00032E0F801B7FE07C060817181828193817C
:1043D0000C5F1F4F06C06081718180E090E00E5F2E
:1043E0001F4FA401E9D0A82EA818FB2DFF777F2E20
:1043F00076FE0BC0372D3E7FA51450F474FE0AC024
:1044000072FC08C0372D3E7E05C0BA2C372D03C084
:10441000BA2C01C0B52C34FF0DC0FE01EA0DF11D10
:104420008081803311F4397E09C032FF06C0B39415
:10443000B39404C0832F867809F0B39433FD12C07F
:1044400030FF06C05A2CB31418F4530C5B18B32C6D
:10445000B31460F4B70180E290E03C8775D0B39468
:104460003C85F6CFB31410F43B1801C0312C34FF57
:1044700011C0B70180E390E03C8766D03C8532FFF5
:1044800016C031FD03C088E790E002C088E590E0E7
:10449000B7010CC0832F867851F031FF02C08BE248
:1044A00001C080E237FD8DE2B70190E04DD0A51448
:1044B00030F4B70180E390E047D05A94F8CFAA9443
:1044C000F401EA0DF11D8081B70190E03DD0A1100B
:1044D000F6CF332009F45DCEB70180E290E034D00E
:1044E0003A94F7CFF7018681978102C08FEF9FEF53
:1044F0002C96CDBFDEBFDF91CF911F910F91FF9022
:10450000EF90DF90CF90BF90AF909F908F907F9073
:104510006F905F904F903F902F900895FC01059011
:10452000615070400110D8F7809590958E0F9F1FB5
:104530000895FC016150704001900110D8F78095FA
:1045400090958E0F9F1F08950F931F93CF93DF9326
:10455000FB01238121FD03C08FEF9FEF28C022FFC5
:1045600016C046815781248135814217530744F490
:10457000A081B1819D012F5F3F4F208331838C93B8
:10458000268137812F5F3F4F2683378310C0EB0191
:10459000092F182F0084F185E02D1995892BE1F65C
:1045A0008E819F8101968E839F83812F902FDF9133
:1045B000CF911F910F910895FA01AA27283051F148
:1045C000203181F1E8946F936E7F6E5F7F4F8F4F44
:1045D0009F4FAF4FB1E03ED0B4E03CD0670F781FA3
:1045E000891F9A1FA11D680F791F8A1F911DA11D88
:1045F0006A0F711D811D911DA11D20D009F46894C1
:104600003F912AE0269F11243019305D3193DEF668
:10461000CF010895462F4770405D4193B3E00FD01E
:10462000C9F7F6CF462F4F70405D4A3318F0495D09
:1046300031FD4052419302D0A9F7EACFB4E0A695EC
:104640009795879577956795BA95C9F7009761050E
:10465000710508959B01AC010A2E06945795479564
:1046600037952795BA95C9F7620F731F841F951F59
:08467000A01D0895F894FFCF8E
:104678000A0D4D656D6F72792065726173656421ED
:104688000A0D0A0D00000A0D5465616D2C54656C05
:1046980065436E742C466C696768745374617465FD
:1046A8002C536F667453746174652C416C7469740F
:1046B8007564652C56656C6F636974792C41636306
:1046C800656C2C4779726F2C4C61742C4C6F6E673B
:1046D8002C416C74694750532C4669782C436865A3
:1046E800636B2C2C436E742C566F6C746167654237
:1046F80061742C566F6C746167655643432C54651E
:104708006D702C50726573732C416363592C41632F
:104718006359322C4779726F582C4779726F5A2C2B
:104728004779726F592C0A0D0A0D00000A0D52655F
:104738006164696E6720646F6E650A0D0A0D00007A
:104748002441474853532C2530366C752C25317538
:104758002C2530312E32662C252B30352E32662C06
:10476800252B30342E31662C252B30322E33662CF7
:10477800252B30342E31662C25732C25732C25736C
:084788002C2531750D0A00001B
:00000001FF
