:1000000064C1000083C1000081C100007FC1000005
:100010007DC100007BC1000079C1000077C10000F4
:1000200075C1000073C1000071C100006FC1000004
:100030006DC100006BC10000BDC4000067C10000BD
:1000400065C1000063C1000061C100005FC1000024
:100050005DC100005BC1000059C1000057C1000034
:1000600055C1000053C1000051C100004FC1000044
:100070004DC100004BC1000049C1000047C1000054
:1000800045C1000043C1000041C100003FC1000064
:100090003DC100003BC1000039C1000037C1000074
:1000A00035C1000033C1000031C100002FC1000084
:1000B0002DC100002BC1000029C10000E3C40000D5
:1000C00025C1000023C1000021C100001FC10000A4
:1000D0001DC100001BC1000019C1000017C10000B4
:1000E00015C1000013C1000011C100000FC10000C4
:1000F0000DC100000BC1000009C1000007C10000D4
:1001000005C1000003C1000001C10000FFC00000E4
:10011000FDC00000FBC00000F9C00000F7C00000F7
:10012000F5C00000F3C00000F1C00000EFC0000007
:10013000EDC000005FC40000E9C00000E7C000009F
:10014000E5C00000E3C00000E1C00000DFC0000027
:10015000DDC00000DBC00000D9C00000D7C0000037
:100160002DC30000D3C00000E9C20000CFC00000D2
:10017000CDC00000CBC00000C9C00000C7C0000057
:10018000C5C00000C3C00000C1C00000BFC0000067
:10019000BDC00000BBC00000B9C00000B7C0000077
:1001A000B5C00000B3C00000B1C00000AFC0000087
:1001B0007AC40000ABC00000A9C00000A7C00000C6
:1001C000A5C00000A3C00000A1C000009FC00000A7
:1001D0009DC000009BC0000099C00000BDC1000090
:1001E00095C0000093C0000091C000008FC00000C7
:1001F0008DC000008BC0000089C0000027031C03D5
:10020000320317034B035B036E0370032103D10812
:1002100007092909420967098C09A509C909F909CA
:10022000072C7AA5BA6CC590DA3B9365FC8BBC535E
:10023000F810FD3C5692834DBD879D3AB63DCBC923
:10024000BF5BBE73DA0FC93F07634236B79BD8A7BF
:100250001A39685618AEBAAB558C1D3CB7CC5763EB
:10026000BD6DEDFD753EF6177231BF000000803F99
:1002700008000000BE922449123EABAAAA2ABECDB5
:10028000CCCC4C3E00000080BEABAAAAAA3E000027
:100290000000BF000000803F00000000000841781F
:1002A000D3BB4387D1133D190E3CC3BD4282AD2B56
:1002B0003E68EC8276BED98FE1A93E4C80EFFFBE4E
:1002C00001C4FF7F3F000000000011241FBECFEFDC
:1002D000CDBFDFE5DEBF00E00CBF10E2A0E0B0E282
:1002E000EEEFF8E500E00BBF02C007900D92A03DD5
:1002F000B107D9F729E2A0EDB0E201C01D92AF34F9
:10030000B207E1F70E94F00D0C947D2C16C10F93FB
:100310001F93CF93DF93EC01E0E0F2E080A18160D6
:1003200080A38FE68093210280A1806880A39681BC
:1003300090FFFDCF00E012E081E0F80183A3608927
:10034000718980E090E00E94E62820E030E040E8FB
:100350005DE30E94DC29688B798B8A8B9B8B87E716
:1003600080932102F80180A1806880A3968190FF8C
:10037000FDCF00E012E081E0F80183A3608971897C
:1003800080E090E00E94E62820E030E040E85DE375
:100390000E94DC296C8B7D8B8E8B9F8B8FE78093EB
:1003A0002102F80180A1806880A3968190FFFDCF93
:1003B00000E012E081E0F80183A36089718980E0A8
:1003C00090E00E94E62820E030E040E85DE30E94F3
:1003D000DC29688F798F8A8F9B8F88E38093210235
:1003E000F80180A1806880A3968190FFFDCF00E096
:1003F00012E081E0F80183A36089718980E090E0D8
:100400000E94E62820E030E040E859E30E94DC2921
:100410002DEC3CEC4CE45DE30E94E4272DEC3CEC3D
:1004200044E251E40E94DC296C837D838E839F83A8
:100430008FE080932102F80180A1806880A39681DB
:1004400090FFFDCF00E012E081E0F80183A3608916
:10045000718980E090E00E94E62820E030E040E8EA
:1004600059E30E94DC292DEC3CEC4CE45DE30E9456
:10047000E4272DEC3CEC44E251E40E94DC2968873F
:1004800079878A879B8787E480932102F80180A17E
:10049000806880A3968190FFFDCF00E012E081E0AC
:1004A000F80183A36089718980E090E00E94E628CA
:1004B00020E030E040E859E30E94DC292DEC3CECE0
:1004C0004CE45DE30E94E4272DEC3CEC44E251E473
:1004D0000E94DC296C877D878E879F87F80110A298
:1004E00080E181A380A1806880A3968190FFFDCFE9
:1004F000E0E0F2E081E083A36089718980E090E030
:100500000E94E62820E030E040E859E30E94DC2920
:100510002DEC3CEC4CE45DE30E94E4272AE939E948
:1005200045E251E40E94DC296C8F7D8F8E8F9F8F76
:10053000DF91CF911F910F9108951F920F920FB6E7
:100540000F9211248F9388E0809307068F910F906C
:100550000FBE0F901F9018951F920F920FB60F921B
:1005600011240BB60F922F933F934F935F936F938A
:100570007F938F939F93AF93BF93EF93FF93CF930B
:10058000DF931F92CDB7DEB700008091A00B898367
:100590008981843261F481E08093B72183E791E21D
:1005A0000E9437261092B4211092B521B1C08981E2
:1005B0008A3229F41092B7211092B421A9C08091F7
:1005C000B721882309F4A4C089818C3271F4A4EB8B
:1005D000B1E2EC91F0E0ED58FE4D85A71C92E5EB01
:1005E000F1E280818F5F808310C0A4EBB1E2EC91D7
:1005F00081E08E0F8C938981F0E0ED58FE4D85A748
:100600008091B821882309F483C01092B821E09129
:10061000B5218E2F90E0FC013297E930F10508F00A
:1006200077C08827E250FF4F8F4F0C94522C809157
:10063000A0218C3239F56CC08091A0218C3249F414
:1006400067C08091A0218C3209F04CC058C00000D6
:100650005FC0A8E7B1E2E1EAF1E28D9381918C32CB
:10066000E1F756C08091A0218E3419F48093772150
:100670004FC0833519F4809377214AC088E5809371
:10068000772146C0A6E8B1E2E1EAF1E28D938191DB
:100690008C32E1F73DC08091A021853419F480931C
:1006A000852136C0873519F48093852131C088E5CE
:1006B000809385212DC08091A021803319F4109260
:1006C0009F2126C0813321F481E080939F2120C0A7
:1006D0008233F1F482E080939F211AC0000018C099
:1006E000000016C0A3E9B1E2E1EAF1E22AEA31E250
:1006F0008D9381918C3219F0E217F307C9F788E4E2
:10070000E3E7F1E2ABE2B1E201900D928A95E1F705
:100710000F90DF91CF91FF91EF91BF91AF919F919A
:100720008F917F916F915F914F913F912F910F909A
:100730000BBE0F900FBE0F901F9018951F920F9237
:100740000FB60F9211240BB60F928F939F93EF93D6
:10075000FF93E0913A27F0913B27EE51FB4D8081CA
:100760008823F9F08332E9F091E090933C278532B9
:1007700021F48AE08093A00902C08093A0098091AF
:100780003A2790913B278739910530F40196809361
:100790003A2790933B2707C0FC01EE51FB4D108296
:1007A00002C010923C27FF91EF919F918F910F9083
:1007B0000BBE0F900FBE0F901F9018951F920F92B7
:1007C0000FB60F9211240BB60F922F933F934F93B6
:1007D0005F936F937F938F939F93AF93BF93EF93A9
:1007E000FF93CF93DF931F92CDB7DEB780E1809365
:1007F00005068091A00989838981843221F481E0F2
:1008000080930B28C1C08981823581F480910B28A7
:10081000882309F493C08FB7F89410920B2898EDB1
:1008200094BF91E0909379008FBFAEC089818334EB
:1008300081F480910B28882309F486C0E4EEF0E26D
:1008400010A211A281E082A3E9E0F8E28383128280
:100850009BC08981803501F580910B28882309F49C
:1008600079C00E94580F1092DC201092DD20109267
:10087000DE201092DF2010920B28E0EEF0E281E003
:10088000818380832FEF87EA91E62150804090405A
:10089000E1F700C0000078C08981883559F4809163
:1008A0000B28882309F45CC0E9E0F8E281E0858345
:1008B00012826AC089818B3451F480910B2888237D
:1008C00009F453C0E9E0F8E2158212825DC0898123
:1008D000833559F480910B28882309F44BC0E9E053
:1008E000F8E281E0848312824FC08981863451F41A
:1008F00080910B28882309F442C0E9E0F8E21482D1
:10090000128242C08981813451F480910B2888235E
:10091000C9F1E9E0F8E281E08683128235C089817D
:10092000843449F480910B28882329F0E9E0F8E227
:100930001682128229C010920B2826C089818981D3
:10094000803509F0A9CF06C089818981883509F0F1
:10095000B1CF06C0898189818B3409F0B8CF05C039
:1009600089818981833509F605C089818981863429
:1009700049F605C089818981813489F603C089815E
:100980008981D9CF8981D7CF0F90DF91CF91FF9106
:10099000EF91BF91AF919F918F917F916F915F91F7
:1009A0004F913F912F910F900BBE0F900FBE0F9064
:1009B0001F9018951F920F920FB60F9211240BB62D
:1009C0000F928F939F93EF93FF9381E08093092879
:1009D000E6E1F4E280819181019680839183FF9129
:1009E000EF919F918F910F900BBE0F900FBE0F90C4
:1009F0001F9018951F920F920FB60F9211240BB6ED
:100A00000F928F939F93EF93FF938091E020882321
:100A100049F18091E120813079F028F08230D1F0E5
:100A20008330E1F024C0E0EEF0E210821382128203
:100A300080E48093A6061BC08091E320873018F0E5
:100A40001092E12014C090E49093A7068F5F8093EA
:100A5000E3200DC080E48093A70609C080E4809362
:100A6000A50605C01092E12080E48093A606FF91C0
:100A7000EF919F918F910F900BBE0F900FBE0F9033
:100A80001F9018951F920F920FB60F9211248F93FB
:100A900080E18093060610920B288F910F900FBE75
:100AA0000F901F9018951F920F920FB60F9211245E
:100AB0000BB60F922F933F934F935F936F937F9358
:100AC0008F939F93AF93BF93EF93FF9380E28093B5
:100AD000070610924C278091162490911724A0E0CD
:100AE000B0E08093D4209093D520A093D620B093EB
:100AF000D72080910D288823B9F1809118249091F6
:100B00001924A0911A24B0911B248F3027E2920758
:100B1000A105B10560F40196A11DB11D80931824B3
:100B200090931924A0931A24B0931B2408C0109208
:100B300018241092192410921A2410921B248091C8
:100B4000182490911924A0911A24B0911B24809309
:100B5000D0209093D120A093D220B093D320109294
:100B6000132410921424EADDFF91EF91BF91AF910D
:100B70009F918F917F916F915F914F913F912F91B5
:100B80000F900BBE0F900FBE0F901F901895CF9235
:100B9000DF92EF92FF92CF93DF93809104219091A7
:100BA0000521892B29F5E4EEF0E2108211821282F0
:100BB000138214821582168217821086118612867D
:100BC00013861486158616861786108A118A128A4D
:100BD000138A148A158A168A178A108E118E128E1D
:100BE000138E148E158E168E178E80E48093050654
:100BF000E0900421F090052182E3E816F10408F06A
:100C00008AC0C4EED0E220911D2130911E21409176
:100C10001F21509120216C817D818E819F810E94B6
:100C2000E5276C837D838E839F83EBE6F8E28681E4
:100C30009781092E000CAA0BBB0B488559856A8544
:100C40007B85840F951FA61FB71F88879987AA8762
:100C5000BB8780859185092E000CAA0BBB0B4C85A8
:100C60005D856E857F85840F951FA61FB71F8C87B6
:100C70009D87AE87BF8782859385092E000CAA0BBE
:100C8000BB0B488959896A897B89840F951FA61FE8
:100C9000B71F888B998BAA8BBB8BE1E1F8E2868129
:100CA0009781092E000CAA0BBB0B4C895D896E89BC
:100CB0007F89840F951FA61FB71F8C8B9D8BAE8BD2
:100CC000BF8B80859185092E000CAA0BBB0B488D2C
:100CD000598D6A8D7B8D840F951FA61FB71F888F36
:100CE000998FAA8FBB8F82859385092E000CAA0B42
:100CF000BB0B4C8D5D8D6E8D7F8D840F951FA61F58
:100D0000B71F8C8F9D8FAE8FBF8F8FEFE81AF80AB9
:100D1000E8A2F9A26BC0C4EED0E220E030E048E4E3
:100D200052E46C817D818E819F810E944D28609369
:100D30002721709328218093292190932A21688567
:100D400079858A859B850F2EF2E3CF2ED12CE12C5D
:100D5000F12CF02DA70196010E94362C2093B32888
:100D60003093B4286C857D858E859F85A70196017B
:100D70000E94362C2093B5283093B628688979894B
:100D80008A899B89A70196010E94362C2093B72857
:100D90003093B8286C897D898E899F89A701960137
:100DA0000E94362C20935B2830935C28688D798DC7
:100DB0008A8D9B8DA70196010E94362C20935D2879
:100DC00030935E286C8D7D8D8E8D9F8DA701960151
:100DD0000E94362C20935F283093602818A219A215
:100DE0001AA210920C2880E480930606DF91CF911E
:100DF000FF90EF90DF90CF90089510923A271092D5
:100E00003B2710923F2710924027109241271092C3
:100E10004227A9E0B8E21C9211961C921197E5ECCA
:100E2000F8E28FE299E2808791878BE698E28083EF
:100E3000918381E198E28283938389E191E28483C3
:100E400095838BE291E286839783A287B38787E0BD
:100E500091E2848795878BED98E28687978782EE6B
:100E600094E2808B918B8BEB91E2828B938B83EC62
:100E700098E2848B958B0895FC019DE090838AE035
:100E800081832BE2228329E423832EE4248321E53A
:100E900025832DE3268321E3278390878187E85AE2
:100EA000FD4F108211820895CF92DF92EF92FF9250
:100EB0000F931F93CF93DF93EC01888199810E9458
:100EC000C1156BEB71E2888199810E9413168C85A4
:100ED0009D850E94A4116BEB71E28C859D850E941B
:100EE000E8118C819D810E947E126BEB71E28C81F6
:100EF0009D810E94AF126BEB71E28C819D810E94FB
:100F00007F258A819B810E94AC1388859985FFD9B2
:100F1000CCE1D4E223E333E343E75FE36881798103
:100F20008A819B810E94DC296B017C010FE219E21E
:100F30002DEC3CEC4CE45DE3F80164817581868125
:100F400097810E94DC299B01AC01C701B6010E9478
:100F5000E527688379838A839B83C0E2D4E223E315
:100F600033E343E75FE3688179818A819B810E9453
:100F7000DC296B017C012DEC3CEC4CE45DE3F801D9
:100F8000648D758D868D978D0E94DC299B01AC0147
:100F9000C701B6010E94E527688379838A839B8312
:100FA000C090B324D090B424E090B524F090B6243F
:100FB0002091DA243091DB244091DC245091DD240F
:100FC000C701B6010E94D829181644F4C092DA2449
:100FD000D092DB24E092DC24F092DD24E1E1F8E21F
:100FE00084899589A689B78980937B2490937C24F2
:100FF000A0937D24B0937E24808D918DA28DB38D9E
:1010000080937F2490938024A0938124B0938224A2
:10101000848D958DA68DB78D8093832490938424A1
:10102000A0938524B093862484A195A1A6A1B7A1FD
:101030008093872490938824A0938924B0938A2452
:1010400080A591A5A2A5B3A580938B2490938C2411
:10105000A0938D24B0938E2484A595A5A6A5B7A5AD
:1010600080938F2490939024A0939124B093922402
:1010700084A995A9A6A9B7A98093932490939424B1
:10108000A0939524B093962480AD91ADA2ADB3AD5D
:101090008093972490939824A0939924B0939A24B2
:1010A00084AD95ADA6ADB7AD80939B2490939C2461
:1010B000A0939D24B0939E2480A991A9A2A9B3A92D
:1010C00080939F249093A024A093A124B093A22462
:1010D000CFE2D9E220E030E048EC52E46889798937
:1010E0008A899B890E94DC2920E030E04FE753E4A5
:1010F0000E944D280E94BA286093D72420E030E057
:1011000048EC52E46C897D898E899F890E94DC2994
:1011100020E030E04FE753E40E944D280E94BA28B7
:101120006093D82420E030E048EC52E4688D798D5B
:101130008A8D9B8D0E94DC2920E030E04FE753E44C
:101140000E944D280E94BA286093D9248BEB91E22B
:101150000E945F26DF91CF911F910F91FF90EF903A
:10116000DF90CF900895CF92DF92EF92FF9280911F
:101170000F28811108C0109224241092E12082E0EF
:10118000809366063EC18091242490E089309105C9
:1011900008F037C1FC018827E95FFE4F8F4F0C94A0
:1011A000522C20E030E040E450E46091262470911D
:1011B000272480912824909129240E94D829181648
:1011C00084F020E030E040E251E46091B724709177
:1011D000B8248091B9249091BA240E94D829181675
:1011E0001CF481E0809324241092E1208091B324A8
:1011F0009091B424A091B524B091B6248093DA24C0
:101200009093DB24A093DC24B093DD24FAC081E02A
:1012100080930E282091B3243091B4244091B524BA
:101220005091B6246091DA247091DB248091DC2403
:101230009091DD240E94E42720E030E040E251E478
:101240000E94D82918160CF0DCC082E08093242478
:10125000D8C0E0EEF0E281E08183808360911624C3
:101260007091172480E090E00E94E6286093D820D7
:101270007093D9208093DA209093DB2083E08093D1
:101280002424BFC0609116247091172480E090E060
:101290000E94E6286B017C0120E030E040EA50E447
:1012A0006091D8207091D9208091DA209091DB2034
:1012B0000E94E5279B01AC01C701B6010E94D82915
:1012C00018160CF09EC084E0809324249AC020E07D
:1012D00030E040E252E46091B7247091B8248091EC
:1012E000B9249091BA240E94D82918168CF020E0D5
:1012F00030E04AE753E46091B3247091B4248091C4
:10130000B5249091B6240E94492888230CF079C016
:1013100085E08093242475C0E0EEF0E281E08183D3
:101320008083609116247091172480E090E00E94E1
:10133000E6286093D8207093D9208093DA20909388
:10134000DB2086E0809324245CC060911624709199
:10135000172480E090E00E94E6286B017C0120E0E9
:1013600030E040E251E46091D8207091D920809122
:10137000DA209091DB200E94E5279B01AC01C70198
:10138000B6010E94D8291816E4F587E0809324243A
:1013900038C020E030E048EC52E46091B324709112
:1013A000B4248091B5249091B6240E9449288823C2
:1013B00044F5C090B724D090B824E090B924F090C0
:1013C000BA2420E030E040E85FE3C701B6010E94A4
:1013D00049288823B4F420E030E040E85FEBC701FF
:1013E000B6010E94D829181664F488E0809324245A
:1013F00008C0E0EEF0E282E0818381E08083109219
:101400000E28FF90EF90DF90CF90089580E228D6CD
:101410002AD62AD660D7CAD6B2D6C7D6DDD688E2B3
:1014200090E023D68AEF90E041D682E390E05FD649
:1014300088EE93E07DD6E1DC27D70E94B0150E94AC
:1014400071121092DA241092DB241092DC24109294
:10145000DD2473D70E94FC1223D780E0E5D43FD56A
:101460006093DC207093DD208093DE209093DF205A
:1014700087E08093A2000895CF93DF93CDB7DEB7C6
:101480006697CDBFDEBF86E1E0E0F0E2DE011196B7
:1014900001900D928A95E1F7E0E8F6E0808580FF03
:1014A000FDCF808581FFFACFE0EEF0E283E081831B
:1014B00081E08083FDD42FEF87EA91E621508040C0
:1014C0009040E1F700C000008981882371F0FE019F
:1014D0003296A0EAB9E08C938FE79EE30197F1F78B
:1014E00000C0000081918111F6CF1092E02010928F
:1014F000DC201092DD201092DE201092DF20669614
:10150000CDBFDEBFDF91CF9108954F925F926F9272
:101510007F929F92AF92BF92CF92DF92EF92FF9213
:101520000F931F93CF93DF93CDB7DEB7CA5BD1097B
:10153000CDBFDEBF10920E28E0EEF0E283E08183A3
:1015400081E080832FEF87E893E121508040904035
:10155000E1F700C000001082E0E8F6E0808581FF3E
:10156000FDCF86EAE6E1F0E2DE01119601900D92F0
:101570008A95E1F784E1ECEBF0E2DE01A955BF4F7B
:1015800001900D928A95E1F78981882389F0FE0107
:101590003296A0EAB9E08C932FEF89EF90E02150CA
:1015A00080409040E1F700C0000081918111F3CFAD
:1015B000EFEFF7EA21E6E150F0402040E1F700C00C
:1015C000000084E08093050681E0E5D383E0C6D384
:1015D00080E0C4D380E0C2D380E0C0D3912CC12C82
:1015E000D12C76010F2EF0EAAF2EF9E0BF2EF02DB0
:1015F0000F2EF4E64F2E512C612C712CF02D00E8AB
:1016000016E0BFD38F3F21F0F5018083912C01C0FC
:101610009394FFEFCF1ADF0AEF0AFF0AC701B60162
:10162000A30192010E94142C672B682B692B51F4A3
:101630002FEF89EF90E0215080409040E1F700C00B
:10164000000006C0EFE1F3E03197F1F700C00000C1
:10165000F801808580FF03C0F3E6F91590F680E07D
:101660009AD3C955DF4F8881C75AD040882379F073
:10167000FE01E855FF4FA0EAB9E08C938FE39FE1AC
:101680000197F1F700C0000081918111F6CFC65497
:10169000DF4FCDBFDEBFDF91CF911F910F91FF9044
:1016A000EF90DF90CF90BF90AF909F907F906F9022
:1016B0005F904F90089582EE94E2DEDB3FD8E0E049
:1016C000F6E088E085832FEF37E893E12150304042
:1016D0009040E1F700C0000086832FEF33EC99E0E3
:1016E000215030409040E1F700C0000085832FEF8B
:1016F00037E893E1215030409040E1F700C000000E
:1017000086832FEF33EC89E0215030408040E1F7B1
:1017100000C0000008958091880680FD06C0809179
:10172000880681FD02C0A8CE08958091880681FFB9
:10173000ECCE08953F924F925F926F927F928F927C
:101740009F92AF92BF92CF92DF92EF92FF920F9350
:101750001F93CF93DF93CDB7DEB76097CDBFDEBFCA
:101760008C01DC011E96ED90FC901F970F2EF4E685
:101770003F2EF02D19861A861B861C861D821E821E
:101780001F82188619821A821B821C82ED86FE86B1
:1017900085EC98E289DBED85FE85C080D180E28012
:1017A000F380A701960169817A818B819C810E94D7
:1017B000E52769837A838B839C83AD85BE851496E8
:1017C0008D909D90AD90BC901797A50194016D816F
:1017D0007E818F8198850E94E5276D837E838F832C
:1017E0009887ED85FE854084518462847384A301CB
:1017F000920169857A858B859C850E94E52769879A
:101800007A878B879C873A943110C2CFD301C2016B
:10181000260137016C017D01A3019201C301B201D0
:101820000E94DC296D877E878F87988BA5019401A4
:10183000C501B4010E94DC299B01AC016D857E8548
:101840008F8598890E94E5276D877E878F87988B83
:10185000A3019201C301B2010E94DC292B013C01CA
:10186000A5019401C501B4010E94DC299B01AC01D2
:10187000C301B2010E94E5272B013C01A70196019B
:10188000C701B6010E94DC299B01AC01C301B20172
:101890000E94E5270E948F2A0E94B5289B0177238A
:1018A00024F422273327261B370BB901330F880B6B
:1018B000990B0E94E8282B013C0126E636E646E615
:1018C0005FE30E94492888230CF4BEC02DEC3CEC59
:1018D0004CE85FE3C301B2010E94D82918160CF44A
:1018E000B5C020E030E048EC52E469817A818B8118
:1018F0009C810E944D2869837A838B839C8320E09E
:1019000030E048EC52E46D817E818F8198850E94A1
:101910004D286D837E838F83988720E030E048ECEC
:1019200052E469857A858B859C850E944D2869875C
:101930007A878B879C8749805A806B807C80E8946B
:1019400077F88D809E80AF80B884E894B7F86B01FB
:101950007C01E894F7F8A5019401C301B2010E944B
:10196000D829181684F4A7019601C301B2010E9478
:10197000D829181644F4D8015496ED91FC91559746
:1019800081E080831FC0A5019401C301B2010E94C0
:101990004928882384F4A7019601C501B4010E9457
:1019A000D829181644F4D8015496ED91FC91559716
:1019B00082E0808307C0D8015496ED91FC91559741
:1019C00083E08083F80104891589D8018C918230E5
:1019D00099F0833009F1813069F520E030E0A90108
:1019E00069817A818B819C810E944928882314F522
:1019F00081E0F80181831EC020E030E0A9016D8103
:101A00007E818F8198850E94492888239CF481E0FB
:101A1000D80111968C930EC020E030E0A9016985B1
:101A20007A858B859C850E94492888231CF481E057
:101A3000F801818387017601A5019401C301B201F8
:101A40000E94CD2680E003C081E001C081E0609665
:101A5000CDBFDEBFDF91CF911F910F91FF90EF902F
:101A6000DF90CF90BF90AF909F908F907F906F90BE
:101A70005F904F903F9008952F923F924F925F92C8
:101A80006F927F928F929F92AF92BF92CF92DF928E
:101A9000EF92FF920F931F93CF93DF93FC01248863
:101AA0003588D1018C918230E9F08330B1F1C08169
:101AB000D1814C895D896E897F89C88CD98CEA8CEB
:101AC000FB8C0C8D1D8D2E8D3F8D8CA19DA1AEA10B
:101AD000BFA188A499A4AAA4BBA44CA45DA46EA48D
:101AE0007FA435C0C081D181488D598D6A8D7B8D91
:101AF000CC88DD88EE88FF880C8D1D8D2E8D3F8D66
:101B000088A599A5AAA5BBA58CA09DA0AEA0BFA0A5
:101B10004CA45DA46EA47FA41AC0C081D1814C8D59
:101B20005D8D6E8D7F8DC88CD98CEA8CFB8C0C8979
:101B30001D892E893F898CA59DA5AEA5BFA588A42A
:101B400099A4AAA4BBA44CA05DA06EA07FA0E101B3
:101B50003980332011F07058B058C685D785488336
:101B600059836A837B83C685D785CC82DD82EE82EA
:101B7000FF82C685D785088719872A873B87C68550
:101B8000D785888F998FAA8FBB8FA685B7855C96DE
:101B90008D929D92AD92BC925F970684F785E02D61
:101BA00040A251A262A273A2DF91CF911F910F9127
:101BB000FF90EF90DF90CF90BF90AF909F908F906D
:101BC0007F906F905F904F903F902F900895E4EE3C
:101BD000F0E210A211A281E082A380930C28089564
:101BE000E9E0F8E2158281E0848310924C270EDC54
:101BF00085EC98E29FDD78945EDD8DDDE8DFC9E05D
:101C0000D8E27C2E8D2E0F2EFCE3CF2EF7E2DF2EB6
:101C1000F02D0F2EF7E2AF2EF3E0BF2EF02D0F2E9A
:101C2000E12CF6E0FF2EF02D6894992492F804EE52
:101C300010E28AE08A95F1F700C088818823C9F311
:101C4000188285EC98E230D985EC98E215DF8BDAC2
:101C50004BE251E2672D782D8BEB91E20E949717B2
:101C60008D81882339F04BEB51E260E971E08CED16
:101C700090E262D1F6018081811109C0EBEBF1E2C3
:101C8000A2EEB4E2C50101900D920197E1F7F701D0
:101C90009782F80182A1882361F20E94C705C9CF0B
:101CA000E0E8F4E094819923ECF7882319F087E0C9
:101CB0008093830480918704089580938604E0E8EC
:101CC000F4E0848186FFFDCF60938704E0E8F4E0D0
:101CD000848186FFFDCF40938704E0E8F4E08481AF
:101CE00086FFFDCF83E0809383040895FF920F93D6
:101CF0001F93CF93DF93F22E80938604E0E8F4E005
:101D0000948196FFFDCF60938704E0E8F4E094812E
:101D100096FFFDCFE0E8F4E091E093838160868355
:101D2000042F10E0015011091016110664F4CF2D94
:101D3000D32F80E0B5DF89938C2F8F1990E0801727
:101D40009107BCF302C0CF2DD32F81E0A9DF888398
:101D5000DF91CF911F910F91FF900895CF93DF9363
:101D60001F92CDB7DEB78093C308E0ECF8E0828124
:101D70008823ECF78091C30889830F90DF91CF917E
:101D800008951092C308E0ECF8E082818823ECF714
:101D90008091C3080895882321F081E0809366062E
:101DA000089581E08093650608951F93CF93DF9394
:101DB000C0E6D6E011E01E8386E0D0DF1D83DF9110
:101DC000CF911F9108951F93CF93DF93C0E6D6E084
:101DD00011E01E8384E0C2DF1D83DF91CF911F914C
:101DE0000895DF92EF92FF920F931F93CF93DF93AB
:101DF000F62EE72ED82E042FD8DFC0E6D6E011E06D
:101E00001E8382E0ABDF8D2DA9DF8E2DA7DF8F2D06
:101E1000A5DF802FA3DF1D83DF91CF911F910F914D
:101E2000FF90EF90DF9008951F93CF93DF93882367
:101E300091F0C0E6D6E011E01E8380E58FDF1D83C0
:101E40008AE08A95F1F700C01E8381E087DF8CE18C
:101E500085DF1D8311C0C0E6D6E011E01E8380E55A
:101E60007DDF1D838AE08A95F1F700C01E8381E043
:101E700075DF80E073DF1D83DF91CF911F9108959F
:101E8000CF93DF931F92CDB7DEB781E080936606D4
:101E900085E064DF76DF898374DF8983898180FD53
:101EA000FBCF81E0809365060F90DF91CF9108957D
:101EB0001F93CF93DF9379DFC0E6D6E011E01E8356
:101EC00080E64CDF1D838FE193E00197F1F700C0BE
:101ED0000000D6DF78DFDF91CF911F910895CF9278
:101EE000DF92EF92FF9281E08093660683E036DF17
:101EF00080E034DF80E032DF80E030DFC12CD12CA5
:101F000076010DC08FEFC81AD80AE80AF80A80EAED
:101F1000C8168FE8D8068EE3E806F10419F031DF21
:101F20008F3F81F781E080936506C701B601FF907E
:101F3000EF90DF90CF9008958F929F92AF92BF92D3
:101F4000CF92DF92EF92FF920F931F93CF93DF9385
:101F50004B01FA01DC014D915D916D917C91403D09
:101F60005E4F6F437105B8F524E02093050640816C
:101F7000442371F1A12CB12C81149104A104B1046A
:101F800039F18F01EC010F5F1F4FC12CD12C76016D
:101F9000EFEFCE1ADE0AEE0AFE0A688179818A81A5
:101FA0009B811FDF6DDF88819981AA81BB810196AA
:101FB000A11DB11D88839983AA83BB83D8014D914C
:101FC0008D01442329F0C814D904EA04FB0401F765
:101FD00084E080930606DF91CF911F910F91FF90CF
:101FE000EF90DF90CF90BF90AF909F908F9008952B
:101FF000E0E5F0E0908191609083A8E6B0E090E4A5
:1020000012969C9312979DE013969C9390819460F6
:102010009083918192FFFDCFE0E5F0E09681987F7B
:102020009683E8E6F0E0908191609083E0E5F0E04F
:10203000918190FFFDCF98ED94BF10924000E0E5B4
:10204000F0E090819F7E9083858380E18083818111
:1020500084FFFDCF88ED84BF84E080934000089525
:102060008695C6CF08950895089527E02093000827
:102070001092010810922008109221089C01A0E003
:10208000BDE70E945A2CDC01CB01072E7AE0B69501
:10209000A795979587957A95D1F7702D8093260807
:1020A0009093270882E080930608089527E0209304
:1020B00000091092010910922009109221099C0137
:1020C000A0E0BDE70E945A2CDC01CB01072E7AE08C
:1020D000B695A795979587957A95D1F7702D8093AA
:1020E00026099093270981E080930609089527E047
:1020F0002093000A1092010A1092200A1092210ADD
:102100009C01A0E0BDE70E945A2CDC01CB01072E08
:102110007AE0B695A795979587957A95D1F7702D22
:102120008093260A9093270A82E08093060A0895F6
:1021300027E02093000B1092010B1092200B1092BD
:10214000210B813D27E0920710F080ED97E09C0184
:10215000A0E0BDE70E945A2CDC01CB01072E7AE0FB
:10216000B695A795979587957A95D1F7702D809319
:10217000260B9093270B82E08093060B0895E0EAEC
:10218000F6E084E0868388E085838183E0EAFBE0F3
:1021900083E0858387E1868384EA87838381806106
:1021A000838384818861848308950895E0E6F6E05E
:1021B00084E0868388E085838183E0EAF9E083E038
:1021C000858387E1868384EA878383818C61838327
:1021D0008481886184830895CF93DF9388E180931D
:1021E000900680939106A0E0B6E08C9181608C937C
:1021F000E6E0F6E021E020838C918C678C938CE7FD
:102200008083A0EAB6E08C9180648C9366EA76E0E5
:1022100050E4DB015C9334E0309341063093460692
:10222000C1E6D6E082E08883A6E6B6E08C933C93D4
:1022300048E0488390E298839C93DB013C93409371
:10224000A5064093A10633E0309340063093440640
:10225000A2EEB7E02C938C93A2E8B6E030E13C9379
:102260009C93A2EAB6E02C938C933C933093620645
:10227000808380E88083E6E2F6E0208390835083C9
:102280008083DF91CF910895E0E8F4E080E38183DB
:1022900091E092838583818188608183948308950E
:1022A000E0E4F6E080E1818380EA818380E4828358
:1022B00080EE8583E0E6F6E081E08183858381E539
:1022C0008093C0080895AAECB1E022E02C93FC01B1
:1022D00084911C9208951F93CF93DF93C0E0D2E0C6
:1022E00011E0188380E290E0EEDF8C8781E290E0DD
:1022F000EADF8D8719821A8283E08C8318A3DF912D
:10230000CF911F91089592E390938604E0E8F4E062
:10231000948196FFFDCF80938704E0E8F4E0848108
:1023200086FFFDCF60938704E0E8F4E0848186FFB8
:10233000FDCF83E08093830408956FE280E2E3DFC2
:1023400060E383E2E0CF0895CF92DF92EF92FF92B5
:102350000F931F93CF93DF938C0182E380938604C6
:10236000E0E8F4E0948196FFFDCF88EA809387044B
:10237000E0E8F4E0948196FFFDCFE0E8F4E081E04E
:10238000838383E3868380E08BDCC82ED12C80E0BE
:1023900087DCD82A80E084DCE82EF12C80E080DC29
:1023A000F82A80E07DDCC82FD0E081E079DCF801FC
:1023B000C082D182E282F382D82BC483D583DF919D
:1023C000CF911F910F91FF90EF90DF90CF900895E4
:1023D000EF92FF920F931F93CF93DF93CDB7DEB7AA
:1023E0002C97CDBFDEBF7C018B01FC016081718128
:1023F000072E000C880B990B0E94E82820E030E0A3
:1024000040E45AE30E94DC2969837A838B839C83AE
:10241000F70162817381072E000C880B990B0E94D3
:10242000E82820E030E040E45AE30E94DC296D8394
:102430007E838F839887F70164817581072E000C56
:10244000880B990B0E94E82820E030E040E45AE332
:102450000E94DC2969877A878B879C8769817A81CA
:102460008B819C817801F4EFEF1AFCEFFF0A2BE8D7
:102470003DEF45E65EE30E94E527F7016083718347
:10248000828393836D817E818F8198857801F0EFBF
:10249000EF1AFCEFFF0A2BE83DEF45E65EE30E94F2
:1024A000E527F701608371838283938369857A8549
:1024B0008B859C850C5E1C4F2BE83DEF45E65EE36B
:1024C0000E94E427F80160837183828393832C96B2
:1024D000CDBFDEBFDF91CF911F910F91FF90EF90A5
:1024E00008954FE060E188EBE8DB41E063E288EBD0
:1024F000E4DB40EC60E288EBE0CB08950F931F93A0
:10250000CF93DF93CDB7DEB72A97CDBFDEBF8C0167
:102510009E012F5F3F4F45E068EA88EBE7DB8A8149
:102520004B8150E060E070E0BA0155274427582BFA
:102530008981482BF80140835183628373838D81A5
:1025400090E0982F88272C81822B808791872A966C
:10255000CDBFDEBFDF91CF911F910F910895CF9234
:10256000DF92EF92FF920F931F93CF93DF93EC01D3
:102570008B01688179818A819B810E94E62820E015
:1025800030E040E859E30E94DC296B017C016C8358
:102590007D838E839F8388859985BC01990F880BE5
:1025A000990B0E94E82820E030E040EF53E40E94BD
:1025B0004D2820E030E04AE252E40E94E5276A8795
:1025C0007B878C879D87F801E051FD4FC082D182C7
:1025D000E282F3828A859B85AC85BD8534968083B3
:1025E0009183A283B383DF91CF911F910F91FF90CD
:1025F000EF90DF90CF90089584ED80938604E0E81B
:10260000F4E0848186FFFDCF80E280938704E0E8D8
:10261000F4E0848186FFFDCF8FEB80938704E0E8B0
:10262000F4E0848186FFFDCFE0E8F4E083E083837B
:1026300084ED8683848186FFFDCF83E280938704C7
:10264000E0E8F4E0848186FFFDCF80E28093870498
:10265000E0E8F4E0848186FFFDCFE0E8F4E083E089
:1026600083838AE38683848186FFFDCF80E2809323
:102670008704E0E8F4E0848186FFFDCF87E880935B
:102680008704E0E8F4E0848186FFFDCFE0E8F4E031
:1026900083E083838AE38683848186FFFDCF81E2A2
:1026A00080938704E0E8F4E0848186FFFDCF80E634
:1026B00080938704E0E8F4E0848186FFFDCFE0E8C2
:1026C000F4E083E083838AE38683848186FFFDCF01
:1026D00084E280938704E0E8F4E0848186FFFDCF04
:1026E00080EF80938704E0E8F4E0848186FFFDCFEB
:1026F000E0E8F4E083E083838AE38683848186FFD5
:10270000FDCF85E280938704E0E8F4E0848186FFD2
:10271000FDCF10928704E0E8F4E0848186FFFDCFCE
:10272000E0E8F4E083E083838AE38683848186FFA4
:10273000FDCF86E280938704E0E8F4E0848186FFA1
:10274000FDCF10928704E0E8F4E0848186FFFDCF9E
:1027500083E08093830408950F931F93CF93DF93B7
:10276000EC0184ED80938604E0E8F4E0848186FF48
:10277000FDCF88EA80938704E0E8F4E0848186FF57
:10278000FDCF00E814E081E0F801838385ED8683C6
:1027900080E086DA90E08E839F8380E081DA2E816C
:1027A0003F81382B2E833F8380E07ADA90E0888760
:1027B000998780E075DA28853985382B288739870D
:1027C00080E06EDA90E08A879B8781E069DA2A856B
:1027D0003B85382B2A873B878AE3F80186838481EF
:1027E00086FFFDCF88E880938704E0E8F4E08481E9
:1027F00086FFFDCF00E814E081E0F80183838BE3DE
:10280000868380E04DDA90E08E879F8780E048DA0B
:102810002E853F85382B2E873F8780E041DA90E078
:10282000888B998B80E03CDA28893989382B288B72
:10283000398B80E035DA90E08A8B9B8B81E030DA4F
:102840002A893B89382B2A8B3B8B8AE3F8018683C4
:10285000848186FFFDCF88EA80938704E0E8F4E076
:10286000848186FFFDCF00E814E081E0F8018383D6
:102870008BE3868380E014DA90E08883998380E09C
:102880000FDA28813981382B2883398380E008DAF0
:1028900090E08A839B8380E003DA2A813B81382B96
:1028A0002A833B8380E0FCD990E08C839D8381E088
:1028B000F7D92C813D81382B2C833D838AE3F801A5
:1028C0008683848186FFFDCF85E880938704E0E8D6
:1028D000F4E0848186FFFDCFE0E8F4E081E08383CB
:1028E0008BE3868380E0DCD990E08C879D8781E054
:1028F000D7D90C851D85182B0C871D87FE01EC5B35
:10290000FF4F6881798180819181681B790B072E47
:10291000000C880B990B0E94E8282AE534E64BE36B
:102920005FE30E94DC2920E030E04AE754E40E94A3
:102930004D286C8B7D8B8E8B9F8BFE01EA5BFF4F4E
:102940006A817B8180819181681B790B072E000C45
:10295000880B990B0E94E8282AE534E64BE35FE3F5
:102960000E94DC2920E030E04AE754E40E944D2830
:10297000688F798F8A8F9B8FFE01E85BFF4F6C8198
:102980007D8180819181681B790B072E000C880B5B
:10299000990B0E94E8282AE534E64BE35FE30E94A6
:1029A000DC2920E030E04AE754E40E944D286C8F97
:1029B0007D8F8E8F9F8FFE01E65BFF4F6E817F8143
:1029C00080819181681B790B072E000C880B990B75
:1029D0000E94E82820E030E04AE755E40E94DC2924
:1029E00020E030E040E857E30E94DC296CA37DA39F
:1029F0008EA39FA3FE01E45BFF4F688579858081EC
:102A00009181681B790B072E000C880B990B0E9493
:102A1000E82820E030E04AE755E40E94DC2920E085
:102A200030E040E857E30E94DC2968A779A78AA72D
:102A30009BA7FE01E25BFF4F6A857B8580819181C8
:102A4000681B790B072E000C880B990B0E94E82855
:102A500020E030E04AE755E40E94DC2920E030E045
:102A600040E857E30E94DC296CA77DA78EA79FA7AB
:102A7000FE01E05BFF4F6E857F8580819181681B41
:102A8000790B072E000C880B990B0E94E82820E098
:102A900030E040E850E40E94DC292AE037ED43E2D0
:102AA00054E40E944D286CAB7DAB8EAB9FABFE0116
:102AB000EE5AFF4F6889798980819181681B790B73
:102AC000072E000C880B990B0E94E82820E030E0CC
:102AD00040E850E40E94DC292AE037ED43E254E468
:102AE0000E944D2868AF79AF8AAF9BAFFE01EC5AC8
:102AF000FF4F6A897B8980819181681B790B072E42
:102B0000000C880B990B0E94E82820E030E040E898
:102B100050E40E94DC292AE037ED43E254E40E94AD
:102B20004D286CAF7DAF8EAF9FAFB801110F880BF2
:102B3000990B0E94E82820E030E040E05EE30E942C
:102B4000DC2920E030E048EA51E40E94E52768AB48
:102B500079AB8AAB9BABDF91CF911F910F91089519
:102B600042E06BE680EDA9D842E06AE180EDA5D8AD
:102B700048E16BE180EDA1D848E16CE180ED9DC8B2
:102B800008950F931F93CF93DF93CDB7DEB764976C
:102B9000CDBFDEBF8C019E012F5F3F4F4EE06BE348
:102BA00080EDA4D8898190E0982F88272A81822BF4
:102BB000F801808391838B8190E0982F88272C8166
:102BC000822B828393838D8190E0982F88272E819A
:102BD000822B848395838F8190E0982F8827288586
:102BE000822B84879587898590E0982F88272A856E
:102BF000822B868397838B8590E0982F88272C855E
:102C0000822B808791878D8590E0982F88272E854D
:102C1000822B828793876496CDBFDEBFDF91CF91F1
:102C20001F910F910895EF92FF920F931F93CF93EF
:102C3000DF93EC018B012E853F85FC01EC5AFF4FA1
:102C400040814203B001439F700D1124672F770F1D
:102C5000770B620F731F072E000C880B990B0E94D5
:102C6000E8282AE939E949E95EE30E94DC296AABF0
:102C70007BAB8CAB9DAB28893989FE01EB5AFF4FAA
:102C800040814203B001439F700D1124672F770FDD
:102C9000770B620F731F072E000C880B990B0E9495
:102CA000E8282AE939E949E95EE30E94DC296EABAC
:102CB0007FAB88AF99AF2A893B89FE01EA5AFF4F63
:102CC00040814203B001439F700D1124672F770F9D
:102CD000770B620F731F072E000C880B990B0E9455
:102CE000E8282AE939E949E95EE30E94DC296AAF6C
:102CF0007BAF8CAF9DAFFE01EE5BFF4F68817981AA
:102D000080819181681B790B072E000C880B990B31
:102D10000E94E82820E030E040E05AE30E94DC29ED
:102D20006C8B7D8B8E8B9F8BFE01EC5BFF4F6A81E2
:102D30007B8180819181681B790B072E000C880BA9
:102D4000990B0E94E82820E030E040E05AE30E941E
:102D5000DC29688F798F8A8F9B8FFE01EA5BFF4F9A
:102D60006C817D8180819181681B790B072E000C1D
:102D7000880B990B0E94E82820E030E040E05AE3FD
:102D80000E94DC296C8F7D8F8E8F9F8FFE01E85B08
:102D9000FF4F6E817F8180819181681B790B072EA7
:102DA000000C880B990B0E94E82823E333E343E8E7
:102DB00051E40E944D286CA37DA38EA39FA3FE0126
:102DC000E65BFF4F6885798580819181681B790B6F
:102DD000072E000C880B990B0E94E82823E333E3AD
:102DE00043E851E40E944D2868A779A78AA79BA7CA
:102DF000FE01E45BFF4F6A857B8580819181681BC2
:102E0000790B072E000C880B990B0E94E82823E30E
:102E100033E343E851E40E944D286CA77DA78EA7B9
:102E20009FA76C857D85072E000C880B990B0E944F
:102E3000E82820E030EF49E356E40E94E52720E04F
:102E400030E048E052E40E944D280E94B52868AB6B
:102E500079AB780128E4E21A2DEFF20A072E000C74
:102E6000880B990B0E94E82820E030E040E251E412
:102E70000E944D28F70160837183828393838CA124
:102E80009DA1AEA1BFA1789780839183A283B383D4
:102E900088A599A5AAA5BBA5349680839183A28312
:102EA000B3838CA59DA5AEA5BFA5349680839183E1
:102EB000A283B3838C899D89AE89BF8974978083EF
:102EC0009183A283B383888D998DAA8DBB8D34960F
:102ED00080839183A283B3838C8D9D8DAE8DBF8DB6
:102EE000349680839183A283B3838AA99BA9ACA9DA
:102EF000BDA9709680839183A283B3838EA99FA975
:102F0000A8ADB9AD349680839183A283B3838AAD93
:102F10009BADACADBDAD349680839183A283B3836A
:102F2000DF91CF911F910F91FF90EF9008952F9215
:102F30003F924F925F926F927F928F929F92AF9249
:102F4000BF92CF92DF92EF92FF920F931F93CF9396
:102F5000DF93CDB7DEB72A97CDBFDEBF8C015B0113
:102F60007A0119821A8289819A819C012F5F3F4FD1
:102F700029833A83F801E80FF91F23E3208389812D
:102F80009A819C012F5F3F4F29833A83F801E80F14
:102F9000F91F22E3208389819A819C012F5F3F4F93
:102FA00029833A83F801E80FF91F29E320838981F7
:102FB0009A819C012F5F3F4F29833A83F801E80FE4
:102FC000F91F26E3208389819A819C012F5F3F4F5F
:102FD00029833A83F801E80FF91F0F2EFCE25F2ED8
:102FE000F02D5082F801E35AFD4F808191818B834F
:102FF0009C8329813A81C901019689839A838B81B7
:103000009C81F801E20FF31F60E177E20E94012C3E
:10301000CB010F2EFAE0CF2ED12CF02DB6010E945D
:10302000012C805D8083E981FA81CF01019689833B
:103030009A838B819C81E00FF11F0F2EF8EE8F2E6B
:10304000F3E09F2EF02DB4010E94012CCB01B601BC
:103050000E94012C805D8083E981FA81CF01019675
:1030600089839A838B819C81E00FF11F0F2EF4E6F8
:103070006F2E712CF02DB3010E94012CCB01B601F3
:103080000E94012C805D8083E981FA81CF01019645
:1030900089839A838B819C81E00FF11FB6010E9486
:1030A000012CCB01B6010E94012C805D8083E98157
:1030B000FA81CF01019689839A838B819C81E00FED
:1030C000F11FB6010E94012C805D808389819A8165
:1030D0009C012F5F3F4F29833A83F801E80FF91FC6
:1030E0005082F801EF59FD4F20E030E04AE754E408
:1030F00060817181828193810E94DC290E94B528C0
:103100006B837C83E981FA81CF01019689839A835D
:103110008B819C81E00FF11FB4010E94012CCB0137
:10312000B6010E94012C805D808389819A819C0177
:103130002F5F3F4F29833A83F801E80FF91F2EE2F2
:103140002083E981FA81CF01019689839A838B815B
:103150009C81E00FF11FB3010E94012CCB01B6014D
:103160000E94012C805D808329813A81C9010196EA
:1031700089839A838B819C81F801E20FF31FB6014A
:103180000E94012CCB01B6010E94012C805D80833E
:1031900029813A81C901019689839A838B819C8117
:1031A000F801E20FF31FB6010E94012C805D8083BD
:1031B00089819A819C012F5F3F4F29833A83F801CF
:1031C000E80FF91F5082F801E759FD4F808190E028
:1031D0008B839C8389819A819C012F5F3F4F298338
:1031E0003A832B813C81F801E80FF91F205D208391
:1031F00089819A819C012F5F3F4F29833A83F8018F
:10320000E80FF91F508289819A819C012F5F3F4FFF
:1032100029833A83F801E80FF91F23E52083898188
:103220009A819C012F5F3F4F29833A83F801E80F71
:10323000F91FD50116962C911697205D2083898160
:103240009A819C012F5F3F4F29833A83F801E80F51
:10325000F91F14962C911497205D208389819A81FF
:103260009C012F5F3F4F29833A83F801E80FF91F34
:1032700015962C911597205D208389819A819C0158
:103280002F5F3F4F29833A83F801E80FF91F139608
:103290002C91205D208389819A819C012F5F3F4F73
:1032A00029833A83F801E80FF91F5082F801E850AA
:1032B000FD4F80809180A280B380C501B4010E943F
:1032C000B5286B837C83C501B4010E94CD2A9B0184
:1032D000AC01C501B4010E94E42720E030E048ECD5
:1032E00052E40E94DC290E94B5286D837E838B8185
:1032F0009C81992324F08D819E819923DCF48B811C
:103300009C819195819591098B839C838D819E8170
:103310009195819591098D839E8389819A819C01E4
:103320002F5F3F4F29833A83F801E80FF91F2DE201
:1033300020830CC089819A819C012F5F3F4F298394
:103340003A83F801E80FF91F2BE2208329813A81A3
:10335000C901019689839A838B819C81F801E20FD0
:10336000F31F60E177E20E94012CCB012AE030E0FC
:10337000B9010E94012C805D808349815A81CA0174
:10338000019689839A838B819C81F801E40FF51F54
:1033900068EE73E00E94012CCB01B9010E94012C60
:1033A000805D808349815A81CA01019689839A830D
:1033B0008B819C81F801E40FF51F64E670E00E94A8
:1033C000012CCB01B9010E94012C805D80834981D1
:1033D0005A81CA01019689839A838B819C81F80165
:1033E000E40FF51FB9010E94012CCB01B9010E9425
:1033F000012C805D808349815A81CA0101968983AD
:103400009A838B819C81F801E40FF51FB9010E941A
:10341000012C805D808389819A81AC014F5F5F4F71
:1034200049835A83F801E80FF91F4EE2408349812E
:103430005A81CA01019689839A838D819E81F80100
:10344000E40FF51FB9010E94012CCB01B9010E94C4
:10345000012C805D808349815A81CA01019689834C
:103460009A838D819E81F801E40FF51FB9010E94B6
:10347000012C805D808389819A819C012F5F3F4F61
:1034800029833A83F801E80FF91F2CE2208320E01A
:1034900030E040E251E4F801E450FD4F6081718179
:1034A000828193810E94DC290E94B5286B837C83F2
:1034B0008B819C819923A4F48B819C81919581952A
:1034C00091098B839C8389819A819C012F5F3F4F57
:1034D00029833A83F801E80FF91F2DE220830CC0FD
:1034E00089819A819C012F5F3F4F29833A83F8019C
:1034F000E80FF91F2BE2208329813A81C901019647
:1035000089839A838B819C81F801E20FF31F60E12C
:1035100077E20E94012CCB012AE030E0B9010E9441
:10352000012C805D808349815A81CA01019689837B
:103530009A838B819C81F801E40FF51F68EE73E09C
:103540000E94012CCB01B9010E94012C805D808377
:1035500049815A81CA01019689839A838B819C8112
:10356000F801E40FF51F64E670E00E94012CCB0126
:10357000B9010E94012C805D808349815A81CA0172
:10358000019689839A838B819C81F801E40FF51F52
:10359000B9010E94012CCB01B9010E94012C805D70
:1035A000808389819A81AC014F5F5F4F49835A8341
:1035B000F801E80FF91F4EE2408349815A81CA01A0
:1035C000019689839A838B819C81F801E40FF51F12
:1035D000B9010E94012C805D808389819A819C01C0
:1035E0002F5F3F4F29833A83F801E80FF91F2CE240
:1035F000208320E030E04AE754E4F801EC56FD4F28
:1036000060817181828193810E94DC290E94B528AA
:103610006B837C838B819C819923A4F48B819C8117
:103620009195819591098B839C8389819A819C01D5
:103630002F5F3F4F29833A83F801E80FF91F2DE2EE
:1036400020830CC089819A819C012F5F3F4F298381
:103650003A83F801E80FF91F2BE2208329813A8190
:10366000C901019689839A838B819C81F801E20FBD
:10367000F31F60E177E20E94012CCB012AE030E0E9
:10368000B9010E94012C805D808349815A81CA0161
:10369000019689839A838B819C81F801E40FF51F41
:1036A00068EE73E00E94012CCB01B9010E94012C4D
:1036B000805D808389819A81AC014F5F5F4F498330
:1036C0005A83F801E80FF91F4EE2408349815A817D
:1036D000CA01019689839A838B819C81F801E40F4A
:1036E000F51F64E670E00E94012CCB01B9010E9435
:1036F000012C805D808349815A81CA0101968983AA
:103700009A838B819C81F801E40FF51FB9010E9417
:10371000012CCB01B9010E94012C805D808349817D
:103720005A81CA01019689839A838B819C81F80111
:10373000E40FF51FB9010E94012C805D808389810F
:103740009A819C012F5F3F4F29833A83F801E80F4C
:10375000F91F2CE2208320E030E040E251E4F80140
:10376000EC55FD4F60817181828193810E94DC293B
:103770000E94B5286B837C838B819C819923A4F460
:103780008B819C819195819591098B839C83898103
:103790009A819C012F5F3F4F29833A83F801E80FFC
:1037A000F91F2DE220830CC089819A819C012F5F33
:1037B0003F4F29833A83F801E80FF91F2BE220835A
:1037C00029813A81C901019689839A838B819C81E1
:1037D000F801E20FF31F60E177E20E94012CCB01B8
:1037E0000F2EFAE0CF2ED12CF02DB6010E94012C25
:1037F000805D808329813A81C901019689839A83FA
:103800008B819C81F801E20FF31F0F2EF8EE2F2E13
:10381000F3E03F2EF02DB1010E94012CCB01B60147
:103820000E94012C805D808329813A81C901019623
:1038300089839A838B819C81F801E20FF31F0F2EFD
:10384000F4E68F2E912CF02DB4010E94012CCB01B7
:10385000B6010E94012C805D808329813A81C901D3
:10386000019689839A838B819C81F801E20FF31F73
:10387000B6010E94012CCB01B6010E94012C805D93
:10388000808389819A819C012F5F3F4F29833A83EE
:10389000F801E80FF91F0F2EFEE2AF2EF02DA082E7
:1038A000E981FA81CF01019689839A838B819C817A
:1038B000E00FF11FB6010E94012C805D8083898199
:1038C0009A819C012F5F3F4F29833A83F801E80FCB
:1038D000F91F0F2EFCE2BF2EF02DB08289819A8154
:1038E0009C012F5F3F4F29833A83F7012481F80120
:1038F000E80FF91F208389819A819C012F5F3F4F38
:1039000029833A83D70115962C911597F801E80F72
:10391000F91F208389819A819C012F5F3F4F298362
:103920003A8316962C911697F801E80FF91F208319
:1039300089819A819C012F5F3F4F29833A83179693
:103940002C911797F801E80FF91F208389819A813C
:103950009C012F5F3F4F29833A8318962C9118972B
:10396000F801E80FF91F208389819A819C012F5F5C
:103970003F4F29833A8319962C911997F801E80F44
:10398000F91F208389819A819C012F5F3F4F2983F2
:103990003A831A962C911A97F801E80FF91F2083A1
:1039A00089819A819C012F5F3F4F29833A831B961F
:1039B0002C911B97F801E80FF91F208389819A81C8
:1039C0009C012F5F3F4F29833A831C962C911C97B3
:1039D000F801E80FF91F208389819A819C012F5FEC
:1039E0003F4F29833A831D962C911D97F801E80FCC
:1039F000F91F208389819A819C012F5F3F4F298382
:103A00003A831E962C911E97F801E80FF91F208328
:103A100089819A819C012F5F3F4F29833A83F80166
:103A2000E80FF91FB08289819A819C012F5F3F4F77
:103A300029833A8352962C915297F801E80FF91F87
:103A4000208389819A819C012F5F3F4F29833A838C
:103A500053962C915397F801E80FF91F2083898121
:103A60009A819C012F5F3F4F29833A83F701248974
:103A7000F801E80FF91F208389819A819C012F5F4B
:103A80003F4F29833A8355962C915597F801E80FBB
:103A9000F91F208389819A819C012F5F3F4F2983E1
:103AA0003A8356962C915697F801E80FF91F208318
:103AB00089819A819C012F5F3F4F29833A835796D2
:103AC0002C915797F801E80FF91F208389819A817B
:103AD0009C012F5F3F4F29833A8358962C9158972A
:103AE000F801E80FF91F208389819A819C012F5FDB
:103AF0003F4F29833A8359962C915997F801E80F43
:103B0000F91F208389819A819C012F5F3F4F298370
:103B10003A835A962C915A97F801E80FF91F20839F
:103B200089819A819C012F5F3F4F29833A835B965D
:103B30002C915B97F801E80FF91F208389819A8106
:103B40009C012F5F3F4F29833A835C962C915C97B1
:103B5000F801E80FF91F208389819A819C012F5F6A
:103B60003F4F29833A83F801E80FF91FB08289811A
:103B70009A819C012F5F3F4F29833A8390962C9125
:103B80009097F801E80FF91F208389819A819C01A1
:103B90002F5F3F4F29833A8391962C919197F8019B
:103BA000E80FF91F208389819A819C012F5F3F4F85
:103BB00029833A8392962C919297F801E80FF91F86
:103BC000208389819A819C012F5F3F4F29833A830B
:103BD00093962C919397F801E80FF91F2083898120
:103BE0009A819C012F5F3F4F29833A83F70124A1DB
:103BF000F801E80FF91F208389819A819C012F5FCA
:103C00003F4F29833A8395962C919597F801E80FB9
:103C1000F91F208389819A819C012F5F3F4F29835F
:103C20003A8396962C919697F801E80FF91F208316
:103C300089819A819C012F5F3F4F29833A83979610
:103C40002C919797F801E80FF91F208389819A81B9
:103C50009C012F5F3F4F29833A8398962C91989728
:103C6000F801E80FF91F208389819A819C012F5F59
:103C70003F4F29833A83F801E80FF91FB082898109
:103C80009A819C012F5F3F4F29833A83F801E80F07
:103C9000F91F9C962C91205D208389819A819C013B
:103CA0002F5F3F4F29833A83F801E80FF91FB08255
:103CB00089819A819C012F5F3F4F29833A83F801C4
:103CC000E80FF91F21E3208389819A819C012F5FEE
:103CD0003F4F29833A83F801E80FF91F23E320833C
:103CE00089819A819C012F5F3F4F29833A83F80194
:103CF000E80FF91FB08289819A819C012F5F3F4FA5
:103D000029833A83F801E80FF91F25E2208389818E
:103D10009A819C012F5F3F4F29833A83F801E80F76
:103D2000F91F23E2208389819A819C012F5F3F4FF5
:103D300029833A83F801E80FF91FB082F801E55AA8
:103D4000FD4F80819181A0E0B0E08F839887A987A3
:103D5000BA87E980FA80C701019689839A836F81C7
:103D6000788589859A85E00EF11E20E432E44FE0E3
:103D700050E00E94142C0F2EFAE04F2E512C612C93
:103D8000712CF02DCA01B901A30192010E94142CDB
:103D9000605DF7016083E980FA80C701019689833D
:103DA0009A836F81788589859A85E00EF11E20EAD5
:103DB00036E841E050E00E94142CCA01B901A30189
:103DC00092010E94142C605DD7016C93E980FA8007
:103DD000C701019689839A836F81788589859A8541
:103DE000E00EF11E20E137E240E050E00E94142C8A
:103DF000CA01B901A30192010E94142C605DF70170
:103E00006083E980FA80C701019689839A836F8174
:103E1000788589859A85E00EF11E28EE33E040E032
:103E200050E00E94142CCA01B901A30192010E9422
:103E3000142C605DD7016C93E980FA80C70101966C
:103E400089839A836F81788589859A85E00EF11E32
:103E500024E630E040E050E00E94142CCA01B90191
:103E6000A30192010E94142C605DF7016083E98038
:103E7000FA80C701019689839A836F817885898545
:103E80009A85E00EF11EA30192010E94142CCA0132
:103E9000B901A30192010E94142C605DD7016C93BB
:103EA000E980FA80C701019689839A836F817885BA
:103EB00089859A85E00EF11EA30192010E94142CBF
:103EC000605DF701608389819A819C012F5F3F4F7C
:103ED00029833A83F801E80FF91FB08220E030E02F
:103EE0004AE754E4F801EF59FD4F60817181828106
:103EF00093810E94DC290E94B5286B837C83E98131
:103F0000FA81CF01019689839A838B819C81E00F8E
:103F1000F11FB1010E94012CCB01B6010E94012CBE
:103F2000805D808389819A819C012F5F3F4F298327
:103F30003A83F801E80FF91FA082E981FA81CF01E5
:103F4000019689839A838B819C81E00FF11FB401D4
:103F50000E94012CCB01B6010E94012C805D808360
:103F6000E981FA81CF01019689839A838B819C81B3
:103F7000E00FF11FB6010E94012CCB01B6010E9497
:103F8000012C805D8083E981FA81CF0101968983CC
:103F90009A838B819C81E00FF11FB6010E94012C56
:103FA000805D808389819A819C012F5F3F4F2983A7
:103FB0003A83F801E80FF91FB08220E030E04AE7C9
:103FC00054E4F801EB59FD4F608171818281938146
:103FD0000E94DC290E94B5286B837C83E981FA81E9
:103FE000CF01019689839A838B819C81E00FF11F19
:103FF000B1010E94012CCB01B6010E94012C805D11
:10400000808389819A819C012F5F3F4F29833A8366
:10401000F801E80FF91FA08229813A81C9010196B0
:1040200089839A838B819C81F801E20FF31FB4018D
:104030000E94012CCB01B6010E94012C805D80837F
:1040400029813A81C901019689839A838B819C8158
:10405000F801E20FF31FB6010E94012CCB01B6015B
:104060000E94012C805D808329813A81C9010196DB
:1040700089839A838B819C81F801E20FF31FB6013B
:104080000E94012C805D808389819A819C012F5F31
:104090003F4F29833A83F801E80FF91FB08220E0EF
:1040A00030E048EC52E4F801E854FD4F6081718142
:1040B000828193810E94DC290E94B5286B837C83D6
:1040C0008B819C819923A4F48B819C81919581950E
:1040D00091098B839C8389819A819C012F5F3F4F3B
:1040E00029833A83F801E80FF91F2DE220830CC0E1
:1040F00089819A819C012F5F3F4F29833A83F80180
:10410000E80FF91F2BE2208329813A81C90101962A
:1041100089839A838B819C81F801E20FF31F68EEFB
:1041200073E00E94012CCB012AE030E0B9010E942B
:10413000012C805D808349815A81CA01019689835F
:104140009A838B819C81F801E40FF51F64E670E08F
:104150000E94012CCB01B9010E94012C805D80835B
:1041600089819A81AC014F5F5F4F49835A83F8017F
:10417000E80FF91F4EE2408349815A81CA01019636
:1041800089839A838B819C81F801E40FF51FB90123
:104190000E94012CCB01B9010E94012C805D80831B
:1041A00049815A81CA01019689839A838B819C81B6
:1041B000F801E40FF51FB9010E94012C805D808396
:1041C00089819A819C012F5F3F4F29833A83F801AF
:1041D000E80FF91F2CE22083F801E051FD4FC08069
:1041E000D180E280F380C701B601BFD76B837C83A7
:1041F000C701B6010E94CD2A9B01AC01C701B601DF
:10420000E3D620E030E04AE754E40E94DC29ADD751
:104210006D837E838B819C819923DCF48B819C81CF
:104220009195819591098B839C838D819E81919538
:10423000819591098D839E8389819A819C012F5F4D
:104240003F4F29833A83F801E80FF91F2DE22083BD
:104250000CC089819A819C012F5F3F4F29833A834B
:10426000F801E80FF91F2BE2208329813A81C90167
:10427000019689839A838B819C81F801E20FF31F59
:1042800068EE73E00E94012CCB012AE030E0B90116
:104290000E94012C805D808349815A81CA01019668
:1042A00089839A838B819C81F801E40FF51F0F2E7F
:1042B000F4E6EF2EF12CF02DB7010E94012CCB017A
:1042C000B9010E94012C805D808349815A81CA0115
:1042D000019689839A838B819C81F801E40FF51FF5
:1042E000B9010E94012CCB01B9010E94012C805D13
:1042F000808349815A81CA01019689839A838B817F
:104300009C81F801E40FF51FB9010E94012C805D2A
:10431000808389819A81AC014F5F5F4F49835A83C3
:10432000F801E80FF91F4EE2408349815A81CA0122
:10433000019689839A838D819E81F801E40FF51F90
:10434000B7010E94012CCB01B9010E94012C805DB4
:10435000808349815A81CA01019689839A838D811C
:104360009E81F801E40FF51FB9010E94012CCB01D9
:10437000B9010E94012C805D808349815A81CA0164
:10438000019689839A838D819E81F801E40FF51F40
:10439000B9010E94012C805D808389819A819C01F2
:1043A0002F5F3F4F29833A83F801E80FF91F2CE272
:1043B0002083F801E05FFC4F80819181A281B3816D
:1043C000BC01CD01905820E030E04AE754E4F4D736
:1043D000CCD66B837C838B819C819923A4F48B81C5
:1043E0009C819195819591098B839C8389819A8188
:1043F0009C012F5F3F4F29833A83F801E80FF91F93
:104400002DE220830CC089819A819C012F5F3F4F50
:1044100029833A83F801E80FF91F2BE220832981D1
:104420003A81C901019689839A838B819C81F80125
:10443000E20FF31F60E177E20E94012CCB012AE03A
:1044400030E0B9010E94012C805D808349815A814E
:10445000CA01019689839A838B819C81F801E40FBC
:10446000F51F68EE73E00E94012CCB01B9010E9498
:10447000012C805D808389819A81AC014F5F5F4F01
:1044800049835A83F801E80FF91F4EE240834981BE
:104490005A81CA01019689839A838B819C81F80194
:1044A000E40FF51F64E670E00E94012CCB01B90116
:1044B0000E94012C805D808349815A81CA01019646
:1044C00089839A838B819C81F801E40FF51FB901E0
:1044D0000E94012CCB01B9010E94012C805D8083D8
:1044E00049815A81CA01019689839A838B819C8173
:1044F000F801E40FF51FB9010E94012C805D808353
:1045000089819A819C012F5F3F4F29833A83F8016B
:10451000E80FF91F2CE2208320E030E04AE754E462
:10452000F801EC53FD4F608171818281938144D702
:104530001CD66B837C838B819C819923A4F48B8113
:104540009C819195819591098B839C8389819A8126
:104550009C012F5F3F4F29833A83F801E80FF91F31
:104560002DE220830CC089819A819C012F5F3F4FEF
:1045700029833A83F801E80FF91F2BE22083298170
:104580003A81C901019689839A838B819C81F801C4
:10459000E20FF31F60E177E20E94012CCB012AE0D9
:1045A00030E0B9010E94012C805D808349815A81ED
:1045B000CA01019689839A838B819C81F801E40F5B
:1045C000F51F68EE73E00E94012CCB01B9010E9437
:1045D000012C805D808389819A81AC014F5F5F4FA0
:1045E00049835A83F801E80FF91F4EE2408349815D
:1045F0005A81CA01019689839A838B819C81F80133
:10460000E40FF51F64E670E00E94012CCB01B901B4
:104610000E94012C805D808349815A81CA010196E4
:1046200089839A838B819C81F801E40FF51FB9017E
:104630000E94012CCB01B9010E94012C805D808376
:1046400049815A81CA01019689839A838B819C8111
:10465000F801E40FF51FB9010E94012C805D8083F1
:1046600089819A819C012F5F3F4F29833A83F8010A
:10467000E80FF91F2CE2208320E030E040E251E413
:10468000F801E056FD4F608171818281938194D65B
:104690006CD56B837C838B819C819923A4F48B8163
:1046A0009C819195819591098B839C8389819A81C5
:1046B0009C012F5F3F4F29833A83F801E80FF91FD0
:1046C0002DE220830CC089819A819C012F5F3F4F8E
:1046D00029833A83F801E80FF91F2BE2208329810F
:1046E0003A81C901019689839A838B819C81F80163
:1046F000E20FF31F60E177E20E94012CCB012AE078
:1047000030E0B9010E94012C805D808349815A818B
:10471000CA01019689839A838B819C81F801E40FF9
:10472000F51F68EE73E00E94012CCB01B9010E94D5
:10473000012C805D808349815A81CA010196898359
:104740009A838B819C81F801E40FF51F64E670E089
:104750000E94012CCB01B9010E94012C805D808355
:1047600049815A81CA01019689839A838B819C81F0
:10477000F801E40FF51FB9010E94012CCB01B9012A
:104780000E94012C805D808389819A81AC014F5FFA
:104790005F4F49835A83F801E80FF91F4EE24083C7
:1047A00049815A81CA01019689839A838B819C81B0
:1047B000F801E40FF51FB9010E94012C805D808390
:1047C00089819A819C012F5F3F4F29833A83F801A9
:1047D000E80FF91F2CE2208320E030E040E251E4B2
:1047E000F801E855FD4F6081718182819381E4D5A4
:1047F000BCD46B837C838B819C819923A4F48B81B3
:104800009C819195819591098B839C8389819A8163
:104810009C012F5F3F4F29833A83F801E80FF91F6E
:104820002DE220830CC089819A819C012F5F3F4F2C
:1048300029833A83F801E80FF91F2BE220832981AD
:104840003A81C901019689839A838B819C81F80101
:10485000E20FF31F60E177E2D4D7CB012AE030E02A
:10486000B901CFD7805D808349815A81CA01019601
:1048700089839A838B819C81F801E40FF51F68EE90
:1048800073E0BFD7CB01B901BCD7805D808349817C
:104890005A81CA01019689839A838B819C81F80190
:1048A000E40FF51F64E670E0ACD7CB01B901A9D7DE
:1048B000805D808349815A81CA01019689839A83E8
:1048C0008B819C81F801E40FF51FB9019AD7CB01C8
:1048D000B90197D7805D808389819A81AC014F5F50
:1048E0005F4F49835A83F801E80FF91F4EE2408376
:1048F00049815A81CA01019689839A838B819C815F
:10490000F801E40FF51FB9017CD7805D80838981B0
:104910009A819C012F5F3F4F29833A83F801E80F6A
:10492000F91F2CE2208320E030E040E251E4F8015E
:10493000E053FD4F60817181828193813DD515D413
:104940006B837C838B819C819923A4F48B819C81D4
:104950009195819591098B839C8389819A819C0192
:104960002F5F3F4F29833A83F801E80FF91F2DE2AB
:1049700020830CC089819A819C012F5F3F4F29833E
:104980003A83F801E80FF91F2BE2208329813A814D
:10499000C901019689839A838B819C81F801E20F7A
:1049A000F31F60E177E22DD7CB012AE030E0B901B7
:1049B00028D7805D808349815A81CA010196898305
:1049C0009A838B819C81F801E40FF51F68EE73E0F8
:1049D00018D7CB01B90115D7805D808349815A81F1
:1049E000CA01019689839A838B819C81F801E40F27
:1049F000F51F64E670E005D7CB01B90102D7805DF1
:104A0000808349815A81CA01019689839A838B8167
:104A10009C81F801E40FF51FB901F3D6CB01B90170
:104A2000F0D6805D808389819A81AC014F5F5F4FB2
:104A300049835A83F801E80FF91F4EE24083498108
:104A40005A81CA01019689839A838B819C81F801DE
:104A5000E40FF51FB901D5D6805D808389819A81E5
:104A60009C012F5F3F4F29833A83F801E80FF91F1C
:104A70002CE2208389819A819C012F5F3F4F2983FB
:104A80003A83F801E80FF91F2DE0208389819A818C
:104A90009C012F5F3F4F29833A83F801E80FF91FEC
:104AA0002AE0208389819A819C012F5F3F4F2983CF
:104AB0003A83F801E80FF91F108289819A819C01DD
:104AC0002F5F3F4F29833A83F801E80FF91F88E5EC
:104AD00080832A96CDBFDEBFDF91CF911F910F91CA
:104AE000FF90EF90DF90CF90BF90AF909F908F900E
:104AF0007F906F905F904F903F902F9008952F92EE
:104B00003F924F925F926F927F928F929F92AF925D
:104B1000BF92CF92DF92EF92FF920F931F93CF93AA
:104B2000DF93CDB7DEB72C97CDBFDEBF8B01FC0185
:104B300044815581668177814D835E836F83788759
:104B400086859785A089B18989879A87AB87BC8735
:104B50006D817E818F81988529853A854B855C851D
:104B60009CD22EE534ED42E45EE389D49B01AC0196
:104B700060E070E080E89FE327D220E032E14AE283
:104B800057E41AD469837A838B839C831801F8E0F5
:104B90002F1AFDEF3F0AF101C080D180E280F3803F
:104BA00049805A806B807C802DEC3CEC4CE45FE3C8
:104BB000C701B60101D44B015C012DEC3CEC4CE487
:104BC0005EE3C301B201F8D39B01AC01C501B4019E
:104BD000FCD14B015C01F10160837183828393837B
:104BE0001801FDED2F1AFCEF3F0A26E636E646E6F1
:104BF0005FE3F1016081718182819381DDD32B01BB
:104C00003C01A7019601C501B401DED12DEC3CECBD
:104C10004CEC5DE3D1D39B01AC01C301B201D5D112
:104C2000F101608371838283938304501D4F20E0E0
:104C300030E048EC51E4C0D3F80160837183828393
:104C400093832C96CDBFDEBFDF91CF911F910F9143
:104C5000FF90EF90DF90CF90BF90AF909F908F909C
:104C60007F906F905F904F903F902F900895FC0140
:104C700080E380A381A382A383A384A385A386A3C7
:104C800087A380A781A7828B838B848B858B868B60
:104C9000878B808F818F828F838F848F858F868F84
:104CA00084838583868387838087818782878387C0
:104CB0008487858786878787808B14A608958F923F
:104CC0009F92AF92BF92CF92DF92EF92FF92CF93DB
:104CD000DF93EC01FC01EC56FD4F60817181828114
:104CE000938143D29B01772324F422273327261B69
:104CF000370BC901880F991FB901680F791F072E5B
:104D0000000C880B990B64D26B017C01FE01E4540A
:104D1000FD4F6083718382839383E05BFF4F6081EB
:104D200071818281938121D29B01772324F42227F0
:104D30003327261B370BC901880F991F820F931F3A
:104D4000BC01990F880B990B43D24B015C01FE010A
:104D5000E85EFC4F60837183828393839B01AC0187
:104D6000C701B60125D318163CF4C559DD4FC882DA
:104D7000D982EA82FB8206C0C559DD4F88829982BA
:104D8000AA82BB82DF91CF91FF90EF90DF90CF900E
:104D9000BF90AF909F908F9008954F925F926F92C7
:104DA0007F928F929F92AF92BF92CF92DF92EF92BB
:104DB000FF920F931F93CF93DF93CDB7DEB760972A
:104DC000CDBFDEBF2B013C012D833E834F8358872F
:104DD000470158019B01AC01EFD26B017C012D8191
:104DE0003E814F815885CA01B901E6D269837A8331
:104DF0008B839C839B01AC01C701B601E6D06D8714
:104E00007E878F87988BA5019401C501B401D4D208
:104E100069877A878B879C8729813A814B815C815E
:104E2000C701B601D2D06B017C0129853A854B853B
:104E30005C85C701B601C9D072D369837A838B833D
:104E40009C83C301B2019F7729813A814B815C81A8
:104E500024D1ACD023EC35EF48E450E41ED120E05F
:104E600030E044E353E4A8D2F62EE72ED82EC92E24
:104E70006D817E818F8198859F7729813A814B81D1
:104E80005C810BD193D023EC35EF48E450E405D19D
:104E900020E030E044E353E48FD2662E772E182FC3
:104EA000092FC501B4019F7729813A814B815C812B
:104EB000F4D07CD023EC35EF48E450E4EED020E091
:104EC00030E044E353E478D2B62EA72E982E892EF4
:104ED000262D372D412F502F6F2D7E2D8D2D9C2D62
:104EE000D8D018165CF02B2D3A2D492D582D6F2D4A
:104EF0007E2D8D2D9C2DCDD018167CF5262D372D91
:104F0000412F502F6F2D7E2D8D2D9C2D51D288231A
:104F10005CF02B2D3A2D492D582D662D772D812FA4
:104F2000902FB7D01816F4F42B2D3A2D492D582D6B
:104F3000662D772D812F902F3BD28823B4F02B2D17
:104F40003A2D492D582D6F2D7E2D8D2D9C2D30D233
:104F5000882384F0192D082D11C0BF2CAE2C1D2DD7
:104F60000C2D0CC0B62CA72C09C0B12CA12C10E024
:104F700000E004C0B12CA12C10E000E06B2D7A2DD4
:104F8000812F902F6096CDBFDEBFDF91CF911F9113
:104F90000F91FF90EF90DF90CF90BF90AF909F90D8
:104FA0008F907F906F905F904F9008959F939F7721
:104FB0004AD10F9000203AF49058A2EA2AED3FE03F
:104FC00049E450E413D0BAC15058BB27AA270ED0E9
:104FD000B5C1A6D130F0ABD120F031F49F3F11F430
:104FE0001EF476C10EF4E095E7FB6CC1E92FB7D152
:104FF00080F3BA17620773078407950718F071F4F6
:105000009EF5CFC10EF4E0950B2EBA2FA02D0B010B
:10501000B90190010C01CA01A0011124FF27591BFD
:1050200099F0593F50F4503E68F11A16F040A22F03
:10503000232F342F4427585FF3CF46953795279574
:10504000A795F0405395C9F77EF41F16BA0B620B73
:10505000730B840BBAF09150A1F0FF0FBB1F661FBA
:10506000771F881FC2F70EC0BA0F621F731F841FFD
:1050700048F4879577956795B795F7959E3F08F023
:10508000B3CF9395880F08F09927EE0F97958795E2
:105090000895F4D008F481E008950CD04FC147D1B1
:1050A00040F03ED130F021F45F3F19F00BC15111B7
:1050B00079C10EC154D198F39923C9F35523B1F3A3
:1050C000951B550BBB27AA2762177307840738F077
:1050D0009F5F5F4F220F331F441FAA1FA9F333D0D6
:1050E0000E2E3AF0E0E830D091505040E695001C8A
:1050F000CAF729D0FE2F27D0660F771F881FBB1F46
:10510000261737074807AB07B0E809F0BB0B802D1F
:10511000BF01FF2793585F4F2AF09E3F510568F06B
:10512000D1C040C15F3FECF3983EDCF386957795A4
:105130006795B795F7959F5FC9F7880F911D96956D
:10514000879597F90895E1E0660F771F881FBB1FC9
:10515000621773078407BA0720F0621B730B840B76
:10516000BA0BEE1F88F7E095089504D06894B1114A
:1051700019C10895FCD088F09F5790F0B92F992756
:10518000B751A0F0D1F0660F771F881F991F1AF052
:10519000BA95C9F712C0B13081F003D1B1E00895DA
:1051A00000C1672F782F8827B85F39F0B93FCCF35B
:1051B000869577956795B395D9F73EF49095809548
:1051C000709561957F4F8F4F9F4F0895E89409C068
:1051D00097FB3EF490958095709561957F4F8F4F2A
:1051E0009F4F9923A9F0F92F96E9BB279395F69540
:1051F000879577956795B795F111F8CFFAF4BB0FBE
:1052000011F460FF1BC06F5F7F4F8F4F9F4F16C021
:10521000882311F096E911C0772321F09EE8872FAB
:10522000762F05C0662371F096E8862F70E060E067
:105230002AF09A95660F771F881FDAF7880F9695E0
:10524000879597F90895DF93CF931F930F938B0161
:10525000EC01E0E2F2E03FD071D09801AE018B01A9
:10526000EC0160E070E080E89FE3AEDE58D1980189
:10527000AE010F911F91CF91DF91AAC0990F000845
:10528000550FAA0BE0E8FEEF16161706E807F90718
:10529000C0F012161306E407F50798F0621B730BB3
:1052A000840B950B39F40A2661F0232B242B252B34
:1052B00021F408950A2609F4A140A6958FEF811DD7
:1052C000811D089597F99F6780E870E060E0089578
:1052D0009FEF80EC0895DF93CF931F930F93FF927E
:1052E000EF92DF927B018C01689405C0DA2EEF010A
:1052F0006FD0FE01E894A591259135914591559186
:10530000AEF3EF0173DEFE019701A801DA9479F79D
:10531000DF90EF90FF900F911F91CF91DF91089553
:1053200000240A9416161706180609060895002484
:105330000A9412161306140605060895092E0394FE
:10534000000C11F4882352F0BB0F40F4BF2B11F472
:1053500060FF04C06F5F7F4F8F4F9F4F089557FDD1
:105360009058440F551F59F05F3F71F04795880FD3
:1053700097FB991F61F09F3F79F08795089512166A
:1053800013061406551FF2CF4695F1DF08C0161616
:1053900017061806991FF1CF8695710561050894C7
:1053A0000895E894BB2766277727CB0197F90895DE
:1053B00065DF08F48FEF08950BD0C0CFB1DF28F080
:1053C000B6DF18F0952309F07DCF82CF1124EACF04
:1053D000C6DFA0F3959FD1F3950F50E0551F629F54
:1053E000F001729FBB27F00DB11D639FAA27F00D3E
:1053F000B11DAA1F649F6627B00DA11D661F829F65
:105400002227B00DA11D621F739FB00DA11D621F49
:10541000839FA00D611D221F749F3327A00D611D66
:10542000231F849F600D211D822F762F6A2F112448
:105430009F5750408AF0E1F088234AF0EE0FFF1F9B
:10544000BB1F661F771F881F91505040A9F79E3FD2
:10545000510570F037CFA6CF5F3FECF3983EDCF3F9
:10546000869577956795B795F795E7959F5FC1F70F
:10547000FE2B880F911D9695879597F90895FA014F
:10548000EE0FFF1F30962105310599F16115710569
:1054900061F48038BFE39B0749F168949038810537
:1054A00061F08038BFEF9B0741F0992342F5FF3F41
:1054B000E1053105210511F1E8940894E795D9013A
:1054C000AA2329F4AB2FBE2FF85FD0F310C0FF5FE3
:1054D00070F4A695E0F7F73950F019F0FF3A38F478
:1054E0009F779F930CD00F9007FC905808953EF043
:1054F000EFCE60E070E080E89FE308954FE79F778C
:105500005F934F933F932F9309D12F913F914F91E9
:105510005F9152DF4EC011F40EF4DACE91C027DF56
:10552000D0F39923D9F3CEF39F57550B87FF96D02D
:105530000024A0E640EA900180585695979528F4FB
:10554000805C660F771F881F20F0261737074807F3
:1055500030F4621B730B840B202931294A2BA6954A
:1055600017940794202531254A2758F7660F771F8F
:10557000881F20F026173707480730F4620B730B9B
:10558000840B200D311D411DA09581F7B901842F99
:105590009158880F96958795089567D020F09F378A
:1055A00008F400CF32C04CC019F40EF08BCEF9CE07
:1055B0008FCEDDDEC8F39638C0F707F80F92E89477
:1055C0002BE33AEA48EB5FE705DF0F920F920F9269
:1055D0004DB75EB70F92E2D0E8E4F2E07CDE4F9187
:1055E0005F91EF91FF91E595EE1FFF1F49F0FE5788
:1055F000E0684427EE0F441FFA95E1F74195550BFB
:1056000054D00F9007FE48C00895882371F4772383
:1056100021F09850872B762F07C0662311F4992725
:105620000DC09051862B70E060E02AF09A95660FCD
:10563000771F881FDAF7880F9695879597F9089551
:105640009F3F31F0915020F4879577956795B795F6
:10565000880F911D9695879597F908959150504020
:10566000660F771F881FD2F7089581DEA0F0BEE78E
:10567000B91788F4BB279F3860F41616B11D672F41
:10568000782F8827985FF7CF869577956795B11D16
:1056900093959639C8F308959B01AC0160E070E0E2
:1056A00080E89FE3FACC0ECECBCF61DEE8F39923FE
:1056B000D9F3940F511DBBF39150504094F059F021
:1056C000882332F0660F771F881F91505040C1F732
:1056D0009E3F510544F7880F911D9695879597F940
:1056E00008955F3FACF0983E9CF0BB278695779578
:1056F0006795B79508F4B1609395C1F7BB0F58F75C
:1057000011F460FFE8CF6F5F7F4F8F4F9F4FE3CF64
:1057100049CE0EF095CFDCCD6894D4CD28DEC8F309
:105720009923D1F3C6F3DF93CF931F930F93FF9287
:10573000C92FDD2788232AF02197660F771F881F3E
:10574000DAF720E030E040E85FEB9FE3883920F0B3
:10575000803E30F021968F7738DCE0E7F2E003C03E
:1057600034DCEDE9F2E0B7DD8B01BE01EC01FB2E8C
:105770006F5771097595771F880B990B29DD28E103
:1057800032E741E35FE324DEAF2D9801AE01FF90E5
:105790000F911F91CF91DF9129DCD0CDFA01DC016F
:1057A000AA0FBB1F9B01AC01BF5728F42227332748
:1057B000442750781FC0B75188F4AB2F002446957A
:1057C00037952795011CA395D2F3002069F0220F8D
:1057D000331F441FB395DAF30DD0F6CB613071055A
:1057E000A0E88A07B94630F49B01AC016627772709
:1057F00088279078309621F0208331834283538329
:10580000089597FB072E16F4009406D077FD08D074
:1058100060D007FC05D03EF4909581959F4F089588
:10582000709561957F4F0895A1E21A2EAA1BBB1BAC
:10583000FD010DC0AA1FBB1FEE1FFF1FA217B3075C
:10584000E407F50720F0A21BB30BE40BF50B661F72
:10585000771F881F991F1A9469F760957095809536
:1058600090959B01AC01BD01CF010895052E97FBDA
:1058700016F400940FD057FD05D0D6DF07FC02D0F8
:1058800046F408C050954095309521953F4F4F4FB5
:105890005F4F089590958095709561957F4F8F4FDC
:1058A0009F4F0895EE0FFF1F881F8BBF0790F69143
:1058B000E02D1994A29FB001B39FC001A39F700D6A
:1058C000811D1124911DB29F700D811D1124911D08
:1058D0000895AA1BBB1B51E107C0AA1FBB1FA61737
:1058E000B70710F0A61BB70B881F991F5A95A9F789
:0E58F00080959095BC01CD010895F894FFCFEE
:1058FE000A0D4D656D6F7279206572617365642155
:10590E000A0D0A0D00000A0D5465616D2C54656C6C
:10591E0065436E742C466C69676874537461746564
:10592E002C536F667453746174652C416C74697476
:10593E007564652C56656C6F636974792C4163636D
:10594E00656C2C4779726F2C4C61742C4C6F6E67A2
:10595E002C416C74694750532C4669782C4368650A
:10596E00636B2C2C436E742C566F6C74616765429E
:10597E0061742C566F6C746167655643432C546585
:10598E006D702C50726573732C416363592C416397
:10599E006359322C4779726F582C4779726F5A2C93
:1059AE004779726F592C0A0D0A0D00000A0D5265C7
:1059BE006164696E6720646F6E650A0D0A0D0000E2
:00000001FF
